{
  "_format": "hh-sol-artifact-1",
  "contractName": "PaxmataProjects",
  "sourceName": "contracts/PaxmataProjects.sol",
  "abi": [
    {
      "inputs": [],
      "stateMutability": "nonpayable",
      "type": "constructor"
    },
    {
      "anonymous": false,
      "inputs": [
        {
          "indexed": true,
          "internalType": "address",
          "name": "owner",
          "type": "address"
        },
        {
          "indexed": true,
          "internalType": "address",
          "name": "approved",
          "type": "address"
        },
        {
          "indexed": true,
          "internalType": "uint256",
          "name": "tokenId",
          "type": "uint256"
        }
      ],
      "name": "Approval",
      "type": "event"
    },
    {
      "anonymous": false,
      "inputs": [
        {
          "indexed": true,
          "internalType": "address",
          "name": "owner",
          "type": "address"
        },
        {
          "indexed": true,
          "internalType": "address",
          "name": "operator",
          "type": "address"
        },
        {
          "indexed": false,
          "internalType": "bool",
          "name": "approved",
          "type": "bool"
        }
      ],
      "name": "ApprovalForAll",
      "type": "event"
    },
    {
      "anonymous": false,
      "inputs": [
        {
          "indexed": false,
          "internalType": "uint256",
          "name": "_fromTokenId",
          "type": "uint256"
        },
        {
          "indexed": false,
          "internalType": "uint256",
          "name": "_toTokenId",
          "type": "uint256"
        }
      ],
      "name": "BatchMetadataUpdate",
      "type": "event"
    },
    {
      "anonymous": false,
      "inputs": [
        {
          "indexed": true,
          "internalType": "uint256",
          "name": "tokenId",
          "type": "uint256"
        },
        {
          "indexed": false,
          "internalType": "string",
          "name": "oldDataHash",
          "type": "string"
        },
        {
          "indexed": false,
          "internalType": "string",
          "name": "newDataHash",
          "type": "string"
        },
        {
          "indexed": false,
          "internalType": "uint256",
          "name": "timestamp",
          "type": "uint256"
        },
        {
          "indexed": false,
          "internalType": "address",
          "name": "updatedBy",
          "type": "address"
        }
      ],
      "name": "DataHashUpdated",
      "type": "event"
    },
    {
      "anonymous": false,
      "inputs": [
        {
          "indexed": false,
          "internalType": "uint256",
          "name": "_tokenId",
          "type": "uint256"
        }
      ],
      "name": "MetadataUpdate",
      "type": "event"
    },
    {
      "anonymous": false,
      "inputs": [
        {
          "indexed": true,
          "internalType": "uint256",
          "name": "tokenId",
          "type": "uint256"
        },
        {
          "indexed": false,
          "internalType": "address",
          "name": "milestoneContract",
          "type": "address"
        }
      ],
      "name": "MilestoneContractLinked",
      "type": "event"
    },
    {
      "anonymous": false,
      "inputs": [
        {
          "indexed": true,
          "internalType": "uint256",
          "name": "tokenId",
          "type": "uint256"
        },
        {
          "indexed": false,
          "internalType": "address",
          "name": "to",
          "type": "address"
        },
        {
          "indexed": false,
          "internalType": "string",
          "name": "metadataUrl",
          "type": "string"
        },
        {
          "indexed": false,
          "internalType": "string",
          "name": "initialDataHash",
          "type": "string"
        }
      ],
      "name": "Minted",
      "type": "event"
    },
    {
      "anonymous": false,
      "inputs": [
        {
          "indexed": true,
          "internalType": "bytes32",
          "name": "role",
          "type": "bytes32"
        },
        {
          "indexed": true,
          "internalType": "bytes32",
          "name": "previousAdminRole",
          "type": "bytes32"
        },
        {
          "indexed": true,
          "internalType": "bytes32",
          "name": "newAdminRole",
          "type": "bytes32"
        }
      ],
      "name": "RoleAdminChanged",
      "type": "event"
    },
    {
      "anonymous": false,
      "inputs": [
        {
          "indexed": true,
          "internalType": "bytes32",
          "name": "role",
          "type": "bytes32"
        },
        {
          "indexed": true,
          "internalType": "address",
          "name": "account",
          "type": "address"
        },
        {
          "indexed": true,
          "internalType": "address",
          "name": "sender",
          "type": "address"
        }
      ],
      "name": "RoleGranted",
      "type": "event"
    },
    {
      "anonymous": false,
      "inputs": [
        {
          "indexed": true,
          "internalType": "bytes32",
          "name": "role",
          "type": "bytes32"
        },
        {
          "indexed": true,
          "internalType": "address",
          "name": "account",
          "type": "address"
        },
        {
          "indexed": true,
          "internalType": "address",
          "name": "sender",
          "type": "address"
        }
      ],
      "name": "RoleRevoked",
      "type": "event"
    },
    {
      "anonymous": false,
      "inputs": [
        {
          "indexed": true,
          "internalType": "address",
          "name": "from",
          "type": "address"
        },
        {
          "indexed": true,
          "internalType": "address",
          "name": "to",
          "type": "address"
        },
        {
          "indexed": true,
          "internalType": "uint256",
          "name": "tokenId",
          "type": "uint256"
        }
      ],
      "name": "Transfer",
      "type": "event"
    },
    {
      "inputs": [],
      "name": "DEFAULT_ADMIN_ROLE",
      "outputs": [
        {
          "internalType": "bytes32",
          "name": "",
          "type": "bytes32"
        }
      ],
      "stateMutability": "view",
      "type": "function"
    },
    {
      "inputs": [],
      "name": "MINTER_ROLE",
      "outputs": [
        {
          "internalType": "bytes32",
          "name": "",
          "type": "bytes32"
        }
      ],
      "stateMutability": "view",
      "type": "function"
    },
    {
      "inputs": [
        {
          "internalType": "address",
          "name": "to",
          "type": "address"
        },
        {
          "internalType": "uint256",
          "name": "tokenId",
          "type": "uint256"
        }
      ],
      "name": "approve",
      "outputs": [],
      "stateMutability": "nonpayable",
      "type": "function"
    },
    {
      "inputs": [
        {
          "internalType": "address",
          "name": "owner",
          "type": "address"
        }
      ],
      "name": "balanceOf",
      "outputs": [
        {
          "internalType": "uint256",
          "name": "",
          "type": "uint256"
        }
      ],
      "stateMutability": "view",
      "type": "function"
    },
    {
      "inputs": [
        {
          "internalType": "uint256",
          "name": "tokenId",
          "type": "uint256"
        }
      ],
      "name": "getApproved",
      "outputs": [
        {
          "internalType": "address",
          "name": "",
          "type": "address"
        }
      ],
      "stateMutability": "view",
      "type": "function"
    },
    {
      "inputs": [
        {
          "internalType": "uint256",
          "name": "tokenId",
          "type": "uint256"
        }
      ],
      "name": "getDataHash",
      "outputs": [
        {
          "internalType": "string",
          "name": "",
          "type": "string"
        }
      ],
      "stateMutability": "view",
      "type": "function"
    },
    {
      "inputs": [
        {
          "internalType": "uint256",
          "name": "tokenId",
          "type": "uint256"
        }
      ],
      "name": "getMilestoneContract",
      "outputs": [
        {
          "internalType": "address",
          "name": "",
          "type": "address"
        }
      ],
      "stateMutability": "view",
      "type": "function"
    },
    {
      "inputs": [
        {
          "internalType": "bytes32",
          "name": "role",
          "type": "bytes32"
        }
      ],
      "name": "getRoleAdmin",
      "outputs": [
        {
          "internalType": "bytes32",
          "name": "",
          "type": "bytes32"
        }
      ],
      "stateMutability": "view",
      "type": "function"
    },
    {
      "inputs": [
        {
          "internalType": "address",
          "name": "owner",
          "type": "address"
        }
      ],
      "name": "getTokenIdsOwnedBy",
      "outputs": [
        {
          "internalType": "uint256[]",
          "name": "",
          "type": "uint256[]"
        }
      ],
      "stateMutability": "view",
      "type": "function"
    },
    {
      "inputs": [
        {
          "internalType": "bytes32",
          "name": "role",
          "type": "bytes32"
        },
        {
          "internalType": "address",
          "name": "account",
          "type": "address"
        }
      ],
      "name": "grantRole",
      "outputs": [],
      "stateMutability": "nonpayable",
      "type": "function"
    },
    {
      "inputs": [
        {
          "internalType": "bytes32",
          "name": "role",
          "type": "bytes32"
        },
        {
          "internalType": "address",
          "name": "account",
          "type": "address"
        }
      ],
      "name": "hasRole",
      "outputs": [
        {
          "internalType": "bool",
          "name": "",
          "type": "bool"
        }
      ],
      "stateMutability": "view",
      "type": "function"
    },
    {
      "inputs": [
        {
          "internalType": "address",
          "name": "owner",
          "type": "address"
        },
        {
          "internalType": "address",
          "name": "operator",
          "type": "address"
        }
      ],
      "name": "isApprovedForAll",
      "outputs": [
        {
          "internalType": "bool",
          "name": "",
          "type": "bool"
        }
      ],
      "stateMutability": "view",
      "type": "function"
    },
    {
      "inputs": [
        {
          "internalType": "uint256",
          "name": "tokenId",
          "type": "uint256"
        },
        {
          "internalType": "address",
          "name": "milestoneContract",
          "type": "address"
        }
      ],
      "name": "linkMilestoneContract",
      "outputs": [],
      "stateMutability": "nonpayable",
      "type": "function"
    },
    {
      "inputs": [
        {
          "internalType": "uint256",
          "name": "",
          "type": "uint256"
        }
      ],
      "name": "milestoneContracts",
      "outputs": [
        {
          "internalType": "address",
          "name": "",
          "type": "address"
        }
      ],
      "stateMutability": "view",
      "type": "function"
    },
    {
      "inputs": [],
      "name": "name",
      "outputs": [
        {
          "internalType": "string",
          "name": "",
          "type": "string"
        }
      ],
      "stateMutability": "view",
      "type": "function"
    },
    {
      "inputs": [
        {
          "internalType": "uint256",
          "name": "tokenId",
          "type": "uint256"
        }
      ],
      "name": "ownerOf",
      "outputs": [
        {
          "internalType": "address",
          "name": "",
          "type": "address"
        }
      ],
      "stateMutability": "view",
      "type": "function"
    },
    {
      "inputs": [
        {
          "internalType": "bytes32",
          "name": "role",
          "type": "bytes32"
        },
        {
          "internalType": "address",
          "name": "account",
          "type": "address"
        }
      ],
      "name": "renounceRole",
      "outputs": [],
      "stateMutability": "nonpayable",
      "type": "function"
    },
    {
      "inputs": [
        {
          "internalType": "bytes32",
          "name": "role",
          "type": "bytes32"
        },
        {
          "internalType": "address",
          "name": "account",
          "type": "address"
        }
      ],
      "name": "revokeRole",
      "outputs": [],
      "stateMutability": "nonpayable",
      "type": "function"
    },
    {
      "inputs": [
        {
          "internalType": "address",
          "name": "to",
          "type": "address"
        },
        {
          "internalType": "string",
          "name": "metadataUrl",
          "type": "string"
        },
        {
          "internalType": "string",
          "name": "initialDataHash",
          "type": "string"
        }
      ],
      "name": "safeMint",
      "outputs": [],
      "stateMutability": "nonpayable",
      "type": "function"
    },
    {
      "inputs": [
        {
          "internalType": "address",
          "name": "from",
          "type": "address"
        },
        {
          "internalType": "address",
          "name": "to",
          "type": "address"
        },
        {
          "internalType": "uint256",
          "name": "tokenId",
          "type": "uint256"
        }
      ],
      "name": "safeTransferFrom",
      "outputs": [],
      "stateMutability": "nonpayable",
      "type": "function"
    },
    {
      "inputs": [
        {
          "internalType": "address",
          "name": "from",
          "type": "address"
        },
        {
          "internalType": "address",
          "name": "to",
          "type": "address"
        },
        {
          "internalType": "uint256",
          "name": "tokenId",
          "type": "uint256"
        },
        {
          "internalType": "bytes",
          "name": "data",
          "type": "bytes"
        }
      ],
      "name": "safeTransferFrom",
      "outputs": [],
      "stateMutability": "nonpayable",
      "type": "function"
    },
    {
      "inputs": [
        {
          "internalType": "address",
          "name": "operator",
          "type": "address"
        },
        {
          "internalType": "bool",
          "name": "approved",
          "type": "bool"
        }
      ],
      "name": "setApprovalForAll",
      "outputs": [],
      "stateMutability": "nonpayable",
      "type": "function"
    },
    {
      "inputs": [
        {
          "internalType": "bytes4",
          "name": "interfaceId",
          "type": "bytes4"
        }
      ],
      "name": "supportsInterface",
      "outputs": [
        {
          "internalType": "bool",
          "name": "",
          "type": "bool"
        }
      ],
      "stateMutability": "view",
      "type": "function"
    },
    {
      "inputs": [],
      "name": "symbol",
      "outputs": [
        {
          "internalType": "string",
          "name": "",
          "type": "string"
        }
      ],
      "stateMutability": "view",
      "type": "function"
    },
    {
      "inputs": [
        {
          "internalType": "uint256",
          "name": "index",
          "type": "uint256"
        }
      ],
      "name": "tokenByIndex",
      "outputs": [
        {
          "internalType": "uint256",
          "name": "",
          "type": "uint256"
        }
      ],
      "stateMutability": "view",
      "type": "function"
    },
    {
      "inputs": [
        {
          "internalType": "address",
          "name": "owner",
          "type": "address"
        },
        {
          "internalType": "uint256",
          "name": "index",
          "type": "uint256"
        }
      ],
      "name": "tokenOfOwnerByIndex",
      "outputs": [
        {
          "internalType": "uint256",
          "name": "",
          "type": "uint256"
        }
      ],
      "stateMutability": "view",
      "type": "function"
    },
    {
      "inputs": [
        {
          "internalType": "uint256",
          "name": "tokenId",
          "type": "uint256"
        }
      ],
      "name": "tokenURI",
      "outputs": [
        {
          "internalType": "string",
          "name": "",
          "type": "string"
        }
      ],
      "stateMutability": "view",
      "type": "function"
    },
    {
      "inputs": [],
      "name": "totalSupply",
      "outputs": [
        {
          "internalType": "uint256",
          "name": "",
          "type": "uint256"
        }
      ],
      "stateMutability": "view",
      "type": "function"
    },
    {
      "inputs": [
        {
          "internalType": "address",
          "name": "from",
          "type": "address"
        },
        {
          "internalType": "address",
          "name": "to",
          "type": "address"
        },
        {
          "internalType": "uint256",
          "name": "tokenId",
          "type": "uint256"
        }
      ],
      "name": "transferFrom",
      "outputs": [],
      "stateMutability": "nonpayable",
      "type": "function"
    },
    {
      "inputs": [
        {
          "internalType": "uint256",
          "name": "tokenId",
          "type": "uint256"
        },
        {
          "internalType": "string",
          "name": "newDataHash",
          "type": "string"
        }
      ],
      "name": "updateDataHash",
      "outputs": [],
      "stateMutability": "nonpayable",
      "type": "function"
    }
  ],
  "bytecode": "0x60806040523480156200001157600080fd5b506040518060400160405280600f81526020016e5061786d61746150726f6a6563747360881b8152506040518060400160405280600681526020016505041584d41560d41b81525081600090816200006a919062000207565b50600162000079828262000207565b506200008b91506000905033620000bd565b620000b77f9f2df0fed2c77648de5860a4cc508cd0818c85b8b8a1ab4ceeef8d981c8956a633620000bd565b620002d3565b6000828152600b602090815260408083206001600160a01b038516845290915290205460ff166200015e576000828152600b602090815260408083206001600160a01b03851684529091529020805460ff191660011790556200011d3390565b6001600160a01b0316816001600160a01b0316837f2f8788117e7eff1d82e926ec794901d17c78024a50270940304540a733656f0d60405160405180910390a45b5050565b634e487b7160e01b600052604160045260246000fd5b600181811c908216806200018d57607f821691505b602082108103620001ae57634e487b7160e01b600052602260045260246000fd5b50919050565b601f8211156200020257600081815260208120601f850160051c81016020861015620001dd5750805b601f850160051c820191505b81811015620001fe57828155600101620001e9565b5050505b505050565b81516001600160401b0381111562000223576200022362000162565b6200023b8162000234845462000178565b84620001b4565b602080601f8311600181146200027357600084156200025a5750858301515b600019600386901b1c1916600185901b178555620001fe565b600085815260208120601f198616915b82811015620002a45788860151825594840194600190910190840162000283565b5085821015620002c35787850151600019600388901b60f8161c191681555b5050505050600190811b01905550565b61289280620002e36000396000f3fe608060405234801561001057600080fd5b50600436106101da5760003560e01c806370a0823111610104578063a5c0ba0d116100a2578063d547741f11610071578063d547741f14610432578063e985e9c514610445578063eca81d4214610481578063ecc26c811461049457600080fd5b8063a5c0ba0d146103ce578063b88d4fde146103f7578063c87b56dd1461040a578063d53913931461041d57600080fd5b806395d89b41116100de57806395d89b4114610398578063a217fddf146103a0578063a22cb465146103a8578063a595d8fc146103bb57600080fd5b806370a08231146103495780638d3e3f761461035c57806391d148541461038557600080fd5b80632f2ff15d1161017c57806342842e0e1161014b57806342842e0e146102f05780634f6ccce71461030357806363318f85146103165780636352211e1461033657600080fd5b80632f2ff15d146102a45780632f745c59146102b757806332f98a73146102ca57806336568abe146102dd57600080fd5b8063095ea7b3116101b8578063095ea7b31461024757806318160ddd1461025c57806323b872dd1461026e578063248a9ca31461028157600080fd5b806301ffc9a7146101df57806306fdde0314610207578063081812fc1461021c575b600080fd5b6101f26101ed366004611ff7565b6104a7565b60405190151581526020015b60405180910390f35b61020f6104b8565b6040516101fe9190612064565b61022f61022a366004612077565b61054a565b6040516001600160a01b0390911681526020016101fe565b61025a6102553660046120ac565b610571565b005b6009545b6040519081526020016101fe565b61025a61027c3660046120d6565b61068b565b61026061028f366004612077565b6000908152600b602052604090206001015490565b61025a6102b2366004612112565b6106bc565b6102606102c53660046120ac565b6106e1565b61025a6102d83660046121ea565b610777565b61025a6102eb366004612112565b610942565b61025a6102fe3660046120d6565b6109c0565b610260610311366004612077565b6109db565b610329610324366004612231565b610a6e565b6040516101fe919061224c565b61022f610344366004612077565b610b10565b610260610357366004612231565b610b70565b61022f61036a366004612077565b600e602052600090815260409020546001600160a01b031681565b6101f2610393366004612112565b610bf6565b61020f610c21565b610260600081565b61025a6103b6366004612290565b610c30565b61020f6103c9366004612077565b610c3b565b61022f6103dc366004612077565b6000908152600e60205260409020546001600160a01b031690565b61025a6104053660046122cc565b610d30565b61020f610418366004612077565b610d68565b61026060008051602061283d83398151915281565b61025a610440366004612112565b610d73565b6101f2610453366004612348565b6001600160a01b03918216600090815260056020908152604080832093909416825291909152205460ff1690565b61025a61048f366004612372565b610d98565b61025a6104a2366004612112565b610e3b565b60006104b282610f19565b92915050565b6060600080546104c7906123e6565b80601f01602080910402602001604051908101604052809291908181526020018280546104f3906123e6565b80156105405780601f1061051557610100808354040283529160200191610540565b820191906000526020600020905b81548152906001019060200180831161052357829003601f168201915b5050505050905090565b600061055582610f3e565b506000908152600460205260409020546001600160a01b031690565b600061057c82610b10565b9050806001600160a01b0316836001600160a01b0316036105ee5760405162461bcd60e51b815260206004820152602160248201527f4552433732313a20617070726f76616c20746f2063757272656e74206f776e656044820152603960f91b60648201526084015b60405180910390fd5b336001600160a01b038216148061060a575061060a8133610453565b61067c5760405162461bcd60e51b815260206004820152603d60248201527f4552433732313a20617070726f76652063616c6c6572206973206e6f7420746f60448201527f6b656e206f776e6572206f7220617070726f76656420666f7220616c6c00000060648201526084016105e5565b6106868383610f91565b505050565b6106953382610fff565b6106b15760405162461bcd60e51b81526004016105e590612420565b61068683838361107e565b6000828152600b60205260409020600101546106d7816111ef565b61068683836111f9565b60006106ec83610b70565b821061074e5760405162461bcd60e51b815260206004820152602b60248201527f455243373231456e756d657261626c653a206f776e657220696e646578206f7560448201526a74206f6620626f756e647360a81b60648201526084016105e5565b506001600160a01b03919091166000908152600760209081526040808320938352929052205490565b61078f60008051602061283d83398151915233610bf6565b8061079957503033145b6107f55760405162461bcd60e51b815260206004820152602760248201527f43616c6c6572206973206e6f7420617574686f72697a656420746f20757064616044820152660e8ca40d0c2e6d60cb1b60648201526084016105e5565b6107fe8261127f565b61084a5760405162461bcd60e51b815260206004820152601b60248201527f517565727920666f72206e6f6e6578697374656e7420746f6b656e000000000060448201526064016105e5565b6000828152600d602052604081208054610863906123e6565b80601f016020809104026020016040519081016040528092919081815260200182805461088f906123e6565b80156108dc5780601f106108b1576101008083540402835291602001916108dc565b820191906000526020600020905b8154815290600101906020018083116108bf57829003601f168201915b5050506000868152600d602052604090209293506108fe9150849050826124bb565b50827f52149db158459687e0c7467ac79b12004342627e85435ec9e552c577450e5d4182844233604051610935949392919061257b565b60405180910390a2505050565b6001600160a01b03811633146109b25760405162461bcd60e51b815260206004820152602f60248201527f416363657373436f6e74726f6c3a2063616e206f6e6c792072656e6f756e636560448201526e103937b632b9903337b91039b2b63360891b60648201526084016105e5565b6109bc828261129c565b5050565b61068683838360405180602001604052806000815250610d30565b60006109e660095490565b8210610a495760405162461bcd60e51b815260206004820152602c60248201527f455243373231456e756d657261626c653a20676c6f62616c20696e646578206f60448201526b7574206f6620626f756e647360a01b60648201526084016105e5565b60098281548110610a5c57610a5c6125c2565b90600052602060002001549050919050565b60606000610a7b83610b70565b905060008167ffffffffffffffff811115610a9857610a9861213e565b604051908082528060200260200182016040528015610ac1578160200160208202803683370190505b50905060005b82811015610b0857610ad985826106e1565b828281518110610aeb57610aeb6125c2565b602090810291909101015280610b00816125ee565b915050610ac7565b509392505050565b6000818152600260205260408120546001600160a01b0316806104b25760405162461bcd60e51b8152602060048201526018602482015277115490cdcc8c4e881a5b9d985b1a59081d1bdad95b88125160421b60448201526064016105e5565b60006001600160a01b038216610bda5760405162461bcd60e51b815260206004820152602960248201527f4552433732313a2061646472657373207a65726f206973206e6f7420612076616044820152683634b21037bbb732b960b91b60648201526084016105e5565b506001600160a01b031660009081526003602052604090205490565b6000918252600b602090815260408084206001600160a01b0393909316845291905290205460ff1690565b6060600180546104c7906123e6565b6109bc338383611303565b6060610c468261127f565b610c925760405162461bcd60e51b815260206004820152601b60248201527f517565727920666f72206e6f6e6578697374656e7420746f6b656e000000000060448201526064016105e5565b6000828152600d602052604090208054610cab906123e6565b80601f0160208091040260200160405190810160405280929190818152602001828054610cd7906123e6565b8015610d245780601f10610cf957610100808354040283529160200191610d24565b820191906000526020600020905b815481529060010190602001808311610d0757829003601f168201915b50505050509050919050565b610d3a3383610fff565b610d565760405162461bcd60e51b81526004016105e590612420565b610d62848484846113d1565b50505050565b60606104b282611404565b6000828152600b6020526040902060010154610d8e816111ef565b610686838361129c565b60008051602061283d833981519152610db0816111ef565b6000610dbb600c5490565b9050610dcb600c80546001019055565b610dd5858261150c565b610ddf8185611526565b6000818152600d60205260409020610df784826124bb565b50807f344b8096049e80d0e4181d0b8b456e292096fa0cfa594c1065266065d9166b3b868686604051610e2c93929190612607565b60405180910390a25050505050565b60008051602061283d833981519152610e53816111ef565b610e5c8361127f565b610ebc5760405162461bcd60e51b815260206004820152602b60248201527f4552433732313a204d696c6573746f6e65206c696e6b20746f206e6f6e65786960448201526a39ba32b73a103a37b5b2b760a91b60648201526084016105e5565b6000838152600e602090815260409182902080546001600160a01b0319166001600160a01b038616908117909155915191825284917fbd7c82a644461e64c70d023b3751cff54aa5278b487e20ce992934c2ac1ce3369101610935565b60006001600160e01b03198216637965db0b60e01b14806104b257506104b2826115e2565b610f478161127f565b610f8e5760405162461bcd60e51b8152602060048201526018602482015277115490cdcc8c4e881a5b9d985b1a59081d1bdad95b88125160421b60448201526064016105e5565b50565b600081815260046020526040902080546001600160a01b0319166001600160a01b0384169081179091558190610fc682610b10565b6001600160a01b03167f8c5be1e5ebec7d5bd14f71427d1e84f3dd0314c0f7b2291e5b200ac8c7c3b92560405160405180910390a45050565b60008061100b83610b10565b9050806001600160a01b0316846001600160a01b0316148061105257506001600160a01b0380821660009081526005602090815260408083209388168352929052205460ff165b806110765750836001600160a01b031661106b8461054a565b6001600160a01b0316145b949350505050565b826001600160a01b031661109182610b10565b6001600160a01b0316146110b75760405162461bcd60e51b81526004016105e590612647565b6001600160a01b0382166111195760405162461bcd60e51b8152602060048201526024808201527f4552433732313a207472616e7366657220746f20746865207a65726f206164646044820152637265737360e01b60648201526084016105e5565b6111268383836001611607565b826001600160a01b031661113982610b10565b6001600160a01b03161461115f5760405162461bcd60e51b81526004016105e590612647565b600081815260046020908152604080832080546001600160a01b03199081169091556001600160a01b0387811680865260038552838620805460001901905590871680865283862080546001019055868652600290945282852080549092168417909155905184937fddf252ad1be2c89b69c2b068fc378daa952ba7f163c4a11628f55a4df523b3ef91a4505050565b610f8e8133611613565b6112038282610bf6565b6109bc576000828152600b602090815260408083206001600160a01b03851684529091529020805460ff1916600117905561123b3390565b6001600160a01b0316816001600160a01b0316837f2f8788117e7eff1d82e926ec794901d17c78024a50270940304540a733656f0d60405160405180910390a45050565b6000908152600260205260409020546001600160a01b0316151590565b6112a68282610bf6565b156109bc576000828152600b602090815260408083206001600160a01b0385168085529252808320805460ff1916905551339285917ff6391f5c32d9c69d2a47ea670b442974b53935d1edc7fd64eb21e047a839171b9190a45050565b816001600160a01b0316836001600160a01b0316036113645760405162461bcd60e51b815260206004820152601960248201527f4552433732313a20617070726f766520746f2063616c6c65720000000000000060448201526064016105e5565b6001600160a01b03838116600081815260056020908152604080832094871680845294825291829020805460ff191686151590811790915591519182527f17307eab39ab6107e8899845ad3d59bd9653f200f220920489ca2b5937696c31910160405180910390a3505050565b6113dc84848461107e565b6113e88484848461166c565b610d625760405162461bcd60e51b81526004016105e59061268c565b606061140f82610f3e565b60008281526006602052604081208054611428906123e6565b80601f0160208091040260200160405190810160405280929190818152602001828054611454906123e6565b80156114a15780601f10611476576101008083540402835291602001916114a1565b820191906000526020600020905b81548152906001019060200180831161148457829003601f168201915b5050505050905060006114bf60408051602081019091526000815290565b905080516000036114d1575092915050565b8151156115035780826040516020016114eb9291906126de565b60405160208183030381529060405292505050919050565b6110768461176d565b6109bc8282604051806020016040528060008152506117e1565b61152f8261127f565b6115925760405162461bcd60e51b815260206004820152602e60248201527f45524337323155524953746f726167653a2055524920736574206f66206e6f6e60448201526d32bc34b9ba32b73a103a37b5b2b760911b60648201526084016105e5565b60008281526006602052604090206115aa82826124bb565b506040518281527ff8e1a15aba9398e019f0b49df1a4fde98ee17ae345cb5f6b5e2c27f5033e8ce79060200160405180910390a15050565b60006001600160e01b0319821663780e9d6360e01b14806104b257506104b282611814565b610d6284848484611839565b61161d8282610bf6565b6109bc5761162a8161196d565b61163583602061197f565b60405160200161164692919061270d565b60408051601f198184030181529082905262461bcd60e51b82526105e591600401612064565b60006001600160a01b0384163b1561176257604051630a85bd0160e11b81526001600160a01b0385169063150b7a02906116b0903390899088908890600401612782565b6020604051808303816000875af19250505080156116eb575060408051601f3d908101601f191682019092526116e8918101906127b5565b60015b611748573d808015611719576040519150601f19603f3d011682016040523d82523d6000602084013e61171e565b606091505b5080516000036117405760405162461bcd60e51b81526004016105e59061268c565b805181602001fd5b6001600160e01b031916630a85bd0160e11b149050611076565b506001949350505050565b606061177882610f3e565b600061178f60408051602081019091526000815290565b905060008151116117af57604051806020016040528060008152506117da565b806117b984611b1b565b6040516020016117ca9291906126de565b6040516020818303038152906040525b9392505050565b6117eb8383611bae565b6117f8600084848461166c565b6106865760405162461bcd60e51b81526004016105e59061268c565b60006001600160e01b03198216632483248360e11b14806104b257506104b282611d29565b60018111156118a85760405162461bcd60e51b815260206004820152603560248201527f455243373231456e756d657261626c653a20636f6e7365637574697665207472604482015274185b9cd9995c9cc81b9bdd081cdd5c1c1bdc9d1959605a1b60648201526084016105e5565b816001600160a01b038516611904576118ff81600980546000838152600a60205260408120829055600182018355919091527f6e1540171b6c0c960b71a7020d9f60077f6af931a8bbf590da0223dacf75c7af0155565b611927565b836001600160a01b0316856001600160a01b031614611927576119278582611d79565b6001600160a01b0384166119435761193e81611e16565b611966565b846001600160a01b0316846001600160a01b031614611966576119668482611ec5565b5050505050565b60606104b26001600160a01b03831660145b6060600061198e8360026127d2565b6119999060026127e9565b67ffffffffffffffff8111156119b1576119b161213e565b6040519080825280601f01601f1916602001820160405280156119db576020820181803683370190505b509050600360fc1b816000815181106119f6576119f66125c2565b60200101906001600160f81b031916908160001a905350600f60fb1b81600181518110611a2557611a256125c2565b60200101906001600160f81b031916908160001a9053506000611a498460026127d2565b611a549060016127e9565b90505b6001811115611acc576f181899199a1a9b1b9c1cb0b131b232b360811b85600f1660108110611a8857611a886125c2565b1a60f81b828281518110611a9e57611a9e6125c2565b60200101906001600160f81b031916908160001a90535060049490941c93611ac5816127fc565b9050611a57565b5083156117da5760405162461bcd60e51b815260206004820181905260248201527f537472696e67733a20686578206c656e67746820696e73756666696369656e7460448201526064016105e5565b60606000611b2883611f09565b600101905060008167ffffffffffffffff811115611b4857611b4861213e565b6040519080825280601f01601f191660200182016040528015611b72576020820181803683370190505b5090508181016020015b600019016f181899199a1a9b1b9c1cb0b131b232b360811b600a86061a8153600a8504945084611b7c57509392505050565b6001600160a01b038216611c045760405162461bcd60e51b815260206004820181905260248201527f4552433732313a206d696e7420746f20746865207a65726f206164647265737360448201526064016105e5565b611c0d8161127f565b15611c5a5760405162461bcd60e51b815260206004820152601c60248201527f4552433732313a20746f6b656e20616c7265616479206d696e7465640000000060448201526064016105e5565b611c68600083836001611607565b611c718161127f565b15611cbe5760405162461bcd60e51b815260206004820152601c60248201527f4552433732313a20746f6b656e20616c7265616479206d696e7465640000000060448201526064016105e5565b6001600160a01b038216600081815260036020908152604080832080546001019055848352600290915280822080546001600160a01b0319168417905551839291907fddf252ad1be2c89b69c2b068fc378daa952ba7f163c4a11628f55a4df523b3ef908290a45050565b60006001600160e01b031982166380ac58cd60e01b1480611d5a57506001600160e01b03198216635b5e139f60e01b145b806104b257506301ffc9a760e01b6001600160e01b03198316146104b2565b60006001611d8684610b70565b611d909190612813565b600083815260086020526040902054909150808214611de3576001600160a01b03841660009081526007602090815260408083208584528252808320548484528184208190558352600890915290208190555b5060009182526008602090815260408084208490556001600160a01b039094168352600781528383209183525290812055565b600954600090611e2890600190612813565b6000838152600a602052604081205460098054939450909284908110611e5057611e506125c2565b906000526020600020015490508060098381548110611e7157611e716125c2565b6000918252602080832090910192909255828152600a90915260408082208490558582528120556009805480611ea957611ea9612826565b6001900381819060005260206000200160009055905550505050565b6000611ed083610b70565b6001600160a01b039093166000908152600760209081526040808320868452825280832085905593825260089052919091209190915550565b60008072184f03e93ff9f4daa797ed6e38ed64bf6a1f0160401b8310611f485772184f03e93ff9f4daa797ed6e38ed64bf6a1f0160401b830492506040015b6d04ee2d6d415b85acef81000000008310611f74576d04ee2d6d415b85acef8100000000830492506020015b662386f26fc100008310611f9257662386f26fc10000830492506010015b6305f5e1008310611faa576305f5e100830492506008015b6127108310611fbe57612710830492506004015b60648310611fd0576064830492506002015b600a83106104b25760010192915050565b6001600160e01b031981168114610f8e57600080fd5b60006020828403121561200957600080fd5b81356117da81611fe1565b60005b8381101561202f578181015183820152602001612017565b50506000910152565b60008151808452612050816020860160208601612014565b601f01601f19169290920160200192915050565b6020815260006117da6020830184612038565b60006020828403121561208957600080fd5b5035919050565b80356001600160a01b03811681146120a757600080fd5b919050565b600080604083850312156120bf57600080fd5b6120c883612090565b946020939093013593505050565b6000806000606084860312156120eb57600080fd5b6120f484612090565b925061210260208501612090565b9150604084013590509250925092565b6000806040838503121561212557600080fd5b8235915061213560208401612090565b90509250929050565b634e487b7160e01b600052604160045260246000fd5b600067ffffffffffffffff8084111561216f5761216f61213e565b604051601f8501601f19908116603f011681019082821181831017156121975761219761213e565b816040528093508581528686860111156121b057600080fd5b858560208301376000602087830101525050509392505050565b600082601f8301126121db57600080fd5b6117da83833560208501612154565b600080604083850312156121fd57600080fd5b82359150602083013567ffffffffffffffff81111561221b57600080fd5b612227858286016121ca565b9150509250929050565b60006020828403121561224357600080fd5b6117da82612090565b6020808252825182820181905260009190848201906040850190845b8181101561228457835183529284019291840191600101612268565b50909695505050505050565b600080604083850312156122a357600080fd5b6122ac83612090565b9150602083013580151581146122c157600080fd5b809150509250929050565b600080600080608085870312156122e257600080fd5b6122eb85612090565b93506122f960208601612090565b925060408501359150606085013567ffffffffffffffff81111561231c57600080fd5b8501601f8101871361232d57600080fd5b61233c87823560208401612154565b91505092959194509250565b6000806040838503121561235b57600080fd5b61236483612090565b915061213560208401612090565b60008060006060848603121561238757600080fd5b61239084612090565b9250602084013567ffffffffffffffff808211156123ad57600080fd5b6123b9878388016121ca565b935060408601359150808211156123cf57600080fd5b506123dc868287016121ca565b9150509250925092565b600181811c908216806123fa57607f821691505b60208210810361241a57634e487b7160e01b600052602260045260246000fd5b50919050565b6020808252602d908201527f4552433732313a2063616c6c6572206973206e6f7420746f6b656e206f776e6560408201526c1c881bdc88185c1c1c9bdd9959609a1b606082015260800190565b601f82111561068657600081815260208120601f850160051c810160208610156124945750805b601f850160051c820191505b818110156124b3578281556001016124a0565b505050505050565b815167ffffffffffffffff8111156124d5576124d561213e565b6124e9816124e384546123e6565b8461246d565b602080601f83116001811461251e57600084156125065750858301515b600019600386901b1c1916600185901b1785556124b3565b600085815260208120601f198616915b8281101561254d5788860151825594840194600190910190840161252e565b508582101561256b5787850151600019600388901b60f8161c191681555b5050505050600190811b01905550565b60808152600061258e6080830187612038565b82810360208401526125a08187612038565b604084019590955250506001600160a01b039190911660609091015292915050565b634e487b7160e01b600052603260045260246000fd5b634e487b7160e01b600052601160045260246000fd5b600060018201612600576126006125d8565b5060010190565b6001600160a01b038416815260606020820181905260009061262b90830185612038565b828103604084015261263d8185612038565b9695505050505050565b60208082526025908201527f4552433732313a207472616e736665722066726f6d20696e636f72726563742060408201526437bbb732b960d91b606082015260800190565b60208082526032908201527f4552433732313a207472616e7366657220746f206e6f6e20455243373231526560408201527131b2b4bb32b91034b6b83632b6b2b73a32b960711b606082015260800190565b600083516126f0818460208801612014565b835190830190612704818360208801612014565b01949350505050565b7f416363657373436f6e74726f6c3a206163636f756e7420000000000000000000815260008351612745816017850160208801612014565b7001034b99036b4b9b9b4b733903937b6329607d1b6017918401918201528351612776816028840160208801612014565b01602801949350505050565b6001600160a01b038581168252841660208201526040810183905260806060820181905260009061263d90830184612038565b6000602082840312156127c757600080fd5b81516117da81611fe1565b80820281158282048414176104b2576104b26125d8565b808201808211156104b2576104b26125d8565b60008161280b5761280b6125d8565b506000190190565b818103818111156104b2576104b26125d8565b634e487b7160e01b600052603160045260246000fdfe9f2df0fed2c77648de5860a4cc508cd0818c85b8b8a1ab4ceeef8d981c8956a6a2646970667358221220924271f110666a32274163ebe27b5cad60da9c7e1227a92525a131fbccffa12364736f6c63430008140033",
  "linkReferences": {},
  "deployedLinkReferences": {}
}