{"contracts/MilestoneTrackerFactory.sol":{"MilestoneTrackerFactory":{"abi":[{"inputs":[],"stateMutability":"nonpayable","type":"constructor"},{"anonymous":false,"inputs":[{"indexed":true,"internalType":"uint256","name":"milestoneId","type":"uint256"},{"indexed":false,"internalType":"address","name":"milestoneAddress","type":"address"},{"indexed":false,"internalType":"string","name":"description","type":"string"},{"indexed":false,"internalType":"uint256","name":"deadline","type":"uint256"},{"indexed":false,"internalType":"string","name":"evidenceUrl","type":"string"}],"name":"MilestoneAdded","type":"event"},{"anonymous":false,"inputs":[{"indexed":true,"internalType":"uint256","name":"milestoneId","type":"uint256"},{"indexed":false,"internalType":"uint256","name":"timestamp","type":"uint256"}],"name":"MilestoneCompleted","type":"event"},{"anonymous":false,"inputs":[{"indexed":false,"internalType":"uint256","name":"count","type":"uint256"}],"name":"MilestoneCountRetrieved","type":"event"},{"anonymous":false,"inputs":[{"indexed":true,"internalType":"uint256","name":"milestoneId","type":"uint256"}],"name":"MilestoneExpired","type":"event"},{"anonymous":false,"inputs":[{"indexed":true,"internalType":"uint256","name":"milestoneId","type":"uint256"},{"indexed":false,"internalType":"bool","name":"verified","type":"bool"},{"indexed":false,"internalType":"string","name":"verifierComment","type":"string"}],"name":"MilestoneVerified","type":"event"},{"anonymous":false,"inputs":[{"indexed":false,"internalType":"uint256[]","name":"milestoneIds","type":"uint256[]"},{"indexed":false,"internalType":"address[]","name":"milestoneAddresses","type":"address[]"},{"indexed":false,"internalType":"string[]","name":"descriptions","type":"string[]"},{"indexed":false,"internalType":"uint256[]","name":"deadlines","type":"uint256[]"},{"indexed":false,"internalType":"string[]","name":"evidenceUrls","type":"string[]"}],"name":"MilestonesAdded","type":"event"},{"inputs":[{"internalType":"string[]","name":"descriptions","type":"string[]"},{"internalType":"uint256[]","name":"deadlines","type":"uint256[]"},{"internalType":"string[]","name":"evidenceUrls","type":"string[]"}],"name":"addMilestones","outputs":[],"stateMutability":"nonpayable","type":"function"},{"inputs":[],"name":"checkExpiredMilestones","outputs":[],"stateMutability":"nonpayable","type":"function"},{"inputs":[{"internalType":"uint256","name":"milestoneId","type":"uint256"}],"name":"completeMilestone","outputs":[],"stateMutability":"nonpayable","type":"function"},{"inputs":[{"internalType":"uint256","name":"index","type":"uint256"}],"name":"getMilestone","outputs":[{"internalType":"string","name":"description","type":"string"},{"internalType":"bool","name":"isCompleted","type":"bool"},{"internalType":"bool","name":"isVerified","type":"bool"},{"internalType":"uint256","name":"completionTimestamp","type":"uint256"},{"internalType":"uint256","name":"deadline","type":"uint256"},{"internalType":"string","name":"evidenceUrl","type":"string"}],"stateMutability":"view","type":"function"},{"inputs":[],"name":"getMilestoneCount","outputs":[{"internalType":"uint256","name":"count","type":"uint256"}],"stateMutability":"view","type":"function"},{"inputs":[{"internalType":"uint256","name":"","type":"uint256"}],"name":"milestones","outputs":[{"internalType":"string","name":"description","type":"string"},{"internalType":"bool","name":"isCompleted","type":"bool"},{"internalType":"bool","name":"isVerified","type":"bool"},{"internalType":"uint256","name":"completionTimestamp","type":"uint256"},{"internalType":"uint256","name":"deadline","type":"uint256"},{"internalType":"string","name":"evidenceUrl","type":"string"}],"stateMutability":"view","type":"function"},{"inputs":[{"internalType":"uint256","name":"milestoneId","type":"uint256"},{"internalType":"bool","name":"verified","type":"bool"},{"internalType":"string","name":"verifierComment","type":"string"}],"name":"verifyMilestone","outputs":[],"stateMutability":"nonpayable","type":"function"}],"evm":{"bytecode":{"linkReferences":{},"object":"608060405234801561001057600080fd5b5060016000556112b7806100256000396000f3fe608060405234801561001057600080fd5b506004361061007d5760003560e01c8063852ea2031161005b578063852ea203146100cd5780638f4cf247146100e0578063e49ffba7146100f6578063e89e4ed61461010957600080fd5b80631dce22c9146100825780632442e1cb1461008c5780637b78a57d146100ba575b600080fd5b61008a61011c565b005b61009f61009a366004610c17565b61020a565b6040516100b196959493929190610c76565b60405180910390f35b61008a6100c8366004610cc4565b6103c2565b61008a6100db366004610c17565b6104db565b6100e861067b565b6040519081526020016100b1565b61008a610104366004610d9e565b61068b565b61009f610117366004610c17565b610931565b600061012760015490565b905060005b81811015610206576002818154811061014757610147610e38565b600091825260209091206001600590920201015460ff1615801561018e57506002818154811061017957610179610e38565b90600052602060002090600502016003015442115b156101f4576001600282815481106101a8576101a8610e38565b60009182526020822060059190910201600101805460ff19169215159290921790915560405182917fe266ec12ad222bda248c1020135962293ec0662bad8531ce6143f2fdce37a3b091a25b806101fe81610e4e565b91505061012c565b5050565b606060008060008060608661021e60015490565b81106102455760405162461bcd60e51b815260040161023c90610e75565b60405180910390fd5b60006002898154811061025a5761025a610e38565b600091825260209091206005909102016001810154600282015460038301548354939450849360ff808516946101009004169291906004860190869061029f90610ec7565b80601f01602080910402602001604051908101604052809291908181526020018280546102cb90610ec7565b80156103185780601f106102ed57610100808354040283529160200191610318565b820191906000526020600020905b8154815290600101906020018083116102fb57829003601f168201915b5050505050955080805461032b90610ec7565b80601f016020809104026020016040519081016040528092919081815260200182805461035790610ec7565b80156103a45780601f10610379576101008083540402835291602001916103a4565b820191906000526020600020905b81548152906001019060200180831161038757829003601f168201915b50505050509050975097509750975097509750505091939550919395565b836103cc60015490565b81106103ea5760405162461bcd60e51b815260040161023c90610e75565b6000600286815481106103ff576103ff610e38565b60009182526020909120600590910201600181015490915060ff166104805760405162461bcd60e51b815260206004820152603160248201527f4d696c6573746f6e65547261636b6572466163746f72793a204d696c6573746f6044820152703732903737ba1031b7b6b83632ba32b21760791b606482015260840161023c565b60018101805461ff0019166101008715150217905560405186907fd2303455aff15954d59ee8758225828c5393f4c7368d3c849c533e75b649d0b6906104cb90889088908890610f2a565b60405180910390a2505050505050565b806104e560015490565b81106105035760405162461bcd60e51b815260040161023c90610e75565b60006002838154811061051857610518610e38565b60009182526020909120600590910201600181015490915060ff161561059e5760405162461bcd60e51b815260206004820152603560248201527f4d696c6573746f6e65547261636b6572466163746f72793a204d696c6573746f60448201527437329030b63932b0b23c9031b7b6b83632ba32b21760591b606482015260840161023c565b80600301544211156106295760405162461bcd60e51b815260206004820152604860248201527f4d696c6573746f6e65547261636b6572466163746f72793a2043616e6e6f742060448201527f636f6d706c6574652c206d696c6573746f6e6520646561646c696e6520686173606482015267103830b9b9b2b21760c11b608482015260a40161023c565b6001818101805460ff19169091179055426002820181905560405190815283907f1b7218c0ac23ea9cbe4df603d2b340fbf469a115b73ea3d11460727f445d6be19060200160405180910390a2505050565b600061068660015490565b905090565b610693610a97565b84831480156106a157508481145b6107035760405162461bcd60e51b815260206004820152602d60248201527f4d696c6573746f6e65547261636b65723a20496e707574206172726179206c6560448201526c0dccee8d040dad2e6dac2e8c6d609b1b606482015260840161023c565b60008567ffffffffffffffff81111561071e5761071e610f4f565b604051908082528060200260200182016040528015610747578160200160208202803683370190505b50905060008667ffffffffffffffff81111561076557610765610f4f565b60405190808252806020026020018201604052801561078e578160200160208202803683370190505b50905060005b878110156108d7576001548382815181106107b1576107b1610e38565b602002602001018181525050308282815181106107d0576107d0610e38565b60200260200101906001600160a01b031690816001600160a01b0316815250506108c589898381811061080557610805610e38565b90506020028101906108179190610f65565b8080601f0160208091040260200160405190810160405280939291908181526020018383808284376000920191909152508b92508a915085905081811061086057610860610e38565b9050602002013587878581811061087957610879610e38565b905060200281019061088b9190610f65565b8080601f016020809104026020016040519081016040528093929190818152602001838380828437600092019190915250610af092505050565b806108cf81610e4e565b915050610794565b507f88cf9519e5e77f989ff972936bd33356d0c7d8aefcff184b157fdb7331a1e94682828a8a8a8a8a8a60405161091598979695949392919061106d565b60405180910390a150506109296001600055565b505050505050565b6002818154811061094157600080fd5b906000526020600020906005020160009150905080600001805461096490610ec7565b80601f016020809104026020016040519081016040528092919081815260200182805461099090610ec7565b80156109dd5780601f106109b2576101008083540402835291602001916109dd565b820191906000526020600020905b8154815290600101906020018083116109c057829003601f168201915b505050600184015460028501546003860154600487018054969760ff808616986101009096041696509294509092610a1490610ec7565b80601f0160208091040260200160405190810160405280929190818152602001828054610a4090610ec7565b8015610a8d5780601f10610a6257610100808354040283529160200191610a8d565b820191906000526020600020905b815481529060010190602001808311610a7057829003601f168201915b5050505050905086565b600260005403610ae95760405162461bcd60e51b815260206004820152601f60248201527f5265656e7472616e637947756172643a207265656e7472616e742063616c6c00604482015260640161023c565b6002600055565b6040805160c081018252848152600060208201819052918101829052606081018290526080810184905260a08101839052600280546001810182559252805190916005027f405787fa12a823e0f2b7631cc41b3ba8828b3321ca811111fa75cd3aa3bb5ace01908190610b63908261117a565b506020820151600182018054604085015115156101000261ff00199315159390931661ffff1990911617919091179055606082015160028201556080820151600382015560a08201516004820190610bbb908261117a565b505050610bc760015490565b7ff21f4d364962b4aac12f7b56f56700378cebbc4b2c0feabf0c730ee57fc94c5530858585604051610bfc949392919061123a565b60405180910390a2610c12600180546001019055565b505050565b600060208284031215610c2957600080fd5b5035919050565b6000815180845260005b81811015610c5657602081850181015186830182015201610c3a565b506000602082860101526020601f19601f83011685010191505092915050565b60c081526000610c8960c0830189610c30565b8715156020840152861515604084015285606084015284608084015282810360a0840152610cb78185610c30565b9998505050505050505050565b60008060008060608587031215610cda57600080fd5b8435935060208501358015158114610cf157600080fd5b9250604085013567ffffffffffffffff80821115610d0e57600080fd5b818701915087601f830112610d2257600080fd5b813581811115610d3157600080fd5b886020828501011115610d4357600080fd5b95989497505060200194505050565b60008083601f840112610d6457600080fd5b50813567ffffffffffffffff811115610d7c57600080fd5b6020830191508360208260051b8501011115610d9757600080fd5b9250929050565b60008060008060008060608789031215610db757600080fd5b863567ffffffffffffffff80821115610dcf57600080fd5b610ddb8a838b01610d52565b90985096506020890135915080821115610df457600080fd5b610e008a838b01610d52565b90965094506040890135915080821115610e1957600080fd5b50610e2689828a01610d52565b979a9699509497509295939492505050565b634e487b7160e01b600052603260045260246000fd5b600060018201610e6e57634e487b7160e01b600052601160045260246000fd5b5060010190565b60208082526032908201527f4d696c6573746f6e65547261636b6572466163746f72793a204d696c6573746f6040820152713732903237b2b9903737ba1032bc34b9ba1760711b606082015260800190565b600181811c90821680610edb57607f821691505b602082108103610efb57634e487b7160e01b600052602260045260246000fd5b50919050565b81835281816020850137506000828201602090810191909152601f909101601f19169091010190565b8315158152604060208201526000610f46604083018486610f01565b95945050505050565b634e487b7160e01b600052604160045260246000fd5b6000808335601e19843603018112610f7c57600080fd5b83018035915067ffffffffffffffff821115610f9757600080fd5b602001915036819003821315610d9757600080fd5b818352600060208085019450848460051b86018460005b8781101561102e5783830389528135601e19883603018112610fe457600080fd5b8701858101903567ffffffffffffffff81111561100057600080fd5b80360382131561100f57600080fd5b61101a858284610f01565b9a87019a9450505090840190600101610fc3565b5090979650505050505050565b81835260006001600160fb1b0383111561105457600080fd5b8260051b80836020870137939093016020019392505050565b60a0808252895190820181905260009060209060c0840190828d01845b828110156110a65781518452928401929084019060010161108a565b505050838103828501528a518082528b83019183019060005b818110156110e45783516001600160a01b0316835292840192918401916001016110bf565b505084810360408601526110f9818b8d610fac565b92505050828103606084015261111081878961103b565b90508281036080840152611125818587610fac565b9b9a5050505050505050505050565b601f821115610c1257600081815260208120601f850160051c8101602086101561115b5750805b601f850160051c820191505b8181101561092957828155600101611167565b815167ffffffffffffffff81111561119457611194610f4f565b6111a8816111a28454610ec7565b84611134565b602080601f8311600181146111dd57600084156111c55750858301515b600019600386901b1c1916600185901b178555610929565b600085815260208120601f198616915b8281101561120c578886015182559484019460019091019084016111ed565b508582101561122a5787850151600019600388901b60f8161c191681555b5050505050600190811b01905550565b6001600160a01b038516815260806020820181905260009061125e90830186610c30565b84604084015282810360608401526112768185610c30565b97965050505050505056fea26469706673582212200b3a496daa5f08fe2ff356b6f27414fc53a88e70866a734f2899a427453a35a764736f6c63430008140033","opcodes":"PUSH1 0x80 PUSH1 0x40 MSTORE CALLVALUE DUP1 ISZERO PUSH2 0x10 JUMPI PUSH1 0x0 DUP1 REVERT JUMPDEST POP PUSH1 0x1 PUSH1 0x0 SSTORE PUSH2 0x12B7 DUP1 PUSH2 0x25 PUSH1 0x0 CODECOPY PUSH1 0x0 RETURN INVALID PUSH1 0x80 PUSH1 0x40 MSTORE CALLVALUE DUP1 ISZERO PUSH2 0x10 JUMPI PUSH1 0x0 DUP1 REVERT JUMPDEST POP PUSH1 0x4 CALLDATASIZE LT PUSH2 0x7D JUMPI PUSH1 0x0 CALLDATALOAD PUSH1 0xE0 SHR DUP1 PUSH4 0x852EA203 GT PUSH2 0x5B JUMPI DUP1 PUSH4 0x852EA203 EQ PUSH2 0xCD JUMPI DUP1 PUSH4 0x8F4CF247 EQ PUSH2 0xE0 JUMPI DUP1 PUSH4 0xE49FFBA7 EQ PUSH2 0xF6 JUMPI DUP1 PUSH4 0xE89E4ED6 EQ PUSH2 0x109 JUMPI PUSH1 0x0 DUP1 REVERT JUMPDEST DUP1 PUSH4 0x1DCE22C9 EQ PUSH2 0x82 JUMPI DUP1 PUSH4 0x2442E1CB EQ PUSH2 0x8C JUMPI DUP1 PUSH4 0x7B78A57D EQ PUSH2 0xBA JUMPI JUMPDEST PUSH1 0x0 DUP1 REVERT JUMPDEST PUSH2 0x8A PUSH2 0x11C JUMP JUMPDEST STOP JUMPDEST PUSH2 0x9F PUSH2 0x9A CALLDATASIZE PUSH1 0x4 PUSH2 0xC17 JUMP JUMPDEST PUSH2 0x20A JUMP JUMPDEST PUSH1 0x40 MLOAD PUSH2 0xB1 SWAP7 SWAP6 SWAP5 SWAP4 SWAP3 SWAP2 SWAP1 PUSH2 0xC76 JUMP JUMPDEST PUSH1 0x40 MLOAD DUP1 SWAP2 SUB SWAP1 RETURN JUMPDEST PUSH2 0x8A PUSH2 0xC8 CALLDATASIZE PUSH1 0x4 PUSH2 0xCC4 JUMP JUMPDEST PUSH2 0x3C2 JUMP JUMPDEST PUSH2 0x8A PUSH2 0xDB CALLDATASIZE PUSH1 0x4 PUSH2 0xC17 JUMP JUMPDEST PUSH2 0x4DB JUMP JUMPDEST PUSH2 0xE8 PUSH2 0x67B JUMP JUMPDEST PUSH1 0x40 MLOAD SWAP1 DUP2 MSTORE PUSH1 0x20 ADD PUSH2 0xB1 JUMP JUMPDEST PUSH2 0x8A PUSH2 0x104 CALLDATASIZE PUSH1 0x4 PUSH2 0xD9E JUMP JUMPDEST PUSH2 0x68B JUMP JUMPDEST PUSH2 0x9F PUSH2 0x117 CALLDATASIZE PUSH1 0x4 PUSH2 0xC17 JUMP JUMPDEST PUSH2 0x931 JUMP JUMPDEST PUSH1 0x0 PUSH2 0x127 PUSH1 0x1 SLOAD SWAP1 JUMP JUMPDEST SWAP1 POP PUSH1 0x0 JUMPDEST DUP2 DUP2 LT ISZERO PUSH2 0x206 JUMPI PUSH1 0x2 DUP2 DUP2 SLOAD DUP2 LT PUSH2 0x147 JUMPI PUSH2 0x147 PUSH2 0xE38 JUMP JUMPDEST PUSH1 0x0 SWAP2 DUP3 MSTORE PUSH1 0x20 SWAP1 SWAP2 KECCAK256 PUSH1 0x1 PUSH1 0x5 SWAP1 SWAP3 MUL ADD ADD SLOAD PUSH1 0xFF AND ISZERO DUP1 ISZERO PUSH2 0x18E JUMPI POP PUSH1 0x2 DUP2 DUP2 SLOAD DUP2 LT PUSH2 0x179 JUMPI PUSH2 0x179 PUSH2 0xE38 JUMP JUMPDEST SWAP1 PUSH1 0x0 MSTORE PUSH1 0x20 PUSH1 0x0 KECCAK256 SWAP1 PUSH1 0x5 MUL ADD PUSH1 0x3 ADD SLOAD TIMESTAMP GT JUMPDEST ISZERO PUSH2 0x1F4 JUMPI PUSH1 0x1 PUSH1 0x2 DUP3 DUP2 SLOAD DUP2 LT PUSH2 0x1A8 JUMPI PUSH2 0x1A8 PUSH2 0xE38 JUMP JUMPDEST PUSH1 0x0 SWAP2 DUP3 MSTORE PUSH1 0x20 DUP3 KECCAK256 PUSH1 0x5 SWAP2 SWAP1 SWAP2 MUL ADD PUSH1 0x1 ADD DUP1 SLOAD PUSH1 0xFF NOT AND SWAP3 ISZERO ISZERO SWAP3 SWAP1 SWAP3 OR SWAP1 SWAP2 SSTORE PUSH1 0x40 MLOAD DUP3 SWAP2 PUSH32 0xE266EC12AD222BDA248C1020135962293EC0662BAD8531CE6143F2FDCE37A3B0 SWAP2 LOG2 JUMPDEST DUP1 PUSH2 0x1FE DUP2 PUSH2 0xE4E JUMP JUMPDEST SWAP2 POP POP PUSH2 0x12C JUMP JUMPDEST POP POP JUMP JUMPDEST PUSH1 0x60 PUSH1 0x0 DUP1 PUSH1 0x0 DUP1 PUSH1 0x60 DUP7 PUSH2 0x21E PUSH1 0x1 SLOAD SWAP1 JUMP JUMPDEST DUP2 LT PUSH2 0x245 JUMPI PUSH1 0x40 MLOAD PUSH3 0x461BCD PUSH1 0xE5 SHL DUP2 MSTORE PUSH1 0x4 ADD PUSH2 0x23C SWAP1 PUSH2 0xE75 JUMP JUMPDEST PUSH1 0x40 MLOAD DUP1 SWAP2 SUB SWAP1 REVERT JUMPDEST PUSH1 0x0 PUSH1 0x2 DUP10 DUP2 SLOAD DUP2 LT PUSH2 0x25A JUMPI PUSH2 0x25A PUSH2 0xE38 JUMP JUMPDEST PUSH1 0x0 SWAP2 DUP3 MSTORE PUSH1 0x20 SWAP1 SWAP2 KECCAK256 PUSH1 0x5 SWAP1 SWAP2 MUL ADD PUSH1 0x1 DUP2 ADD SLOAD PUSH1 0x2 DUP3 ADD SLOAD PUSH1 0x3 DUP4 ADD SLOAD DUP4 SLOAD SWAP4 SWAP5 POP DUP5 SWAP4 PUSH1 0xFF DUP1 DUP6 AND SWAP5 PUSH2 0x100 SWAP1 DIV AND SWAP3 SWAP2 SWAP1 PUSH1 0x4 DUP7 ADD SWAP1 DUP7 SWAP1 PUSH2 0x29F SWAP1 PUSH2 0xEC7 JUMP JUMPDEST DUP1 PUSH1 0x1F ADD PUSH1 0x20 DUP1 SWAP2 DIV MUL PUSH1 0x20 ADD PUSH1 0x40 MLOAD SWAP1 DUP2 ADD PUSH1 0x40 MSTORE DUP1 SWAP3 SWAP2 SWAP1 DUP2 DUP2 MSTORE PUSH1 0x20 ADD DUP3 DUP1 SLOAD PUSH2 0x2CB SWAP1 PUSH2 0xEC7 JUMP JUMPDEST DUP1 ISZERO PUSH2 0x318 JUMPI DUP1 PUSH1 0x1F LT PUSH2 0x2ED JUMPI PUSH2 0x100 DUP1 DUP4 SLOAD DIV MUL DUP4 MSTORE SWAP2 PUSH1 0x20 ADD SWAP2 PUSH2 0x318 JUMP JUMPDEST DUP3 ADD SWAP2 SWAP1 PUSH1 0x0 MSTORE PUSH1 0x20 PUSH1 0x0 KECCAK256 SWAP1 JUMPDEST DUP2 SLOAD DUP2 MSTORE SWAP1 PUSH1 0x1 ADD SWAP1 PUSH1 0x20 ADD DUP1 DUP4 GT PUSH2 0x2FB JUMPI DUP3 SWAP1 SUB PUSH1 0x1F AND DUP3 ADD SWAP2 JUMPDEST POP POP POP POP POP SWAP6 POP DUP1 DUP1 SLOAD PUSH2 0x32B SWAP1 PUSH2 0xEC7 JUMP JUMPDEST DUP1 PUSH1 0x1F ADD PUSH1 0x20 DUP1 SWAP2 DIV MUL PUSH1 0x20 ADD PUSH1 0x40 MLOAD SWAP1 DUP2 ADD PUSH1 0x40 MSTORE DUP1 SWAP3 SWAP2 SWAP1 DUP2 DUP2 MSTORE PUSH1 0x20 ADD DUP3 DUP1 SLOAD PUSH2 0x357 SWAP1 PUSH2 0xEC7 JUMP JUMPDEST DUP1 ISZERO PUSH2 0x3A4 JUMPI DUP1 PUSH1 0x1F LT PUSH2 0x379 JUMPI PUSH2 0x100 DUP1 DUP4 SLOAD DIV MUL DUP4 MSTORE SWAP2 PUSH1 0x20 ADD SWAP2 PUSH2 0x3A4 JUMP JUMPDEST DUP3 ADD SWAP2 SWAP1 PUSH1 0x0 MSTORE PUSH1 0x20 PUSH1 0x0 KECCAK256 SWAP1 JUMPDEST DUP2 SLOAD DUP2 MSTORE SWAP1 PUSH1 0x1 ADD SWAP1 PUSH1 0x20 ADD DUP1 DUP4 GT PUSH2 0x387 JUMPI DUP3 SWAP1 SUB PUSH1 0x1F AND DUP3 ADD SWAP2 JUMPDEST POP POP POP POP POP SWAP1 POP SWAP8 POP SWAP8 POP SWAP8 POP SWAP8 POP SWAP8 POP SWAP8 POP POP POP SWAP2 SWAP4 SWAP6 POP SWAP2 SWAP4 SWAP6 JUMP JUMPDEST DUP4 PUSH2 0x3CC PUSH1 0x1 SLOAD SWAP1 JUMP JUMPDEST DUP2 LT PUSH2 0x3EA JUMPI PUSH1 0x40 MLOAD PUSH3 0x461BCD PUSH1 0xE5 SHL DUP2 MSTORE PUSH1 0x4 ADD PUSH2 0x23C SWAP1 PUSH2 0xE75 JUMP JUMPDEST PUSH1 0x0 PUSH1 0x2 DUP7 DUP2 SLOAD DUP2 LT PUSH2 0x3FF JUMPI PUSH2 0x3FF PUSH2 0xE38 JUMP JUMPDEST PUSH1 0x0 SWAP2 DUP3 MSTORE PUSH1 0x20 SWAP1 SWAP2 KECCAK256 PUSH1 0x5 SWAP1 SWAP2 MUL ADD PUSH1 0x1 DUP2 ADD SLOAD SWAP1 SWAP2 POP PUSH1 0xFF AND PUSH2 0x480 JUMPI PUSH1 0x40 MLOAD PUSH3 0x461BCD PUSH1 0xE5 SHL DUP2 MSTORE PUSH1 0x20 PUSH1 0x4 DUP3 ADD MSTORE PUSH1 0x31 PUSH1 0x24 DUP3 ADD MSTORE PUSH32 0x4D696C6573746F6E65547261636B6572466163746F72793A204D696C6573746F PUSH1 0x44 DUP3 ADD MSTORE PUSH17 0x3732903737BA1031B7B6B83632BA32B217 PUSH1 0x79 SHL PUSH1 0x64 DUP3 ADD MSTORE PUSH1 0x84 ADD PUSH2 0x23C JUMP JUMPDEST PUSH1 0x1 DUP2 ADD DUP1 SLOAD PUSH2 0xFF00 NOT AND PUSH2 0x100 DUP8 ISZERO ISZERO MUL OR SWAP1 SSTORE PUSH1 0x40 MLOAD DUP7 SWAP1 PUSH32 0xD2303455AFF15954D59EE8758225828C5393F4C7368D3C849C533E75B649D0B6 SWAP1 PUSH2 0x4CB SWAP1 DUP9 SWAP1 DUP9 SWAP1 DUP9 SWAP1 PUSH2 0xF2A JUMP JUMPDEST PUSH1 0x40 MLOAD DUP1 SWAP2 SUB SWAP1 LOG2 POP POP POP POP POP POP JUMP JUMPDEST DUP1 PUSH2 0x4E5 PUSH1 0x1 SLOAD SWAP1 JUMP JUMPDEST DUP2 LT PUSH2 0x503 JUMPI PUSH1 0x40 MLOAD PUSH3 0x461BCD PUSH1 0xE5 SHL DUP2 MSTORE PUSH1 0x4 ADD PUSH2 0x23C SWAP1 PUSH2 0xE75 JUMP JUMPDEST PUSH1 0x0 PUSH1 0x2 DUP4 DUP2 SLOAD DUP2 LT PUSH2 0x518 JUMPI PUSH2 0x518 PUSH2 0xE38 JUMP JUMPDEST PUSH1 0x0 SWAP2 DUP3 MSTORE PUSH1 0x20 SWAP1 SWAP2 KECCAK256 PUSH1 0x5 SWAP1 SWAP2 MUL ADD PUSH1 0x1 DUP2 ADD SLOAD SWAP1 SWAP2 POP PUSH1 0xFF AND ISZERO PUSH2 0x59E JUMPI PUSH1 0x40 MLOAD PUSH3 0x461BCD PUSH1 0xE5 SHL DUP2 MSTORE PUSH1 0x20 PUSH1 0x4 DUP3 ADD MSTORE PUSH1 0x35 PUSH1 0x24 DUP3 ADD MSTORE PUSH32 0x4D696C6573746F6E65547261636B6572466163746F72793A204D696C6573746F PUSH1 0x44 DUP3 ADD MSTORE PUSH21 0x37329030B63932B0B23C9031B7B6B83632BA32B217 PUSH1 0x59 SHL PUSH1 0x64 DUP3 ADD MSTORE PUSH1 0x84 ADD PUSH2 0x23C JUMP JUMPDEST DUP1 PUSH1 0x3 ADD SLOAD TIMESTAMP GT ISZERO PUSH2 0x629 JUMPI PUSH1 0x40 MLOAD PUSH3 0x461BCD PUSH1 0xE5 SHL DUP2 MSTORE PUSH1 0x20 PUSH1 0x4 DUP3 ADD MSTORE PUSH1 0x48 PUSH1 0x24 DUP3 ADD MSTORE PUSH32 0x4D696C6573746F6E65547261636B6572466163746F72793A2043616E6E6F7420 PUSH1 0x44 DUP3 ADD MSTORE PUSH32 0x636F6D706C6574652C206D696C6573746F6E6520646561646C696E6520686173 PUSH1 0x64 DUP3 ADD MSTORE PUSH8 0x103830B9B9B2B217 PUSH1 0xC1 SHL PUSH1 0x84 DUP3 ADD MSTORE PUSH1 0xA4 ADD PUSH2 0x23C JUMP JUMPDEST PUSH1 0x1 DUP2 DUP2 ADD DUP1 SLOAD PUSH1 0xFF NOT AND SWAP1 SWAP2 OR SWAP1 SSTORE TIMESTAMP PUSH1 0x2 DUP3 ADD DUP2 SWAP1 SSTORE PUSH1 0x40 MLOAD SWAP1 DUP2 MSTORE DUP4 SWAP1 PUSH32 0x1B7218C0AC23EA9CBE4DF603D2B340FBF469A115B73EA3D11460727F445D6BE1 SWAP1 PUSH1 0x20 ADD PUSH1 0x40 MLOAD DUP1 SWAP2 SUB SWAP1 LOG2 POP POP POP JUMP JUMPDEST PUSH1 0x0 PUSH2 0x686 PUSH1 0x1 SLOAD SWAP1 JUMP JUMPDEST SWAP1 POP SWAP1 JUMP JUMPDEST PUSH2 0x693 PUSH2 0xA97 JUMP JUMPDEST DUP5 DUP4 EQ DUP1 ISZERO PUSH2 0x6A1 JUMPI POP DUP5 DUP2 EQ JUMPDEST PUSH2 0x703 JUMPI PUSH1 0x40 MLOAD PUSH3 0x461BCD PUSH1 0xE5 SHL DUP2 MSTORE PUSH1 0x20 PUSH1 0x4 DUP3 ADD MSTORE PUSH1 0x2D PUSH1 0x24 DUP3 ADD MSTORE PUSH32 0x4D696C6573746F6E65547261636B65723A20496E707574206172726179206C65 PUSH1 0x44 DUP3 ADD MSTORE PUSH13 0xDCCEE8D040DAD2E6DAC2E8C6D PUSH1 0x9B SHL PUSH1 0x64 DUP3 ADD MSTORE PUSH1 0x84 ADD PUSH2 0x23C JUMP JUMPDEST PUSH1 0x0 DUP6 PUSH8 0xFFFFFFFFFFFFFFFF DUP2 GT ISZERO PUSH2 0x71E JUMPI PUSH2 0x71E PUSH2 0xF4F JUMP JUMPDEST PUSH1 0x40 MLOAD SWAP1 DUP1 DUP3 MSTORE DUP1 PUSH1 0x20 MUL PUSH1 0x20 ADD DUP3 ADD PUSH1 0x40 MSTORE DUP1 ISZERO PUSH2 0x747 JUMPI DUP2 PUSH1 0x20 ADD PUSH1 0x20 DUP3 MUL DUP1 CALLDATASIZE DUP4 CALLDATACOPY ADD SWAP1 POP JUMPDEST POP SWAP1 POP PUSH1 0x0 DUP7 PUSH8 0xFFFFFFFFFFFFFFFF DUP2 GT ISZERO PUSH2 0x765 JUMPI PUSH2 0x765 PUSH2 0xF4F JUMP JUMPDEST PUSH1 0x40 MLOAD SWAP1 DUP1 DUP3 MSTORE DUP1 PUSH1 0x20 MUL PUSH1 0x20 ADD DUP3 ADD PUSH1 0x40 MSTORE DUP1 ISZERO PUSH2 0x78E JUMPI DUP2 PUSH1 0x20 ADD PUSH1 0x20 DUP3 MUL DUP1 CALLDATASIZE DUP4 CALLDATACOPY ADD SWAP1 POP JUMPDEST POP SWAP1 POP PUSH1 0x0 JUMPDEST DUP8 DUP2 LT ISZERO PUSH2 0x8D7 JUMPI PUSH1 0x1 SLOAD DUP4 DUP3 DUP2 MLOAD DUP2 LT PUSH2 0x7B1 JUMPI PUSH2 0x7B1 PUSH2 0xE38 JUMP JUMPDEST PUSH1 0x20 MUL PUSH1 0x20 ADD ADD DUP2 DUP2 MSTORE POP POP ADDRESS DUP3 DUP3 DUP2 MLOAD DUP2 LT PUSH2 0x7D0 JUMPI PUSH2 0x7D0 PUSH2 0xE38 JUMP JUMPDEST PUSH1 0x20 MUL PUSH1 0x20 ADD ADD SWAP1 PUSH1 0x1 PUSH1 0x1 PUSH1 0xA0 SHL SUB AND SWAP1 DUP2 PUSH1 0x1 PUSH1 0x1 PUSH1 0xA0 SHL SUB AND DUP2 MSTORE POP POP PUSH2 0x8C5 DUP10 DUP10 DUP4 DUP2 DUP2 LT PUSH2 0x805 JUMPI PUSH2 0x805 PUSH2 0xE38 JUMP JUMPDEST SWAP1 POP PUSH1 0x20 MUL DUP2 ADD SWAP1 PUSH2 0x817 SWAP2 SWAP1 PUSH2 0xF65 JUMP JUMPDEST DUP1 DUP1 PUSH1 0x1F ADD PUSH1 0x20 DUP1 SWAP2 DIV MUL PUSH1 0x20 ADD PUSH1 0x40 MLOAD SWAP1 DUP2 ADD PUSH1 0x40 MSTORE DUP1 SWAP4 SWAP3 SWAP2 SWAP1 DUP2 DUP2 MSTORE PUSH1 0x20 ADD DUP4 DUP4 DUP1 DUP3 DUP5 CALLDATACOPY PUSH1 0x0 SWAP3 ADD SWAP2 SWAP1 SWAP2 MSTORE POP DUP12 SWAP3 POP DUP11 SWAP2 POP DUP6 SWAP1 POP DUP2 DUP2 LT PUSH2 0x860 JUMPI PUSH2 0x860 PUSH2 0xE38 JUMP JUMPDEST SWAP1 POP PUSH1 0x20 MUL ADD CALLDATALOAD DUP8 DUP8 DUP6 DUP2 DUP2 LT PUSH2 0x879 JUMPI PUSH2 0x879 PUSH2 0xE38 JUMP JUMPDEST SWAP1 POP PUSH1 0x20 MUL DUP2 ADD SWAP1 PUSH2 0x88B SWAP2 SWAP1 PUSH2 0xF65 JUMP JUMPDEST DUP1 DUP1 PUSH1 0x1F ADD PUSH1 0x20 DUP1 SWAP2 DIV MUL PUSH1 0x20 ADD PUSH1 0x40 MLOAD SWAP1 DUP2 ADD PUSH1 0x40 MSTORE DUP1 SWAP4 SWAP3 SWAP2 SWAP1 DUP2 DUP2 MSTORE PUSH1 0x20 ADD DUP4 DUP4 DUP1 DUP3 DUP5 CALLDATACOPY PUSH1 0x0 SWAP3 ADD SWAP2 SWAP1 SWAP2 MSTORE POP PUSH2 0xAF0 SWAP3 POP POP POP JUMP JUMPDEST DUP1 PUSH2 0x8CF DUP2 PUSH2 0xE4E JUMP JUMPDEST SWAP2 POP POP PUSH2 0x794 JUMP JUMPDEST POP PUSH32 0x88CF9519E5E77F989FF972936BD33356D0C7D8AEFCFF184B157FDB7331A1E946 DUP3 DUP3 DUP11 DUP11 DUP11 DUP11 DUP11 DUP11 PUSH1 0x40 MLOAD PUSH2 0x915 SWAP9 SWAP8 SWAP7 SWAP6 SWAP5 SWAP4 SWAP3 SWAP2 SWAP1 PUSH2 0x106D JUMP JUMPDEST PUSH1 0x40 MLOAD DUP1 SWAP2 SUB SWAP1 LOG1 POP POP PUSH2 0x929 PUSH1 0x1 PUSH1 0x0 SSTORE JUMP JUMPDEST POP POP POP POP POP POP JUMP JUMPDEST PUSH1 0x2 DUP2 DUP2 SLOAD DUP2 LT PUSH2 0x941 JUMPI PUSH1 0x0 DUP1 REVERT JUMPDEST SWAP1 PUSH1 0x0 MSTORE PUSH1 0x20 PUSH1 0x0 KECCAK256 SWAP1 PUSH1 0x5 MUL ADD PUSH1 0x0 SWAP2 POP SWAP1 POP DUP1 PUSH1 0x0 ADD DUP1 SLOAD PUSH2 0x964 SWAP1 PUSH2 0xEC7 JUMP JUMPDEST DUP1 PUSH1 0x1F ADD PUSH1 0x20 DUP1 SWAP2 DIV MUL PUSH1 0x20 ADD PUSH1 0x40 MLOAD SWAP1 DUP2 ADD PUSH1 0x40 MSTORE DUP1 SWAP3 SWAP2 SWAP1 DUP2 DUP2 MSTORE PUSH1 0x20 ADD DUP3 DUP1 SLOAD PUSH2 0x990 SWAP1 PUSH2 0xEC7 JUMP JUMPDEST DUP1 ISZERO PUSH2 0x9DD JUMPI DUP1 PUSH1 0x1F LT PUSH2 0x9B2 JUMPI PUSH2 0x100 DUP1 DUP4 SLOAD DIV MUL DUP4 MSTORE SWAP2 PUSH1 0x20 ADD SWAP2 PUSH2 0x9DD JUMP JUMPDEST DUP3 ADD SWAP2 SWAP1 PUSH1 0x0 MSTORE PUSH1 0x20 PUSH1 0x0 KECCAK256 SWAP1 JUMPDEST DUP2 SLOAD DUP2 MSTORE SWAP1 PUSH1 0x1 ADD SWAP1 PUSH1 0x20 ADD DUP1 DUP4 GT PUSH2 0x9C0 JUMPI DUP3 SWAP1 SUB PUSH1 0x1F AND DUP3 ADD SWAP2 JUMPDEST POP POP POP PUSH1 0x1 DUP5 ADD SLOAD PUSH1 0x2 DUP6 ADD SLOAD PUSH1 0x3 DUP7 ADD SLOAD PUSH1 0x4 DUP8 ADD DUP1 SLOAD SWAP7 SWAP8 PUSH1 0xFF DUP1 DUP7 AND SWAP9 PUSH2 0x100 SWAP1 SWAP7 DIV AND SWAP7 POP SWAP3 SWAP5 POP SWAP1 SWAP3 PUSH2 0xA14 SWAP1 PUSH2 0xEC7 JUMP JUMPDEST DUP1 PUSH1 0x1F ADD PUSH1 0x20 DUP1 SWAP2 DIV MUL PUSH1 0x20 ADD PUSH1 0x40 MLOAD SWAP1 DUP2 ADD PUSH1 0x40 MSTORE DUP1 SWAP3 SWAP2 SWAP1 DUP2 DUP2 MSTORE PUSH1 0x20 ADD DUP3 DUP1 SLOAD PUSH2 0xA40 SWAP1 PUSH2 0xEC7 JUMP JUMPDEST DUP1 ISZERO PUSH2 0xA8D JUMPI DUP1 PUSH1 0x1F LT PUSH2 0xA62 JUMPI PUSH2 0x100 DUP1 DUP4 SLOAD DIV MUL DUP4 MSTORE SWAP2 PUSH1 0x20 ADD SWAP2 PUSH2 0xA8D JUMP JUMPDEST DUP3 ADD SWAP2 SWAP1 PUSH1 0x0 MSTORE PUSH1 0x20 PUSH1 0x0 KECCAK256 SWAP1 JUMPDEST DUP2 SLOAD DUP2 MSTORE SWAP1 PUSH1 0x1 ADD SWAP1 PUSH1 0x20 ADD DUP1 DUP4 GT PUSH2 0xA70 JUMPI DUP3 SWAP1 SUB PUSH1 0x1F AND DUP3 ADD SWAP2 JUMPDEST POP POP POP POP POP SWAP1 POP DUP7 JUMP JUMPDEST PUSH1 0x2 PUSH1 0x0 SLOAD SUB PUSH2 0xAE9 JUMPI PUSH1 0x40 MLOAD PUSH3 0x461BCD PUSH1 0xE5 SHL DUP2 MSTORE PUSH1 0x20 PUSH1 0x4 DUP3 ADD MSTORE PUSH1 0x1F PUSH1 0x24 DUP3 ADD MSTORE PUSH32 0x5265656E7472616E637947756172643A207265656E7472616E742063616C6C00 PUSH1 0x44 DUP3 ADD MSTORE PUSH1 0x64 ADD PUSH2 0x23C JUMP JUMPDEST PUSH1 0x2 PUSH1 0x0 SSTORE JUMP JUMPDEST PUSH1 0x40 DUP1 MLOAD PUSH1 0xC0 DUP2 ADD DUP3 MSTORE DUP5 DUP2 MSTORE PUSH1 0x0 PUSH1 0x20 DUP3 ADD DUP2 SWAP1 MSTORE SWAP2 DUP2 ADD DUP3 SWAP1 MSTORE PUSH1 0x60 DUP2 ADD DUP3 SWAP1 MSTORE PUSH1 0x80 DUP2 ADD DUP5 SWAP1 MSTORE PUSH1 0xA0 DUP2 ADD DUP4 SWAP1 MSTORE PUSH1 0x2 DUP1 SLOAD PUSH1 0x1 DUP2 ADD DUP3 SSTORE SWAP3 MSTORE DUP1 MLOAD SWAP1 SWAP2 PUSH1 0x5 MUL PUSH32 0x405787FA12A823E0F2B7631CC41B3BA8828B3321CA811111FA75CD3AA3BB5ACE ADD SWAP1 DUP2 SWAP1 PUSH2 0xB63 SWAP1 DUP3 PUSH2 0x117A JUMP JUMPDEST POP PUSH1 0x20 DUP3 ADD MLOAD PUSH1 0x1 DUP3 ADD DUP1 SLOAD PUSH1 0x40 DUP6 ADD MLOAD ISZERO ISZERO PUSH2 0x100 MUL PUSH2 0xFF00 NOT SWAP4 ISZERO ISZERO SWAP4 SWAP1 SWAP4 AND PUSH2 0xFFFF NOT SWAP1 SWAP2 AND OR SWAP2 SWAP1 SWAP2 OR SWAP1 SSTORE PUSH1 0x60 DUP3 ADD MLOAD PUSH1 0x2 DUP3 ADD SSTORE PUSH1 0x80 DUP3 ADD MLOAD PUSH1 0x3 DUP3 ADD SSTORE PUSH1 0xA0 DUP3 ADD MLOAD PUSH1 0x4 DUP3 ADD SWAP1 PUSH2 0xBBB SWAP1 DUP3 PUSH2 0x117A JUMP JUMPDEST POP POP POP PUSH2 0xBC7 PUSH1 0x1 SLOAD SWAP1 JUMP JUMPDEST PUSH32 0xF21F4D364962B4AAC12F7B56F56700378CEBBC4B2C0FEABF0C730EE57FC94C55 ADDRESS DUP6 DUP6 DUP6 PUSH1 0x40 MLOAD PUSH2 0xBFC SWAP5 SWAP4 SWAP3 SWAP2 SWAP1 PUSH2 0x123A JUMP JUMPDEST PUSH1 0x40 MLOAD DUP1 SWAP2 SUB SWAP1 LOG2 PUSH2 0xC12 PUSH1 0x1 DUP1 SLOAD PUSH1 0x1 ADD SWAP1 SSTORE JUMP JUMPDEST POP POP POP JUMP JUMPDEST PUSH1 0x0 PUSH1 0x20 DUP3 DUP5 SUB SLT ISZERO PUSH2 0xC29 JUMPI PUSH1 0x0 DUP1 REVERT JUMPDEST POP CALLDATALOAD SWAP2 SWAP1 POP JUMP JUMPDEST PUSH1 0x0 DUP2 MLOAD DUP1 DUP5 MSTORE PUSH1 0x0 JUMPDEST DUP2 DUP2 LT ISZERO PUSH2 0xC56 JUMPI PUSH1 0x20 DUP2 DUP6 ADD DUP2 ADD MLOAD DUP7 DUP4 ADD DUP3 ADD MSTORE ADD PUSH2 0xC3A JUMP JUMPDEST POP PUSH1 0x0 PUSH1 0x20 DUP3 DUP7 ADD ADD MSTORE PUSH1 0x20 PUSH1 0x1F NOT PUSH1 0x1F DUP4 ADD AND DUP6 ADD ADD SWAP2 POP POP SWAP3 SWAP2 POP POP JUMP JUMPDEST PUSH1 0xC0 DUP2 MSTORE PUSH1 0x0 PUSH2 0xC89 PUSH1 0xC0 DUP4 ADD DUP10 PUSH2 0xC30 JUMP JUMPDEST DUP8 ISZERO ISZERO PUSH1 0x20 DUP5 ADD MSTORE DUP7 ISZERO ISZERO PUSH1 0x40 DUP5 ADD MSTORE DUP6 PUSH1 0x60 DUP5 ADD MSTORE DUP5 PUSH1 0x80 DUP5 ADD MSTORE DUP3 DUP2 SUB PUSH1 0xA0 DUP5 ADD MSTORE PUSH2 0xCB7 DUP2 DUP6 PUSH2 0xC30 JUMP JUMPDEST SWAP10 SWAP9 POP POP POP POP POP POP POP POP POP JUMP JUMPDEST PUSH1 0x0 DUP1 PUSH1 0x0 DUP1 PUSH1 0x60 DUP6 DUP8 SUB SLT ISZERO PUSH2 0xCDA JUMPI PUSH1 0x0 DUP1 REVERT JUMPDEST DUP5 CALLDATALOAD SWAP4 POP PUSH1 0x20 DUP6 ADD CALLDATALOAD DUP1 ISZERO ISZERO DUP2 EQ PUSH2 0xCF1 JUMPI PUSH1 0x0 DUP1 REVERT JUMPDEST SWAP3 POP PUSH1 0x40 DUP6 ADD CALLDATALOAD PUSH8 0xFFFFFFFFFFFFFFFF DUP1 DUP3 GT ISZERO PUSH2 0xD0E JUMPI PUSH1 0x0 DUP1 REVERT JUMPDEST DUP2 DUP8 ADD SWAP2 POP DUP8 PUSH1 0x1F DUP4 ADD SLT PUSH2 0xD22 JUMPI PUSH1 0x0 DUP1 REVERT JUMPDEST DUP2 CALLDATALOAD DUP2 DUP2 GT ISZERO PUSH2 0xD31 JUMPI PUSH1 0x0 DUP1 REVERT JUMPDEST DUP9 PUSH1 0x20 DUP3 DUP6 ADD ADD GT ISZERO PUSH2 0xD43 JUMPI PUSH1 0x0 DUP1 REVERT JUMPDEST SWAP6 SWAP9 SWAP5 SWAP8 POP POP PUSH1 0x20 ADD SWAP5 POP POP POP JUMP JUMPDEST PUSH1 0x0 DUP1 DUP4 PUSH1 0x1F DUP5 ADD SLT PUSH2 0xD64 JUMPI PUSH1 0x0 DUP1 REVERT JUMPDEST POP DUP2 CALLDATALOAD PUSH8 0xFFFFFFFFFFFFFFFF DUP2 GT ISZERO PUSH2 0xD7C JUMPI PUSH1 0x0 DUP1 REVERT JUMPDEST PUSH1 0x20 DUP4 ADD SWAP2 POP DUP4 PUSH1 0x20 DUP3 PUSH1 0x5 SHL DUP6 ADD ADD GT ISZERO PUSH2 0xD97 JUMPI PUSH1 0x0 DUP1 REVERT JUMPDEST SWAP3 POP SWAP3 SWAP1 POP JUMP JUMPDEST PUSH1 0x0 DUP1 PUSH1 0x0 DUP1 PUSH1 0x0 DUP1 PUSH1 0x60 DUP8 DUP10 SUB SLT ISZERO PUSH2 0xDB7 JUMPI PUSH1 0x0 DUP1 REVERT JUMPDEST DUP7 CALLDATALOAD PUSH8 0xFFFFFFFFFFFFFFFF DUP1 DUP3 GT ISZERO PUSH2 0xDCF JUMPI PUSH1 0x0 DUP1 REVERT JUMPDEST PUSH2 0xDDB DUP11 DUP4 DUP12 ADD PUSH2 0xD52 JUMP JUMPDEST SWAP1 SWAP9 POP SWAP7 POP PUSH1 0x20 DUP10 ADD CALLDATALOAD SWAP2 POP DUP1 DUP3 GT ISZERO PUSH2 0xDF4 JUMPI PUSH1 0x0 DUP1 REVERT JUMPDEST PUSH2 0xE00 DUP11 DUP4 DUP12 ADD PUSH2 0xD52 JUMP JUMPDEST SWAP1 SWAP7 POP SWAP5 POP PUSH1 0x40 DUP10 ADD CALLDATALOAD SWAP2 POP DUP1 DUP3 GT ISZERO PUSH2 0xE19 JUMPI PUSH1 0x0 DUP1 REVERT JUMPDEST POP PUSH2 0xE26 DUP10 DUP3 DUP11 ADD PUSH2 0xD52 JUMP JUMPDEST SWAP8 SWAP11 SWAP7 SWAP10 POP SWAP5 SWAP8 POP SWAP3 SWAP6 SWAP4 SWAP5 SWAP3 POP POP POP JUMP JUMPDEST PUSH4 0x4E487B71 PUSH1 0xE0 SHL PUSH1 0x0 MSTORE PUSH1 0x32 PUSH1 0x4 MSTORE PUSH1 0x24 PUSH1 0x0 REVERT JUMPDEST PUSH1 0x0 PUSH1 0x1 DUP3 ADD PUSH2 0xE6E JUMPI PUSH4 0x4E487B71 PUSH1 0xE0 SHL PUSH1 0x0 MSTORE PUSH1 0x11 PUSH1 0x4 MSTORE PUSH1 0x24 PUSH1 0x0 REVERT JUMPDEST POP PUSH1 0x1 ADD SWAP1 JUMP JUMPDEST PUSH1 0x20 DUP1 DUP3 MSTORE PUSH1 0x32 SWAP1 DUP3 ADD MSTORE PUSH32 0x4D696C6573746F6E65547261636B6572466163746F72793A204D696C6573746F PUSH1 0x40 DUP3 ADD MSTORE PUSH18 0x3732903237B2B9903737BA1032BC34B9BA17 PUSH1 0x71 SHL PUSH1 0x60 DUP3 ADD MSTORE PUSH1 0x80 ADD SWAP1 JUMP JUMPDEST PUSH1 0x1 DUP2 DUP2 SHR SWAP1 DUP3 AND DUP1 PUSH2 0xEDB JUMPI PUSH1 0x7F DUP3 AND SWAP2 POP JUMPDEST PUSH1 0x20 DUP3 LT DUP2 SUB PUSH2 0xEFB JUMPI PUSH4 0x4E487B71 PUSH1 0xE0 SHL PUSH1 0x0 MSTORE PUSH1 0x22 PUSH1 0x4 MSTORE PUSH1 0x24 PUSH1 0x0 REVERT JUMPDEST POP SWAP2 SWAP1 POP JUMP JUMPDEST DUP2 DUP4 MSTORE DUP2 DUP2 PUSH1 0x20 DUP6 ADD CALLDATACOPY POP PUSH1 0x0 DUP3 DUP3 ADD PUSH1 0x20 SWAP1 DUP2 ADD SWAP2 SWAP1 SWAP2 MSTORE PUSH1 0x1F SWAP1 SWAP2 ADD PUSH1 0x1F NOT AND SWAP1 SWAP2 ADD ADD SWAP1 JUMP JUMPDEST DUP4 ISZERO ISZERO DUP2 MSTORE PUSH1 0x40 PUSH1 0x20 DUP3 ADD MSTORE PUSH1 0x0 PUSH2 0xF46 PUSH1 0x40 DUP4 ADD DUP5 DUP7 PUSH2 0xF01 JUMP JUMPDEST SWAP6 SWAP5 POP POP POP POP POP JUMP JUMPDEST PUSH4 0x4E487B71 PUSH1 0xE0 SHL PUSH1 0x0 MSTORE PUSH1 0x41 PUSH1 0x4 MSTORE PUSH1 0x24 PUSH1 0x0 REVERT JUMPDEST PUSH1 0x0 DUP1 DUP4 CALLDATALOAD PUSH1 0x1E NOT DUP5 CALLDATASIZE SUB ADD DUP2 SLT PUSH2 0xF7C JUMPI PUSH1 0x0 DUP1 REVERT JUMPDEST DUP4 ADD DUP1 CALLDATALOAD SWAP2 POP PUSH8 0xFFFFFFFFFFFFFFFF DUP3 GT ISZERO PUSH2 0xF97 JUMPI PUSH1 0x0 DUP1 REVERT JUMPDEST PUSH1 0x20 ADD SWAP2 POP CALLDATASIZE DUP2 SWAP1 SUB DUP3 SGT ISZERO PUSH2 0xD97 JUMPI PUSH1 0x0 DUP1 REVERT JUMPDEST DUP2 DUP4 MSTORE PUSH1 0x0 PUSH1 0x20 DUP1 DUP6 ADD SWAP5 POP DUP5 DUP5 PUSH1 0x5 SHL DUP7 ADD DUP5 PUSH1 0x0 JUMPDEST DUP8 DUP2 LT ISZERO PUSH2 0x102E JUMPI DUP4 DUP4 SUB DUP10 MSTORE DUP2 CALLDATALOAD PUSH1 0x1E NOT DUP9 CALLDATASIZE SUB ADD DUP2 SLT PUSH2 0xFE4 JUMPI PUSH1 0x0 DUP1 REVERT JUMPDEST DUP8 ADD DUP6 DUP2 ADD SWAP1 CALLDATALOAD PUSH8 0xFFFFFFFFFFFFFFFF DUP2 GT ISZERO PUSH2 0x1000 JUMPI PUSH1 0x0 DUP1 REVERT JUMPDEST DUP1 CALLDATASIZE SUB DUP3 SGT ISZERO PUSH2 0x100F JUMPI PUSH1 0x0 DUP1 REVERT JUMPDEST PUSH2 0x101A DUP6 DUP3 DUP5 PUSH2 0xF01 JUMP JUMPDEST SWAP11 DUP8 ADD SWAP11 SWAP5 POP POP POP SWAP1 DUP5 ADD SWAP1 PUSH1 0x1 ADD PUSH2 0xFC3 JUMP JUMPDEST POP SWAP1 SWAP8 SWAP7 POP POP POP POP POP POP POP JUMP JUMPDEST DUP2 DUP4 MSTORE PUSH1 0x0 PUSH1 0x1 PUSH1 0x1 PUSH1 0xFB SHL SUB DUP4 GT ISZERO PUSH2 0x1054 JUMPI PUSH1 0x0 DUP1 REVERT JUMPDEST DUP3 PUSH1 0x5 SHL DUP1 DUP4 PUSH1 0x20 DUP8 ADD CALLDATACOPY SWAP4 SWAP1 SWAP4 ADD PUSH1 0x20 ADD SWAP4 SWAP3 POP POP POP JUMP JUMPDEST PUSH1 0xA0 DUP1 DUP3 MSTORE DUP10 MLOAD SWAP1 DUP3 ADD DUP2 SWAP1 MSTORE PUSH1 0x0 SWAP1 PUSH1 0x20 SWAP1 PUSH1 0xC0 DUP5 ADD SWAP1 DUP3 DUP14 ADD DUP5 JUMPDEST DUP3 DUP2 LT ISZERO PUSH2 0x10A6 JUMPI DUP2 MLOAD DUP5 MSTORE SWAP3 DUP5 ADD SWAP3 SWAP1 DUP5 ADD SWAP1 PUSH1 0x1 ADD PUSH2 0x108A JUMP JUMPDEST POP POP POP DUP4 DUP2 SUB DUP3 DUP6 ADD MSTORE DUP11 MLOAD DUP1 DUP3 MSTORE DUP12 DUP4 ADD SWAP2 DUP4 ADD SWAP1 PUSH1 0x0 JUMPDEST DUP2 DUP2 LT ISZERO PUSH2 0x10E4 JUMPI DUP4 MLOAD PUSH1 0x1 PUSH1 0x1 PUSH1 0xA0 SHL SUB AND DUP4 MSTORE SWAP3 DUP5 ADD SWAP3 SWAP2 DUP5 ADD SWAP2 PUSH1 0x1 ADD PUSH2 0x10BF JUMP JUMPDEST POP POP DUP5 DUP2 SUB PUSH1 0x40 DUP7 ADD MSTORE PUSH2 0x10F9 DUP2 DUP12 DUP14 PUSH2 0xFAC JUMP JUMPDEST SWAP3 POP POP POP DUP3 DUP2 SUB PUSH1 0x60 DUP5 ADD MSTORE PUSH2 0x1110 DUP2 DUP8 DUP10 PUSH2 0x103B JUMP JUMPDEST SWAP1 POP DUP3 DUP2 SUB PUSH1 0x80 DUP5 ADD MSTORE PUSH2 0x1125 DUP2 DUP6 DUP8 PUSH2 0xFAC JUMP JUMPDEST SWAP12 SWAP11 POP POP POP POP POP POP POP POP POP POP POP JUMP JUMPDEST PUSH1 0x1F DUP3 GT ISZERO PUSH2 0xC12 JUMPI PUSH1 0x0 DUP2 DUP2 MSTORE PUSH1 0x20 DUP2 KECCAK256 PUSH1 0x1F DUP6 ADD PUSH1 0x5 SHR DUP2 ADD PUSH1 0x20 DUP7 LT ISZERO PUSH2 0x115B JUMPI POP DUP1 JUMPDEST PUSH1 0x1F DUP6 ADD PUSH1 0x5 SHR DUP3 ADD SWAP2 POP JUMPDEST DUP2 DUP2 LT ISZERO PUSH2 0x929 JUMPI DUP3 DUP2 SSTORE PUSH1 0x1 ADD PUSH2 0x1167 JUMP JUMPDEST DUP2 MLOAD PUSH8 0xFFFFFFFFFFFFFFFF DUP2 GT ISZERO PUSH2 0x1194 JUMPI PUSH2 0x1194 PUSH2 0xF4F JUMP JUMPDEST PUSH2 0x11A8 DUP2 PUSH2 0x11A2 DUP5 SLOAD PUSH2 0xEC7 JUMP JUMPDEST DUP5 PUSH2 0x1134 JUMP JUMPDEST PUSH1 0x20 DUP1 PUSH1 0x1F DUP4 GT PUSH1 0x1 DUP2 EQ PUSH2 0x11DD JUMPI PUSH1 0x0 DUP5 ISZERO PUSH2 0x11C5 JUMPI POP DUP6 DUP4 ADD MLOAD JUMPDEST PUSH1 0x0 NOT PUSH1 0x3 DUP7 SWAP1 SHL SHR NOT AND PUSH1 0x1 DUP6 SWAP1 SHL OR DUP6 SSTORE PUSH2 0x929 JUMP JUMPDEST PUSH1 0x0 DUP6 DUP2 MSTORE PUSH1 0x20 DUP2 KECCAK256 PUSH1 0x1F NOT DUP7 AND SWAP2 JUMPDEST DUP3 DUP2 LT ISZERO PUSH2 0x120C JUMPI DUP9 DUP7 ADD MLOAD DUP3 SSTORE SWAP5 DUP5 ADD SWAP5 PUSH1 0x1 SWAP1 SWAP2 ADD SWAP1 DUP5 ADD PUSH2 0x11ED JUMP JUMPDEST POP DUP6 DUP3 LT ISZERO PUSH2 0x122A JUMPI DUP8 DUP6 ADD MLOAD PUSH1 0x0 NOT PUSH1 0x3 DUP9 SWAP1 SHL PUSH1 0xF8 AND SHR NOT AND DUP2 SSTORE JUMPDEST POP POP POP POP POP PUSH1 0x1 SWAP1 DUP2 SHL ADD SWAP1 SSTORE POP JUMP JUMPDEST PUSH1 0x1 PUSH1 0x1 PUSH1 0xA0 SHL SUB DUP6 AND DUP2 MSTORE PUSH1 0x80 PUSH1 0x20 DUP3 ADD DUP2 SWAP1 MSTORE PUSH1 0x0 SWAP1 PUSH2 0x125E SWAP1 DUP4 ADD DUP7 PUSH2 0xC30 JUMP JUMPDEST DUP5 PUSH1 0x40 DUP5 ADD MSTORE DUP3 DUP2 SUB PUSH1 0x60 DUP5 ADD MSTORE PUSH2 0x1276 DUP2 DUP6 PUSH2 0xC30 JUMP JUMPDEST SWAP8 SWAP7 POP POP POP POP POP POP POP JUMP INVALID LOG2 PUSH5 0x6970667358 0x22 SLT KECCAK256 SIGNEXTEND GASPRICE 0x49 PUSH14 0xAA5F08FE2FF356B6F27414FC53A8 DUP15 PUSH17 0x866A734F2899A427453A35A764736F6C63 NUMBER STOP ADDMOD EQ STOP CALLER "},"methodIdentifiers":{"addMilestones(string[],uint256[],string[])":"e49ffba7","checkExpiredMilestones()":"1dce22c9","completeMilestone(uint256)":"852ea203","getMilestone(uint256)":"2442e1cb","getMilestoneCount()":"8f4cf247","milestones(uint256)":"e89e4ed6","verifyMilestone(uint256,bool,string)":"7b78a57d"}}}}}