{"contracts/PaxmataProjectsV1.sol":{"PaxmataProjectsV1":{"abi":[{"inputs":[],"stateMutability":"nonpayable","type":"constructor"},{"anonymous":false,"inputs":[{"indexed":true,"internalType":"uint256","name":"tokenId","type":"uint256"},{"indexed":false,"internalType":"address","name":"user","type":"address"}],"name":"AccessGranted","type":"event"},{"anonymous":false,"inputs":[{"indexed":true,"internalType":"address","name":"owner","type":"address"},{"indexed":true,"internalType":"address","name":"approved","type":"address"},{"indexed":true,"internalType":"uint256","name":"tokenId","type":"uint256"}],"name":"Approval","type":"event"},{"anonymous":false,"inputs":[{"indexed":true,"internalType":"address","name":"owner","type":"address"},{"indexed":true,"internalType":"address","name":"operator","type":"address"},{"indexed":false,"internalType":"bool","name":"approved","type":"bool"}],"name":"ApprovalForAll","type":"event"},{"anonymous":false,"inputs":[{"indexed":false,"internalType":"uint256","name":"_fromTokenId","type":"uint256"},{"indexed":false,"internalType":"uint256","name":"_toTokenId","type":"uint256"}],"name":"BatchMetadataUpdate","type":"event"},{"anonymous":false,"inputs":[{"indexed":false,"internalType":"uint256","name":"_tokenId","type":"uint256"}],"name":"MetadataUpdate","type":"event"},{"anonymous":false,"inputs":[{"indexed":true,"internalType":"bytes32","name":"role","type":"bytes32"},{"indexed":true,"internalType":"bytes32","name":"previousAdminRole","type":"bytes32"},{"indexed":true,"internalType":"bytes32","name":"newAdminRole","type":"bytes32"}],"name":"RoleAdminChanged","type":"event"},{"anonymous":false,"inputs":[{"indexed":true,"internalType":"bytes32","name":"role","type":"bytes32"},{"indexed":true,"internalType":"address","name":"account","type":"address"},{"indexed":true,"internalType":"address","name":"sender","type":"address"}],"name":"RoleGranted","type":"event"},{"anonymous":false,"inputs":[{"indexed":true,"internalType":"bytes32","name":"role","type":"bytes32"},{"indexed":true,"internalType":"address","name":"account","type":"address"},{"indexed":true,"internalType":"address","name":"sender","type":"address"}],"name":"RoleRevoked","type":"event"},{"anonymous":false,"inputs":[{"indexed":true,"internalType":"uint256","name":"tokenId","type":"uint256"},{"indexed":false,"internalType":"address","name":"stateChannel","type":"address"}],"name":"StateChannelOpened","type":"event"},{"anonymous":false,"inputs":[{"indexed":true,"internalType":"address","name":"from","type":"address"},{"indexed":true,"internalType":"address","name":"to","type":"address"},{"indexed":true,"internalType":"uint256","name":"tokenId","type":"uint256"}],"name":"Transfer","type":"event"},{"inputs":[],"name":"CHANNEL_ADMIN_ROLE","outputs":[{"internalType":"bytes32","name":"","type":"bytes32"}],"stateMutability":"view","type":"function"},{"inputs":[],"name":"DEFAULT_ADMIN_ROLE","outputs":[{"internalType":"bytes32","name":"","type":"bytes32"}],"stateMutability":"view","type":"function"},{"inputs":[],"name":"MINTER_ROLE","outputs":[{"internalType":"bytes32","name":"","type":"bytes32"}],"stateMutability":"view","type":"function"},{"inputs":[{"internalType":"address","name":"to","type":"address"},{"internalType":"uint256","name":"tokenId","type":"uint256"}],"name":"approve","outputs":[],"stateMutability":"nonpayable","type":"function"},{"inputs":[{"internalType":"address","name":"owner","type":"address"}],"name":"balanceOf","outputs":[{"internalType":"uint256","name":"","type":"uint256"}],"stateMutability":"view","type":"function"},{"inputs":[{"internalType":"uint256","name":"tokenId","type":"uint256"}],"name":"getApproved","outputs":[{"internalType":"address","name":"","type":"address"}],"stateMutability":"view","type":"function"},{"inputs":[{"internalType":"bytes32","name":"role","type":"bytes32"}],"name":"getRoleAdmin","outputs":[{"internalType":"bytes32","name":"","type":"bytes32"}],"stateMutability":"view","type":"function"},{"inputs":[{"internalType":"uint256","name":"tokenId","type":"uint256"},{"internalType":"address","name":"user","type":"address"}],"name":"grantAccess","outputs":[],"stateMutability":"nonpayable","type":"function"},{"inputs":[{"internalType":"bytes32","name":"role","type":"bytes32"},{"internalType":"address","name":"account","type":"address"}],"name":"grantRole","outputs":[],"stateMutability":"nonpayable","type":"function"},{"inputs":[{"internalType":"bytes32","name":"role","type":"bytes32"},{"internalType":"address","name":"account","type":"address"}],"name":"hasRole","outputs":[{"internalType":"bool","name":"","type":"bool"}],"stateMutability":"view","type":"function"},{"inputs":[{"internalType":"address","name":"owner","type":"address"},{"internalType":"address","name":"operator","type":"address"}],"name":"isApprovedForAll","outputs":[{"internalType":"bool","name":"","type":"bool"}],"stateMutability":"view","type":"function"},{"inputs":[],"name":"name","outputs":[{"internalType":"string","name":"","type":"string"}],"stateMutability":"view","type":"function"},{"inputs":[{"internalType":"uint256","name":"tokenId","type":"uint256"}],"name":"ownerOf","outputs":[{"internalType":"address","name":"","type":"address"}],"stateMutability":"view","type":"function"},{"inputs":[{"internalType":"bytes32","name":"role","type":"bytes32"},{"internalType":"address","name":"account","type":"address"}],"name":"renounceRole","outputs":[],"stateMutability":"nonpayable","type":"function"},{"inputs":[{"internalType":"bytes32","name":"role","type":"bytes32"},{"internalType":"address","name":"account","type":"address"}],"name":"revokeRole","outputs":[],"stateMutability":"nonpayable","type":"function"},{"inputs":[{"internalType":"address","name":"to","type":"address"},{"internalType":"string","name":"metadataUrl","type":"string"}],"name":"safeMint","outputs":[],"stateMutability":"nonpayable","type":"function"},{"inputs":[{"internalType":"address","name":"from","type":"address"},{"internalType":"address","name":"to","type":"address"},{"internalType":"uint256","name":"tokenId","type":"uint256"}],"name":"safeTransferFrom","outputs":[],"stateMutability":"nonpayable","type":"function"},{"inputs":[{"internalType":"address","name":"from","type":"address"},{"internalType":"address","name":"to","type":"address"},{"internalType":"uint256","name":"tokenId","type":"uint256"},{"internalType":"bytes","name":"data","type":"bytes"}],"name":"safeTransferFrom","outputs":[],"stateMutability":"nonpayable","type":"function"},{"inputs":[{"internalType":"address","name":"operator","type":"address"},{"internalType":"bool","name":"approved","type":"bool"}],"name":"setApprovalForAll","outputs":[],"stateMutability":"nonpayable","type":"function"},{"inputs":[{"internalType":"uint256","name":"","type":"uint256"}],"name":"stateChannels","outputs":[{"internalType":"address","name":"","type":"address"}],"stateMutability":"view","type":"function"},{"inputs":[{"internalType":"bytes4","name":"interfaceId","type":"bytes4"}],"name":"supportsInterface","outputs":[{"internalType":"bool","name":"","type":"bool"}],"stateMutability":"view","type":"function"},{"inputs":[],"name":"symbol","outputs":[{"internalType":"string","name":"","type":"string"}],"stateMutability":"view","type":"function"},{"inputs":[{"internalType":"uint256","name":"index","type":"uint256"}],"name":"tokenByIndex","outputs":[{"internalType":"uint256","name":"","type":"uint256"}],"stateMutability":"view","type":"function"},{"inputs":[{"internalType":"address","name":"owner","type":"address"},{"internalType":"uint256","name":"index","type":"uint256"}],"name":"tokenOfOwnerByIndex","outputs":[{"internalType":"uint256","name":"","type":"uint256"}],"stateMutability":"view","type":"function"},{"inputs":[{"internalType":"uint256","name":"tokenId","type":"uint256"}],"name":"tokenURI","outputs":[{"internalType":"string","name":"","type":"string"}],"stateMutability":"view","type":"function"},{"inputs":[],"name":"totalSupply","outputs":[{"internalType":"uint256","name":"","type":"uint256"}],"stateMutability":"view","type":"function"},{"inputs":[{"internalType":"address","name":"from","type":"address"},{"internalType":"address","name":"to","type":"address"},{"internalType":"uint256","name":"tokenId","type":"uint256"}],"name":"transferFrom","outputs":[],"stateMutability":"nonpayable","type":"function"}],"evm":{"bytecode":{"linkReferences":{},"object":"60806040523480156200001157600080fd5b50604051806040016040528060118152602001705061786d61746150726f6a65637473563160781b8152506040518060400160405280600681526020016505041584d41560d41b81525081600090816200006c919062000218565b5060016200007b828262000218565b506200008d91506000905033620000bf565b620000b97f9f2df0fed2c77648de5860a4cc508cd0818c85b8b8a1ab4ceeef8d981c8956a633620000bf565b620002e4565b620000cb8282620000cf565b5050565b6000828152600b602090815260408083206001600160a01b038516845290915290205460ff16620000cb576000828152600b602090815260408083206001600160a01b03851684529091529020805460ff191660011790556200012f3390565b6001600160a01b0316816001600160a01b0316837f2f8788117e7eff1d82e926ec794901d17c78024a50270940304540a733656f0d60405160405180910390a45050565b634e487b7160e01b600052604160045260246000fd5b600181811c908216806200019e57607f821691505b602082108103620001bf57634e487b7160e01b600052602260045260246000fd5b50919050565b601f8211156200021357600081815260208120601f850160051c81016020861015620001ee5750805b601f850160051c820191505b818110156200020f57828155600101620001fa565b5050505b505050565b81516001600160401b0381111562000234576200023462000173565b6200024c8162000245845462000189565b84620001c5565b602080601f8311600181146200028457600084156200026b5750858301515b600019600386901b1c1916600185901b1785556200020f565b600085815260208120601f198616915b82811015620002b55788860151825594840194600190910190840162000294565b5085821015620002d45787850151600019600388901b60f8161c191681555b5050505050600190811b01905550565b61401b80620002f46000396000f3fe60806040523480156200001157600080fd5b5060043610620001cc5760003560e01c80634f6ccce7116200010d578063a22cb46511620000a3578063d204c45e116200007a578063d204c45e1462000419578063d53913931462000430578063d547741f1462000458578063e985e9c5146200046f57600080fd5b8063a22cb46514620003d4578063b88d4fde14620003eb578063c87b56dd146200040257600080fd5b806370a0823111620000e457806370a08231146200039357806391d1485414620003aa57806395d89b4114620003c1578063a217fddf14620003cb57600080fd5b80634f6ccce7146200034e5780636352211e146200036557806365dd152c146200037c57600080fd5b806323b872dd11620001835780632f745c59116200015a5780632f745c5914620002f257806336568abe146200030957806342842e0e14620003205780634abac588146200033757600080fd5b806323b872dd146200029e578063248a9ca314620002b55780632f2ff15d14620002db57600080fd5b806301ffc9a714620001d157806306fdde0314620001fd578063071308d61462000216578063081812fc146200025b578063095ea7b3146200027257806318160ddd146200028b575b600080fd5b620001e8620001e236600462001f8f565b620004ae565b60405190151581526020015b60405180910390f35b62000207620004c1565b604051620001f4919062002003565b620002426200022736600462002018565b600d602052600090815260409020546001600160a01b031681565b6040516001600160a01b039091168152602001620001f4565b620002426200026c36600462002018565b6200055b565b62000289620002833660046200204f565b62000584565b005b6009545b604051908152602001620001f4565b62000289620002af3660046200207c565b620006a8565b6200028f620002c636600462002018565b6000908152600b602052604090206001015490565b62000289620002ec366004620020bd565b620006e0565b6200028f620003033660046200204f565b62000709565b620002896200031a366004620020bd565b620007a3565b62000289620003313660046200207c565b62000825565b6200028f60008051602062003fc683398151915281565b6200028f6200035f36600462002018565b62000842565b620002426200037636600462002018565b620008db565b620002896200038d366004620020bd565b6200093d565b6200028f620003a4366004620020ec565b62000ae2565b620001e8620003bb366004620020bd565b62000b6a565b6200020762000b95565b6200028f600081565b62000289620003e53660046200210a565b62000ba6565b62000289620003fc366004620021dd565b62000bb3565b620002076200041336600462002018565b62000bf2565b620002896200042a36600462002262565b62000bff565b6200028f7f9f2df0fed2c77648de5860a4cc508cd0818c85b8b8a1ab4ceeef8d981c8956a681565b6200028962000469366004620020bd565b62000d8d565b620001e862000480366004620022cb565b6001600160a01b03918216600090815260056020908152604080832093909416825291909152205460ff1690565b6000620004bb8262000db6565b92915050565b606060008054620004d290620022fa565b80601f01602080910402602001604051908101604052809291908181526020018280546200050090620022fa565b8015620005515780601f10620005255761010080835404028352916020019162000551565b820191906000526020600020905b8154815290600101906020018083116200053357829003601f168201915b5050505050905090565b6000620005688262000dde565b506000908152600460205260409020546001600160a01b031690565b60006200059182620008db565b9050806001600160a01b0316836001600160a01b031603620006045760405162461bcd60e51b815260206004820152602160248201527f4552433732313a20617070726f76616c20746f2063757272656e74206f776e656044820152603960f91b60648201526084015b60405180910390fd5b336001600160a01b038216148062000623575062000623813362000480565b620006975760405162461bcd60e51b815260206004820152603d60248201527f4552433732313a20617070726f76652063616c6c6572206973206e6f7420746f60448201527f6b656e206f776e6572206f7220617070726f76656420666f7220616c6c0000006064820152608401620005fb565b620006a3838362000e42565b505050565b620006b4338262000eb2565b620006d35760405162461bcd60e51b8152600401620005fb9062002336565b620006a383838362000f37565b6000828152600b6020526040902060010154620006fd81620010b6565b620006a38383620010c2565b6000620007168362000ae2565b82106200077a5760405162461bcd60e51b815260206004820152602b60248201527f455243373231456e756d657261626c653a206f776e657220696e646578206f7560448201526a74206f6620626f756e647360a81b6064820152608401620005fb565b506001600160a01b03919091166000908152600760209081526040808320938352929052205490565b6001600160a01b0381163314620008155760405162461bcd60e51b815260206004820152602f60248201527f416363657373436f6e74726f6c3a2063616e206f6e6c792072656e6f756e636560448201526e103937b632b9903337b91039b2b63360891b6064820152608401620005fb565b6200082182826200114c565b5050565b620006a38383836040518060200160405280600081525062000bb3565b60006200084e60095490565b8210620008b35760405162461bcd60e51b815260206004820152602c60248201527f455243373231456e756d657261626c653a20676c6f62616c20696e646578206f60448201526b7574206f6620626f756e647360a01b6064820152608401620005fb565b60098281548110620008c957620008c962002383565b90600052602060002001549050919050565b6000818152600260205260408120546001600160a01b031680620004bb5760405162461bcd60e51b8152602060048201526018602482015277115490cdcc8c4e881a5b9d985b1a59081d1bdad95b88125160421b6044820152606401620005fb565b6200095860008051602062003fc68339815191523362000b6a565b620009a65760405162461bcd60e51b815260206004820152601d60248201527f43616c6c6572206973206e6f742061206368616e6e656c2061646d696e0000006044820152606401620005fb565b6000828152600d60205260409020546001600160a01b031662000a1d5760405162461bcd60e51b815260206004820152602860248201527f4e6f207374617465206368616e6e656c2065786973747320666f722074686973604482015267081d1bdad95b925960c21b6064820152608401620005fb565b6000828152600d602052604090819020549051632f2ff15d60e01b815260008051602062003fc683398151915260048201526001600160a01b03838116602483015290911690632f2ff15d90604401600060405180830381600087803b15801562000a8757600080fd5b505af115801562000a9c573d6000803e3d6000fd5b50506040516001600160a01b03841681528492507f3c3a9147a1fc73dd51a32f4d10c43d457e8cb826eb6f35cac6349eb965ba82b4915060200160405180910390a25050565b60006001600160a01b03821662000b4e5760405162461bcd60e51b815260206004820152602960248201527f4552433732313a2061646472657373207a65726f206973206e6f7420612076616044820152683634b21037bbb732b960b91b6064820152608401620005fb565b506001600160a01b031660009081526003602052604090205490565b6000918252600b602090815260408084206001600160a01b0393909316845291905290205460ff1690565b606060018054620004d290620022fa565b62000821338383620011b6565b62000bbf338362000eb2565b62000bde5760405162461bcd60e51b8152600401620005fb9062002336565b62000bec8484848462001286565b50505050565b6060620004bb82620012c0565b7f9f2df0fed2c77648de5860a4cc508cd0818c85b8b8a1ab4ceeef8d981c8956a662000c2b81620010b6565b600082511162000c7e5760405162461bcd60e51b815260206004820152601c60248201527f4d657461646174612055524c2063616e6e6f7420626520656d707479000000006044820152606401620005fb565b600062000c8a600c5490565b905062000c9b600c80546001019055565b62000ca78482620013d9565b62000cb38184620013f5565b600030828660405162000cc69062001f6a565b6001600160a01b03938416815260208101929092529091166040820152606001604051809103906000f08015801562000d03573d6000803e3d6000fd5b506000838152600d6020526040902080546001600160a01b0319166001600160a01b038316179055905062000d4860008051602062003fc683398151915286620010c2565b6040516001600160a01b038216815282907fb9681c24381920e847fe10a68b36dbd46cfacf49d12ca8bd3a2f768e98a06c869060200160405180910390a25050505050565b6000828152600b602052604090206001015462000daa81620010b6565b620006a383836200114c565b60006001600160e01b03198216637965db0b60e01b1480620004bb5750620004bb82620014c4565b6000818152600260205260409020546001600160a01b031662000e3f5760405162461bcd60e51b8152602060048201526018602482015277115490cdcc8c4e881a5b9d985b1a59081d1bdad95b88125160421b6044820152606401620005fb565b50565b600081815260046020526040902080546001600160a01b0319166001600160a01b038416908117909155819062000e7982620008db565b6001600160a01b03167f8c5be1e5ebec7d5bd14f71427d1e84f3dd0314c0f7b2291e5b200ac8c7c3b92560405160405180910390a45050565b60008062000ec083620008db565b9050806001600160a01b0316846001600160a01b0316148062000f0857506001600160a01b0380821660009081526005602090815260408083209388168352929052205460ff165b8062000f2f5750836001600160a01b031662000f24846200055b565b6001600160a01b0316145b949350505050565b826001600160a01b031662000f4c82620008db565b6001600160a01b03161462000f755760405162461bcd60e51b8152600401620005fb9062002399565b6001600160a01b03821662000fd95760405162461bcd60e51b8152602060048201526024808201527f4552433732313a207472616e7366657220746f20746865207a65726f206164646044820152637265737360e01b6064820152608401620005fb565b62000fe88383836001620014ec565b826001600160a01b031662000ffd82620008db565b6001600160a01b031614620010265760405162461bcd60e51b8152600401620005fb9062002399565b600081815260046020908152604080832080546001600160a01b03199081169091556001600160a01b0387811680865260038552838620805460001901905590871680865283862080546001019055868652600290945282852080549092168417909155905184937fddf252ad1be2c89b69c2b068fc378daa952ba7f163c4a11628f55a4df523b3ef91a4505050565b62000e3f8133620014fa565b620010ce828262000b6a565b62000821576000828152600b602090815260408083206001600160a01b03851684529091529020805460ff19166001179055620011083390565b6001600160a01b0316816001600160a01b0316837f2f8788117e7eff1d82e926ec794901d17c78024a50270940304540a733656f0d60405160405180910390a45050565b62001158828262000b6a565b1562000821576000828152600b602090815260408083206001600160a01b0385168085529252808320805460ff1916905551339285917ff6391f5c32d9c69d2a47ea670b442974b53935d1edc7fd64eb21e047a839171b9190a45050565b816001600160a01b0316836001600160a01b031603620012195760405162461bcd60e51b815260206004820152601960248201527f4552433732313a20617070726f766520746f2063616c6c6572000000000000006044820152606401620005fb565b6001600160a01b03838116600081815260056020908152604080832094871680845294825291829020805460ff191686151590811790915591519182527f17307eab39ab6107e8899845ad3d59bd9653f200f220920489ca2b5937696c31910160405180910390a3505050565b6200129384848462000f37565b620012a1848484846200155e565b62000bec5760405162461bcd60e51b8152600401620005fb90620023de565b6060620012cd8262000dde565b60008281526006602052604081208054620012e890620022fa565b80601f01602080910402602001604051908101604052809291908181526020018280546200131690620022fa565b8015620013675780601f106200133b5761010080835404028352916020019162001367565b820191906000526020600020905b8154815290600101906020018083116200134957829003601f168201915b5050505050905060006200138660408051602081019091526000815290565b9050805160000362001399575092915050565b815115620013ce578082604051602001620013b692919062002430565b60405160208183030381529060405292505050919050565b62000f2f846200166c565b62000821828260405180602001604052806000815250620016e9565b6000828152600260205260409020546001600160a01b0316620014725760405162461bcd60e51b815260206004820152602e60248201527f45524337323155524953746f726167653a2055524920736574206f66206e6f6e60448201526d32bc34b9ba32b73a103a37b5b2b760911b6064820152608401620005fb565b60008281526006602052604090206200148c8282620024b5565b506040518281527ff8e1a15aba9398e019f0b49df1a4fde98ee17ae345cb5f6b5e2c27f5033e8ce79060200160405180910390a15050565b60006001600160e01b0319821663780e9d6360e01b1480620004bb5750620004bb8262001723565b62000bec848484846200174b565b62001506828262000b6a565b620008215762001516816200188e565b62001523836020620018a1565b6040516020016200153692919062002582565b60408051601f198184030181529082905262461bcd60e51b8252620005fb9160040162002003565b60006001600160a01b0384163b156200166157604051630a85bd0160e11b81526001600160a01b0385169063150b7a0290620015a5903390899088908890600401620025fb565b6020604051808303816000875af1925050508015620015e3575060408051601f3d908101601f19168201909252620015e0918101906200263a565b60015b62001646573d80801562001614576040519150601f19603f3d011682016040523d82523d6000602084013e62001619565b606091505b5080516000036200163e5760405162461bcd60e51b8152600401620005fb90620023de565b805181602001fd5b6001600160e01b031916630a85bd0160e11b14905062000f2f565b506001949350505050565b6060620016798262000dde565b60006200169160408051602081019091526000815290565b90506000815111620016b35760405180602001604052806000815250620016e2565b80620016bf8462001a5b565b604051602001620016d292919062002430565b6040516020818303038152906040525b9392505050565b620016f5838362001af5565b6200170460008484846200155e565b620006a35760405162461bcd60e51b8152600401620005fb90620023de565b60006001600160e01b03198216632483248360e11b1480620004bb5750620004bb8262001c96565b6001811115620017bc5760405162461bcd60e51b815260206004820152603560248201527f455243373231456e756d657261626c653a20636f6e7365637574697665207472604482015274185b9cd9995c9cc81b9bdd081cdd5c1c1bdc9d1959605a1b6064820152608401620005fb565b816001600160a01b0385166200181b576200181581600980546000838152600a60205260408120829055600182018355919091527f6e1540171b6c0c960b71a7020d9f60077f6af931a8bbf590da0223dacf75c7af0155565b62001841565b836001600160a01b0316856001600160a01b031614620018415762001841858262001ce9565b6001600160a01b03841662001861576200185b8162001d8b565b62001887565b846001600160a01b0316846001600160a01b031614620018875762001887848262001e45565b5050505050565b6060620004bb6001600160a01b03831660145b60606000620018b283600262002670565b620018bf9060026200268a565b67ffffffffffffffff811115620018da57620018da6200214a565b6040519080825280601f01601f19166020018201604052801562001905576020820181803683370190505b509050600360fc1b8160008151811062001923576200192362002383565b60200101906001600160f81b031916908160001a905350600f60fb1b8160018151811062001955576200195562002383565b60200101906001600160f81b031916908160001a90535060006200197b84600262002670565b620019889060016200268a565b90505b600181111562001a0a576f181899199a1a9b1b9c1cb0b131b232b360811b85600f1660108110620019c057620019c062002383565b1a60f81b828281518110620019d957620019d962002383565b60200101906001600160f81b031916908160001a90535060049490941c9362001a0281620026a0565b90506200198b565b508315620016e25760405162461bcd60e51b815260206004820181905260248201527f537472696e67733a20686578206c656e67746820696e73756666696369656e746044820152606401620005fb565b6060600062001a6a8362001e8b565b600101905060008167ffffffffffffffff81111562001a8d5762001a8d6200214a565b6040519080825280601f01601f19166020018201604052801562001ab8576020820181803683370190505b5090508181016020015b600019016f181899199a1a9b1b9c1cb0b131b232b360811b600a86061a8153600a850494508462001ac257509392505050565b6001600160a01b03821662001b4d5760405162461bcd60e51b815260206004820181905260248201527f4552433732313a206d696e7420746f20746865207a65726f20616464726573736044820152606401620005fb565b6000818152600260205260409020546001600160a01b03161562001bb45760405162461bcd60e51b815260206004820152601c60248201527f4552433732313a20746f6b656e20616c7265616479206d696e746564000000006044820152606401620005fb565b62001bc4600083836001620014ec565b6000818152600260205260409020546001600160a01b03161562001c2b5760405162461bcd60e51b815260206004820152601c60248201527f4552433732313a20746f6b656e20616c7265616479206d696e746564000000006044820152606401620005fb565b6001600160a01b038216600081815260036020908152604080832080546001019055848352600290915280822080546001600160a01b0319168417905551839291907fddf252ad1be2c89b69c2b068fc378daa952ba7f163c4a11628f55a4df523b3ef908290a45050565b60006001600160e01b031982166380ac58cd60e01b148062001cc857506001600160e01b03198216635b5e139f60e01b145b80620004bb57506301ffc9a760e01b6001600160e01b0319831614620004bb565b6000600162001cf88462000ae2565b62001d049190620026ba565b60008381526008602052604090205490915080821462001d58576001600160a01b03841660009081526007602090815260408083208584528252808320548484528184208190558352600890915290208190555b5060009182526008602090815260408084208490556001600160a01b039094168352600781528383209183525290812055565b60095460009062001d9f90600190620026ba565b6000838152600a60205260408120546009805493945090928490811062001dca5762001dca62002383565b90600052602060002001549050806009838154811062001dee5762001dee62002383565b6000918252602080832090910192909255828152600a9091526040808220849055858252812055600980548062001e295762001e29620026d0565b6001900381819060005260206000200160009055905550505050565b600062001e528362000ae2565b6001600160a01b039093166000908152600760209081526040808320868452825280832085905593825260089052919091209190915550565b60008072184f03e93ff9f4daa797ed6e38ed64bf6a1f0160401b831062001ecb5772184f03e93ff9f4daa797ed6e38ed64bf6a1f0160401b830492506040015b6d04ee2d6d415b85acef8100000000831062001ef8576d04ee2d6d415b85acef8100000000830492506020015b662386f26fc10000831062001f1757662386f26fc10000830492506010015b6305f5e100831062001f30576305f5e100830492506008015b612710831062001f4557612710830492506004015b6064831062001f58576064830492506002015b600a8310620004bb5760010192915050565b6118df80620026e783390190565b6001600160e01b03198116811462000e3f57600080fd5b60006020828403121562001fa257600080fd5b8135620016e28162001f78565b60005b8381101562001fcc57818101518382015260200162001fb2565b50506000910152565b6000815180845262001fef81602086016020860162001faf565b601f01601f19169290920160200192915050565b602081526000620016e2602083018462001fd5565b6000602082840312156200202b57600080fd5b5035919050565b80356001600160a01b03811681146200204a57600080fd5b919050565b600080604083850312156200206357600080fd5b6200206e8362002032565b946020939093013593505050565b6000806000606084860312156200209257600080fd5b6200209d8462002032565b9250620020ad6020850162002032565b9150604084013590509250925092565b60008060408385031215620020d157600080fd5b82359150620020e36020840162002032565b90509250929050565b600060208284031215620020ff57600080fd5b620016e28262002032565b600080604083850312156200211e57600080fd5b620021298362002032565b9150602083013580151581146200213f57600080fd5b809150509250929050565b634e487b7160e01b600052604160045260246000fd5b600067ffffffffffffffff808411156200217e576200217e6200214a565b604051601f8501601f19908116603f01168101908282118183101715620021a957620021a96200214a565b81604052809350858152868686011115620021c357600080fd5b858560208301376000602087830101525050509392505050565b60008060008060808587031215620021f457600080fd5b620021ff8562002032565b93506200220f6020860162002032565b925060408501359150606085013567ffffffffffffffff8111156200223357600080fd5b8501601f810187136200224557600080fd5b620022568782356020840162002160565b91505092959194509250565b600080604083850312156200227657600080fd5b620022818362002032565b9150602083013567ffffffffffffffff8111156200229e57600080fd5b8301601f81018513620022b057600080fd5b620022c18582356020840162002160565b9150509250929050565b60008060408385031215620022df57600080fd5b620022ea8362002032565b9150620020e36020840162002032565b600181811c908216806200230f57607f821691505b6020821081036200233057634e487b7160e01b600052602260045260246000fd5b50919050565b6020808252602d908201527f4552433732313a2063616c6c6572206973206e6f7420746f6b656e206f776e6560408201526c1c881bdc88185c1c1c9bdd9959609a1b606082015260800190565b634e487b7160e01b600052603260045260246000fd5b60208082526025908201527f4552433732313a207472616e736665722066726f6d20696e636f72726563742060408201526437bbb732b960d91b606082015260800190565b60208082526032908201527f4552433732313a207472616e7366657220746f206e6f6e20455243373231526560408201527131b2b4bb32b91034b6b83632b6b2b73a32b960711b606082015260800190565b600083516200244481846020880162001faf565b8351908301906200245a81836020880162001faf565b01949350505050565b601f821115620006a357600081815260208120601f850160051c810160208610156200248c5750805b601f850160051c820191505b81811015620024ad5782815560010162002498565b505050505050565b815167ffffffffffffffff811115620024d257620024d26200214a565b620024ea81620024e38454620022fa565b8462002463565b602080601f831160018114620025225760008415620025095750858301515b600019600386901b1c1916600185901b178555620024ad565b600085815260208120601f198616915b82811015620025535788860151825594840194600190910190840162002532565b5085821015620025725787850151600019600388901b60f8161c191681555b5050505050600190811b01905550565b7f416363657373436f6e74726f6c3a206163636f756e7420000000000000000000815260008351620025bc81601785016020880162001faf565b7001034b99036b4b9b9b4b733903937b6329607d1b6017918401918201528351620025ef81602884016020880162001faf565b01602801949350505050565b6001600160a01b0385811682528416602082015260408101839052608060608201819052600090620026309083018462001fd5565b9695505050505050565b6000602082840312156200264d57600080fd5b8151620016e28162001f78565b634e487b7160e01b600052601160045260246000fd5b8082028115828204841417620004bb57620004bb6200265a565b80820180821115620004bb57620004bb6200265a565b600081620026b257620026b26200265a565b506000190190565b81810381811115620004bb57620004bb6200265a565b634e487b7160e01b600052603160045260246000fdfe60806040523480156200001157600080fd5b50604051620018df380380620018df833981016040819052620000349162000160565b60016000908155620000479082620000ab565b620000737f03558406f9f50e902531272ecb70e789d20d2bfc86601dddeb47b87d069826ba82620000ab565b600380546001600160a01b039485166001600160a01b03199182161790915560049290925560058054919093169116179055620001a1565b620000b78282620000bb565b5050565b60008281526001602090815260408083206001600160a01b038516845290915290205460ff16620000b75760008281526001602081815260408084206001600160a01b0386168086529252808420805460ff19169093179092559051339285917f2f8788117e7eff1d82e926ec794901d17c78024a50270940304540a733656f0d9190a45050565b80516001600160a01b03811681146200015b57600080fd5b919050565b6000806000606084860312156200017657600080fd5b620001818462000143565b925060208401519150620001986040850162000143565b90509250925092565b61172e80620001b16000396000f3fe6080604052600436106100fe5760003560e01c80638da5cb5b11610095578063caf89ddb11610064578063caf89ddb146102be578063d547741f146102de578063d56d229d146102fe578063e2c41dbc1461031e578063e89e4ed61461032657600080fd5b80638da5cb5b1461023157806391d148541461026957806396572d5914610289578063a217fddf146102a957600080fd5b806336568abe116100d157806336568abe146101af5780634abac588146101cf5780634d68282f146101f1578063852ea2031461021157600080fd5b806301ffc9a71461010357806317d70f7c14610138578063248a9ca31461015c5780632f2ff15d1461018d575b600080fd5b34801561010f57600080fd5b5061012361011e3660046110a0565b610359565b60405190151581526020015b60405180910390f35b34801561014457600080fd5b5061014e60045481565b60405190815260200161012f565b34801561016857600080fd5b5061014e6101773660046110ca565b6000908152600160208190526040909120015490565b34801561019957600080fd5b506101ad6101a83660046110e3565b610390565b005b3480156101bb57600080fd5b506101ad6101ca3660046110e3565b6103bb565b3480156101db57600080fd5b5061014e6000805160206116d983398151915281565b3480156101fd57600080fd5b506101ad61020c3660046110ca565b61043e565b34801561021d57600080fd5b506101ad61022c3660046110ca565b610575565b34801561023d57600080fd5b50600554610251906001600160a01b031681565b6040516001600160a01b03909116815260200161012f565b34801561027557600080fd5b506101236102843660046110e3565b6106a1565b34801561029557600080fd5b506101ad6102a43660046112d9565b6106cc565b3480156102b557600080fd5b5061014e600081565b3480156102ca57600080fd5b506101ad6102d9366004611386565b610a80565b3480156102ea57600080fd5b506101ad6102f93660046110e3565b610b6f565b34801561030a57600080fd5b50600354610251906001600160a01b031681565b6101ad610b95565b34801561033257600080fd5b506103466103413660046110ca565b610c46565b60405161012f9796959493929190611400565b60006001600160e01b03198216637965db0b60e01b148061038a57506301ffc9a760e01b6001600160e01b03198316145b92915050565b600082815260016020819052604090912001546103ac81610db3565b6103b68383610dc0565b505050565b6001600160a01b03811633146104305760405162461bcd60e51b815260206004820152602f60248201527f416363657373436f6e74726f6c3a2063616e206f6e6c792072656e6f756e636560448201526e103937b632b9903337b91039b2b63360891b60648201526084015b60405180910390fd5b61043a8282610e2b565b5050565b6000805160206116d983398151915261045681610db3565b60006006838154811061046b5761046b611455565b60009182526020909120600690910201600181015490915060ff16801561049b57506001810154610100900460ff165b6104f35760405162461bcd60e51b8152602060048201526024808201527f4d696c6573746f6e65206e6f74207665726966696564206f7220636f6d706c656044820152633a32b21760e11b6064820152608401610427565b60055460028201546040516001600160a01b039092169181156108fc0291906000818181858888f19350505050158015610531573d6000803e3d6000fd5b50827fd66662c0ded9e58fd31d5e44944bcfd07ffc15e6927ecc1382e7941cb7bd24c4826002015460405161056891815260200190565b60405180910390a2505050565b6000805160206116d983398151915261058d81610db3565b6000600683815481106105a2576105a2611455565b9060005260206000209060060201905080600401544211156106065760405162461bcd60e51b815260206004820152601e60248201527f4d696c6573746f6e6520646561646c696e6520686173207061737365642e00006044820152606401610427565b600181015460ff161561065b5760405162461bcd60e51b815260206004820152601c60248201527f4d696c6573746f6e6520616c726561647920636f6d706c657465642e000000006044820152606401610427565b6001818101805460ff1916909117905542600382015560405183907f41f5e423c5ae79dcb8565618891e74a7a6e76232568150b33d79001a62391b1e90600090a2505050565b60009182526001602090815260408084206001600160a01b0393909316845291905290205460ff1690565b6000805160206116d98339815191526106e481610db3565b835185511480156106f6575082518451145b8015610703575081518351145b61074f5760405162461bcd60e51b815260206004820152601860248201527f4172726179206c656e67746873206d757374206d6174636800000000000000006044820152606401610427565b60005b8551811015610a7857600086828151811061076f5761076f611455565b602002602001015151116107c55760405162461bcd60e51b815260206004820152601b60248201527f4465736372697074696f6e2063616e6e6f7420626520656d70747900000000006044820152606401610427565b60008582815181106107d9576107d9611455565b60200260200101511161082e5760405162461bcd60e51b815260206004820181905260248201527f416d6f756e74206d7573742062652067726561746572207468616e207a65726f6044820152606401610427565b4284828151811061084157610841611455565b6020026020010151116108965760405162461bcd60e51b815260206004820152601e60248201527f446561646c696e65206d75737420626520696e207468652066757475726500006044820152606401610427565b60006108a160025490565b905060066040518060e001604052808985815181106108c2576108c2611455565b602002602001015181526020016000151581526020016000151581526020018885815181106108f3576108f3611455565b602002602001015181526020016000815260200187858151811061091957610919611455565b6020026020010151815260200186858151811061093857610938611455565b602090810291909101810151909152825460018101845560009384529220815191926006020190819061096b90826114eb565b506020820151600182018054604085015115156101000261ff00199315159390931661ffff1990911617919091179055606082015160028201556080820151600382015560a0820151600482015560c082015160058201906109cd90826114eb565b5050506109de600280546001019055565b807f0da0726400e7f8a48f7fe18373539f365a929d20a804c5d23ad2c389fb004d4b888481518110610a1257610a12611455565b6020026020010151878581518110610a2c57610a2c611455565b6020026020010151878681518110610a4657610a46611455565b6020026020010151604051610a5d939291906115ab565b60405180910390a25080610a70816115f6565b915050610752565b505050505050565b6000805160206116d9833981519152610a9881610db3565b600060068481548110610aad57610aad611455565b60009182526020909120600690910201600181015490915060ff16610b145760405162461bcd60e51b815260206004820152601860248201527f4d696c6573746f6e65206e6f7420636f6d706c657465642e00000000000000006044820152606401610427565b6001810180548415156101000261ff001990911617905560405184907f8092b3fa7285a4131f576e9a2baf3559d34c8231ae55bd38f68471c3c45a0d8290610b6190861515815260200190565b60405180910390a250505050565b60008281526001602081905260409091200154610b8b81610db3565b6103b68383610e2b565b6000805160206116d9833981519152610bad81610db3565b60003411610c0e5760405162461bcd60e51b815260206004820152602860248201527f4465706f73697420616d6f756e74206d7573742062652067726561746572207460448201526768616e207a65726f60c01b6064820152608401610427565b60405134815233907f543ba50a5eec5e6178218e364b1d0f396157b3c8fa278522c2cb7fd99407d4749060200160405180910390a250565b60068181548110610c5657600080fd5b9060005260206000209060060201600091509050806000018054610c799061146b565b80601f0160208091040260200160405190810160405280929190818152602001828054610ca59061146b565b8015610cf25780601f10610cc757610100808354040283529160200191610cf2565b820191906000526020600020905b815481529060010190602001808311610cd557829003601f168201915b505050506001830154600284015460038501546004860154600587018054969760ff80871698610100909704169650939492939192610d309061146b565b80601f0160208091040260200160405190810160405280929190818152602001828054610d5c9061146b565b8015610da95780601f10610d7e57610100808354040283529160200191610da9565b820191906000526020600020905b815481529060010190602001808311610d8c57829003601f168201915b5050505050905087565b610dbd8133610e92565b50565b610dca82826106a1565b61043a5760008281526001602081815260408084206001600160a01b0386168086529252808420805460ff19169093179092559051339285917f2f8788117e7eff1d82e926ec794901d17c78024a50270940304540a733656f0d9190a45050565b610e3582826106a1565b1561043a5760008281526001602090815260408083206001600160a01b0385168085529252808320805460ff1916905551339285917ff6391f5c32d9c69d2a47ea670b442974b53935d1edc7fd64eb21e047a839171b9190a45050565b610e9c82826106a1565b61043a57610ea981610eeb565b610eb4836020610efd565b604051602001610ec592919061160f565b60408051601f198184030181529082905262461bcd60e51b825261042791600401611684565b606061038a6001600160a01b03831660145b60606000610f0c836002611697565b610f179060026116ae565b67ffffffffffffffff811115610f2f57610f2f61111f565b6040519080825280601f01601f191660200182016040528015610f59576020820181803683370190505b509050600360fc1b81600081518110610f7457610f74611455565b60200101906001600160f81b031916908160001a905350600f60fb1b81600181518110610fa357610fa3611455565b60200101906001600160f81b031916908160001a9053506000610fc7846002611697565b610fd29060016116ae565b90505b600181111561104a576f181899199a1a9b1b9c1cb0b131b232b360811b85600f166010811061100657611006611455565b1a60f81b82828151811061101c5761101c611455565b60200101906001600160f81b031916908160001a90535060049490941c93611043816116c1565b9050610fd5565b5083156110995760405162461bcd60e51b815260206004820181905260248201527f537472696e67733a20686578206c656e67746820696e73756666696369656e746044820152606401610427565b9392505050565b6000602082840312156110b257600080fd5b81356001600160e01b03198116811461109957600080fd5b6000602082840312156110dc57600080fd5b5035919050565b600080604083850312156110f657600080fd5b8235915060208301356001600160a01b038116811461111457600080fd5b809150509250929050565b634e487b7160e01b600052604160045260246000fd5b604051601f8201601f1916810167ffffffffffffffff8111828210171561115e5761115e61111f565b604052919050565b600067ffffffffffffffff8211156111805761118061111f565b5060051b60200190565b6000601f838184011261119c57600080fd5b823560206111b16111ac83611166565b611135565b82815260059290921b850181019181810190878411156111d057600080fd5b8287015b8481101561126757803567ffffffffffffffff808211156111f55760008081fd5b818a0191508a603f83011261120a5760008081fd5b858201356040828211156112205761122061111f565b611231828b01601f19168901611135565b92508183528c818386010111156112485760008081fd5b81818501898501375060009082018701528452509183019183016111d4565b50979650505050505050565b600082601f83011261128457600080fd5b813560206112946111ac83611166565b82815260059290921b840181019181810190868411156112b357600080fd5b8286015b848110156112ce57803583529183019183016112b7565b509695505050505050565b600080600080608085870312156112ef57600080fd5b843567ffffffffffffffff8082111561130757600080fd5b6113138883890161118a565b9550602087013591508082111561132957600080fd5b61133588838901611273565b9450604087013591508082111561134b57600080fd5b61135788838901611273565b9350606087013591508082111561136d57600080fd5b5061137a8782880161118a565b91505092959194509250565b6000806040838503121561139957600080fd5b823591506020830135801515811461111457600080fd5b60005b838110156113cb5781810151838201526020016113b3565b50506000910152565b600081518084526113ec8160208601602086016113b0565b601f01601f19169290920160200192915050565b60e08152600061141360e083018a6113d4565b881515602084015287151560408401528660608401528560808401528460a084015282810360c084015261144781856113d4565b9a9950505050505050505050565b634e487b7160e01b600052603260045260246000fd5b600181811c9082168061147f57607f821691505b60208210810361149f57634e487b7160e01b600052602260045260246000fd5b50919050565b601f8211156103b657600081815260208120601f850160051c810160208610156114cc5750805b601f850160051c820191505b81811015610a78578281556001016114d8565b815167ffffffffffffffff8111156115055761150561111f565b61151981611513845461146b565b846114a5565b602080601f83116001811461154e57600084156115365750858301515b600019600386901b1c1916600185901b178555610a78565b600085815260208120601f198616915b8281101561157d5788860151825594840194600190910190840161155e565b508582101561159b5787850151600019600388901b60f8161c191681555b5050505050600190811b01905550565b6060815260006115be60608301866113d4565b84602084015282810360408401526115d681856113d4565b9695505050505050565b634e487b7160e01b600052601160045260246000fd5b600060018201611608576116086115e0565b5060010190565b7f416363657373436f6e74726f6c3a206163636f756e74200000000000000000008152600083516116478160178501602088016113b0565b7001034b99036b4b9b9b4b733903937b6329607d1b60179184019182015283516116788160288401602088016113b0565b01602801949350505050565b60208152600061109960208301846113d4565b808202811582820484141761038a5761038a6115e0565b8082018082111561038a5761038a6115e0565b6000816116d0576116d06115e0565b50600019019056fe03558406f9f50e902531272ecb70e789d20d2bfc86601dddeb47b87d069826baa26469706673582212205c08c8cb3023acaf8cb19bde0f8c677bb36c5dff3a7c06e5ea424029573c16dc64736f6c6343000814003303558406f9f50e902531272ecb70e789d20d2bfc86601dddeb47b87d069826baa264697066735822122099e70b371e33894ebcaa2ab8ed0eb47137c22d3dbb7616d376947a8a019f640d64736f6c63430008140033","opcodes":"PUSH1 0x80 PUSH1 0x40 MSTORE CALLVALUE DUP1 ISZERO PUSH3 0x11 JUMPI PUSH1 0x0 DUP1 REVERT JUMPDEST POP PUSH1 0x40 MLOAD DUP1 PUSH1 0x40 ADD PUSH1 0x40 MSTORE DUP1 PUSH1 0x11 DUP2 MSTORE PUSH1 0x20 ADD PUSH17 0x5061786D61746150726F6A656374735631 PUSH1 0x78 SHL DUP2 MSTORE POP PUSH1 0x40 MLOAD DUP1 PUSH1 0x40 ADD PUSH1 0x40 MSTORE DUP1 PUSH1 0x6 DUP2 MSTORE PUSH1 0x20 ADD PUSH6 0x5041584D415 PUSH1 0xD4 SHL DUP2 MSTORE POP DUP2 PUSH1 0x0 SWAP1 DUP2 PUSH3 0x6C SWAP2 SWAP1 PUSH3 0x218 JUMP JUMPDEST POP PUSH1 0x1 PUSH3 0x7B DUP3 DUP3 PUSH3 0x218 JUMP JUMPDEST POP PUSH3 0x8D SWAP2 POP PUSH1 0x0 SWAP1 POP CALLER PUSH3 0xBF JUMP JUMPDEST PUSH3 0xB9 PUSH32 0x9F2DF0FED2C77648DE5860A4CC508CD0818C85B8B8A1AB4CEEEF8D981C8956A6 CALLER PUSH3 0xBF JUMP JUMPDEST PUSH3 0x2E4 JUMP JUMPDEST PUSH3 0xCB DUP3 DUP3 PUSH3 0xCF JUMP JUMPDEST POP POP JUMP JUMPDEST PUSH1 0x0 DUP3 DUP2 MSTORE PUSH1 0xB PUSH1 0x20 SWAP1 DUP2 MSTORE PUSH1 0x40 DUP1 DUP4 KECCAK256 PUSH1 0x1 PUSH1 0x1 PUSH1 0xA0 SHL SUB DUP6 AND DUP5 MSTORE SWAP1 SWAP2 MSTORE SWAP1 KECCAK256 SLOAD PUSH1 0xFF AND PUSH3 0xCB JUMPI PUSH1 0x0 DUP3 DUP2 MSTORE PUSH1 0xB PUSH1 0x20 SWAP1 DUP2 MSTORE PUSH1 0x40 DUP1 DUP4 KECCAK256 PUSH1 0x1 PUSH1 0x1 PUSH1 0xA0 SHL SUB DUP6 AND DUP5 MSTORE SWAP1 SWAP2 MSTORE SWAP1 KECCAK256 DUP1 SLOAD PUSH1 0xFF NOT AND PUSH1 0x1 OR SWAP1 SSTORE PUSH3 0x12F CALLER SWAP1 JUMP JUMPDEST PUSH1 0x1 PUSH1 0x1 PUSH1 0xA0 SHL SUB AND DUP2 PUSH1 0x1 PUSH1 0x1 PUSH1 0xA0 SHL SUB AND DUP4 PUSH32 0x2F8788117E7EFF1D82E926EC794901D17C78024A50270940304540A733656F0D PUSH1 0x40 MLOAD PUSH1 0x40 MLOAD DUP1 SWAP2 SUB SWAP1 LOG4 POP POP JUMP JUMPDEST PUSH4 0x4E487B71 PUSH1 0xE0 SHL PUSH1 0x0 MSTORE PUSH1 0x41 PUSH1 0x4 MSTORE PUSH1 0x24 PUSH1 0x0 REVERT JUMPDEST PUSH1 0x1 DUP2 DUP2 SHR SWAP1 DUP3 AND DUP1 PUSH3 0x19E JUMPI PUSH1 0x7F DUP3 AND SWAP2 POP JUMPDEST PUSH1 0x20 DUP3 LT DUP2 SUB PUSH3 0x1BF JUMPI PUSH4 0x4E487B71 PUSH1 0xE0 SHL PUSH1 0x0 MSTORE PUSH1 0x22 PUSH1 0x4 MSTORE PUSH1 0x24 PUSH1 0x0 REVERT JUMPDEST POP SWAP2 SWAP1 POP JUMP JUMPDEST PUSH1 0x1F DUP3 GT ISZERO PUSH3 0x213 JUMPI PUSH1 0x0 DUP2 DUP2 MSTORE PUSH1 0x20 DUP2 KECCAK256 PUSH1 0x1F DUP6 ADD PUSH1 0x5 SHR DUP2 ADD PUSH1 0x20 DUP7 LT ISZERO PUSH3 0x1EE JUMPI POP DUP1 JUMPDEST PUSH1 0x1F DUP6 ADD PUSH1 0x5 SHR DUP3 ADD SWAP2 POP JUMPDEST DUP2 DUP2 LT ISZERO PUSH3 0x20F JUMPI DUP3 DUP2 SSTORE PUSH1 0x1 ADD PUSH3 0x1FA JUMP JUMPDEST POP POP POP JUMPDEST POP POP POP JUMP JUMPDEST DUP2 MLOAD PUSH1 0x1 PUSH1 0x1 PUSH1 0x40 SHL SUB DUP2 GT ISZERO PUSH3 0x234 JUMPI PUSH3 0x234 PUSH3 0x173 JUMP JUMPDEST PUSH3 0x24C DUP2 PUSH3 0x245 DUP5 SLOAD PUSH3 0x189 JUMP JUMPDEST DUP5 PUSH3 0x1C5 JUMP JUMPDEST PUSH1 0x20 DUP1 PUSH1 0x1F DUP4 GT PUSH1 0x1 DUP2 EQ PUSH3 0x284 JUMPI PUSH1 0x0 DUP5 ISZERO PUSH3 0x26B JUMPI POP DUP6 DUP4 ADD MLOAD JUMPDEST PUSH1 0x0 NOT PUSH1 0x3 DUP7 SWAP1 SHL SHR NOT AND PUSH1 0x1 DUP6 SWAP1 SHL OR DUP6 SSTORE PUSH3 0x20F JUMP JUMPDEST PUSH1 0x0 DUP6 DUP2 MSTORE PUSH1 0x20 DUP2 KECCAK256 PUSH1 0x1F NOT DUP7 AND SWAP2 JUMPDEST DUP3 DUP2 LT ISZERO PUSH3 0x2B5 JUMPI DUP9 DUP7 ADD MLOAD DUP3 SSTORE SWAP5 DUP5 ADD SWAP5 PUSH1 0x1 SWAP1 SWAP2 ADD SWAP1 DUP5 ADD PUSH3 0x294 JUMP JUMPDEST POP DUP6 DUP3 LT ISZERO PUSH3 0x2D4 JUMPI DUP8 DUP6 ADD MLOAD PUSH1 0x0 NOT PUSH1 0x3 DUP9 SWAP1 SHL PUSH1 0xF8 AND SHR NOT AND DUP2 SSTORE JUMPDEST POP POP POP POP POP PUSH1 0x1 SWAP1 DUP2 SHL ADD SWAP1 SSTORE POP JUMP JUMPDEST PUSH2 0x401B DUP1 PUSH3 0x2F4 PUSH1 0x0 CODECOPY PUSH1 0x0 RETURN INVALID PUSH1 0x80 PUSH1 0x40 MSTORE CALLVALUE DUP1 ISZERO PUSH3 0x11 JUMPI PUSH1 0x0 DUP1 REVERT JUMPDEST POP PUSH1 0x4 CALLDATASIZE LT PUSH3 0x1CC JUMPI PUSH1 0x0 CALLDATALOAD PUSH1 0xE0 SHR DUP1 PUSH4 0x4F6CCCE7 GT PUSH3 0x10D JUMPI DUP1 PUSH4 0xA22CB465 GT PUSH3 0xA3 JUMPI DUP1 PUSH4 0xD204C45E GT PUSH3 0x7A JUMPI DUP1 PUSH4 0xD204C45E EQ PUSH3 0x419 JUMPI DUP1 PUSH4 0xD5391393 EQ PUSH3 0x430 JUMPI DUP1 PUSH4 0xD547741F EQ PUSH3 0x458 JUMPI DUP1 PUSH4 0xE985E9C5 EQ PUSH3 0x46F JUMPI PUSH1 0x0 DUP1 REVERT JUMPDEST DUP1 PUSH4 0xA22CB465 EQ PUSH3 0x3D4 JUMPI DUP1 PUSH4 0xB88D4FDE EQ PUSH3 0x3EB JUMPI DUP1 PUSH4 0xC87B56DD EQ PUSH3 0x402 JUMPI PUSH1 0x0 DUP1 REVERT JUMPDEST DUP1 PUSH4 0x70A08231 GT PUSH3 0xE4 JUMPI DUP1 PUSH4 0x70A08231 EQ PUSH3 0x393 JUMPI DUP1 PUSH4 0x91D14854 EQ PUSH3 0x3AA JUMPI DUP1 PUSH4 0x95D89B41 EQ PUSH3 0x3C1 JUMPI DUP1 PUSH4 0xA217FDDF EQ PUSH3 0x3CB JUMPI PUSH1 0x0 DUP1 REVERT JUMPDEST DUP1 PUSH4 0x4F6CCCE7 EQ PUSH3 0x34E JUMPI DUP1 PUSH4 0x6352211E EQ PUSH3 0x365 JUMPI DUP1 PUSH4 0x65DD152C EQ PUSH3 0x37C JUMPI PUSH1 0x0 DUP1 REVERT JUMPDEST DUP1 PUSH4 0x23B872DD GT PUSH3 0x183 JUMPI DUP1 PUSH4 0x2F745C59 GT PUSH3 0x15A JUMPI DUP1 PUSH4 0x2F745C59 EQ PUSH3 0x2F2 JUMPI DUP1 PUSH4 0x36568ABE EQ PUSH3 0x309 JUMPI DUP1 PUSH4 0x42842E0E EQ PUSH3 0x320 JUMPI DUP1 PUSH4 0x4ABAC588 EQ PUSH3 0x337 JUMPI PUSH1 0x0 DUP1 REVERT JUMPDEST DUP1 PUSH4 0x23B872DD EQ PUSH3 0x29E JUMPI DUP1 PUSH4 0x248A9CA3 EQ PUSH3 0x2B5 JUMPI DUP1 PUSH4 0x2F2FF15D EQ PUSH3 0x2DB JUMPI PUSH1 0x0 DUP1 REVERT JUMPDEST DUP1 PUSH4 0x1FFC9A7 EQ PUSH3 0x1D1 JUMPI DUP1 PUSH4 0x6FDDE03 EQ PUSH3 0x1FD JUMPI DUP1 PUSH4 0x71308D6 EQ PUSH3 0x216 JUMPI DUP1 PUSH4 0x81812FC EQ PUSH3 0x25B JUMPI DUP1 PUSH4 0x95EA7B3 EQ PUSH3 0x272 JUMPI DUP1 PUSH4 0x18160DDD EQ PUSH3 0x28B JUMPI JUMPDEST PUSH1 0x0 DUP1 REVERT JUMPDEST PUSH3 0x1E8 PUSH3 0x1E2 CALLDATASIZE PUSH1 0x4 PUSH3 0x1F8F JUMP JUMPDEST PUSH3 0x4AE JUMP JUMPDEST PUSH1 0x40 MLOAD SWAP1 ISZERO ISZERO DUP2 MSTORE PUSH1 0x20 ADD JUMPDEST PUSH1 0x40 MLOAD DUP1 SWAP2 SUB SWAP1 RETURN JUMPDEST PUSH3 0x207 PUSH3 0x4C1 JUMP JUMPDEST PUSH1 0x40 MLOAD PUSH3 0x1F4 SWAP2 SWAP1 PUSH3 0x2003 JUMP JUMPDEST PUSH3 0x242 PUSH3 0x227 CALLDATASIZE PUSH1 0x4 PUSH3 0x2018 JUMP JUMPDEST PUSH1 0xD PUSH1 0x20 MSTORE PUSH1 0x0 SWAP1 DUP2 MSTORE PUSH1 0x40 SWAP1 KECCAK256 SLOAD PUSH1 0x1 PUSH1 0x1 PUSH1 0xA0 SHL SUB AND DUP2 JUMP JUMPDEST PUSH1 0x40 MLOAD PUSH1 0x1 PUSH1 0x1 PUSH1 0xA0 SHL SUB SWAP1 SWAP2 AND DUP2 MSTORE PUSH1 0x20 ADD PUSH3 0x1F4 JUMP JUMPDEST PUSH3 0x242 PUSH3 0x26C CALLDATASIZE PUSH1 0x4 PUSH3 0x2018 JUMP JUMPDEST PUSH3 0x55B JUMP JUMPDEST PUSH3 0x289 PUSH3 0x283 CALLDATASIZE PUSH1 0x4 PUSH3 0x204F JUMP JUMPDEST PUSH3 0x584 JUMP JUMPDEST STOP JUMPDEST PUSH1 0x9 SLOAD JUMPDEST PUSH1 0x40 MLOAD SWAP1 DUP2 MSTORE PUSH1 0x20 ADD PUSH3 0x1F4 JUMP JUMPDEST PUSH3 0x289 PUSH3 0x2AF CALLDATASIZE PUSH1 0x4 PUSH3 0x207C JUMP JUMPDEST PUSH3 0x6A8 JUMP JUMPDEST PUSH3 0x28F PUSH3 0x2C6 CALLDATASIZE PUSH1 0x4 PUSH3 0x2018 JUMP JUMPDEST PUSH1 0x0 SWAP1 DUP2 MSTORE PUSH1 0xB PUSH1 0x20 MSTORE PUSH1 0x40 SWAP1 KECCAK256 PUSH1 0x1 ADD SLOAD SWAP1 JUMP JUMPDEST PUSH3 0x289 PUSH3 0x2EC CALLDATASIZE PUSH1 0x4 PUSH3 0x20BD JUMP JUMPDEST PUSH3 0x6E0 JUMP JUMPDEST PUSH3 0x28F PUSH3 0x303 CALLDATASIZE PUSH1 0x4 PUSH3 0x204F JUMP JUMPDEST PUSH3 0x709 JUMP JUMPDEST PUSH3 0x289 PUSH3 0x31A CALLDATASIZE PUSH1 0x4 PUSH3 0x20BD JUMP JUMPDEST PUSH3 0x7A3 JUMP JUMPDEST PUSH3 0x289 PUSH3 0x331 CALLDATASIZE PUSH1 0x4 PUSH3 0x207C JUMP JUMPDEST PUSH3 0x825 JUMP JUMPDEST PUSH3 0x28F PUSH1 0x0 DUP1 MLOAD PUSH1 0x20 PUSH3 0x3FC6 DUP4 CODECOPY DUP2 MLOAD SWAP2 MSTORE DUP2 JUMP JUMPDEST PUSH3 0x28F PUSH3 0x35F CALLDATASIZE PUSH1 0x4 PUSH3 0x2018 JUMP JUMPDEST PUSH3 0x842 JUMP JUMPDEST PUSH3 0x242 PUSH3 0x376 CALLDATASIZE PUSH1 0x4 PUSH3 0x2018 JUMP JUMPDEST PUSH3 0x8DB JUMP JUMPDEST PUSH3 0x289 PUSH3 0x38D CALLDATASIZE PUSH1 0x4 PUSH3 0x20BD JUMP JUMPDEST PUSH3 0x93D JUMP JUMPDEST PUSH3 0x28F PUSH3 0x3A4 CALLDATASIZE PUSH1 0x4 PUSH3 0x20EC JUMP JUMPDEST PUSH3 0xAE2 JUMP JUMPDEST PUSH3 0x1E8 PUSH3 0x3BB CALLDATASIZE PUSH1 0x4 PUSH3 0x20BD JUMP JUMPDEST PUSH3 0xB6A JUMP JUMPDEST PUSH3 0x207 PUSH3 0xB95 JUMP JUMPDEST PUSH3 0x28F PUSH1 0x0 DUP2 JUMP JUMPDEST PUSH3 0x289 PUSH3 0x3E5 CALLDATASIZE PUSH1 0x4 PUSH3 0x210A JUMP JUMPDEST PUSH3 0xBA6 JUMP JUMPDEST PUSH3 0x289 PUSH3 0x3FC CALLDATASIZE PUSH1 0x4 PUSH3 0x21DD JUMP JUMPDEST PUSH3 0xBB3 JUMP JUMPDEST PUSH3 0x207 PUSH3 0x413 CALLDATASIZE PUSH1 0x4 PUSH3 0x2018 JUMP JUMPDEST PUSH3 0xBF2 JUMP JUMPDEST PUSH3 0x289 PUSH3 0x42A CALLDATASIZE PUSH1 0x4 PUSH3 0x2262 JUMP JUMPDEST PUSH3 0xBFF JUMP JUMPDEST PUSH3 0x28F PUSH32 0x9F2DF0FED2C77648DE5860A4CC508CD0818C85B8B8A1AB4CEEEF8D981C8956A6 DUP2 JUMP JUMPDEST PUSH3 0x289 PUSH3 0x469 CALLDATASIZE PUSH1 0x4 PUSH3 0x20BD JUMP JUMPDEST PUSH3 0xD8D JUMP JUMPDEST PUSH3 0x1E8 PUSH3 0x480 CALLDATASIZE PUSH1 0x4 PUSH3 0x22CB JUMP JUMPDEST PUSH1 0x1 PUSH1 0x1 PUSH1 0xA0 SHL SUB SWAP2 DUP3 AND PUSH1 0x0 SWAP1 DUP2 MSTORE PUSH1 0x5 PUSH1 0x20 SWAP1 DUP2 MSTORE PUSH1 0x40 DUP1 DUP4 KECCAK256 SWAP4 SWAP1 SWAP5 AND DUP3 MSTORE SWAP2 SWAP1 SWAP2 MSTORE KECCAK256 SLOAD PUSH1 0xFF AND SWAP1 JUMP JUMPDEST PUSH1 0x0 PUSH3 0x4BB DUP3 PUSH3 0xDB6 JUMP JUMPDEST SWAP3 SWAP2 POP POP JUMP JUMPDEST PUSH1 0x60 PUSH1 0x0 DUP1 SLOAD PUSH3 0x4D2 SWAP1 PUSH3 0x22FA JUMP JUMPDEST DUP1 PUSH1 0x1F ADD PUSH1 0x20 DUP1 SWAP2 DIV MUL PUSH1 0x20 ADD PUSH1 0x40 MLOAD SWAP1 DUP2 ADD PUSH1 0x40 MSTORE DUP1 SWAP3 SWAP2 SWAP1 DUP2 DUP2 MSTORE PUSH1 0x20 ADD DUP3 DUP1 SLOAD PUSH3 0x500 SWAP1 PUSH3 0x22FA JUMP JUMPDEST DUP1 ISZERO PUSH3 0x551 JUMPI DUP1 PUSH1 0x1F LT PUSH3 0x525 JUMPI PUSH2 0x100 DUP1 DUP4 SLOAD DIV MUL DUP4 MSTORE SWAP2 PUSH1 0x20 ADD SWAP2 PUSH3 0x551 JUMP JUMPDEST DUP3 ADD SWAP2 SWAP1 PUSH1 0x0 MSTORE PUSH1 0x20 PUSH1 0x0 KECCAK256 SWAP1 JUMPDEST DUP2 SLOAD DUP2 MSTORE SWAP1 PUSH1 0x1 ADD SWAP1 PUSH1 0x20 ADD DUP1 DUP4 GT PUSH3 0x533 JUMPI DUP3 SWAP1 SUB PUSH1 0x1F AND DUP3 ADD SWAP2 JUMPDEST POP POP POP POP POP SWAP1 POP SWAP1 JUMP JUMPDEST PUSH1 0x0 PUSH3 0x568 DUP3 PUSH3 0xDDE JUMP JUMPDEST POP PUSH1 0x0 SWAP1 DUP2 MSTORE PUSH1 0x4 PUSH1 0x20 MSTORE PUSH1 0x40 SWAP1 KECCAK256 SLOAD PUSH1 0x1 PUSH1 0x1 PUSH1 0xA0 SHL SUB AND SWAP1 JUMP JUMPDEST PUSH1 0x0 PUSH3 0x591 DUP3 PUSH3 0x8DB JUMP JUMPDEST SWAP1 POP DUP1 PUSH1 0x1 PUSH1 0x1 PUSH1 0xA0 SHL SUB AND DUP4 PUSH1 0x1 PUSH1 0x1 PUSH1 0xA0 SHL SUB AND SUB PUSH3 0x604 JUMPI PUSH1 0x40 MLOAD PUSH3 0x461BCD PUSH1 0xE5 SHL DUP2 MSTORE PUSH1 0x20 PUSH1 0x4 DUP3 ADD MSTORE PUSH1 0x21 PUSH1 0x24 DUP3 ADD MSTORE PUSH32 0x4552433732313A20617070726F76616C20746F2063757272656E74206F776E65 PUSH1 0x44 DUP3 ADD MSTORE PUSH1 0x39 PUSH1 0xF9 SHL PUSH1 0x64 DUP3 ADD MSTORE PUSH1 0x84 ADD JUMPDEST PUSH1 0x40 MLOAD DUP1 SWAP2 SUB SWAP1 REVERT JUMPDEST CALLER PUSH1 0x1 PUSH1 0x1 PUSH1 0xA0 SHL SUB DUP3 AND EQ DUP1 PUSH3 0x623 JUMPI POP PUSH3 0x623 DUP2 CALLER PUSH3 0x480 JUMP JUMPDEST PUSH3 0x697 JUMPI PUSH1 0x40 MLOAD PUSH3 0x461BCD PUSH1 0xE5 SHL DUP2 MSTORE PUSH1 0x20 PUSH1 0x4 DUP3 ADD MSTORE PUSH1 0x3D PUSH1 0x24 DUP3 ADD MSTORE PUSH32 0x4552433732313A20617070726F76652063616C6C6572206973206E6F7420746F PUSH1 0x44 DUP3 ADD MSTORE PUSH32 0x6B656E206F776E6572206F7220617070726F76656420666F7220616C6C000000 PUSH1 0x64 DUP3 ADD MSTORE PUSH1 0x84 ADD PUSH3 0x5FB JUMP JUMPDEST PUSH3 0x6A3 DUP4 DUP4 PUSH3 0xE42 JUMP JUMPDEST POP POP POP JUMP JUMPDEST PUSH3 0x6B4 CALLER DUP3 PUSH3 0xEB2 JUMP JUMPDEST PUSH3 0x6D3 JUMPI PUSH1 0x40 MLOAD PUSH3 0x461BCD PUSH1 0xE5 SHL DUP2 MSTORE PUSH1 0x4 ADD PUSH3 0x5FB SWAP1 PUSH3 0x2336 JUMP JUMPDEST PUSH3 0x6A3 DUP4 DUP4 DUP4 PUSH3 0xF37 JUMP JUMPDEST PUSH1 0x0 DUP3 DUP2 MSTORE PUSH1 0xB PUSH1 0x20 MSTORE PUSH1 0x40 SWAP1 KECCAK256 PUSH1 0x1 ADD SLOAD PUSH3 0x6FD DUP2 PUSH3 0x10B6 JUMP JUMPDEST PUSH3 0x6A3 DUP4 DUP4 PUSH3 0x10C2 JUMP JUMPDEST PUSH1 0x0 PUSH3 0x716 DUP4 PUSH3 0xAE2 JUMP JUMPDEST DUP3 LT PUSH3 0x77A JUMPI PUSH1 0x40 MLOAD PUSH3 0x461BCD PUSH1 0xE5 SHL DUP2 MSTORE PUSH1 0x20 PUSH1 0x4 DUP3 ADD MSTORE PUSH1 0x2B PUSH1 0x24 DUP3 ADD MSTORE PUSH32 0x455243373231456E756D657261626C653A206F776E657220696E646578206F75 PUSH1 0x44 DUP3 ADD MSTORE PUSH11 0x74206F6620626F756E6473 PUSH1 0xA8 SHL PUSH1 0x64 DUP3 ADD MSTORE PUSH1 0x84 ADD PUSH3 0x5FB JUMP JUMPDEST POP PUSH1 0x1 PUSH1 0x1 PUSH1 0xA0 SHL SUB SWAP2 SWAP1 SWAP2 AND PUSH1 0x0 SWAP1 DUP2 MSTORE PUSH1 0x7 PUSH1 0x20 SWAP1 DUP2 MSTORE PUSH1 0x40 DUP1 DUP4 KECCAK256 SWAP4 DUP4 MSTORE SWAP3 SWAP1 MSTORE KECCAK256 SLOAD SWAP1 JUMP JUMPDEST PUSH1 0x1 PUSH1 0x1 PUSH1 0xA0 SHL SUB DUP2 AND CALLER EQ PUSH3 0x815 JUMPI PUSH1 0x40 MLOAD PUSH3 0x461BCD PUSH1 0xE5 SHL DUP2 MSTORE PUSH1 0x20 PUSH1 0x4 DUP3 ADD MSTORE PUSH1 0x2F PUSH1 0x24 DUP3 ADD MSTORE PUSH32 0x416363657373436F6E74726F6C3A2063616E206F6E6C792072656E6F756E6365 PUSH1 0x44 DUP3 ADD MSTORE PUSH15 0x103937B632B9903337B91039B2B633 PUSH1 0x89 SHL PUSH1 0x64 DUP3 ADD MSTORE PUSH1 0x84 ADD PUSH3 0x5FB JUMP JUMPDEST PUSH3 0x821 DUP3 DUP3 PUSH3 0x114C JUMP JUMPDEST POP POP JUMP JUMPDEST PUSH3 0x6A3 DUP4 DUP4 DUP4 PUSH1 0x40 MLOAD DUP1 PUSH1 0x20 ADD PUSH1 0x40 MSTORE DUP1 PUSH1 0x0 DUP2 MSTORE POP PUSH3 0xBB3 JUMP JUMPDEST PUSH1 0x0 PUSH3 0x84E PUSH1 0x9 SLOAD SWAP1 JUMP JUMPDEST DUP3 LT PUSH3 0x8B3 JUMPI PUSH1 0x40 MLOAD PUSH3 0x461BCD PUSH1 0xE5 SHL DUP2 MSTORE PUSH1 0x20 PUSH1 0x4 DUP3 ADD MSTORE PUSH1 0x2C PUSH1 0x24 DUP3 ADD MSTORE PUSH32 0x455243373231456E756D657261626C653A20676C6F62616C20696E646578206F PUSH1 0x44 DUP3 ADD MSTORE PUSH12 0x7574206F6620626F756E6473 PUSH1 0xA0 SHL PUSH1 0x64 DUP3 ADD MSTORE PUSH1 0x84 ADD PUSH3 0x5FB JUMP JUMPDEST PUSH1 0x9 DUP3 DUP2 SLOAD DUP2 LT PUSH3 0x8C9 JUMPI PUSH3 0x8C9 PUSH3 0x2383 JUMP JUMPDEST SWAP1 PUSH1 0x0 MSTORE PUSH1 0x20 PUSH1 0x0 KECCAK256 ADD SLOAD SWAP1 POP SWAP2 SWAP1 POP JUMP JUMPDEST PUSH1 0x0 DUP2 DUP2 MSTORE PUSH1 0x2 PUSH1 0x20 MSTORE PUSH1 0x40 DUP2 KECCAK256 SLOAD PUSH1 0x1 PUSH1 0x1 PUSH1 0xA0 SHL SUB AND DUP1 PUSH3 0x4BB JUMPI PUSH1 0x40 MLOAD PUSH3 0x461BCD PUSH1 0xE5 SHL DUP2 MSTORE PUSH1 0x20 PUSH1 0x4 DUP3 ADD MSTORE PUSH1 0x18 PUSH1 0x24 DUP3 ADD MSTORE PUSH24 0x115490CDCC8C4E881A5B9D985B1A59081D1BDAD95B881251 PUSH1 0x42 SHL PUSH1 0x44 DUP3 ADD MSTORE PUSH1 0x64 ADD PUSH3 0x5FB JUMP JUMPDEST PUSH3 0x958 PUSH1 0x0 DUP1 MLOAD PUSH1 0x20 PUSH3 0x3FC6 DUP4 CODECOPY DUP2 MLOAD SWAP2 MSTORE CALLER PUSH3 0xB6A JUMP JUMPDEST PUSH3 0x9A6 JUMPI PUSH1 0x40 MLOAD PUSH3 0x461BCD PUSH1 0xE5 SHL DUP2 MSTORE PUSH1 0x20 PUSH1 0x4 DUP3 ADD MSTORE PUSH1 0x1D PUSH1 0x24 DUP3 ADD MSTORE PUSH32 0x43616C6C6572206973206E6F742061206368616E6E656C2061646D696E000000 PUSH1 0x44 DUP3 ADD MSTORE PUSH1 0x64 ADD PUSH3 0x5FB JUMP JUMPDEST PUSH1 0x0 DUP3 DUP2 MSTORE PUSH1 0xD PUSH1 0x20 MSTORE PUSH1 0x40 SWAP1 KECCAK256 SLOAD PUSH1 0x1 PUSH1 0x1 PUSH1 0xA0 SHL SUB AND PUSH3 0xA1D JUMPI PUSH1 0x40 MLOAD PUSH3 0x461BCD PUSH1 0xE5 SHL DUP2 MSTORE PUSH1 0x20 PUSH1 0x4 DUP3 ADD MSTORE PUSH1 0x28 PUSH1 0x24 DUP3 ADD MSTORE PUSH32 0x4E6F207374617465206368616E6E656C2065786973747320666F722074686973 PUSH1 0x44 DUP3 ADD MSTORE PUSH8 0x81D1BDAD95B9259 PUSH1 0xC2 SHL PUSH1 0x64 DUP3 ADD MSTORE PUSH1 0x84 ADD PUSH3 0x5FB JUMP JUMPDEST PUSH1 0x0 DUP3 DUP2 MSTORE PUSH1 0xD PUSH1 0x20 MSTORE PUSH1 0x40 SWAP1 DUP2 SWAP1 KECCAK256 SLOAD SWAP1 MLOAD PUSH4 0x2F2FF15D PUSH1 0xE0 SHL DUP2 MSTORE PUSH1 0x0 DUP1 MLOAD PUSH1 0x20 PUSH3 0x3FC6 DUP4 CODECOPY DUP2 MLOAD SWAP2 MSTORE PUSH1 0x4 DUP3 ADD MSTORE PUSH1 0x1 PUSH1 0x1 PUSH1 0xA0 SHL SUB DUP4 DUP2 AND PUSH1 0x24 DUP4 ADD MSTORE SWAP1 SWAP2 AND SWAP1 PUSH4 0x2F2FF15D SWAP1 PUSH1 0x44 ADD PUSH1 0x0 PUSH1 0x40 MLOAD DUP1 DUP4 SUB DUP2 PUSH1 0x0 DUP8 DUP1 EXTCODESIZE ISZERO DUP1 ISZERO PUSH3 0xA87 JUMPI PUSH1 0x0 DUP1 REVERT JUMPDEST POP GAS CALL ISZERO DUP1 ISZERO PUSH3 0xA9C JUMPI RETURNDATASIZE PUSH1 0x0 DUP1 RETURNDATACOPY RETURNDATASIZE PUSH1 0x0 REVERT JUMPDEST POP POP PUSH1 0x40 MLOAD PUSH1 0x1 PUSH1 0x1 PUSH1 0xA0 SHL SUB DUP5 AND DUP2 MSTORE DUP5 SWAP3 POP PUSH32 0x3C3A9147A1FC73DD51A32F4D10C43D457E8CB826EB6F35CAC6349EB965BA82B4 SWAP2 POP PUSH1 0x20 ADD PUSH1 0x40 MLOAD DUP1 SWAP2 SUB SWAP1 LOG2 POP POP JUMP JUMPDEST PUSH1 0x0 PUSH1 0x1 PUSH1 0x1 PUSH1 0xA0 SHL SUB DUP3 AND PUSH3 0xB4E JUMPI PUSH1 0x40 MLOAD PUSH3 0x461BCD PUSH1 0xE5 SHL DUP2 MSTORE PUSH1 0x20 PUSH1 0x4 DUP3 ADD MSTORE PUSH1 0x29 PUSH1 0x24 DUP3 ADD MSTORE PUSH32 0x4552433732313A2061646472657373207A65726F206973206E6F742061207661 PUSH1 0x44 DUP3 ADD MSTORE PUSH9 0x3634B21037BBB732B9 PUSH1 0xB9 SHL PUSH1 0x64 DUP3 ADD MSTORE PUSH1 0x84 ADD PUSH3 0x5FB JUMP JUMPDEST POP PUSH1 0x1 PUSH1 0x1 PUSH1 0xA0 SHL SUB AND PUSH1 0x0 SWAP1 DUP2 MSTORE PUSH1 0x3 PUSH1 0x20 MSTORE PUSH1 0x40 SWAP1 KECCAK256 SLOAD SWAP1 JUMP JUMPDEST PUSH1 0x0 SWAP2 DUP3 MSTORE PUSH1 0xB PUSH1 0x20 SWAP1 DUP2 MSTORE PUSH1 0x40 DUP1 DUP5 KECCAK256 PUSH1 0x1 PUSH1 0x1 PUSH1 0xA0 SHL SUB SWAP4 SWAP1 SWAP4 AND DUP5 MSTORE SWAP2 SWAP1 MSTORE SWAP1 KECCAK256 SLOAD PUSH1 0xFF AND SWAP1 JUMP JUMPDEST PUSH1 0x60 PUSH1 0x1 DUP1 SLOAD PUSH3 0x4D2 SWAP1 PUSH3 0x22FA JUMP JUMPDEST PUSH3 0x821 CALLER DUP4 DUP4 PUSH3 0x11B6 JUMP JUMPDEST PUSH3 0xBBF CALLER DUP4 PUSH3 0xEB2 JUMP JUMPDEST PUSH3 0xBDE JUMPI PUSH1 0x40 MLOAD PUSH3 0x461BCD PUSH1 0xE5 SHL DUP2 MSTORE PUSH1 0x4 ADD PUSH3 0x5FB SWAP1 PUSH3 0x2336 JUMP JUMPDEST PUSH3 0xBEC DUP5 DUP5 DUP5 DUP5 PUSH3 0x1286 JUMP JUMPDEST POP POP POP POP JUMP JUMPDEST PUSH1 0x60 PUSH3 0x4BB DUP3 PUSH3 0x12C0 JUMP JUMPDEST PUSH32 0x9F2DF0FED2C77648DE5860A4CC508CD0818C85B8B8A1AB4CEEEF8D981C8956A6 PUSH3 0xC2B DUP2 PUSH3 0x10B6 JUMP JUMPDEST PUSH1 0x0 DUP3 MLOAD GT PUSH3 0xC7E JUMPI PUSH1 0x40 MLOAD PUSH3 0x461BCD PUSH1 0xE5 SHL DUP2 MSTORE PUSH1 0x20 PUSH1 0x4 DUP3 ADD MSTORE PUSH1 0x1C PUSH1 0x24 DUP3 ADD MSTORE PUSH32 0x4D657461646174612055524C2063616E6E6F7420626520656D70747900000000 PUSH1 0x44 DUP3 ADD MSTORE PUSH1 0x64 ADD PUSH3 0x5FB JUMP JUMPDEST PUSH1 0x0 PUSH3 0xC8A PUSH1 0xC SLOAD SWAP1 JUMP JUMPDEST SWAP1 POP PUSH3 0xC9B PUSH1 0xC DUP1 SLOAD PUSH1 0x1 ADD SWAP1 SSTORE JUMP JUMPDEST PUSH3 0xCA7 DUP5 DUP3 PUSH3 0x13D9 JUMP JUMPDEST PUSH3 0xCB3 DUP2 DUP5 PUSH3 0x13F5 JUMP JUMPDEST PUSH1 0x0 ADDRESS DUP3 DUP7 PUSH1 0x40 MLOAD PUSH3 0xCC6 SWAP1 PUSH3 0x1F6A JUMP JUMPDEST PUSH1 0x1 PUSH1 0x1 PUSH1 0xA0 SHL SUB SWAP4 DUP5 AND DUP2 MSTORE PUSH1 0x20 DUP2 ADD SWAP3 SWAP1 SWAP3 MSTORE SWAP1 SWAP2 AND PUSH1 0x40 DUP3 ADD MSTORE PUSH1 0x60 ADD PUSH1 0x40 MLOAD DUP1 SWAP2 SUB SWAP1 PUSH1 0x0 CREATE DUP1 ISZERO DUP1 ISZERO PUSH3 0xD03 JUMPI RETURNDATASIZE PUSH1 0x0 DUP1 RETURNDATACOPY RETURNDATASIZE PUSH1 0x0 REVERT JUMPDEST POP PUSH1 0x0 DUP4 DUP2 MSTORE PUSH1 0xD PUSH1 0x20 MSTORE PUSH1 0x40 SWAP1 KECCAK256 DUP1 SLOAD PUSH1 0x1 PUSH1 0x1 PUSH1 0xA0 SHL SUB NOT AND PUSH1 0x1 PUSH1 0x1 PUSH1 0xA0 SHL SUB DUP4 AND OR SWAP1 SSTORE SWAP1 POP PUSH3 0xD48 PUSH1 0x0 DUP1 MLOAD PUSH1 0x20 PUSH3 0x3FC6 DUP4 CODECOPY DUP2 MLOAD SWAP2 MSTORE DUP7 PUSH3 0x10C2 JUMP JUMPDEST PUSH1 0x40 MLOAD PUSH1 0x1 PUSH1 0x1 PUSH1 0xA0 SHL SUB DUP3 AND DUP2 MSTORE DUP3 SWAP1 PUSH32 0xB9681C24381920E847FE10A68B36DBD46CFACF49D12CA8BD3A2F768E98A06C86 SWAP1 PUSH1 0x20 ADD PUSH1 0x40 MLOAD DUP1 SWAP2 SUB SWAP1 LOG2 POP POP POP POP POP JUMP JUMPDEST PUSH1 0x0 DUP3 DUP2 MSTORE PUSH1 0xB PUSH1 0x20 MSTORE PUSH1 0x40 SWAP1 KECCAK256 PUSH1 0x1 ADD SLOAD PUSH3 0xDAA DUP2 PUSH3 0x10B6 JUMP JUMPDEST PUSH3 0x6A3 DUP4 DUP4 PUSH3 0x114C JUMP JUMPDEST PUSH1 0x0 PUSH1 0x1 PUSH1 0x1 PUSH1 0xE0 SHL SUB NOT DUP3 AND PUSH4 0x7965DB0B PUSH1 0xE0 SHL EQ DUP1 PUSH3 0x4BB JUMPI POP PUSH3 0x4BB DUP3 PUSH3 0x14C4 JUMP JUMPDEST PUSH1 0x0 DUP2 DUP2 MSTORE PUSH1 0x2 PUSH1 0x20 MSTORE PUSH1 0x40 SWAP1 KECCAK256 SLOAD PUSH1 0x1 PUSH1 0x1 PUSH1 0xA0 SHL SUB AND PUSH3 0xE3F JUMPI PUSH1 0x40 MLOAD PUSH3 0x461BCD PUSH1 0xE5 SHL DUP2 MSTORE PUSH1 0x20 PUSH1 0x4 DUP3 ADD MSTORE PUSH1 0x18 PUSH1 0x24 DUP3 ADD MSTORE PUSH24 0x115490CDCC8C4E881A5B9D985B1A59081D1BDAD95B881251 PUSH1 0x42 SHL PUSH1 0x44 DUP3 ADD MSTORE PUSH1 0x64 ADD PUSH3 0x5FB JUMP JUMPDEST POP JUMP JUMPDEST PUSH1 0x0 DUP2 DUP2 MSTORE PUSH1 0x4 PUSH1 0x20 MSTORE PUSH1 0x40 SWAP1 KECCAK256 DUP1 SLOAD PUSH1 0x1 PUSH1 0x1 PUSH1 0xA0 SHL SUB NOT AND PUSH1 0x1 PUSH1 0x1 PUSH1 0xA0 SHL SUB DUP5 AND SWAP1 DUP2 OR SWAP1 SWAP2 SSTORE DUP2 SWAP1 PUSH3 0xE79 DUP3 PUSH3 0x8DB JUMP JUMPDEST PUSH1 0x1 PUSH1 0x1 PUSH1 0xA0 SHL SUB AND PUSH32 0x8C5BE1E5EBEC7D5BD14F71427D1E84F3DD0314C0F7B2291E5B200AC8C7C3B925 PUSH1 0x40 MLOAD PUSH1 0x40 MLOAD DUP1 SWAP2 SUB SWAP1 LOG4 POP POP JUMP JUMPDEST PUSH1 0x0 DUP1 PUSH3 0xEC0 DUP4 PUSH3 0x8DB JUMP JUMPDEST SWAP1 POP DUP1 PUSH1 0x1 PUSH1 0x1 PUSH1 0xA0 SHL SUB AND DUP5 PUSH1 0x1 PUSH1 0x1 PUSH1 0xA0 SHL SUB AND EQ DUP1 PUSH3 0xF08 JUMPI POP PUSH1 0x1 PUSH1 0x1 PUSH1 0xA0 SHL SUB DUP1 DUP3 AND PUSH1 0x0 SWAP1 DUP2 MSTORE PUSH1 0x5 PUSH1 0x20 SWAP1 DUP2 MSTORE PUSH1 0x40 DUP1 DUP4 KECCAK256 SWAP4 DUP9 AND DUP4 MSTORE SWAP3 SWAP1 MSTORE KECCAK256 SLOAD PUSH1 0xFF AND JUMPDEST DUP1 PUSH3 0xF2F JUMPI POP DUP4 PUSH1 0x1 PUSH1 0x1 PUSH1 0xA0 SHL SUB AND PUSH3 0xF24 DUP5 PUSH3 0x55B JUMP JUMPDEST PUSH1 0x1 PUSH1 0x1 PUSH1 0xA0 SHL SUB AND EQ JUMPDEST SWAP5 SWAP4 POP POP POP POP JUMP JUMPDEST DUP3 PUSH1 0x1 PUSH1 0x1 PUSH1 0xA0 SHL SUB AND PUSH3 0xF4C DUP3 PUSH3 0x8DB JUMP JUMPDEST PUSH1 0x1 PUSH1 0x1 PUSH1 0xA0 SHL SUB AND EQ PUSH3 0xF75 JUMPI PUSH1 0x40 MLOAD PUSH3 0x461BCD PUSH1 0xE5 SHL DUP2 MSTORE PUSH1 0x4 ADD PUSH3 0x5FB SWAP1 PUSH3 0x2399 JUMP JUMPDEST PUSH1 0x1 PUSH1 0x1 PUSH1 0xA0 SHL SUB DUP3 AND PUSH3 0xFD9 JUMPI PUSH1 0x40 MLOAD PUSH3 0x461BCD PUSH1 0xE5 SHL DUP2 MSTORE PUSH1 0x20 PUSH1 0x4 DUP3 ADD MSTORE PUSH1 0x24 DUP1 DUP3 ADD MSTORE PUSH32 0x4552433732313A207472616E7366657220746F20746865207A65726F20616464 PUSH1 0x44 DUP3 ADD MSTORE PUSH4 0x72657373 PUSH1 0xE0 SHL PUSH1 0x64 DUP3 ADD MSTORE PUSH1 0x84 ADD PUSH3 0x5FB JUMP JUMPDEST PUSH3 0xFE8 DUP4 DUP4 DUP4 PUSH1 0x1 PUSH3 0x14EC JUMP JUMPDEST DUP3 PUSH1 0x1 PUSH1 0x1 PUSH1 0xA0 SHL SUB AND PUSH3 0xFFD DUP3 PUSH3 0x8DB JUMP JUMPDEST PUSH1 0x1 PUSH1 0x1 PUSH1 0xA0 SHL SUB AND EQ PUSH3 0x1026 JUMPI PUSH1 0x40 MLOAD PUSH3 0x461BCD PUSH1 0xE5 SHL DUP2 MSTORE PUSH1 0x4 ADD PUSH3 0x5FB SWAP1 PUSH3 0x2399 JUMP JUMPDEST PUSH1 0x0 DUP2 DUP2 MSTORE PUSH1 0x4 PUSH1 0x20 SWAP1 DUP2 MSTORE PUSH1 0x40 DUP1 DUP4 KECCAK256 DUP1 SLOAD PUSH1 0x1 PUSH1 0x1 PUSH1 0xA0 SHL SUB NOT SWAP1 DUP2 AND SWAP1 SWAP2 SSTORE PUSH1 0x1 PUSH1 0x1 PUSH1 0xA0 SHL SUB DUP8 DUP2 AND DUP1 DUP7 MSTORE PUSH1 0x3 DUP6 MSTORE DUP4 DUP7 KECCAK256 DUP1 SLOAD PUSH1 0x0 NOT ADD SWAP1 SSTORE SWAP1 DUP8 AND DUP1 DUP7 MSTORE DUP4 DUP7 KECCAK256 DUP1 SLOAD PUSH1 0x1 ADD SWAP1 SSTORE DUP7 DUP7 MSTORE PUSH1 0x2 SWAP1 SWAP5 MSTORE DUP3 DUP6 KECCAK256 DUP1 SLOAD SWAP1 SWAP3 AND DUP5 OR SWAP1 SWAP2 SSTORE SWAP1 MLOAD DUP5 SWAP4 PUSH32 0xDDF252AD1BE2C89B69C2B068FC378DAA952BA7F163C4A11628F55A4DF523B3EF SWAP2 LOG4 POP POP POP JUMP JUMPDEST PUSH3 0xE3F DUP2 CALLER PUSH3 0x14FA JUMP JUMPDEST PUSH3 0x10CE DUP3 DUP3 PUSH3 0xB6A JUMP JUMPDEST PUSH3 0x821 JUMPI PUSH1 0x0 DUP3 DUP2 MSTORE PUSH1 0xB PUSH1 0x20 SWAP1 DUP2 MSTORE PUSH1 0x40 DUP1 DUP4 KECCAK256 PUSH1 0x1 PUSH1 0x1 PUSH1 0xA0 SHL SUB DUP6 AND DUP5 MSTORE SWAP1 SWAP2 MSTORE SWAP1 KECCAK256 DUP1 SLOAD PUSH1 0xFF NOT AND PUSH1 0x1 OR SWAP1 SSTORE PUSH3 0x1108 CALLER SWAP1 JUMP JUMPDEST PUSH1 0x1 PUSH1 0x1 PUSH1 0xA0 SHL SUB AND DUP2 PUSH1 0x1 PUSH1 0x1 PUSH1 0xA0 SHL SUB AND DUP4 PUSH32 0x2F8788117E7EFF1D82E926EC794901D17C78024A50270940304540A733656F0D PUSH1 0x40 MLOAD PUSH1 0x40 MLOAD DUP1 SWAP2 SUB SWAP1 LOG4 POP POP JUMP JUMPDEST PUSH3 0x1158 DUP3 DUP3 PUSH3 0xB6A JUMP JUMPDEST ISZERO PUSH3 0x821 JUMPI PUSH1 0x0 DUP3 DUP2 MSTORE PUSH1 0xB PUSH1 0x20 SWAP1 DUP2 MSTORE PUSH1 0x40 DUP1 DUP4 KECCAK256 PUSH1 0x1 PUSH1 0x1 PUSH1 0xA0 SHL SUB DUP6 AND DUP1 DUP6 MSTORE SWAP3 MSTORE DUP1 DUP4 KECCAK256 DUP1 SLOAD PUSH1 0xFF NOT AND SWAP1 SSTORE MLOAD CALLER SWAP3 DUP6 SWAP2 PUSH32 0xF6391F5C32D9C69D2A47EA670B442974B53935D1EDC7FD64EB21E047A839171B SWAP2 SWAP1 LOG4 POP POP JUMP JUMPDEST DUP2 PUSH1 0x1 PUSH1 0x1 PUSH1 0xA0 SHL SUB AND DUP4 PUSH1 0x1 PUSH1 0x1 PUSH1 0xA0 SHL SUB AND SUB PUSH3 0x1219 JUMPI PUSH1 0x40 MLOAD PUSH3 0x461BCD PUSH1 0xE5 SHL DUP2 MSTORE PUSH1 0x20 PUSH1 0x4 DUP3 ADD MSTORE PUSH1 0x19 PUSH1 0x24 DUP3 ADD MSTORE PUSH32 0x4552433732313A20617070726F766520746F2063616C6C657200000000000000 PUSH1 0x44 DUP3 ADD MSTORE PUSH1 0x64 ADD PUSH3 0x5FB JUMP JUMPDEST PUSH1 0x1 PUSH1 0x1 PUSH1 0xA0 SHL SUB DUP4 DUP2 AND PUSH1 0x0 DUP2 DUP2 MSTORE PUSH1 0x5 PUSH1 0x20 SWAP1 DUP2 MSTORE PUSH1 0x40 DUP1 DUP4 KECCAK256 SWAP5 DUP8 AND DUP1 DUP5 MSTORE SWAP5 DUP3 MSTORE SWAP2 DUP3 SWAP1 KECCAK256 DUP1 SLOAD PUSH1 0xFF NOT AND DUP7 ISZERO ISZERO SWAP1 DUP2 OR SWAP1 SWAP2 SSTORE SWAP2 MLOAD SWAP2 DUP3 MSTORE PUSH32 0x17307EAB39AB6107E8899845AD3D59BD9653F200F220920489CA2B5937696C31 SWAP2 ADD PUSH1 0x40 MLOAD DUP1 SWAP2 SUB SWAP1 LOG3 POP POP POP JUMP JUMPDEST PUSH3 0x1293 DUP5 DUP5 DUP5 PUSH3 0xF37 JUMP JUMPDEST PUSH3 0x12A1 DUP5 DUP5 DUP5 DUP5 PUSH3 0x155E JUMP JUMPDEST PUSH3 0xBEC JUMPI PUSH1 0x40 MLOAD PUSH3 0x461BCD PUSH1 0xE5 SHL DUP2 MSTORE PUSH1 0x4 ADD PUSH3 0x5FB SWAP1 PUSH3 0x23DE JUMP JUMPDEST PUSH1 0x60 PUSH3 0x12CD DUP3 PUSH3 0xDDE JUMP JUMPDEST PUSH1 0x0 DUP3 DUP2 MSTORE PUSH1 0x6 PUSH1 0x20 MSTORE PUSH1 0x40 DUP2 KECCAK256 DUP1 SLOAD PUSH3 0x12E8 SWAP1 PUSH3 0x22FA JUMP JUMPDEST DUP1 PUSH1 0x1F ADD PUSH1 0x20 DUP1 SWAP2 DIV MUL PUSH1 0x20 ADD PUSH1 0x40 MLOAD SWAP1 DUP2 ADD PUSH1 0x40 MSTORE DUP1 SWAP3 SWAP2 SWAP1 DUP2 DUP2 MSTORE PUSH1 0x20 ADD DUP3 DUP1 SLOAD PUSH3 0x1316 SWAP1 PUSH3 0x22FA JUMP JUMPDEST DUP1 ISZERO PUSH3 0x1367 JUMPI DUP1 PUSH1 0x1F LT PUSH3 0x133B JUMPI PUSH2 0x100 DUP1 DUP4 SLOAD DIV MUL DUP4 MSTORE SWAP2 PUSH1 0x20 ADD SWAP2 PUSH3 0x1367 JUMP JUMPDEST DUP3 ADD SWAP2 SWAP1 PUSH1 0x0 MSTORE PUSH1 0x20 PUSH1 0x0 KECCAK256 SWAP1 JUMPDEST DUP2 SLOAD DUP2 MSTORE SWAP1 PUSH1 0x1 ADD SWAP1 PUSH1 0x20 ADD DUP1 DUP4 GT PUSH3 0x1349 JUMPI DUP3 SWAP1 SUB PUSH1 0x1F AND DUP3 ADD SWAP2 JUMPDEST POP POP POP POP POP SWAP1 POP PUSH1 0x0 PUSH3 0x1386 PUSH1 0x40 DUP1 MLOAD PUSH1 0x20 DUP2 ADD SWAP1 SWAP2 MSTORE PUSH1 0x0 DUP2 MSTORE SWAP1 JUMP JUMPDEST SWAP1 POP DUP1 MLOAD PUSH1 0x0 SUB PUSH3 0x1399 JUMPI POP SWAP3 SWAP2 POP POP JUMP JUMPDEST DUP2 MLOAD ISZERO PUSH3 0x13CE JUMPI DUP1 DUP3 PUSH1 0x40 MLOAD PUSH1 0x20 ADD PUSH3 0x13B6 SWAP3 SWAP2 SWAP1 PUSH3 0x2430 JUMP JUMPDEST PUSH1 0x40 MLOAD PUSH1 0x20 DUP2 DUP4 SUB SUB DUP2 MSTORE SWAP1 PUSH1 0x40 MSTORE SWAP3 POP POP POP SWAP2 SWAP1 POP JUMP JUMPDEST PUSH3 0xF2F DUP5 PUSH3 0x166C JUMP JUMPDEST PUSH3 0x821 DUP3 DUP3 PUSH1 0x40 MLOAD DUP1 PUSH1 0x20 ADD PUSH1 0x40 MSTORE DUP1 PUSH1 0x0 DUP2 MSTORE POP PUSH3 0x16E9 JUMP JUMPDEST PUSH1 0x0 DUP3 DUP2 MSTORE PUSH1 0x2 PUSH1 0x20 MSTORE PUSH1 0x40 SWAP1 KECCAK256 SLOAD PUSH1 0x1 PUSH1 0x1 PUSH1 0xA0 SHL SUB AND PUSH3 0x1472 JUMPI PUSH1 0x40 MLOAD PUSH3 0x461BCD PUSH1 0xE5 SHL DUP2 MSTORE PUSH1 0x20 PUSH1 0x4 DUP3 ADD MSTORE PUSH1 0x2E PUSH1 0x24 DUP3 ADD MSTORE PUSH32 0x45524337323155524953746F726167653A2055524920736574206F66206E6F6E PUSH1 0x44 DUP3 ADD MSTORE PUSH14 0x32BC34B9BA32B73A103A37B5B2B7 PUSH1 0x91 SHL PUSH1 0x64 DUP3 ADD MSTORE PUSH1 0x84 ADD PUSH3 0x5FB JUMP JUMPDEST PUSH1 0x0 DUP3 DUP2 MSTORE PUSH1 0x6 PUSH1 0x20 MSTORE PUSH1 0x40 SWAP1 KECCAK256 PUSH3 0x148C DUP3 DUP3 PUSH3 0x24B5 JUMP JUMPDEST POP PUSH1 0x40 MLOAD DUP3 DUP2 MSTORE PUSH32 0xF8E1A15ABA9398E019F0B49DF1A4FDE98EE17AE345CB5F6B5E2C27F5033E8CE7 SWAP1 PUSH1 0x20 ADD PUSH1 0x40 MLOAD DUP1 SWAP2 SUB SWAP1 LOG1 POP POP JUMP JUMPDEST PUSH1 0x0 PUSH1 0x1 PUSH1 0x1 PUSH1 0xE0 SHL SUB NOT DUP3 AND PUSH4 0x780E9D63 PUSH1 0xE0 SHL EQ DUP1 PUSH3 0x4BB JUMPI POP PUSH3 0x4BB DUP3 PUSH3 0x1723 JUMP JUMPDEST PUSH3 0xBEC DUP5 DUP5 DUP5 DUP5 PUSH3 0x174B JUMP JUMPDEST PUSH3 0x1506 DUP3 DUP3 PUSH3 0xB6A JUMP JUMPDEST PUSH3 0x821 JUMPI PUSH3 0x1516 DUP2 PUSH3 0x188E JUMP JUMPDEST PUSH3 0x1523 DUP4 PUSH1 0x20 PUSH3 0x18A1 JUMP JUMPDEST PUSH1 0x40 MLOAD PUSH1 0x20 ADD PUSH3 0x1536 SWAP3 SWAP2 SWAP1 PUSH3 0x2582 JUMP JUMPDEST PUSH1 0x40 DUP1 MLOAD PUSH1 0x1F NOT DUP2 DUP5 SUB ADD DUP2 MSTORE SWAP1 DUP3 SWAP1 MSTORE PUSH3 0x461BCD PUSH1 0xE5 SHL DUP3 MSTORE PUSH3 0x5FB SWAP2 PUSH1 0x4 ADD PUSH3 0x2003 JUMP JUMPDEST PUSH1 0x0 PUSH1 0x1 PUSH1 0x1 PUSH1 0xA0 SHL SUB DUP5 AND EXTCODESIZE ISZERO PUSH3 0x1661 JUMPI PUSH1 0x40 MLOAD PUSH4 0xA85BD01 PUSH1 0xE1 SHL DUP2 MSTORE PUSH1 0x1 PUSH1 0x1 PUSH1 0xA0 SHL SUB DUP6 AND SWAP1 PUSH4 0x150B7A02 SWAP1 PUSH3 0x15A5 SWAP1 CALLER SWAP1 DUP10 SWAP1 DUP9 SWAP1 DUP9 SWAP1 PUSH1 0x4 ADD PUSH3 0x25FB JUMP JUMPDEST PUSH1 0x20 PUSH1 0x40 MLOAD DUP1 DUP4 SUB DUP2 PUSH1 0x0 DUP8 GAS CALL SWAP3 POP POP POP DUP1 ISZERO PUSH3 0x15E3 JUMPI POP PUSH1 0x40 DUP1 MLOAD PUSH1 0x1F RETURNDATASIZE SWAP1 DUP2 ADD PUSH1 0x1F NOT AND DUP3 ADD SWAP1 SWAP3 MSTORE PUSH3 0x15E0 SWAP2 DUP2 ADD SWAP1 PUSH3 0x263A JUMP JUMPDEST PUSH1 0x1 JUMPDEST PUSH3 0x1646 JUMPI RETURNDATASIZE DUP1 DUP1 ISZERO PUSH3 0x1614 JUMPI PUSH1 0x40 MLOAD SWAP2 POP PUSH1 0x1F NOT PUSH1 0x3F RETURNDATASIZE ADD AND DUP3 ADD PUSH1 0x40 MSTORE RETURNDATASIZE DUP3 MSTORE RETURNDATASIZE PUSH1 0x0 PUSH1 0x20 DUP5 ADD RETURNDATACOPY PUSH3 0x1619 JUMP JUMPDEST PUSH1 0x60 SWAP2 POP JUMPDEST POP DUP1 MLOAD PUSH1 0x0 SUB PUSH3 0x163E JUMPI PUSH1 0x40 MLOAD PUSH3 0x461BCD PUSH1 0xE5 SHL DUP2 MSTORE PUSH1 0x4 ADD PUSH3 0x5FB SWAP1 PUSH3 0x23DE JUMP JUMPDEST DUP1 MLOAD DUP2 PUSH1 0x20 ADD REVERT JUMPDEST PUSH1 0x1 PUSH1 0x1 PUSH1 0xE0 SHL SUB NOT AND PUSH4 0xA85BD01 PUSH1 0xE1 SHL EQ SWAP1 POP PUSH3 0xF2F JUMP JUMPDEST POP PUSH1 0x1 SWAP5 SWAP4 POP POP POP POP JUMP JUMPDEST PUSH1 0x60 PUSH3 0x1679 DUP3 PUSH3 0xDDE JUMP JUMPDEST PUSH1 0x0 PUSH3 0x1691 PUSH1 0x40 DUP1 MLOAD PUSH1 0x20 DUP2 ADD SWAP1 SWAP2 MSTORE PUSH1 0x0 DUP2 MSTORE SWAP1 JUMP JUMPDEST SWAP1 POP PUSH1 0x0 DUP2 MLOAD GT PUSH3 0x16B3 JUMPI PUSH1 0x40 MLOAD DUP1 PUSH1 0x20 ADD PUSH1 0x40 MSTORE DUP1 PUSH1 0x0 DUP2 MSTORE POP PUSH3 0x16E2 JUMP JUMPDEST DUP1 PUSH3 0x16BF DUP5 PUSH3 0x1A5B JUMP JUMPDEST PUSH1 0x40 MLOAD PUSH1 0x20 ADD PUSH3 0x16D2 SWAP3 SWAP2 SWAP1 PUSH3 0x2430 JUMP JUMPDEST PUSH1 0x40 MLOAD PUSH1 0x20 DUP2 DUP4 SUB SUB DUP2 MSTORE SWAP1 PUSH1 0x40 MSTORE JUMPDEST SWAP4 SWAP3 POP POP POP JUMP JUMPDEST PUSH3 0x16F5 DUP4 DUP4 PUSH3 0x1AF5 JUMP JUMPDEST PUSH3 0x1704 PUSH1 0x0 DUP5 DUP5 DUP5 PUSH3 0x155E JUMP JUMPDEST PUSH3 0x6A3 JUMPI PUSH1 0x40 MLOAD PUSH3 0x461BCD PUSH1 0xE5 SHL DUP2 MSTORE PUSH1 0x4 ADD PUSH3 0x5FB SWAP1 PUSH3 0x23DE JUMP JUMPDEST PUSH1 0x0 PUSH1 0x1 PUSH1 0x1 PUSH1 0xE0 SHL SUB NOT DUP3 AND PUSH4 0x24832483 PUSH1 0xE1 SHL EQ DUP1 PUSH3 0x4BB JUMPI POP PUSH3 0x4BB DUP3 PUSH3 0x1C96 JUMP JUMPDEST PUSH1 0x1 DUP2 GT ISZERO PUSH3 0x17BC JUMPI PUSH1 0x40 MLOAD PUSH3 0x461BCD PUSH1 0xE5 SHL DUP2 MSTORE PUSH1 0x20 PUSH1 0x4 DUP3 ADD MSTORE PUSH1 0x35 PUSH1 0x24 DUP3 ADD MSTORE PUSH32 0x455243373231456E756D657261626C653A20636F6E7365637574697665207472 PUSH1 0x44 DUP3 ADD MSTORE PUSH21 0x185B9CD9995C9CC81B9BDD081CDD5C1C1BDC9D1959 PUSH1 0x5A SHL PUSH1 0x64 DUP3 ADD MSTORE PUSH1 0x84 ADD PUSH3 0x5FB JUMP JUMPDEST DUP2 PUSH1 0x1 PUSH1 0x1 PUSH1 0xA0 SHL SUB DUP6 AND PUSH3 0x181B JUMPI PUSH3 0x1815 DUP2 PUSH1 0x9 DUP1 SLOAD PUSH1 0x0 DUP4 DUP2 MSTORE PUSH1 0xA PUSH1 0x20 MSTORE PUSH1 0x40 DUP2 KECCAK256 DUP3 SWAP1 SSTORE PUSH1 0x1 DUP3 ADD DUP4 SSTORE SWAP2 SWAP1 SWAP2 MSTORE PUSH32 0x6E1540171B6C0C960B71A7020D9F60077F6AF931A8BBF590DA0223DACF75C7AF ADD SSTORE JUMP JUMPDEST PUSH3 0x1841 JUMP JUMPDEST DUP4 PUSH1 0x1 PUSH1 0x1 PUSH1 0xA0 SHL SUB AND DUP6 PUSH1 0x1 PUSH1 0x1 PUSH1 0xA0 SHL SUB AND EQ PUSH3 0x1841 JUMPI PUSH3 0x1841 DUP6 DUP3 PUSH3 0x1CE9 JUMP JUMPDEST PUSH1 0x1 PUSH1 0x1 PUSH1 0xA0 SHL SUB DUP5 AND PUSH3 0x1861 JUMPI PUSH3 0x185B DUP2 PUSH3 0x1D8B JUMP JUMPDEST PUSH3 0x1887 JUMP JUMPDEST DUP5 PUSH1 0x1 PUSH1 0x1 PUSH1 0xA0 SHL SUB AND DUP5 PUSH1 0x1 PUSH1 0x1 PUSH1 0xA0 SHL SUB AND EQ PUSH3 0x1887 JUMPI PUSH3 0x1887 DUP5 DUP3 PUSH3 0x1E45 JUMP JUMPDEST POP POP POP POP POP JUMP JUMPDEST PUSH1 0x60 PUSH3 0x4BB PUSH1 0x1 PUSH1 0x1 PUSH1 0xA0 SHL SUB DUP4 AND PUSH1 0x14 JUMPDEST PUSH1 0x60 PUSH1 0x0 PUSH3 0x18B2 DUP4 PUSH1 0x2 PUSH3 0x2670 JUMP JUMPDEST PUSH3 0x18BF SWAP1 PUSH1 0x2 PUSH3 0x268A JUMP JUMPDEST PUSH8 0xFFFFFFFFFFFFFFFF DUP2 GT ISZERO PUSH3 0x18DA JUMPI PUSH3 0x18DA PUSH3 0x214A JUMP JUMPDEST PUSH1 0x40 MLOAD SWAP1 DUP1 DUP3 MSTORE DUP1 PUSH1 0x1F ADD PUSH1 0x1F NOT AND PUSH1 0x20 ADD DUP3 ADD PUSH1 0x40 MSTORE DUP1 ISZERO PUSH3 0x1905 JUMPI PUSH1 0x20 DUP3 ADD DUP2 DUP1 CALLDATASIZE DUP4 CALLDATACOPY ADD SWAP1 POP JUMPDEST POP SWAP1 POP PUSH1 0x3 PUSH1 0xFC SHL DUP2 PUSH1 0x0 DUP2 MLOAD DUP2 LT PUSH3 0x1923 JUMPI PUSH3 0x1923 PUSH3 0x2383 JUMP JUMPDEST PUSH1 0x20 ADD ADD SWAP1 PUSH1 0x1 PUSH1 0x1 PUSH1 0xF8 SHL SUB NOT AND SWAP1 DUP2 PUSH1 0x0 BYTE SWAP1 MSTORE8 POP PUSH1 0xF PUSH1 0xFB SHL DUP2 PUSH1 0x1 DUP2 MLOAD DUP2 LT PUSH3 0x1955 JUMPI PUSH3 0x1955 PUSH3 0x2383 JUMP JUMPDEST PUSH1 0x20 ADD ADD SWAP1 PUSH1 0x1 PUSH1 0x1 PUSH1 0xF8 SHL SUB NOT AND SWAP1 DUP2 PUSH1 0x0 BYTE SWAP1 MSTORE8 POP PUSH1 0x0 PUSH3 0x197B DUP5 PUSH1 0x2 PUSH3 0x2670 JUMP JUMPDEST PUSH3 0x1988 SWAP1 PUSH1 0x1 PUSH3 0x268A JUMP JUMPDEST SWAP1 POP JUMPDEST PUSH1 0x1 DUP2 GT ISZERO PUSH3 0x1A0A JUMPI PUSH16 0x181899199A1A9B1B9C1CB0B131B232B3 PUSH1 0x81 SHL DUP6 PUSH1 0xF AND PUSH1 0x10 DUP2 LT PUSH3 0x19C0 JUMPI PUSH3 0x19C0 PUSH3 0x2383 JUMP JUMPDEST BYTE PUSH1 0xF8 SHL DUP3 DUP3 DUP2 MLOAD DUP2 LT PUSH3 0x19D9 JUMPI PUSH3 0x19D9 PUSH3 0x2383 JUMP JUMPDEST PUSH1 0x20 ADD ADD SWAP1 PUSH1 0x1 PUSH1 0x1 PUSH1 0xF8 SHL SUB NOT AND SWAP1 DUP2 PUSH1 0x0 BYTE SWAP1 MSTORE8 POP PUSH1 0x4 SWAP5 SWAP1 SWAP5 SHR SWAP4 PUSH3 0x1A02 DUP2 PUSH3 0x26A0 JUMP JUMPDEST SWAP1 POP PUSH3 0x198B JUMP JUMPDEST POP DUP4 ISZERO PUSH3 0x16E2 JUMPI PUSH1 0x40 MLOAD PUSH3 0x461BCD PUSH1 0xE5 SHL DUP2 MSTORE PUSH1 0x20 PUSH1 0x4 DUP3 ADD DUP2 SWAP1 MSTORE PUSH1 0x24 DUP3 ADD MSTORE PUSH32 0x537472696E67733A20686578206C656E67746820696E73756666696369656E74 PUSH1 0x44 DUP3 ADD MSTORE PUSH1 0x64 ADD PUSH3 0x5FB JUMP JUMPDEST PUSH1 0x60 PUSH1 0x0 PUSH3 0x1A6A DUP4 PUSH3 0x1E8B JUMP JUMPDEST PUSH1 0x1 ADD SWAP1 POP PUSH1 0x0 DUP2 PUSH8 0xFFFFFFFFFFFFFFFF DUP2 GT ISZERO PUSH3 0x1A8D JUMPI PUSH3 0x1A8D PUSH3 0x214A JUMP JUMPDEST PUSH1 0x40 MLOAD SWAP1 DUP1 DUP3 MSTORE DUP1 PUSH1 0x1F ADD PUSH1 0x1F NOT AND PUSH1 0x20 ADD DUP3 ADD PUSH1 0x40 MSTORE DUP1 ISZERO PUSH3 0x1AB8 JUMPI PUSH1 0x20 DUP3 ADD DUP2 DUP1 CALLDATASIZE DUP4 CALLDATACOPY ADD SWAP1 POP JUMPDEST POP SWAP1 POP DUP2 DUP2 ADD PUSH1 0x20 ADD JUMPDEST PUSH1 0x0 NOT ADD PUSH16 0x181899199A1A9B1B9C1CB0B131B232B3 PUSH1 0x81 SHL PUSH1 0xA DUP7 MOD BYTE DUP2 MSTORE8 PUSH1 0xA DUP6 DIV SWAP5 POP DUP5 PUSH3 0x1AC2 JUMPI POP SWAP4 SWAP3 POP POP POP JUMP JUMPDEST PUSH1 0x1 PUSH1 0x1 PUSH1 0xA0 SHL SUB DUP3 AND PUSH3 0x1B4D JUMPI PUSH1 0x40 MLOAD PUSH3 0x461BCD PUSH1 0xE5 SHL DUP2 MSTORE PUSH1 0x20 PUSH1 0x4 DUP3 ADD DUP2 SWAP1 MSTORE PUSH1 0x24 DUP3 ADD MSTORE PUSH32 0x4552433732313A206D696E7420746F20746865207A65726F2061646472657373 PUSH1 0x44 DUP3 ADD MSTORE PUSH1 0x64 ADD PUSH3 0x5FB JUMP JUMPDEST PUSH1 0x0 DUP2 DUP2 MSTORE PUSH1 0x2 PUSH1 0x20 MSTORE PUSH1 0x40 SWAP1 KECCAK256 SLOAD PUSH1 0x1 PUSH1 0x1 PUSH1 0xA0 SHL SUB AND ISZERO PUSH3 0x1BB4 JUMPI PUSH1 0x40 MLOAD PUSH3 0x461BCD PUSH1 0xE5 SHL DUP2 MSTORE PUSH1 0x20 PUSH1 0x4 DUP3 ADD MSTORE PUSH1 0x1C PUSH1 0x24 DUP3 ADD MSTORE PUSH32 0x4552433732313A20746F6B656E20616C7265616479206D696E74656400000000 PUSH1 0x44 DUP3 ADD MSTORE PUSH1 0x64 ADD PUSH3 0x5FB JUMP JUMPDEST PUSH3 0x1BC4 PUSH1 0x0 DUP4 DUP4 PUSH1 0x1 PUSH3 0x14EC JUMP JUMPDEST PUSH1 0x0 DUP2 DUP2 MSTORE PUSH1 0x2 PUSH1 0x20 MSTORE PUSH1 0x40 SWAP1 KECCAK256 SLOAD PUSH1 0x1 PUSH1 0x1 PUSH1 0xA0 SHL SUB AND ISZERO PUSH3 0x1C2B JUMPI PUSH1 0x40 MLOAD PUSH3 0x461BCD PUSH1 0xE5 SHL DUP2 MSTORE PUSH1 0x20 PUSH1 0x4 DUP3 ADD MSTORE PUSH1 0x1C PUSH1 0x24 DUP3 ADD MSTORE PUSH32 0x4552433732313A20746F6B656E20616C7265616479206D696E74656400000000 PUSH1 0x44 DUP3 ADD MSTORE PUSH1 0x64 ADD PUSH3 0x5FB JUMP JUMPDEST PUSH1 0x1 PUSH1 0x1 PUSH1 0xA0 SHL SUB DUP3 AND PUSH1 0x0 DUP2 DUP2 MSTORE PUSH1 0x3 PUSH1 0x20 SWAP1 DUP2 MSTORE PUSH1 0x40 DUP1 DUP4 KECCAK256 DUP1 SLOAD PUSH1 0x1 ADD SWAP1 SSTORE DUP5 DUP4 MSTORE PUSH1 0x2 SWAP1 SWAP2 MSTORE DUP1 DUP3 KECCAK256 DUP1 SLOAD PUSH1 0x1 PUSH1 0x1 PUSH1 0xA0 SHL SUB NOT AND DUP5 OR SWAP1 SSTORE MLOAD DUP4 SWAP3 SWAP2 SWAP1 PUSH32 0xDDF252AD1BE2C89B69C2B068FC378DAA952BA7F163C4A11628F55A4DF523B3EF SWAP1 DUP3 SWAP1 LOG4 POP POP JUMP JUMPDEST PUSH1 0x0 PUSH1 0x1 PUSH1 0x1 PUSH1 0xE0 SHL SUB NOT DUP3 AND PUSH4 0x80AC58CD PUSH1 0xE0 SHL EQ DUP1 PUSH3 0x1CC8 JUMPI POP PUSH1 0x1 PUSH1 0x1 PUSH1 0xE0 SHL SUB NOT DUP3 AND PUSH4 0x5B5E139F PUSH1 0xE0 SHL EQ JUMPDEST DUP1 PUSH3 0x4BB JUMPI POP PUSH4 0x1FFC9A7 PUSH1 0xE0 SHL PUSH1 0x1 PUSH1 0x1 PUSH1 0xE0 SHL SUB NOT DUP4 AND EQ PUSH3 0x4BB JUMP JUMPDEST PUSH1 0x0 PUSH1 0x1 PUSH3 0x1CF8 DUP5 PUSH3 0xAE2 JUMP JUMPDEST PUSH3 0x1D04 SWAP2 SWAP1 PUSH3 0x26BA JUMP JUMPDEST PUSH1 0x0 DUP4 DUP2 MSTORE PUSH1 0x8 PUSH1 0x20 MSTORE PUSH1 0x40 SWAP1 KECCAK256 SLOAD SWAP1 SWAP2 POP DUP1 DUP3 EQ PUSH3 0x1D58 JUMPI PUSH1 0x1 PUSH1 0x1 PUSH1 0xA0 SHL SUB DUP5 AND PUSH1 0x0 SWAP1 DUP2 MSTORE PUSH1 0x7 PUSH1 0x20 SWAP1 DUP2 MSTORE PUSH1 0x40 DUP1 DUP4 KECCAK256 DUP6 DUP5 MSTORE DUP3 MSTORE DUP1 DUP4 KECCAK256 SLOAD DUP5 DUP5 MSTORE DUP2 DUP5 KECCAK256 DUP2 SWAP1 SSTORE DUP4 MSTORE PUSH1 0x8 SWAP1 SWAP2 MSTORE SWAP1 KECCAK256 DUP2 SWAP1 SSTORE JUMPDEST POP PUSH1 0x0 SWAP2 DUP3 MSTORE PUSH1 0x8 PUSH1 0x20 SWAP1 DUP2 MSTORE PUSH1 0x40 DUP1 DUP5 KECCAK256 DUP5 SWAP1 SSTORE PUSH1 0x1 PUSH1 0x1 PUSH1 0xA0 SHL SUB SWAP1 SWAP5 AND DUP4 MSTORE PUSH1 0x7 DUP2 MSTORE DUP4 DUP4 KECCAK256 SWAP2 DUP4 MSTORE MSTORE SWAP1 DUP2 KECCAK256 SSTORE JUMP JUMPDEST PUSH1 0x9 SLOAD PUSH1 0x0 SWAP1 PUSH3 0x1D9F SWAP1 PUSH1 0x1 SWAP1 PUSH3 0x26BA JUMP JUMPDEST PUSH1 0x0 DUP4 DUP2 MSTORE PUSH1 0xA PUSH1 0x20 MSTORE PUSH1 0x40 DUP2 KECCAK256 SLOAD PUSH1 0x9 DUP1 SLOAD SWAP4 SWAP5 POP SWAP1 SWAP3 DUP5 SWAP1 DUP2 LT PUSH3 0x1DCA JUMPI PUSH3 0x1DCA PUSH3 0x2383 JUMP JUMPDEST SWAP1 PUSH1 0x0 MSTORE PUSH1 0x20 PUSH1 0x0 KECCAK256 ADD SLOAD SWAP1 POP DUP1 PUSH1 0x9 DUP4 DUP2 SLOAD DUP2 LT PUSH3 0x1DEE JUMPI PUSH3 0x1DEE PUSH3 0x2383 JUMP JUMPDEST PUSH1 0x0 SWAP2 DUP3 MSTORE PUSH1 0x20 DUP1 DUP4 KECCAK256 SWAP1 SWAP2 ADD SWAP3 SWAP1 SWAP3 SSTORE DUP3 DUP2 MSTORE PUSH1 0xA SWAP1 SWAP2 MSTORE PUSH1 0x40 DUP1 DUP3 KECCAK256 DUP5 SWAP1 SSTORE DUP6 DUP3 MSTORE DUP2 KECCAK256 SSTORE PUSH1 0x9 DUP1 SLOAD DUP1 PUSH3 0x1E29 JUMPI PUSH3 0x1E29 PUSH3 0x26D0 JUMP JUMPDEST PUSH1 0x1 SWAP1 SUB DUP2 DUP2 SWAP1 PUSH1 0x0 MSTORE PUSH1 0x20 PUSH1 0x0 KECCAK256 ADD PUSH1 0x0 SWAP1 SSTORE SWAP1 SSTORE POP POP POP POP JUMP JUMPDEST PUSH1 0x0 PUSH3 0x1E52 DUP4 PUSH3 0xAE2 JUMP JUMPDEST PUSH1 0x1 PUSH1 0x1 PUSH1 0xA0 SHL SUB SWAP1 SWAP4 AND PUSH1 0x0 SWAP1 DUP2 MSTORE PUSH1 0x7 PUSH1 0x20 SWAP1 DUP2 MSTORE PUSH1 0x40 DUP1 DUP4 KECCAK256 DUP7 DUP5 MSTORE DUP3 MSTORE DUP1 DUP4 KECCAK256 DUP6 SWAP1 SSTORE SWAP4 DUP3 MSTORE PUSH1 0x8 SWAP1 MSTORE SWAP2 SWAP1 SWAP2 KECCAK256 SWAP2 SWAP1 SWAP2 SSTORE POP JUMP JUMPDEST PUSH1 0x0 DUP1 PUSH19 0x184F03E93FF9F4DAA797ED6E38ED64BF6A1F01 PUSH1 0x40 SHL DUP4 LT PUSH3 0x1ECB JUMPI PUSH19 0x184F03E93FF9F4DAA797ED6E38ED64BF6A1F01 PUSH1 0x40 SHL DUP4 DIV SWAP3 POP PUSH1 0x40 ADD JUMPDEST PUSH14 0x4EE2D6D415B85ACEF8100000000 DUP4 LT PUSH3 0x1EF8 JUMPI PUSH14 0x4EE2D6D415B85ACEF8100000000 DUP4 DIV SWAP3 POP PUSH1 0x20 ADD JUMPDEST PUSH7 0x2386F26FC10000 DUP4 LT PUSH3 0x1F17 JUMPI PUSH7 0x2386F26FC10000 DUP4 DIV SWAP3 POP PUSH1 0x10 ADD JUMPDEST PUSH4 0x5F5E100 DUP4 LT PUSH3 0x1F30 JUMPI PUSH4 0x5F5E100 DUP4 DIV SWAP3 POP PUSH1 0x8 ADD JUMPDEST PUSH2 0x2710 DUP4 LT PUSH3 0x1F45 JUMPI PUSH2 0x2710 DUP4 DIV SWAP3 POP PUSH1 0x4 ADD JUMPDEST PUSH1 0x64 DUP4 LT PUSH3 0x1F58 JUMPI PUSH1 0x64 DUP4 DIV SWAP3 POP PUSH1 0x2 ADD JUMPDEST PUSH1 0xA DUP4 LT PUSH3 0x4BB JUMPI PUSH1 0x1 ADD SWAP3 SWAP2 POP POP JUMP JUMPDEST PUSH2 0x18DF DUP1 PUSH3 0x26E7 DUP4 CODECOPY ADD SWAP1 JUMP JUMPDEST PUSH1 0x1 PUSH1 0x1 PUSH1 0xE0 SHL SUB NOT DUP2 AND DUP2 EQ PUSH3 0xE3F JUMPI PUSH1 0x0 DUP1 REVERT JUMPDEST PUSH1 0x0 PUSH1 0x20 DUP3 DUP5 SUB SLT ISZERO PUSH3 0x1FA2 JUMPI PUSH1 0x0 DUP1 REVERT JUMPDEST DUP2 CALLDATALOAD PUSH3 0x16E2 DUP2 PUSH3 0x1F78 JUMP JUMPDEST PUSH1 0x0 JUMPDEST DUP4 DUP2 LT ISZERO PUSH3 0x1FCC JUMPI DUP2 DUP2 ADD MLOAD DUP4 DUP3 ADD MSTORE PUSH1 0x20 ADD PUSH3 0x1FB2 JUMP JUMPDEST POP POP PUSH1 0x0 SWAP2 ADD MSTORE JUMP JUMPDEST PUSH1 0x0 DUP2 MLOAD DUP1 DUP5 MSTORE PUSH3 0x1FEF DUP2 PUSH1 0x20 DUP7 ADD PUSH1 0x20 DUP7 ADD PUSH3 0x1FAF JUMP JUMPDEST PUSH1 0x1F ADD PUSH1 0x1F NOT AND SWAP3 SWAP1 SWAP3 ADD PUSH1 0x20 ADD SWAP3 SWAP2 POP POP JUMP JUMPDEST PUSH1 0x20 DUP2 MSTORE PUSH1 0x0 PUSH3 0x16E2 PUSH1 0x20 DUP4 ADD DUP5 PUSH3 0x1FD5 JUMP JUMPDEST PUSH1 0x0 PUSH1 0x20 DUP3 DUP5 SUB SLT ISZERO PUSH3 0x202B JUMPI PUSH1 0x0 DUP1 REVERT JUMPDEST POP CALLDATALOAD SWAP2 SWAP1 POP JUMP JUMPDEST DUP1 CALLDATALOAD PUSH1 0x1 PUSH1 0x1 PUSH1 0xA0 SHL SUB DUP2 AND DUP2 EQ PUSH3 0x204A JUMPI PUSH1 0x0 DUP1 REVERT JUMPDEST SWAP2 SWAP1 POP JUMP JUMPDEST PUSH1 0x0 DUP1 PUSH1 0x40 DUP4 DUP6 SUB SLT ISZERO PUSH3 0x2063 JUMPI PUSH1 0x0 DUP1 REVERT JUMPDEST PUSH3 0x206E DUP4 PUSH3 0x2032 JUMP JUMPDEST SWAP5 PUSH1 0x20 SWAP4 SWAP1 SWAP4 ADD CALLDATALOAD SWAP4 POP POP POP JUMP JUMPDEST PUSH1 0x0 DUP1 PUSH1 0x0 PUSH1 0x60 DUP5 DUP7 SUB SLT ISZERO PUSH3 0x2092 JUMPI PUSH1 0x0 DUP1 REVERT JUMPDEST PUSH3 0x209D DUP5 PUSH3 0x2032 JUMP JUMPDEST SWAP3 POP PUSH3 0x20AD PUSH1 0x20 DUP6 ADD PUSH3 0x2032 JUMP JUMPDEST SWAP2 POP PUSH1 0x40 DUP5 ADD CALLDATALOAD SWAP1 POP SWAP3 POP SWAP3 POP SWAP3 JUMP JUMPDEST PUSH1 0x0 DUP1 PUSH1 0x40 DUP4 DUP6 SUB SLT ISZERO PUSH3 0x20D1 JUMPI PUSH1 0x0 DUP1 REVERT JUMPDEST DUP3 CALLDATALOAD SWAP2 POP PUSH3 0x20E3 PUSH1 0x20 DUP5 ADD PUSH3 0x2032 JUMP JUMPDEST SWAP1 POP SWAP3 POP SWAP3 SWAP1 POP JUMP JUMPDEST PUSH1 0x0 PUSH1 0x20 DUP3 DUP5 SUB SLT ISZERO PUSH3 0x20FF JUMPI PUSH1 0x0 DUP1 REVERT JUMPDEST PUSH3 0x16E2 DUP3 PUSH3 0x2032 JUMP JUMPDEST PUSH1 0x0 DUP1 PUSH1 0x40 DUP4 DUP6 SUB SLT ISZERO PUSH3 0x211E JUMPI PUSH1 0x0 DUP1 REVERT JUMPDEST PUSH3 0x2129 DUP4 PUSH3 0x2032 JUMP JUMPDEST SWAP2 POP PUSH1 0x20 DUP4 ADD CALLDATALOAD DUP1 ISZERO ISZERO DUP2 EQ PUSH3 0x213F JUMPI PUSH1 0x0 DUP1 REVERT JUMPDEST DUP1 SWAP2 POP POP SWAP3 POP SWAP3 SWAP1 POP JUMP JUMPDEST PUSH4 0x4E487B71 PUSH1 0xE0 SHL PUSH1 0x0 MSTORE PUSH1 0x41 PUSH1 0x4 MSTORE PUSH1 0x24 PUSH1 0x0 REVERT JUMPDEST PUSH1 0x0 PUSH8 0xFFFFFFFFFFFFFFFF DUP1 DUP5 GT ISZERO PUSH3 0x217E JUMPI PUSH3 0x217E PUSH3 0x214A JUMP JUMPDEST PUSH1 0x40 MLOAD PUSH1 0x1F DUP6 ADD PUSH1 0x1F NOT SWAP1 DUP2 AND PUSH1 0x3F ADD AND DUP2 ADD SWAP1 DUP3 DUP3 GT DUP2 DUP4 LT OR ISZERO PUSH3 0x21A9 JUMPI PUSH3 0x21A9 PUSH3 0x214A JUMP JUMPDEST DUP2 PUSH1 0x40 MSTORE DUP1 SWAP4 POP DUP6 DUP2 MSTORE DUP7 DUP7 DUP7 ADD GT ISZERO PUSH3 0x21C3 JUMPI PUSH1 0x0 DUP1 REVERT JUMPDEST DUP6 DUP6 PUSH1 0x20 DUP4 ADD CALLDATACOPY PUSH1 0x0 PUSH1 0x20 DUP8 DUP4 ADD ADD MSTORE POP POP POP SWAP4 SWAP3 POP POP POP JUMP JUMPDEST PUSH1 0x0 DUP1 PUSH1 0x0 DUP1 PUSH1 0x80 DUP6 DUP8 SUB SLT ISZERO PUSH3 0x21F4 JUMPI PUSH1 0x0 DUP1 REVERT JUMPDEST PUSH3 0x21FF DUP6 PUSH3 0x2032 JUMP JUMPDEST SWAP4 POP PUSH3 0x220F PUSH1 0x20 DUP7 ADD PUSH3 0x2032 JUMP JUMPDEST SWAP3 POP PUSH1 0x40 DUP6 ADD CALLDATALOAD SWAP2 POP PUSH1 0x60 DUP6 ADD CALLDATALOAD PUSH8 0xFFFFFFFFFFFFFFFF DUP2 GT ISZERO PUSH3 0x2233 JUMPI PUSH1 0x0 DUP1 REVERT JUMPDEST DUP6 ADD PUSH1 0x1F DUP2 ADD DUP8 SGT PUSH3 0x2245 JUMPI PUSH1 0x0 DUP1 REVERT JUMPDEST PUSH3 0x2256 DUP8 DUP3 CALLDATALOAD PUSH1 0x20 DUP5 ADD PUSH3 0x2160 JUMP JUMPDEST SWAP2 POP POP SWAP3 SWAP6 SWAP2 SWAP5 POP SWAP3 POP JUMP JUMPDEST PUSH1 0x0 DUP1 PUSH1 0x40 DUP4 DUP6 SUB SLT ISZERO PUSH3 0x2276 JUMPI PUSH1 0x0 DUP1 REVERT JUMPDEST PUSH3 0x2281 DUP4 PUSH3 0x2032 JUMP JUMPDEST SWAP2 POP PUSH1 0x20 DUP4 ADD CALLDATALOAD PUSH8 0xFFFFFFFFFFFFFFFF DUP2 GT ISZERO PUSH3 0x229E JUMPI PUSH1 0x0 DUP1 REVERT JUMPDEST DUP4 ADD PUSH1 0x1F DUP2 ADD DUP6 SGT PUSH3 0x22B0 JUMPI PUSH1 0x0 DUP1 REVERT JUMPDEST PUSH3 0x22C1 DUP6 DUP3 CALLDATALOAD PUSH1 0x20 DUP5 ADD PUSH3 0x2160 JUMP JUMPDEST SWAP2 POP POP SWAP3 POP SWAP3 SWAP1 POP JUMP JUMPDEST PUSH1 0x0 DUP1 PUSH1 0x40 DUP4 DUP6 SUB SLT ISZERO PUSH3 0x22DF JUMPI PUSH1 0x0 DUP1 REVERT JUMPDEST PUSH3 0x22EA DUP4 PUSH3 0x2032 JUMP JUMPDEST SWAP2 POP PUSH3 0x20E3 PUSH1 0x20 DUP5 ADD PUSH3 0x2032 JUMP JUMPDEST PUSH1 0x1 DUP2 DUP2 SHR SWAP1 DUP3 AND DUP1 PUSH3 0x230F JUMPI PUSH1 0x7F DUP3 AND SWAP2 POP JUMPDEST PUSH1 0x20 DUP3 LT DUP2 SUB PUSH3 0x2330 JUMPI PUSH4 0x4E487B71 PUSH1 0xE0 SHL PUSH1 0x0 MSTORE PUSH1 0x22 PUSH1 0x4 MSTORE PUSH1 0x24 PUSH1 0x0 REVERT JUMPDEST POP SWAP2 SWAP1 POP JUMP JUMPDEST PUSH1 0x20 DUP1 DUP3 MSTORE PUSH1 0x2D SWAP1 DUP3 ADD MSTORE PUSH32 0x4552433732313A2063616C6C6572206973206E6F7420746F6B656E206F776E65 PUSH1 0x40 DUP3 ADD MSTORE PUSH13 0x1C881BDC88185C1C1C9BDD9959 PUSH1 0x9A SHL PUSH1 0x60 DUP3 ADD MSTORE PUSH1 0x80 ADD SWAP1 JUMP JUMPDEST PUSH4 0x4E487B71 PUSH1 0xE0 SHL PUSH1 0x0 MSTORE PUSH1 0x32 PUSH1 0x4 MSTORE PUSH1 0x24 PUSH1 0x0 REVERT JUMPDEST PUSH1 0x20 DUP1 DUP3 MSTORE PUSH1 0x25 SWAP1 DUP3 ADD MSTORE PUSH32 0x4552433732313A207472616E736665722066726F6D20696E636F727265637420 PUSH1 0x40 DUP3 ADD MSTORE PUSH5 0x37BBB732B9 PUSH1 0xD9 SHL PUSH1 0x60 DUP3 ADD MSTORE PUSH1 0x80 ADD SWAP1 JUMP JUMPDEST PUSH1 0x20 DUP1 DUP3 MSTORE PUSH1 0x32 SWAP1 DUP3 ADD MSTORE PUSH32 0x4552433732313A207472616E7366657220746F206E6F6E204552433732315265 PUSH1 0x40 DUP3 ADD MSTORE PUSH18 0x31B2B4BB32B91034B6B83632B6B2B73A32B9 PUSH1 0x71 SHL PUSH1 0x60 DUP3 ADD MSTORE PUSH1 0x80 ADD SWAP1 JUMP JUMPDEST PUSH1 0x0 DUP4 MLOAD PUSH3 0x2444 DUP2 DUP5 PUSH1 0x20 DUP9 ADD PUSH3 0x1FAF JUMP JUMPDEST DUP4 MLOAD SWAP1 DUP4 ADD SWAP1 PUSH3 0x245A DUP2 DUP4 PUSH1 0x20 DUP9 ADD PUSH3 0x1FAF JUMP JUMPDEST ADD SWAP5 SWAP4 POP POP POP POP JUMP JUMPDEST PUSH1 0x1F DUP3 GT ISZERO PUSH3 0x6A3 JUMPI PUSH1 0x0 DUP2 DUP2 MSTORE PUSH1 0x20 DUP2 KECCAK256 PUSH1 0x1F DUP6 ADD PUSH1 0x5 SHR DUP2 ADD PUSH1 0x20 DUP7 LT ISZERO PUSH3 0x248C JUMPI POP DUP1 JUMPDEST PUSH1 0x1F DUP6 ADD PUSH1 0x5 SHR DUP3 ADD SWAP2 POP JUMPDEST DUP2 DUP2 LT ISZERO PUSH3 0x24AD JUMPI DUP3 DUP2 SSTORE PUSH1 0x1 ADD PUSH3 0x2498 JUMP JUMPDEST POP POP POP POP POP POP JUMP JUMPDEST DUP2 MLOAD PUSH8 0xFFFFFFFFFFFFFFFF DUP2 GT ISZERO PUSH3 0x24D2 JUMPI PUSH3 0x24D2 PUSH3 0x214A JUMP JUMPDEST PUSH3 0x24EA DUP2 PUSH3 0x24E3 DUP5 SLOAD PUSH3 0x22FA JUMP JUMPDEST DUP5 PUSH3 0x2463 JUMP JUMPDEST PUSH1 0x20 DUP1 PUSH1 0x1F DUP4 GT PUSH1 0x1 DUP2 EQ PUSH3 0x2522 JUMPI PUSH1 0x0 DUP5 ISZERO PUSH3 0x2509 JUMPI POP DUP6 DUP4 ADD MLOAD JUMPDEST PUSH1 0x0 NOT PUSH1 0x3 DUP7 SWAP1 SHL SHR NOT AND PUSH1 0x1 DUP6 SWAP1 SHL OR DUP6 SSTORE PUSH3 0x24AD JUMP JUMPDEST PUSH1 0x0 DUP6 DUP2 MSTORE PUSH1 0x20 DUP2 KECCAK256 PUSH1 0x1F NOT DUP7 AND SWAP2 JUMPDEST DUP3 DUP2 LT ISZERO PUSH3 0x2553 JUMPI DUP9 DUP7 ADD MLOAD DUP3 SSTORE SWAP5 DUP5 ADD SWAP5 PUSH1 0x1 SWAP1 SWAP2 ADD SWAP1 DUP5 ADD PUSH3 0x2532 JUMP JUMPDEST POP DUP6 DUP3 LT ISZERO PUSH3 0x2572 JUMPI DUP8 DUP6 ADD MLOAD PUSH1 0x0 NOT PUSH1 0x3 DUP9 SWAP1 SHL PUSH1 0xF8 AND SHR NOT AND DUP2 SSTORE JUMPDEST POP POP POP POP POP PUSH1 0x1 SWAP1 DUP2 SHL ADD SWAP1 SSTORE POP JUMP JUMPDEST PUSH32 0x416363657373436F6E74726F6C3A206163636F756E7420000000000000000000 DUP2 MSTORE PUSH1 0x0 DUP4 MLOAD PUSH3 0x25BC DUP2 PUSH1 0x17 DUP6 ADD PUSH1 0x20 DUP9 ADD PUSH3 0x1FAF JUMP JUMPDEST PUSH17 0x1034B99036B4B9B9B4B733903937B6329 PUSH1 0x7D SHL PUSH1 0x17 SWAP2 DUP5 ADD SWAP2 DUP3 ADD MSTORE DUP4 MLOAD PUSH3 0x25EF DUP2 PUSH1 0x28 DUP5 ADD PUSH1 0x20 DUP9 ADD PUSH3 0x1FAF JUMP JUMPDEST ADD PUSH1 0x28 ADD SWAP5 SWAP4 POP POP POP POP JUMP JUMPDEST PUSH1 0x1 PUSH1 0x1 PUSH1 0xA0 SHL SUB DUP6 DUP2 AND DUP3 MSTORE DUP5 AND PUSH1 0x20 DUP3 ADD MSTORE PUSH1 0x40 DUP2 ADD DUP4 SWAP1 MSTORE PUSH1 0x80 PUSH1 0x60 DUP3 ADD DUP2 SWAP1 MSTORE PUSH1 0x0 SWAP1 PUSH3 0x2630 SWAP1 DUP4 ADD DUP5 PUSH3 0x1FD5 JUMP JUMPDEST SWAP7 SWAP6 POP POP POP POP POP POP JUMP JUMPDEST PUSH1 0x0 PUSH1 0x20 DUP3 DUP5 SUB SLT ISZERO PUSH3 0x264D JUMPI PUSH1 0x0 DUP1 REVERT JUMPDEST DUP2 MLOAD PUSH3 0x16E2 DUP2 PUSH3 0x1F78 JUMP JUMPDEST PUSH4 0x4E487B71 PUSH1 0xE0 SHL PUSH1 0x0 MSTORE PUSH1 0x11 PUSH1 0x4 MSTORE PUSH1 0x24 PUSH1 0x0 REVERT JUMPDEST DUP1 DUP3 MUL DUP2 ISZERO DUP3 DUP3 DIV DUP5 EQ OR PUSH3 0x4BB JUMPI PUSH3 0x4BB PUSH3 0x265A JUMP JUMPDEST DUP1 DUP3 ADD DUP1 DUP3 GT ISZERO PUSH3 0x4BB JUMPI PUSH3 0x4BB PUSH3 0x265A JUMP JUMPDEST PUSH1 0x0 DUP2 PUSH3 0x26B2 JUMPI PUSH3 0x26B2 PUSH3 0x265A JUMP JUMPDEST POP PUSH1 0x0 NOT ADD SWAP1 JUMP JUMPDEST DUP2 DUP2 SUB DUP2 DUP2 GT ISZERO PUSH3 0x4BB JUMPI PUSH3 0x4BB PUSH3 0x265A JUMP JUMPDEST PUSH4 0x4E487B71 PUSH1 0xE0 SHL PUSH1 0x0 MSTORE PUSH1 0x31 PUSH1 0x4 MSTORE PUSH1 0x24 PUSH1 0x0 REVERT INVALID PUSH1 0x80 PUSH1 0x40 MSTORE CALLVALUE DUP1 ISZERO PUSH3 0x11 JUMPI PUSH1 0x0 DUP1 REVERT JUMPDEST POP PUSH1 0x40 MLOAD PUSH3 0x18DF CODESIZE SUB DUP1 PUSH3 0x18DF DUP4 CODECOPY DUP2 ADD PUSH1 0x40 DUP2 SWAP1 MSTORE PUSH3 0x34 SWAP2 PUSH3 0x160 JUMP JUMPDEST PUSH1 0x1 PUSH1 0x0 SWAP1 DUP2 SSTORE PUSH3 0x47 SWAP1 DUP3 PUSH3 0xAB JUMP JUMPDEST PUSH3 0x73 PUSH32 0x3558406F9F50E902531272ECB70E789D20D2BFC86601DDDEB47B87D069826BA DUP3 PUSH3 0xAB JUMP JUMPDEST PUSH1 0x3 DUP1 SLOAD PUSH1 0x1 PUSH1 0x1 PUSH1 0xA0 SHL SUB SWAP5 DUP6 AND PUSH1 0x1 PUSH1 0x1 PUSH1 0xA0 SHL SUB NOT SWAP2 DUP3 AND OR SWAP1 SWAP2 SSTORE PUSH1 0x4 SWAP3 SWAP1 SWAP3 SSTORE PUSH1 0x5 DUP1 SLOAD SWAP2 SWAP1 SWAP4 AND SWAP2 AND OR SWAP1 SSTORE PUSH3 0x1A1 JUMP JUMPDEST PUSH3 0xB7 DUP3 DUP3 PUSH3 0xBB JUMP JUMPDEST POP POP JUMP JUMPDEST PUSH1 0x0 DUP3 DUP2 MSTORE PUSH1 0x1 PUSH1 0x20 SWAP1 DUP2 MSTORE PUSH1 0x40 DUP1 DUP4 KECCAK256 PUSH1 0x1 PUSH1 0x1 PUSH1 0xA0 SHL SUB DUP6 AND DUP5 MSTORE SWAP1 SWAP2 MSTORE SWAP1 KECCAK256 SLOAD PUSH1 0xFF AND PUSH3 0xB7 JUMPI PUSH1 0x0 DUP3 DUP2 MSTORE PUSH1 0x1 PUSH1 0x20 DUP2 DUP2 MSTORE PUSH1 0x40 DUP1 DUP5 KECCAK256 PUSH1 0x1 PUSH1 0x1 PUSH1 0xA0 SHL SUB DUP7 AND DUP1 DUP7 MSTORE SWAP3 MSTORE DUP1 DUP5 KECCAK256 DUP1 SLOAD PUSH1 0xFF NOT AND SWAP1 SWAP4 OR SWAP1 SWAP3 SSTORE SWAP1 MLOAD CALLER SWAP3 DUP6 SWAP2 PUSH32 0x2F8788117E7EFF1D82E926EC794901D17C78024A50270940304540A733656F0D SWAP2 SWAP1 LOG4 POP POP JUMP JUMPDEST DUP1 MLOAD PUSH1 0x1 PUSH1 0x1 PUSH1 0xA0 SHL SUB DUP2 AND DUP2 EQ PUSH3 0x15B JUMPI PUSH1 0x0 DUP1 REVERT JUMPDEST SWAP2 SWAP1 POP JUMP JUMPDEST PUSH1 0x0 DUP1 PUSH1 0x0 PUSH1 0x60 DUP5 DUP7 SUB SLT ISZERO PUSH3 0x176 JUMPI PUSH1 0x0 DUP1 REVERT JUMPDEST PUSH3 0x181 DUP5 PUSH3 0x143 JUMP JUMPDEST SWAP3 POP PUSH1 0x20 DUP5 ADD MLOAD SWAP2 POP PUSH3 0x198 PUSH1 0x40 DUP6 ADD PUSH3 0x143 JUMP JUMPDEST SWAP1 POP SWAP3 POP SWAP3 POP SWAP3 JUMP JUMPDEST PUSH2 0x172E DUP1 PUSH3 0x1B1 PUSH1 0x0 CODECOPY PUSH1 0x0 RETURN INVALID PUSH1 0x80 PUSH1 0x40 MSTORE PUSH1 0x4 CALLDATASIZE LT PUSH2 0xFE JUMPI PUSH1 0x0 CALLDATALOAD PUSH1 0xE0 SHR DUP1 PUSH4 0x8DA5CB5B GT PUSH2 0x95 JUMPI DUP1 PUSH4 0xCAF89DDB GT PUSH2 0x64 JUMPI DUP1 PUSH4 0xCAF89DDB EQ PUSH2 0x2BE JUMPI DUP1 PUSH4 0xD547741F EQ PUSH2 0x2DE JUMPI DUP1 PUSH4 0xD56D229D EQ PUSH2 0x2FE JUMPI DUP1 PUSH4 0xE2C41DBC EQ PUSH2 0x31E JUMPI DUP1 PUSH4 0xE89E4ED6 EQ PUSH2 0x326 JUMPI PUSH1 0x0 DUP1 REVERT JUMPDEST DUP1 PUSH4 0x8DA5CB5B EQ PUSH2 0x231 JUMPI DUP1 PUSH4 0x91D14854 EQ PUSH2 0x269 JUMPI DUP1 PUSH4 0x96572D59 EQ PUSH2 0x289 JUMPI DUP1 PUSH4 0xA217FDDF EQ PUSH2 0x2A9 JUMPI PUSH1 0x0 DUP1 REVERT JUMPDEST DUP1 PUSH4 0x36568ABE GT PUSH2 0xD1 JUMPI DUP1 PUSH4 0x36568ABE EQ PUSH2 0x1AF JUMPI DUP1 PUSH4 0x4ABAC588 EQ PUSH2 0x1CF JUMPI DUP1 PUSH4 0x4D68282F EQ PUSH2 0x1F1 JUMPI DUP1 PUSH4 0x852EA203 EQ PUSH2 0x211 JUMPI PUSH1 0x0 DUP1 REVERT JUMPDEST DUP1 PUSH4 0x1FFC9A7 EQ PUSH2 0x103 JUMPI DUP1 PUSH4 0x17D70F7C EQ PUSH2 0x138 JUMPI DUP1 PUSH4 0x248A9CA3 EQ PUSH2 0x15C JUMPI DUP1 PUSH4 0x2F2FF15D EQ PUSH2 0x18D JUMPI JUMPDEST PUSH1 0x0 DUP1 REVERT JUMPDEST CALLVALUE DUP1 ISZERO PUSH2 0x10F JUMPI PUSH1 0x0 DUP1 REVERT JUMPDEST POP PUSH2 0x123 PUSH2 0x11E CALLDATASIZE PUSH1 0x4 PUSH2 0x10A0 JUMP JUMPDEST PUSH2 0x359 JUMP JUMPDEST PUSH1 0x40 MLOAD SWAP1 ISZERO ISZERO DUP2 MSTORE PUSH1 0x20 ADD JUMPDEST PUSH1 0x40 MLOAD DUP1 SWAP2 SUB SWAP1 RETURN JUMPDEST CALLVALUE DUP1 ISZERO PUSH2 0x144 JUMPI PUSH1 0x0 DUP1 REVERT JUMPDEST POP PUSH2 0x14E PUSH1 0x4 SLOAD DUP2 JUMP JUMPDEST PUSH1 0x40 MLOAD SWAP1 DUP2 MSTORE PUSH1 0x20 ADD PUSH2 0x12F JUMP JUMPDEST CALLVALUE DUP1 ISZERO PUSH2 0x168 JUMPI PUSH1 0x0 DUP1 REVERT JUMPDEST POP PUSH2 0x14E PUSH2 0x177 CALLDATASIZE PUSH1 0x4 PUSH2 0x10CA JUMP JUMPDEST PUSH1 0x0 SWAP1 DUP2 MSTORE PUSH1 0x1 PUSH1 0x20 DUP2 SWAP1 MSTORE PUSH1 0x40 SWAP1 SWAP2 KECCAK256 ADD SLOAD SWAP1 JUMP JUMPDEST CALLVALUE DUP1 ISZERO PUSH2 0x199 JUMPI PUSH1 0x0 DUP1 REVERT JUMPDEST POP PUSH2 0x1AD PUSH2 0x1A8 CALLDATASIZE PUSH1 0x4 PUSH2 0x10E3 JUMP JUMPDEST PUSH2 0x390 JUMP JUMPDEST STOP JUMPDEST CALLVALUE DUP1 ISZERO PUSH2 0x1BB JUMPI PUSH1 0x0 DUP1 REVERT JUMPDEST POP PUSH2 0x1AD PUSH2 0x1CA CALLDATASIZE PUSH1 0x4 PUSH2 0x10E3 JUMP JUMPDEST PUSH2 0x3BB JUMP JUMPDEST CALLVALUE DUP1 ISZERO PUSH2 0x1DB JUMPI PUSH1 0x0 DUP1 REVERT JUMPDEST POP PUSH2 0x14E PUSH1 0x0 DUP1 MLOAD PUSH1 0x20 PUSH2 0x16D9 DUP4 CODECOPY DUP2 MLOAD SWAP2 MSTORE DUP2 JUMP JUMPDEST CALLVALUE DUP1 ISZERO PUSH2 0x1FD JUMPI PUSH1 0x0 DUP1 REVERT JUMPDEST POP PUSH2 0x1AD PUSH2 0x20C CALLDATASIZE PUSH1 0x4 PUSH2 0x10CA JUMP JUMPDEST PUSH2 0x43E JUMP JUMPDEST CALLVALUE DUP1 ISZERO PUSH2 0x21D JUMPI PUSH1 0x0 DUP1 REVERT JUMPDEST POP PUSH2 0x1AD PUSH2 0x22C CALLDATASIZE PUSH1 0x4 PUSH2 0x10CA JUMP JUMPDEST PUSH2 0x575 JUMP JUMPDEST CALLVALUE DUP1 ISZERO PUSH2 0x23D JUMPI PUSH1 0x0 DUP1 REVERT JUMPDEST POP PUSH1 0x5 SLOAD PUSH2 0x251 SWAP1 PUSH1 0x1 PUSH1 0x1 PUSH1 0xA0 SHL SUB AND DUP2 JUMP JUMPDEST PUSH1 0x40 MLOAD PUSH1 0x1 PUSH1 0x1 PUSH1 0xA0 SHL SUB SWAP1 SWAP2 AND DUP2 MSTORE PUSH1 0x20 ADD PUSH2 0x12F JUMP JUMPDEST CALLVALUE DUP1 ISZERO PUSH2 0x275 JUMPI PUSH1 0x0 DUP1 REVERT JUMPDEST POP PUSH2 0x123 PUSH2 0x284 CALLDATASIZE PUSH1 0x4 PUSH2 0x10E3 JUMP JUMPDEST PUSH2 0x6A1 JUMP JUMPDEST CALLVALUE DUP1 ISZERO PUSH2 0x295 JUMPI PUSH1 0x0 DUP1 REVERT JUMPDEST POP PUSH2 0x1AD PUSH2 0x2A4 CALLDATASIZE PUSH1 0x4 PUSH2 0x12D9 JUMP JUMPDEST PUSH2 0x6CC JUMP JUMPDEST CALLVALUE DUP1 ISZERO PUSH2 0x2B5 JUMPI PUSH1 0x0 DUP1 REVERT JUMPDEST POP PUSH2 0x14E PUSH1 0x0 DUP2 JUMP JUMPDEST CALLVALUE DUP1 ISZERO PUSH2 0x2CA JUMPI PUSH1 0x0 DUP1 REVERT JUMPDEST POP PUSH2 0x1AD PUSH2 0x2D9 CALLDATASIZE PUSH1 0x4 PUSH2 0x1386 JUMP JUMPDEST PUSH2 0xA80 JUMP JUMPDEST CALLVALUE DUP1 ISZERO PUSH2 0x2EA JUMPI PUSH1 0x0 DUP1 REVERT JUMPDEST POP PUSH2 0x1AD PUSH2 0x2F9 CALLDATASIZE PUSH1 0x4 PUSH2 0x10E3 JUMP JUMPDEST PUSH2 0xB6F JUMP JUMPDEST CALLVALUE DUP1 ISZERO PUSH2 0x30A JUMPI PUSH1 0x0 DUP1 REVERT JUMPDEST POP PUSH1 0x3 SLOAD PUSH2 0x251 SWAP1 PUSH1 0x1 PUSH1 0x1 PUSH1 0xA0 SHL SUB AND DUP2 JUMP JUMPDEST PUSH2 0x1AD PUSH2 0xB95 JUMP JUMPDEST CALLVALUE DUP1 ISZERO PUSH2 0x332 JUMPI PUSH1 0x0 DUP1 REVERT JUMPDEST POP PUSH2 0x346 PUSH2 0x341 CALLDATASIZE PUSH1 0x4 PUSH2 0x10CA JUMP JUMPDEST PUSH2 0xC46 JUMP JUMPDEST PUSH1 0x40 MLOAD PUSH2 0x12F SWAP8 SWAP7 SWAP6 SWAP5 SWAP4 SWAP3 SWAP2 SWAP1 PUSH2 0x1400 JUMP JUMPDEST PUSH1 0x0 PUSH1 0x1 PUSH1 0x1 PUSH1 0xE0 SHL SUB NOT DUP3 AND PUSH4 0x7965DB0B PUSH1 0xE0 SHL EQ DUP1 PUSH2 0x38A JUMPI POP PUSH4 0x1FFC9A7 PUSH1 0xE0 SHL PUSH1 0x1 PUSH1 0x1 PUSH1 0xE0 SHL SUB NOT DUP4 AND EQ JUMPDEST SWAP3 SWAP2 POP POP JUMP JUMPDEST PUSH1 0x0 DUP3 DUP2 MSTORE PUSH1 0x1 PUSH1 0x20 DUP2 SWAP1 MSTORE PUSH1 0x40 SWAP1 SWAP2 KECCAK256 ADD SLOAD PUSH2 0x3AC DUP2 PUSH2 0xDB3 JUMP JUMPDEST PUSH2 0x3B6 DUP4 DUP4 PUSH2 0xDC0 JUMP JUMPDEST POP POP POP JUMP JUMPDEST PUSH1 0x1 PUSH1 0x1 PUSH1 0xA0 SHL SUB DUP2 AND CALLER EQ PUSH2 0x430 JUMPI PUSH1 0x40 MLOAD PUSH3 0x461BCD PUSH1 0xE5 SHL DUP2 MSTORE PUSH1 0x20 PUSH1 0x4 DUP3 ADD MSTORE PUSH1 0x2F PUSH1 0x24 DUP3 ADD MSTORE PUSH32 0x416363657373436F6E74726F6C3A2063616E206F6E6C792072656E6F756E6365 PUSH1 0x44 DUP3 ADD MSTORE PUSH15 0x103937B632B9903337B91039B2B633 PUSH1 0x89 SHL PUSH1 0x64 DUP3 ADD MSTORE PUSH1 0x84 ADD JUMPDEST PUSH1 0x40 MLOAD DUP1 SWAP2 SUB SWAP1 REVERT JUMPDEST PUSH2 0x43A DUP3 DUP3 PUSH2 0xE2B JUMP JUMPDEST POP POP JUMP JUMPDEST PUSH1 0x0 DUP1 MLOAD PUSH1 0x20 PUSH2 0x16D9 DUP4 CODECOPY DUP2 MLOAD SWAP2 MSTORE PUSH2 0x456 DUP2 PUSH2 0xDB3 JUMP JUMPDEST PUSH1 0x0 PUSH1 0x6 DUP4 DUP2 SLOAD DUP2 LT PUSH2 0x46B JUMPI PUSH2 0x46B PUSH2 0x1455 JUMP JUMPDEST PUSH1 0x0 SWAP2 DUP3 MSTORE PUSH1 0x20 SWAP1 SWAP2 KECCAK256 PUSH1 0x6 SWAP1 SWAP2 MUL ADD PUSH1 0x1 DUP2 ADD SLOAD SWAP1 SWAP2 POP PUSH1 0xFF AND DUP1 ISZERO PUSH2 0x49B JUMPI POP PUSH1 0x1 DUP2 ADD SLOAD PUSH2 0x100 SWAP1 DIV PUSH1 0xFF AND JUMPDEST PUSH2 0x4F3 JUMPI PUSH1 0x40 MLOAD PUSH3 0x461BCD PUSH1 0xE5 SHL DUP2 MSTORE PUSH1 0x20 PUSH1 0x4 DUP3 ADD MSTORE PUSH1 0x24 DUP1 DUP3 ADD MSTORE PUSH32 0x4D696C6573746F6E65206E6F74207665726966696564206F7220636F6D706C65 PUSH1 0x44 DUP3 ADD MSTORE PUSH4 0x3A32B217 PUSH1 0xE1 SHL PUSH1 0x64 DUP3 ADD MSTORE PUSH1 0x84 ADD PUSH2 0x427 JUMP JUMPDEST PUSH1 0x5 SLOAD PUSH1 0x2 DUP3 ADD SLOAD PUSH1 0x40 MLOAD PUSH1 0x1 PUSH1 0x1 PUSH1 0xA0 SHL SUB SWAP1 SWAP3 AND SWAP2 DUP2 ISZERO PUSH2 0x8FC MUL SWAP2 SWAP1 PUSH1 0x0 DUP2 DUP2 DUP2 DUP6 DUP9 DUP9 CALL SWAP4 POP POP POP POP ISZERO DUP1 ISZERO PUSH2 0x531 JUMPI RETURNDATASIZE PUSH1 0x0 DUP1 RETURNDATACOPY RETURNDATASIZE PUSH1 0x0 REVERT JUMPDEST POP DUP3 PUSH32 0xD66662C0DED9E58FD31D5E44944BCFD07FFC15E6927ECC1382E7941CB7BD24C4 DUP3 PUSH1 0x2 ADD SLOAD PUSH1 0x40 MLOAD PUSH2 0x568 SWAP2 DUP2 MSTORE PUSH1 0x20 ADD SWAP1 JUMP JUMPDEST PUSH1 0x40 MLOAD DUP1 SWAP2 SUB SWAP1 LOG2 POP POP POP JUMP JUMPDEST PUSH1 0x0 DUP1 MLOAD PUSH1 0x20 PUSH2 0x16D9 DUP4 CODECOPY DUP2 MLOAD SWAP2 MSTORE PUSH2 0x58D DUP2 PUSH2 0xDB3 JUMP JUMPDEST PUSH1 0x0 PUSH1 0x6 DUP4 DUP2 SLOAD DUP2 LT PUSH2 0x5A2 JUMPI PUSH2 0x5A2 PUSH2 0x1455 JUMP JUMPDEST SWAP1 PUSH1 0x0 MSTORE PUSH1 0x20 PUSH1 0x0 KECCAK256 SWAP1 PUSH1 0x6 MUL ADD SWAP1 POP DUP1 PUSH1 0x4 ADD SLOAD TIMESTAMP GT ISZERO PUSH2 0x606 JUMPI PUSH1 0x40 MLOAD PUSH3 0x461BCD PUSH1 0xE5 SHL DUP2 MSTORE PUSH1 0x20 PUSH1 0x4 DUP3 ADD MSTORE PUSH1 0x1E PUSH1 0x24 DUP3 ADD MSTORE PUSH32 0x4D696C6573746F6E6520646561646C696E6520686173207061737365642E0000 PUSH1 0x44 DUP3 ADD MSTORE PUSH1 0x64 ADD PUSH2 0x427 JUMP JUMPDEST PUSH1 0x1 DUP2 ADD SLOAD PUSH1 0xFF AND ISZERO PUSH2 0x65B JUMPI PUSH1 0x40 MLOAD PUSH3 0x461BCD PUSH1 0xE5 SHL DUP2 MSTORE PUSH1 0x20 PUSH1 0x4 DUP3 ADD MSTORE PUSH1 0x1C PUSH1 0x24 DUP3 ADD MSTORE PUSH32 0x4D696C6573746F6E6520616C726561647920636F6D706C657465642E00000000 PUSH1 0x44 DUP3 ADD MSTORE PUSH1 0x64 ADD PUSH2 0x427 JUMP JUMPDEST PUSH1 0x1 DUP2 DUP2 ADD DUP1 SLOAD PUSH1 0xFF NOT AND SWAP1 SWAP2 OR SWAP1 SSTORE TIMESTAMP PUSH1 0x3 DUP3 ADD SSTORE PUSH1 0x40 MLOAD DUP4 SWAP1 PUSH32 0x41F5E423C5AE79DCB8565618891E74A7A6E76232568150B33D79001A62391B1E SWAP1 PUSH1 0x0 SWAP1 LOG2 POP POP POP JUMP JUMPDEST PUSH1 0x0 SWAP2 DUP3 MSTORE PUSH1 0x1 PUSH1 0x20 SWAP1 DUP2 MSTORE PUSH1 0x40 DUP1 DUP5 KECCAK256 PUSH1 0x1 PUSH1 0x1 PUSH1 0xA0 SHL SUB SWAP4 SWAP1 SWAP4 AND DUP5 MSTORE SWAP2 SWAP1 MSTORE SWAP1 KECCAK256 SLOAD PUSH1 0xFF AND SWAP1 JUMP JUMPDEST PUSH1 0x0 DUP1 MLOAD PUSH1 0x20 PUSH2 0x16D9 DUP4 CODECOPY DUP2 MLOAD SWAP2 MSTORE PUSH2 0x6E4 DUP2 PUSH2 0xDB3 JUMP JUMPDEST DUP4 MLOAD DUP6 MLOAD EQ DUP1 ISZERO PUSH2 0x6F6 JUMPI POP DUP3 MLOAD DUP5 MLOAD EQ JUMPDEST DUP1 ISZERO PUSH2 0x703 JUMPI POP DUP2 MLOAD DUP4 MLOAD EQ JUMPDEST PUSH2 0x74F JUMPI PUSH1 0x40 MLOAD PUSH3 0x461BCD PUSH1 0xE5 SHL DUP2 MSTORE PUSH1 0x20 PUSH1 0x4 DUP3 ADD MSTORE PUSH1 0x18 PUSH1 0x24 DUP3 ADD MSTORE PUSH32 0x4172726179206C656E67746873206D757374206D617463680000000000000000 PUSH1 0x44 DUP3 ADD MSTORE PUSH1 0x64 ADD PUSH2 0x427 JUMP JUMPDEST PUSH1 0x0 JUMPDEST DUP6 MLOAD DUP2 LT ISZERO PUSH2 0xA78 JUMPI PUSH1 0x0 DUP7 DUP3 DUP2 MLOAD DUP2 LT PUSH2 0x76F JUMPI PUSH2 0x76F PUSH2 0x1455 JUMP JUMPDEST PUSH1 0x20 MUL PUSH1 0x20 ADD ADD MLOAD MLOAD GT PUSH2 0x7C5 JUMPI PUSH1 0x40 MLOAD PUSH3 0x461BCD PUSH1 0xE5 SHL DUP2 MSTORE PUSH1 0x20 PUSH1 0x4 DUP3 ADD MSTORE PUSH1 0x1B PUSH1 0x24 DUP3 ADD MSTORE PUSH32 0x4465736372697074696F6E2063616E6E6F7420626520656D7074790000000000 PUSH1 0x44 DUP3 ADD MSTORE PUSH1 0x64 ADD PUSH2 0x427 JUMP JUMPDEST PUSH1 0x0 DUP6 DUP3 DUP2 MLOAD DUP2 LT PUSH2 0x7D9 JUMPI PUSH2 0x7D9 PUSH2 0x1455 JUMP JUMPDEST PUSH1 0x20 MUL PUSH1 0x20 ADD ADD MLOAD GT PUSH2 0x82E JUMPI PUSH1 0x40 MLOAD PUSH3 0x461BCD PUSH1 0xE5 SHL DUP2 MSTORE PUSH1 0x20 PUSH1 0x4 DUP3 ADD DUP2 SWAP1 MSTORE PUSH1 0x24 DUP3 ADD MSTORE PUSH32 0x416D6F756E74206D7573742062652067726561746572207468616E207A65726F PUSH1 0x44 DUP3 ADD MSTORE PUSH1 0x64 ADD PUSH2 0x427 JUMP JUMPDEST TIMESTAMP DUP5 DUP3 DUP2 MLOAD DUP2 LT PUSH2 0x841 JUMPI PUSH2 0x841 PUSH2 0x1455 JUMP JUMPDEST PUSH1 0x20 MUL PUSH1 0x20 ADD ADD MLOAD GT PUSH2 0x896 JUMPI PUSH1 0x40 MLOAD PUSH3 0x461BCD PUSH1 0xE5 SHL DUP2 MSTORE PUSH1 0x20 PUSH1 0x4 DUP3 ADD MSTORE PUSH1 0x1E PUSH1 0x24 DUP3 ADD MSTORE PUSH32 0x446561646C696E65206D75737420626520696E20746865206675747572650000 PUSH1 0x44 DUP3 ADD MSTORE PUSH1 0x64 ADD PUSH2 0x427 JUMP JUMPDEST PUSH1 0x0 PUSH2 0x8A1 PUSH1 0x2 SLOAD SWAP1 JUMP JUMPDEST SWAP1 POP PUSH1 0x6 PUSH1 0x40 MLOAD DUP1 PUSH1 0xE0 ADD PUSH1 0x40 MSTORE DUP1 DUP10 DUP6 DUP2 MLOAD DUP2 LT PUSH2 0x8C2 JUMPI PUSH2 0x8C2 PUSH2 0x1455 JUMP JUMPDEST PUSH1 0x20 MUL PUSH1 0x20 ADD ADD MLOAD DUP2 MSTORE PUSH1 0x20 ADD PUSH1 0x0 ISZERO ISZERO DUP2 MSTORE PUSH1 0x20 ADD PUSH1 0x0 ISZERO ISZERO DUP2 MSTORE PUSH1 0x20 ADD DUP9 DUP6 DUP2 MLOAD DUP2 LT PUSH2 0x8F3 JUMPI PUSH2 0x8F3 PUSH2 0x1455 JUMP JUMPDEST PUSH1 0x20 MUL PUSH1 0x20 ADD ADD MLOAD DUP2 MSTORE PUSH1 0x20 ADD PUSH1 0x0 DUP2 MSTORE PUSH1 0x20 ADD DUP8 DUP6 DUP2 MLOAD DUP2 LT PUSH2 0x919 JUMPI PUSH2 0x919 PUSH2 0x1455 JUMP JUMPDEST PUSH1 0x20 MUL PUSH1 0x20 ADD ADD MLOAD DUP2 MSTORE PUSH1 0x20 ADD DUP7 DUP6 DUP2 MLOAD DUP2 LT PUSH2 0x938 JUMPI PUSH2 0x938 PUSH2 0x1455 JUMP JUMPDEST PUSH1 0x20 SWAP1 DUP2 MUL SWAP2 SWAP1 SWAP2 ADD DUP2 ADD MLOAD SWAP1 SWAP2 MSTORE DUP3 SLOAD PUSH1 0x1 DUP2 ADD DUP5 SSTORE PUSH1 0x0 SWAP4 DUP5 MSTORE SWAP3 KECCAK256 DUP2 MLOAD SWAP2 SWAP3 PUSH1 0x6 MUL ADD SWAP1 DUP2 SWAP1 PUSH2 0x96B SWAP1 DUP3 PUSH2 0x14EB JUMP JUMPDEST POP PUSH1 0x20 DUP3 ADD MLOAD PUSH1 0x1 DUP3 ADD DUP1 SLOAD PUSH1 0x40 DUP6 ADD MLOAD ISZERO ISZERO PUSH2 0x100 MUL PUSH2 0xFF00 NOT SWAP4 ISZERO ISZERO SWAP4 SWAP1 SWAP4 AND PUSH2 0xFFFF NOT SWAP1 SWAP2 AND OR SWAP2 SWAP1 SWAP2 OR SWAP1 SSTORE PUSH1 0x60 DUP3 ADD MLOAD PUSH1 0x2 DUP3 ADD SSTORE PUSH1 0x80 DUP3 ADD MLOAD PUSH1 0x3 DUP3 ADD SSTORE PUSH1 0xA0 DUP3 ADD MLOAD PUSH1 0x4 DUP3 ADD SSTORE PUSH1 0xC0 DUP3 ADD MLOAD PUSH1 0x5 DUP3 ADD SWAP1 PUSH2 0x9CD SWAP1 DUP3 PUSH2 0x14EB JUMP JUMPDEST POP POP POP PUSH2 0x9DE PUSH1 0x2 DUP1 SLOAD PUSH1 0x1 ADD SWAP1 SSTORE JUMP JUMPDEST DUP1 PUSH32 0xDA0726400E7F8A48F7FE18373539F365A929D20A804C5D23AD2C389FB004D4B DUP9 DUP5 DUP2 MLOAD DUP2 LT PUSH2 0xA12 JUMPI PUSH2 0xA12 PUSH2 0x1455 JUMP JUMPDEST PUSH1 0x20 MUL PUSH1 0x20 ADD ADD MLOAD DUP8 DUP6 DUP2 MLOAD DUP2 LT PUSH2 0xA2C JUMPI PUSH2 0xA2C PUSH2 0x1455 JUMP JUMPDEST PUSH1 0x20 MUL PUSH1 0x20 ADD ADD MLOAD DUP8 DUP7 DUP2 MLOAD DUP2 LT PUSH2 0xA46 JUMPI PUSH2 0xA46 PUSH2 0x1455 JUMP JUMPDEST PUSH1 0x20 MUL PUSH1 0x20 ADD ADD MLOAD PUSH1 0x40 MLOAD PUSH2 0xA5D SWAP4 SWAP3 SWAP2 SWAP1 PUSH2 0x15AB JUMP JUMPDEST PUSH1 0x40 MLOAD DUP1 SWAP2 SUB SWAP1 LOG2 POP DUP1 PUSH2 0xA70 DUP2 PUSH2 0x15F6 JUMP JUMPDEST SWAP2 POP POP PUSH2 0x752 JUMP JUMPDEST POP POP POP POP POP POP JUMP JUMPDEST PUSH1 0x0 DUP1 MLOAD PUSH1 0x20 PUSH2 0x16D9 DUP4 CODECOPY DUP2 MLOAD SWAP2 MSTORE PUSH2 0xA98 DUP2 PUSH2 0xDB3 JUMP JUMPDEST PUSH1 0x0 PUSH1 0x6 DUP5 DUP2 SLOAD DUP2 LT PUSH2 0xAAD JUMPI PUSH2 0xAAD PUSH2 0x1455 JUMP JUMPDEST PUSH1 0x0 SWAP2 DUP3 MSTORE PUSH1 0x20 SWAP1 SWAP2 KECCAK256 PUSH1 0x6 SWAP1 SWAP2 MUL ADD PUSH1 0x1 DUP2 ADD SLOAD SWAP1 SWAP2 POP PUSH1 0xFF AND PUSH2 0xB14 JUMPI PUSH1 0x40 MLOAD PUSH3 0x461BCD PUSH1 0xE5 SHL DUP2 MSTORE PUSH1 0x20 PUSH1 0x4 DUP3 ADD MSTORE PUSH1 0x18 PUSH1 0x24 DUP3 ADD MSTORE PUSH32 0x4D696C6573746F6E65206E6F7420636F6D706C657465642E0000000000000000 PUSH1 0x44 DUP3 ADD MSTORE PUSH1 0x64 ADD PUSH2 0x427 JUMP JUMPDEST PUSH1 0x1 DUP2 ADD DUP1 SLOAD DUP5 ISZERO ISZERO PUSH2 0x100 MUL PUSH2 0xFF00 NOT SWAP1 SWAP2 AND OR SWAP1 SSTORE PUSH1 0x40 MLOAD DUP5 SWAP1 PUSH32 0x8092B3FA7285A4131F576E9A2BAF3559D34C8231AE55BD38F68471C3C45A0D82 SWAP1 PUSH2 0xB61 SWAP1 DUP7 ISZERO ISZERO DUP2 MSTORE PUSH1 0x20 ADD SWAP1 JUMP JUMPDEST PUSH1 0x40 MLOAD DUP1 SWAP2 SUB SWAP1 LOG2 POP POP POP POP JUMP JUMPDEST PUSH1 0x0 DUP3 DUP2 MSTORE PUSH1 0x1 PUSH1 0x20 DUP2 SWAP1 MSTORE PUSH1 0x40 SWAP1 SWAP2 KECCAK256 ADD SLOAD PUSH2 0xB8B DUP2 PUSH2 0xDB3 JUMP JUMPDEST PUSH2 0x3B6 DUP4 DUP4 PUSH2 0xE2B JUMP JUMPDEST PUSH1 0x0 DUP1 MLOAD PUSH1 0x20 PUSH2 0x16D9 DUP4 CODECOPY DUP2 MLOAD SWAP2 MSTORE PUSH2 0xBAD DUP2 PUSH2 0xDB3 JUMP JUMPDEST PUSH1 0x0 CALLVALUE GT PUSH2 0xC0E JUMPI PUSH1 0x40 MLOAD PUSH3 0x461BCD PUSH1 0xE5 SHL DUP2 MSTORE PUSH1 0x20 PUSH1 0x4 DUP3 ADD MSTORE PUSH1 0x28 PUSH1 0x24 DUP3 ADD MSTORE PUSH32 0x4465706F73697420616D6F756E74206D75737420626520677265617465722074 PUSH1 0x44 DUP3 ADD MSTORE PUSH8 0x68616E207A65726F PUSH1 0xC0 SHL PUSH1 0x64 DUP3 ADD MSTORE PUSH1 0x84 ADD PUSH2 0x427 JUMP JUMPDEST PUSH1 0x40 MLOAD CALLVALUE DUP2 MSTORE CALLER SWAP1 PUSH32 0x543BA50A5EEC5E6178218E364B1D0F396157B3C8FA278522C2CB7FD99407D474 SWAP1 PUSH1 0x20 ADD PUSH1 0x40 MLOAD DUP1 SWAP2 SUB SWAP1 LOG2 POP JUMP JUMPDEST PUSH1 0x6 DUP2 DUP2 SLOAD DUP2 LT PUSH2 0xC56 JUMPI PUSH1 0x0 DUP1 REVERT JUMPDEST SWAP1 PUSH1 0x0 MSTORE PUSH1 0x20 PUSH1 0x0 KECCAK256 SWAP1 PUSH1 0x6 MUL ADD PUSH1 0x0 SWAP2 POP SWAP1 POP DUP1 PUSH1 0x0 ADD DUP1 SLOAD PUSH2 0xC79 SWAP1 PUSH2 0x146B JUMP JUMPDEST DUP1 PUSH1 0x1F ADD PUSH1 0x20 DUP1 SWAP2 DIV MUL PUSH1 0x20 ADD PUSH1 0x40 MLOAD SWAP1 DUP2 ADD PUSH1 0x40 MSTORE DUP1 SWAP3 SWAP2 SWAP1 DUP2 DUP2 MSTORE PUSH1 0x20 ADD DUP3 DUP1 SLOAD PUSH2 0xCA5 SWAP1 PUSH2 0x146B JUMP JUMPDEST DUP1 ISZERO PUSH2 0xCF2 JUMPI DUP1 PUSH1 0x1F LT PUSH2 0xCC7 JUMPI PUSH2 0x100 DUP1 DUP4 SLOAD DIV MUL DUP4 MSTORE SWAP2 PUSH1 0x20 ADD SWAP2 PUSH2 0xCF2 JUMP JUMPDEST DUP3 ADD SWAP2 SWAP1 PUSH1 0x0 MSTORE PUSH1 0x20 PUSH1 0x0 KECCAK256 SWAP1 JUMPDEST DUP2 SLOAD DUP2 MSTORE SWAP1 PUSH1 0x1 ADD SWAP1 PUSH1 0x20 ADD DUP1 DUP4 GT PUSH2 0xCD5 JUMPI DUP3 SWAP1 SUB PUSH1 0x1F AND DUP3 ADD SWAP2 JUMPDEST POP POP POP POP PUSH1 0x1 DUP4 ADD SLOAD PUSH1 0x2 DUP5 ADD SLOAD PUSH1 0x3 DUP6 ADD SLOAD PUSH1 0x4 DUP7 ADD SLOAD PUSH1 0x5 DUP8 ADD DUP1 SLOAD SWAP7 SWAP8 PUSH1 0xFF DUP1 DUP8 AND SWAP9 PUSH2 0x100 SWAP1 SWAP8 DIV AND SWAP7 POP SWAP4 SWAP5 SWAP3 SWAP4 SWAP2 SWAP3 PUSH2 0xD30 SWAP1 PUSH2 0x146B JUMP JUMPDEST DUP1 PUSH1 0x1F ADD PUSH1 0x20 DUP1 SWAP2 DIV MUL PUSH1 0x20 ADD PUSH1 0x40 MLOAD SWAP1 DUP2 ADD PUSH1 0x40 MSTORE DUP1 SWAP3 SWAP2 SWAP1 DUP2 DUP2 MSTORE PUSH1 0x20 ADD DUP3 DUP1 SLOAD PUSH2 0xD5C SWAP1 PUSH2 0x146B JUMP JUMPDEST DUP1 ISZERO PUSH2 0xDA9 JUMPI DUP1 PUSH1 0x1F LT PUSH2 0xD7E JUMPI PUSH2 0x100 DUP1 DUP4 SLOAD DIV MUL DUP4 MSTORE SWAP2 PUSH1 0x20 ADD SWAP2 PUSH2 0xDA9 JUMP JUMPDEST DUP3 ADD SWAP2 SWAP1 PUSH1 0x0 MSTORE PUSH1 0x20 PUSH1 0x0 KECCAK256 SWAP1 JUMPDEST DUP2 SLOAD DUP2 MSTORE SWAP1 PUSH1 0x1 ADD SWAP1 PUSH1 0x20 ADD DUP1 DUP4 GT PUSH2 0xD8C JUMPI DUP3 SWAP1 SUB PUSH1 0x1F AND DUP3 ADD SWAP2 JUMPDEST POP POP POP POP POP SWAP1 POP DUP8 JUMP JUMPDEST PUSH2 0xDBD DUP2 CALLER PUSH2 0xE92 JUMP JUMPDEST POP JUMP JUMPDEST PUSH2 0xDCA DUP3 DUP3 PUSH2 0x6A1 JUMP JUMPDEST PUSH2 0x43A JUMPI PUSH1 0x0 DUP3 DUP2 MSTORE PUSH1 0x1 PUSH1 0x20 DUP2 DUP2 MSTORE PUSH1 0x40 DUP1 DUP5 KECCAK256 PUSH1 0x1 PUSH1 0x1 PUSH1 0xA0 SHL SUB DUP7 AND DUP1 DUP7 MSTORE SWAP3 MSTORE DUP1 DUP5 KECCAK256 DUP1 SLOAD PUSH1 0xFF NOT AND SWAP1 SWAP4 OR SWAP1 SWAP3 SSTORE SWAP1 MLOAD CALLER SWAP3 DUP6 SWAP2 PUSH32 0x2F8788117E7EFF1D82E926EC794901D17C78024A50270940304540A733656F0D SWAP2 SWAP1 LOG4 POP POP JUMP JUMPDEST PUSH2 0xE35 DUP3 DUP3 PUSH2 0x6A1 JUMP JUMPDEST ISZERO PUSH2 0x43A JUMPI PUSH1 0x0 DUP3 DUP2 MSTORE PUSH1 0x1 PUSH1 0x20 SWAP1 DUP2 MSTORE PUSH1 0x40 DUP1 DUP4 KECCAK256 PUSH1 0x1 PUSH1 0x1 PUSH1 0xA0 SHL SUB DUP6 AND DUP1 DUP6 MSTORE SWAP3 MSTORE DUP1 DUP4 KECCAK256 DUP1 SLOAD PUSH1 0xFF NOT AND SWAP1 SSTORE MLOAD CALLER SWAP3 DUP6 SWAP2 PUSH32 0xF6391F5C32D9C69D2A47EA670B442974B53935D1EDC7FD64EB21E047A839171B SWAP2 SWAP1 LOG4 POP POP JUMP JUMPDEST PUSH2 0xE9C DUP3 DUP3 PUSH2 0x6A1 JUMP JUMPDEST PUSH2 0x43A JUMPI PUSH2 0xEA9 DUP2 PUSH2 0xEEB JUMP JUMPDEST PUSH2 0xEB4 DUP4 PUSH1 0x20 PUSH2 0xEFD JUMP JUMPDEST PUSH1 0x40 MLOAD PUSH1 0x20 ADD PUSH2 0xEC5 SWAP3 SWAP2 SWAP1 PUSH2 0x160F JUMP JUMPDEST PUSH1 0x40 DUP1 MLOAD PUSH1 0x1F NOT DUP2 DUP5 SUB ADD DUP2 MSTORE SWAP1 DUP3 SWAP1 MSTORE PUSH3 0x461BCD PUSH1 0xE5 SHL DUP3 MSTORE PUSH2 0x427 SWAP2 PUSH1 0x4 ADD PUSH2 0x1684 JUMP JUMPDEST PUSH1 0x60 PUSH2 0x38A PUSH1 0x1 PUSH1 0x1 PUSH1 0xA0 SHL SUB DUP4 AND PUSH1 0x14 JUMPDEST PUSH1 0x60 PUSH1 0x0 PUSH2 0xF0C DUP4 PUSH1 0x2 PUSH2 0x1697 JUMP JUMPDEST PUSH2 0xF17 SWAP1 PUSH1 0x2 PUSH2 0x16AE JUMP JUMPDEST PUSH8 0xFFFFFFFFFFFFFFFF DUP2 GT ISZERO PUSH2 0xF2F JUMPI PUSH2 0xF2F PUSH2 0x111F JUMP JUMPDEST PUSH1 0x40 MLOAD SWAP1 DUP1 DUP3 MSTORE DUP1 PUSH1 0x1F ADD PUSH1 0x1F NOT AND PUSH1 0x20 ADD DUP3 ADD PUSH1 0x40 MSTORE DUP1 ISZERO PUSH2 0xF59 JUMPI PUSH1 0x20 DUP3 ADD DUP2 DUP1 CALLDATASIZE DUP4 CALLDATACOPY ADD SWAP1 POP JUMPDEST POP SWAP1 POP PUSH1 0x3 PUSH1 0xFC SHL DUP2 PUSH1 0x0 DUP2 MLOAD DUP2 LT PUSH2 0xF74 JUMPI PUSH2 0xF74 PUSH2 0x1455 JUMP JUMPDEST PUSH1 0x20 ADD ADD SWAP1 PUSH1 0x1 PUSH1 0x1 PUSH1 0xF8 SHL SUB NOT AND SWAP1 DUP2 PUSH1 0x0 BYTE SWAP1 MSTORE8 POP PUSH1 0xF PUSH1 0xFB SHL DUP2 PUSH1 0x1 DUP2 MLOAD DUP2 LT PUSH2 0xFA3 JUMPI PUSH2 0xFA3 PUSH2 0x1455 JUMP JUMPDEST PUSH1 0x20 ADD ADD SWAP1 PUSH1 0x1 PUSH1 0x1 PUSH1 0xF8 SHL SUB NOT AND SWAP1 DUP2 PUSH1 0x0 BYTE SWAP1 MSTORE8 POP PUSH1 0x0 PUSH2 0xFC7 DUP5 PUSH1 0x2 PUSH2 0x1697 JUMP JUMPDEST PUSH2 0xFD2 SWAP1 PUSH1 0x1 PUSH2 0x16AE JUMP JUMPDEST SWAP1 POP JUMPDEST PUSH1 0x1 DUP2 GT ISZERO PUSH2 0x104A JUMPI PUSH16 0x181899199A1A9B1B9C1CB0B131B232B3 PUSH1 0x81 SHL DUP6 PUSH1 0xF AND PUSH1 0x10 DUP2 LT PUSH2 0x1006 JUMPI PUSH2 0x1006 PUSH2 0x1455 JUMP JUMPDEST BYTE PUSH1 0xF8 SHL DUP3 DUP3 DUP2 MLOAD DUP2 LT PUSH2 0x101C JUMPI PUSH2 0x101C PUSH2 0x1455 JUMP JUMPDEST PUSH1 0x20 ADD ADD SWAP1 PUSH1 0x1 PUSH1 0x1 PUSH1 0xF8 SHL SUB NOT AND SWAP1 DUP2 PUSH1 0x0 BYTE SWAP1 MSTORE8 POP PUSH1 0x4 SWAP5 SWAP1 SWAP5 SHR SWAP4 PUSH2 0x1043 DUP2 PUSH2 0x16C1 JUMP JUMPDEST SWAP1 POP PUSH2 0xFD5 JUMP JUMPDEST POP DUP4 ISZERO PUSH2 0x1099 JUMPI PUSH1 0x40 MLOAD PUSH3 0x461BCD PUSH1 0xE5 SHL DUP2 MSTORE PUSH1 0x20 PUSH1 0x4 DUP3 ADD DUP2 SWAP1 MSTORE PUSH1 0x24 DUP3 ADD MSTORE PUSH32 0x537472696E67733A20686578206C656E67746820696E73756666696369656E74 PUSH1 0x44 DUP3 ADD MSTORE PUSH1 0x64 ADD PUSH2 0x427 JUMP JUMPDEST SWAP4 SWAP3 POP POP POP JUMP JUMPDEST PUSH1 0x0 PUSH1 0x20 DUP3 DUP5 SUB SLT ISZERO PUSH2 0x10B2 JUMPI PUSH1 0x0 DUP1 REVERT JUMPDEST DUP2 CALLDATALOAD PUSH1 0x1 PUSH1 0x1 PUSH1 0xE0 SHL SUB NOT DUP2 AND DUP2 EQ PUSH2 0x1099 JUMPI PUSH1 0x0 DUP1 REVERT JUMPDEST PUSH1 0x0 PUSH1 0x20 DUP3 DUP5 SUB SLT ISZERO PUSH2 0x10DC JUMPI PUSH1 0x0 DUP1 REVERT JUMPDEST POP CALLDATALOAD SWAP2 SWAP1 POP JUMP JUMPDEST PUSH1 0x0 DUP1 PUSH1 0x40 DUP4 DUP6 SUB SLT ISZERO PUSH2 0x10F6 JUMPI PUSH1 0x0 DUP1 REVERT JUMPDEST DUP3 CALLDATALOAD SWAP2 POP PUSH1 0x20 DUP4 ADD CALLDATALOAD PUSH1 0x1 PUSH1 0x1 PUSH1 0xA0 SHL SUB DUP2 AND DUP2 EQ PUSH2 0x1114 JUMPI PUSH1 0x0 DUP1 REVERT JUMPDEST DUP1 SWAP2 POP POP SWAP3 POP SWAP3 SWAP1 POP JUMP JUMPDEST PUSH4 0x4E487B71 PUSH1 0xE0 SHL PUSH1 0x0 MSTORE PUSH1 0x41 PUSH1 0x4 MSTORE PUSH1 0x24 PUSH1 0x0 REVERT JUMPDEST PUSH1 0x40 MLOAD PUSH1 0x1F DUP3 ADD PUSH1 0x1F NOT AND DUP2 ADD PUSH8 0xFFFFFFFFFFFFFFFF DUP2 GT DUP3 DUP3 LT OR ISZERO PUSH2 0x115E JUMPI PUSH2 0x115E PUSH2 0x111F JUMP JUMPDEST PUSH1 0x40 MSTORE SWAP2 SWAP1 POP JUMP JUMPDEST PUSH1 0x0 PUSH8 0xFFFFFFFFFFFFFFFF DUP3 GT ISZERO PUSH2 0x1180 JUMPI PUSH2 0x1180 PUSH2 0x111F JUMP JUMPDEST POP PUSH1 0x5 SHL PUSH1 0x20 ADD SWAP1 JUMP JUMPDEST PUSH1 0x0 PUSH1 0x1F DUP4 DUP2 DUP5 ADD SLT PUSH2 0x119C JUMPI PUSH1 0x0 DUP1 REVERT JUMPDEST DUP3 CALLDATALOAD PUSH1 0x20 PUSH2 0x11B1 PUSH2 0x11AC DUP4 PUSH2 0x1166 JUMP JUMPDEST PUSH2 0x1135 JUMP JUMPDEST DUP3 DUP2 MSTORE PUSH1 0x5 SWAP3 SWAP1 SWAP3 SHL DUP6 ADD DUP2 ADD SWAP2 DUP2 DUP2 ADD SWAP1 DUP8 DUP5 GT ISZERO PUSH2 0x11D0 JUMPI PUSH1 0x0 DUP1 REVERT JUMPDEST DUP3 DUP8 ADD JUMPDEST DUP5 DUP2 LT ISZERO PUSH2 0x1267 JUMPI DUP1 CALLDATALOAD PUSH8 0xFFFFFFFFFFFFFFFF DUP1 DUP3 GT ISZERO PUSH2 0x11F5 JUMPI PUSH1 0x0 DUP1 DUP2 REVERT JUMPDEST DUP2 DUP11 ADD SWAP2 POP DUP11 PUSH1 0x3F DUP4 ADD SLT PUSH2 0x120A JUMPI PUSH1 0x0 DUP1 DUP2 REVERT JUMPDEST DUP6 DUP3 ADD CALLDATALOAD PUSH1 0x40 DUP3 DUP3 GT ISZERO PUSH2 0x1220 JUMPI PUSH2 0x1220 PUSH2 0x111F JUMP JUMPDEST PUSH2 0x1231 DUP3 DUP12 ADD PUSH1 0x1F NOT AND DUP10 ADD PUSH2 0x1135 JUMP JUMPDEST SWAP3 POP DUP2 DUP4 MSTORE DUP13 DUP2 DUP4 DUP7 ADD ADD GT ISZERO PUSH2 0x1248 JUMPI PUSH1 0x0 DUP1 DUP2 REVERT JUMPDEST DUP2 DUP2 DUP6 ADD DUP10 DUP6 ADD CALLDATACOPY POP PUSH1 0x0 SWAP1 DUP3 ADD DUP8 ADD MSTORE DUP5 MSTORE POP SWAP2 DUP4 ADD SWAP2 DUP4 ADD PUSH2 0x11D4 JUMP JUMPDEST POP SWAP8 SWAP7 POP POP POP POP POP POP POP JUMP JUMPDEST PUSH1 0x0 DUP3 PUSH1 0x1F DUP4 ADD SLT PUSH2 0x1284 JUMPI PUSH1 0x0 DUP1 REVERT JUMPDEST DUP2 CALLDATALOAD PUSH1 0x20 PUSH2 0x1294 PUSH2 0x11AC DUP4 PUSH2 0x1166 JUMP JUMPDEST DUP3 DUP2 MSTORE PUSH1 0x5 SWAP3 SWAP1 SWAP3 SHL DUP5 ADD DUP2 ADD SWAP2 DUP2 DUP2 ADD SWAP1 DUP7 DUP5 GT ISZERO PUSH2 0x12B3 JUMPI PUSH1 0x0 DUP1 REVERT JUMPDEST DUP3 DUP7 ADD JUMPDEST DUP5 DUP2 LT ISZERO PUSH2 0x12CE JUMPI DUP1 CALLDATALOAD DUP4 MSTORE SWAP2 DUP4 ADD SWAP2 DUP4 ADD PUSH2 0x12B7 JUMP JUMPDEST POP SWAP7 SWAP6 POP POP POP POP POP POP JUMP JUMPDEST PUSH1 0x0 DUP1 PUSH1 0x0 DUP1 PUSH1 0x80 DUP6 DUP8 SUB SLT ISZERO PUSH2 0x12EF JUMPI PUSH1 0x0 DUP1 REVERT JUMPDEST DUP5 CALLDATALOAD PUSH8 0xFFFFFFFFFFFFFFFF DUP1 DUP3 GT ISZERO PUSH2 0x1307 JUMPI PUSH1 0x0 DUP1 REVERT JUMPDEST PUSH2 0x1313 DUP9 DUP4 DUP10 ADD PUSH2 0x118A JUMP JUMPDEST SWAP6 POP PUSH1 0x20 DUP8 ADD CALLDATALOAD SWAP2 POP DUP1 DUP3 GT ISZERO PUSH2 0x1329 JUMPI PUSH1 0x0 DUP1 REVERT JUMPDEST PUSH2 0x1335 DUP9 DUP4 DUP10 ADD PUSH2 0x1273 JUMP JUMPDEST SWAP5 POP PUSH1 0x40 DUP8 ADD CALLDATALOAD SWAP2 POP DUP1 DUP3 GT ISZERO PUSH2 0x134B JUMPI PUSH1 0x0 DUP1 REVERT JUMPDEST PUSH2 0x1357 DUP9 DUP4 DUP10 ADD PUSH2 0x1273 JUMP JUMPDEST SWAP4 POP PUSH1 0x60 DUP8 ADD CALLDATALOAD SWAP2 POP DUP1 DUP3 GT ISZERO PUSH2 0x136D JUMPI PUSH1 0x0 DUP1 REVERT JUMPDEST POP PUSH2 0x137A DUP8 DUP3 DUP9 ADD PUSH2 0x118A JUMP JUMPDEST SWAP2 POP POP SWAP3 SWAP6 SWAP2 SWAP5 POP SWAP3 POP JUMP JUMPDEST PUSH1 0x0 DUP1 PUSH1 0x40 DUP4 DUP6 SUB SLT ISZERO PUSH2 0x1399 JUMPI PUSH1 0x0 DUP1 REVERT JUMPDEST DUP3 CALLDATALOAD SWAP2 POP PUSH1 0x20 DUP4 ADD CALLDATALOAD DUP1 ISZERO ISZERO DUP2 EQ PUSH2 0x1114 JUMPI PUSH1 0x0 DUP1 REVERT JUMPDEST PUSH1 0x0 JUMPDEST DUP4 DUP2 LT ISZERO PUSH2 0x13CB JUMPI DUP2 DUP2 ADD MLOAD DUP4 DUP3 ADD MSTORE PUSH1 0x20 ADD PUSH2 0x13B3 JUMP JUMPDEST POP POP PUSH1 0x0 SWAP2 ADD MSTORE JUMP JUMPDEST PUSH1 0x0 DUP2 MLOAD DUP1 DUP5 MSTORE PUSH2 0x13EC DUP2 PUSH1 0x20 DUP7 ADD PUSH1 0x20 DUP7 ADD PUSH2 0x13B0 JUMP JUMPDEST PUSH1 0x1F ADD PUSH1 0x1F NOT AND SWAP3 SWAP1 SWAP3 ADD PUSH1 0x20 ADD SWAP3 SWAP2 POP POP JUMP JUMPDEST PUSH1 0xE0 DUP2 MSTORE PUSH1 0x0 PUSH2 0x1413 PUSH1 0xE0 DUP4 ADD DUP11 PUSH2 0x13D4 JUMP JUMPDEST DUP9 ISZERO ISZERO PUSH1 0x20 DUP5 ADD MSTORE DUP8 ISZERO ISZERO PUSH1 0x40 DUP5 ADD MSTORE DUP7 PUSH1 0x60 DUP5 ADD MSTORE DUP6 PUSH1 0x80 DUP5 ADD MSTORE DUP5 PUSH1 0xA0 DUP5 ADD MSTORE DUP3 DUP2 SUB PUSH1 0xC0 DUP5 ADD MSTORE PUSH2 0x1447 DUP2 DUP6 PUSH2 0x13D4 JUMP JUMPDEST SWAP11 SWAP10 POP POP POP POP POP POP POP POP POP POP JUMP JUMPDEST PUSH4 0x4E487B71 PUSH1 0xE0 SHL PUSH1 0x0 MSTORE PUSH1 0x32 PUSH1 0x4 MSTORE PUSH1 0x24 PUSH1 0x0 REVERT JUMPDEST PUSH1 0x1 DUP2 DUP2 SHR SWAP1 DUP3 AND DUP1 PUSH2 0x147F JUMPI PUSH1 0x7F DUP3 AND SWAP2 POP JUMPDEST PUSH1 0x20 DUP3 LT DUP2 SUB PUSH2 0x149F JUMPI PUSH4 0x4E487B71 PUSH1 0xE0 SHL PUSH1 0x0 MSTORE PUSH1 0x22 PUSH1 0x4 MSTORE PUSH1 0x24 PUSH1 0x0 REVERT JUMPDEST POP SWAP2 SWAP1 POP JUMP JUMPDEST PUSH1 0x1F DUP3 GT ISZERO PUSH2 0x3B6 JUMPI PUSH1 0x0 DUP2 DUP2 MSTORE PUSH1 0x20 DUP2 KECCAK256 PUSH1 0x1F DUP6 ADD PUSH1 0x5 SHR DUP2 ADD PUSH1 0x20 DUP7 LT ISZERO PUSH2 0x14CC JUMPI POP DUP1 JUMPDEST PUSH1 0x1F DUP6 ADD PUSH1 0x5 SHR DUP3 ADD SWAP2 POP JUMPDEST DUP2 DUP2 LT ISZERO PUSH2 0xA78 JUMPI DUP3 DUP2 SSTORE PUSH1 0x1 ADD PUSH2 0x14D8 JUMP JUMPDEST DUP2 MLOAD PUSH8 0xFFFFFFFFFFFFFFFF DUP2 GT ISZERO PUSH2 0x1505 JUMPI PUSH2 0x1505 PUSH2 0x111F JUMP JUMPDEST PUSH2 0x1519 DUP2 PUSH2 0x1513 DUP5 SLOAD PUSH2 0x146B JUMP JUMPDEST DUP5 PUSH2 0x14A5 JUMP JUMPDEST PUSH1 0x20 DUP1 PUSH1 0x1F DUP4 GT PUSH1 0x1 DUP2 EQ PUSH2 0x154E JUMPI PUSH1 0x0 DUP5 ISZERO PUSH2 0x1536 JUMPI POP DUP6 DUP4 ADD MLOAD JUMPDEST PUSH1 0x0 NOT PUSH1 0x3 DUP7 SWAP1 SHL SHR NOT AND PUSH1 0x1 DUP6 SWAP1 SHL OR DUP6 SSTORE PUSH2 0xA78 JUMP JUMPDEST PUSH1 0x0 DUP6 DUP2 MSTORE PUSH1 0x20 DUP2 KECCAK256 PUSH1 0x1F NOT DUP7 AND SWAP2 JUMPDEST DUP3 DUP2 LT ISZERO PUSH2 0x157D JUMPI DUP9 DUP7 ADD MLOAD DUP3 SSTORE SWAP5 DUP5 ADD SWAP5 PUSH1 0x1 SWAP1 SWAP2 ADD SWAP1 DUP5 ADD PUSH2 0x155E JUMP JUMPDEST POP DUP6 DUP3 LT ISZERO PUSH2 0x159B JUMPI DUP8 DUP6 ADD MLOAD PUSH1 0x0 NOT PUSH1 0x3 DUP9 SWAP1 SHL PUSH1 0xF8 AND SHR NOT AND DUP2 SSTORE JUMPDEST POP POP POP POP POP PUSH1 0x1 SWAP1 DUP2 SHL ADD SWAP1 SSTORE POP JUMP JUMPDEST PUSH1 0x60 DUP2 MSTORE PUSH1 0x0 PUSH2 0x15BE PUSH1 0x60 DUP4 ADD DUP7 PUSH2 0x13D4 JUMP JUMPDEST DUP5 PUSH1 0x20 DUP5 ADD MSTORE DUP3 DUP2 SUB PUSH1 0x40 DUP5 ADD MSTORE PUSH2 0x15D6 DUP2 DUP6 PUSH2 0x13D4 JUMP JUMPDEST SWAP7 SWAP6 POP POP POP POP POP POP JUMP JUMPDEST PUSH4 0x4E487B71 PUSH1 0xE0 SHL PUSH1 0x0 MSTORE PUSH1 0x11 PUSH1 0x4 MSTORE PUSH1 0x24 PUSH1 0x0 REVERT JUMPDEST PUSH1 0x0 PUSH1 0x1 DUP3 ADD PUSH2 0x1608 JUMPI PUSH2 0x1608 PUSH2 0x15E0 JUMP JUMPDEST POP PUSH1 0x1 ADD SWAP1 JUMP JUMPDEST PUSH32 0x416363657373436F6E74726F6C3A206163636F756E7420000000000000000000 DUP2 MSTORE PUSH1 0x0 DUP4 MLOAD PUSH2 0x1647 DUP2 PUSH1 0x17 DUP6 ADD PUSH1 0x20 DUP9 ADD PUSH2 0x13B0 JUMP JUMPDEST PUSH17 0x1034B99036B4B9B9B4B733903937B6329 PUSH1 0x7D SHL PUSH1 0x17 SWAP2 DUP5 ADD SWAP2 DUP3 ADD MSTORE DUP4 MLOAD PUSH2 0x1678 DUP2 PUSH1 0x28 DUP5 ADD PUSH1 0x20 DUP9 ADD PUSH2 0x13B0 JUMP JUMPDEST ADD PUSH1 0x28 ADD SWAP5 SWAP4 POP POP POP POP JUMP JUMPDEST PUSH1 0x20 DUP2 MSTORE PUSH1 0x0 PUSH2 0x1099 PUSH1 0x20 DUP4 ADD DUP5 PUSH2 0x13D4 JUMP JUMPDEST DUP1 DUP3 MUL DUP2 ISZERO DUP3 DUP3 DIV DUP5 EQ OR PUSH2 0x38A JUMPI PUSH2 0x38A PUSH2 0x15E0 JUMP JUMPDEST DUP1 DUP3 ADD DUP1 DUP3 GT ISZERO PUSH2 0x38A JUMPI PUSH2 0x38A PUSH2 0x15E0 JUMP JUMPDEST PUSH1 0x0 DUP2 PUSH2 0x16D0 JUMPI PUSH2 0x16D0 PUSH2 0x15E0 JUMP JUMPDEST POP PUSH1 0x0 NOT ADD SWAP1 JUMP INVALID SUB SSTORE DUP5 MOD 0xF9 CREATE2 0xE SWAP1 0x25 BALANCE 0x27 0x2E 0xCB PUSH17 0xE789D20D2BFC86601DDDEB47B87D069826 0xBA LOG2 PUSH5 0x6970667358 0x22 SLT KECCAK256 0x5C ADDMOD 0xC8 0xCB ADDRESS 0x23 0xAC 0xAF DUP13 0xB1 SWAP12 0xDE 0xF DUP13 PUSH8 0x7BB36C5DFF3A7C06 0xE5 0xEA TIMESTAMP BLOCKHASH 0x29 JUMPI EXTCODECOPY AND 0xDC PUSH5 0x736F6C6343 STOP ADDMOD EQ STOP CALLER SUB SSTORE DUP5 MOD 0xF9 CREATE2 0xE SWAP1 0x25 BALANCE 0x27 0x2E 0xCB PUSH17 0xE789D20D2BFC86601DDDEB47B87D069826 0xBA LOG2 PUSH5 0x6970667358 0x22 SLT KECCAK256 SWAP10 0xE7 SIGNEXTEND CALLDATACOPY 0x1E CALLER DUP10 0x4E 0xBC 0xAA 0x2A 0xB8 0xED 0xE 0xB4 PUSH18 0x37C22D3DBB7616D376947A8A019F640D6473 PUSH16 0x6C634300081400330000000000000000 "},"methodIdentifiers":{"CHANNEL_ADMIN_ROLE()":"4abac588","DEFAULT_ADMIN_ROLE()":"a217fddf","MINTER_ROLE()":"d5391393","approve(address,uint256)":"095ea7b3","balanceOf(address)":"70a08231","getApproved(uint256)":"081812fc","getRoleAdmin(bytes32)":"248a9ca3","grantAccess(uint256,address)":"65dd152c","grantRole(bytes32,address)":"2f2ff15d","hasRole(bytes32,address)":"91d14854","isApprovedForAll(address,address)":"e985e9c5","name()":"06fdde03","ownerOf(uint256)":"6352211e","renounceRole(bytes32,address)":"36568abe","revokeRole(bytes32,address)":"d547741f","safeMint(address,string)":"d204c45e","safeTransferFrom(address,address,uint256)":"42842e0e","safeTransferFrom(address,address,uint256,bytes)":"b88d4fde","setApprovalForAll(address,bool)":"a22cb465","stateChannels(uint256)":"071308d6","supportsInterface(bytes4)":"01ffc9a7","symbol()":"95d89b41","tokenByIndex(uint256)":"4f6ccce7","tokenOfOwnerByIndex(address,uint256)":"2f745c59","tokenURI(uint256)":"c87b56dd","totalSupply()":"18160ddd","transferFrom(address,address,uint256)":"23b872dd"}}}}}