{
  "_format": "hh-sol-artifact-1",
  "contractName": "EscrowContract",
  "sourceName": "contracts/EscrowContract.sol",
  "abi": [
    {
      "anonymous": false,
      "inputs": [
        {
          "indexed": true,
          "internalType": "address",
          "name": "depositor",
          "type": "address"
        },
        {
          "indexed": false,
          "internalType": "address",
          "name": "token",
          "type": "address"
        },
        {
          "indexed": false,
          "internalType": "uint256",
          "name": "amount",
          "type": "uint256"
        }
      ],
      "name": "FundsDeposited",
      "type": "event"
    },
    {
      "anonymous": false,
      "inputs": [
        {
          "indexed": true,
          "internalType": "address",
          "name": "beneficiary",
          "type": "address"
        },
        {
          "indexed": false,
          "internalType": "address",
          "name": "token",
          "type": "address"
        },
        {
          "indexed": false,
          "internalType": "uint256",
          "name": "amount",
          "type": "uint256"
        }
      ],
      "name": "FundsReleased",
      "type": "event"
    },
    {
      "anonymous": false,
      "inputs": [
        {
          "indexed": true,
          "internalType": "address",
          "name": "previousOwner",
          "type": "address"
        },
        {
          "indexed": true,
          "internalType": "address",
          "name": "newOwner",
          "type": "address"
        }
      ],
      "name": "OwnershipTransferred",
      "type": "event"
    },
    {
      "inputs": [
        {
          "internalType": "contract IERC20",
          "name": "token",
          "type": "address"
        },
        {
          "internalType": "uint256",
          "name": "amount",
          "type": "uint256"
        }
      ],
      "name": "depositERC20",
      "outputs": [],
      "stateMutability": "nonpayable",
      "type": "function"
    },
    {
      "inputs": [
        {
          "internalType": "address",
          "name": "",
          "type": "address"
        },
        {
          "internalType": "address",
          "name": "",
          "type": "address"
        }
      ],
      "name": "escrowBalances",
      "outputs": [
        {
          "internalType": "uint256",
          "name": "",
          "type": "uint256"
        }
      ],
      "stateMutability": "view",
      "type": "function"
    },
    {
      "inputs": [],
      "name": "owner",
      "outputs": [
        {
          "internalType": "address",
          "name": "",
          "type": "address"
        }
      ],
      "stateMutability": "view",
      "type": "function"
    },
    {
      "inputs": [
        {
          "internalType": "address",
          "name": "beneficiary",
          "type": "address"
        },
        {
          "internalType": "contract IERC20",
          "name": "token",
          "type": "address"
        },
        {
          "internalType": "uint256",
          "name": "amount",
          "type": "uint256"
        }
      ],
      "name": "releaseERC20",
      "outputs": [],
      "stateMutability": "nonpayable",
      "type": "function"
    },
    {
      "inputs": [
        {
          "internalType": "address payable",
          "name": "beneficiary",
          "type": "address"
        },
        {
          "internalType": "uint256",
          "name": "amount",
          "type": "uint256"
        }
      ],
      "name": "releaseETH",
      "outputs": [],
      "stateMutability": "nonpayable",
      "type": "function"
    },
    {
      "inputs": [],
      "name": "renounceOwnership",
      "outputs": [],
      "stateMutability": "nonpayable",
      "type": "function"
    },
    {
      "inputs": [
        {
          "internalType": "address",
          "name": "newOwner",
          "type": "address"
        }
      ],
      "name": "transferOwnership",
      "outputs": [],
      "stateMutability": "nonpayable",
      "type": "function"
    },
    {
      "stateMutability": "payable",
      "type": "receive"
    }
  ],
  "bytecode": "0x608060405234801561001057600080fd5b5061001a33610023565b60018055610073565b600080546001600160a01b038381166001600160a01b0319831681178455604051919092169283917f8be0079c531659141344cd1fd0a4f28419497f9722a3daafe3b4186f6b6457e09190a35050565b610a82806100826000396000f3fe6080604052600436106100745760003560e01c80638da5cb5b1161004e5780638da5cb5b1461018057806397feb926146101a8578063e8e71f0c146101c8578063f2fde38b146101e857600080fd5b80636cd533d8146100fe578063715018a61461012057806376f819ac1461013557600080fd5b366100f9573360009081527fac33ff75c19e70fe83507db0d683fd3465c996598dc972688b7ace676c89077b6020526040812080543492906100b790849061091f565b9091555050604080516000815234602082015233917ff0d0e99cae184d0187b093b48894117462462379674a6e11d89c3fbb618e96b0910160405180910390a2005b600080fd5b34801561010a57600080fd5b5061011e61011936600461094d565b610208565b005b34801561012c57600080fd5b5061011e61041e565b34801561014157600080fd5b5061016d61015036600461098e565b600260209081526000928352604080842090915290825290205481565b6040519081526020015b60405180910390f35b34801561018c57600080fd5b506000546040516001600160a01b039091168152602001610177565b3480156101b457600080fd5b5061011e6101c33660046109c7565b610432565b3480156101d457600080fd5b5061011e6101e33660046109c7565b6105ce565b3480156101f457600080fd5b5061011e6102033660046109f3565b61078d565b610210610806565b610218610860565b6001600160a01b0382166102735760405162461bcd60e51b815260206004820152601f60248201527f5573652072656c6561736545544820666f72204554482072656c65617365730060448201526064015b60405180910390fd5b6001600160a01b038083166000908152600260209081526040808320938716835292905220548111156102dd5760405162461bcd60e51b8152602060048201526012602482015271496e73756666696369656e742066756e647360701b604482015260640161026a565b6001600160a01b03808316600090815260026020908152604080832093871683529290529081208054839290610314908490610a17565b909155505060405163a9059cbb60e01b81526001600160a01b0384811660048301526024820183905283169063a9059cbb906044016020604051808303816000875af1158015610368573d6000803e3d6000fd5b505050506040513d601f19601f8201168201806040525081019061038c9190610a2a565b6103ca5760405162461bcd60e51b815260206004820152600f60248201526e151c985b9cd9995c8819985a5b1959608a1b604482015260640161026a565b604080516001600160a01b038481168252602082018490528516917feed10c470424824e4a4309075162f10b9989088b23fbed2349698cedd44493fb910160405180910390a261041960018055565b505050565b610426610806565b61043060006108b9565b565b61043a610860565b6001600160a01b0382166104905760405162461bcd60e51b815260206004820152601f60248201527f557365206465706f73697445544820666f7220455448206465706f7369747300604482015260640161026a565b6040516323b872dd60e01b8152336004820152306024820152604481018290526001600160a01b038316906323b872dd906064016020604051808303816000875af11580156104e3573d6000803e3d6000fd5b505050506040513d601f19601f820116820180604052508101906105079190610a2a565b6105455760405162461bcd60e51b815260206004820152600f60248201526e151c985b9cd9995c8819985a5b1959608a1b604482015260640161026a565b6001600160a01b03821660009081526002602090815260408083203384529091528120805483929061057890849061091f565b9091555050604080516001600160a01b03841681526020810183905233917ff0d0e99cae184d0187b093b48894117462462379674a6e11d89c3fbb618e96b0910160405180910390a26105ca60018055565b5050565b6105d6610806565b6105de610860565b6001600160a01b03821660009081527fac33ff75c19e70fe83507db0d683fd3465c996598dc972688b7ace676c89077b602052604090205481111561065a5760405162461bcd60e51b8152602060048201526012602482015271496e73756666696369656e742066756e647360701b604482015260640161026a565b6001600160a01b03821660009081527fac33ff75c19e70fe83507db0d683fd3465c996598dc972688b7ace676c89077b6020526040812080548392906106a1908490610a17565b90915550506040516000906001600160a01b0384169083908381818185875af1925050503d80600081146106f1576040519150601f19603f3d011682016040523d82523d6000602084013e6106f6565b606091505b505090508061073e5760405162461bcd60e51b81526020600482015260146024820152732330b4b632b2103a379039b2b7321022ba3432b960611b604482015260640161026a565b6040805160008152602081018490526001600160a01b038516917feed10c470424824e4a4309075162f10b9989088b23fbed2349698cedd44493fb910160405180910390a2506105ca60018055565b610795610806565b6001600160a01b0381166107fa5760405162461bcd60e51b815260206004820152602660248201527f4f776e61626c653a206e6577206f776e657220697320746865207a65726f206160448201526564647265737360d01b606482015260840161026a565b610803816108b9565b50565b6000546001600160a01b031633146104305760405162461bcd60e51b815260206004820181905260248201527f4f776e61626c653a2063616c6c6572206973206e6f7420746865206f776e6572604482015260640161026a565b6002600154036108b25760405162461bcd60e51b815260206004820152601f60248201527f5265656e7472616e637947756172643a207265656e7472616e742063616c6c00604482015260640161026a565b6002600155565b600080546001600160a01b038381166001600160a01b0319831681178455604051919092169283917f8be0079c531659141344cd1fd0a4f28419497f9722a3daafe3b4186f6b6457e09190a35050565b634e487b7160e01b600052601160045260246000fd5b8082018082111561093257610932610909565b92915050565b6001600160a01b038116811461080357600080fd5b60008060006060848603121561096257600080fd5b833561096d81610938565b9250602084013561097d81610938565b929592945050506040919091013590565b600080604083850312156109a157600080fd5b82356109ac81610938565b915060208301356109bc81610938565b809150509250929050565b600080604083850312156109da57600080fd5b82356109e581610938565b946020939093013593505050565b600060208284031215610a0557600080fd5b8135610a1081610938565b9392505050565b8181038181111561093257610932610909565b600060208284031215610a3c57600080fd5b81518015158114610a1057600080fdfea26469706673582212204ff687ba3ea7357e3c685d0cd81e28ec9bc078b5eece64ce8c79428aabfd570064736f6c63430008140033",
  "linkReferences": {},
  "deployedLinkReferences": {}
}