{
  "_format": "hh-sol-artifact-1",
  "contractName": "Multicall",
  "sourceName": "contracts/Multicall.sol",
  "abi": [
    {
      "anonymous": false,
      "inputs": [
        {
          "indexed": true,
          "internalType": "address",
          "name": "target",
          "type": "address"
        },
        {
          "indexed": false,
          "internalType": "bool",
          "name": "success",
          "type": "bool"
        },
        {
          "indexed": false,
          "internalType": "bytes",
          "name": "returnData",
          "type": "bytes"
        }
      ],
      "name": "CallExecuted",
      "type": "event"
    },
    {
      "inputs": [
        {
          "components": [
            {
              "internalType": "address",
              "name": "target",
              "type": "address"
            },
            {
              "internalType": "bytes",
              "name": "callData",
              "type": "bytes"
            }
          ],
          "internalType": "struct Multicall.Call[]",
          "name": "calls",
          "type": "tuple[]"
        }
      ],
      "name": "aggregate",
      "outputs": [
        {
          "internalType": "uint256",
          "name": "blockNumber",
          "type": "uint256"
        },
        {
          "internalType": "bytes[]",
          "name": "returnData",
          "type": "bytes[]"
        }
      ],
      "stateMutability": "nonpayable",
      "type": "function"
    }
  ],
  "bytecode": "0x608060405234801561001057600080fd5b50610677806100206000396000f3fe608060405234801561001057600080fd5b506004361061002b5760003560e01c8063252dba4214610030575b600080fd5b61004361003e36600461031d565b61005a565b6040516100519291906104ca565b60405180910390f35b8051439060609067ffffffffffffffff81111561007957610079610285565b6040519080825280602002602001820160405280156100ac57816020015b60608152602001906001900390816100975790505b50905060005b835181101561021a576000808583815181106100d0576100d0610534565b6020026020010151600001516001600160a01b03168684815181106100f7576100f7610534565b602002602001015160200151604051610110919061054a565b6000604051808303816000865af19150503d806000811461014d576040519150601f19603f3d011682016040523d82523d6000602084013e610152565b606091505b5091509150816101875761016581610220565b60405162461bcd60e51b815260040161017e9190610566565b60405180910390fd5b8084848151811061019a5761019a610534565b60200260200101819052508583815181106101b7576101b7610534565b6020026020010151600001516001600160a01b03167f81d279e09da972fe520dd400fe4cb603956d4750c7dcefc62579244fd825930983836040516101fd929190610580565b60405180910390a250508080610212906105a3565b9150506100b2565b50915091565b606060448251101561026557505060408051808201909152601d81527f5472616e73616374696f6e2072657665727465642073696c656e746c79000000602082015290565b6004820191508180602001905181019061027f91906105ca565b92915050565b634e487b7160e01b600052604160045260246000fd5b6040805190810167ffffffffffffffff811182821017156102be576102be610285565b60405290565b604051601f8201601f1916810167ffffffffffffffff811182821017156102ed576102ed610285565b604052919050565b600067ffffffffffffffff82111561030f5761030f610285565b50601f01601f191660200190565b6000602080838503121561033057600080fd5b823567ffffffffffffffff8082111561034857600080fd5b818501915085601f83011261035c57600080fd5b81358181111561036e5761036e610285565b8060051b61037d8582016102c4565b918252838101850191858101908984111561039757600080fd5b86860192505b8383101561046d578235858111156103b55760008081fd5b86016040818c03601f19018113156103cd5760008081fd5b6103d561029b565b828a01356001600160a01b03811681146103ef5760008081fd5b815282820135888111156104035760008081fd5b8084019350508c603f8401126104195760008081fd5b8983013561042e610429826102f5565b6102c4565b8181528e8c8d848801010111156104455760008081fd5b818486018d83013760009181018c0191909152818b015284525050918601919086019061039d565b9998505050505050505050565b60005b8381101561049557818101518382015260200161047d565b50506000910152565b600081518084526104b681602086016020860161047a565b601f01601f19169290920160200192915050565b600060408201848352602060408185015281855180845260608601915060608160051b870101935082870160005b8281101561052657605f1988870301845261051486835161049e565b955092840192908401906001016104f8565b509398975050505050505050565b634e487b7160e01b600052603260045260246000fd5b6000825161055c81846020870161047a565b9190910192915050565b602081526000610579602083018461049e565b9392505050565b821515815260406020820152600061059b604083018461049e565b949350505050565b6000600182016105c357634e487b7160e01b600052601160045260246000fd5b5060010190565b6000602082840312156105dc57600080fd5b815167ffffffffffffffff8111156105f357600080fd5b8201601f8101841361060457600080fd5b8051610612610429826102f5565b81815285602083850101111561062757600080fd5b61063882602083016020860161047a565b9594505050505056fea2646970667358221220d89fce55b562ca9876e74d02283ef9fc2ae92dd9a3694ee1126afdea2891256864736f6c63430008140033",
  "linkReferences": {},
  "deployedLinkReferences": {}
}