{
  "_format": "hh-sol-artifact-1",
  "contractName": "MilestoneTrackerFactory",
  "sourceName": "contracts/MilestoneTrackerFactory.sol",
  "abi": [
    {
      "inputs": [],
      "stateMutability": "nonpayable",
      "type": "constructor"
    },
    {
      "anonymous": false,
      "inputs": [
        {
          "indexed": true,
          "internalType": "uint256",
          "name": "milestoneId",
          "type": "uint256"
        },
        {
          "indexed": false,
          "internalType": "address",
          "name": "milestoneAddress",
          "type": "address"
        },
        {
          "indexed": false,
          "internalType": "string",
          "name": "description",
          "type": "string"
        },
        {
          "indexed": false,
          "internalType": "uint256",
          "name": "deadline",
          "type": "uint256"
        },
        {
          "indexed": false,
          "internalType": "string",
          "name": "evidenceUrl",
          "type": "string"
        }
      ],
      "name": "MilestoneAdded",
      "type": "event"
    },
    {
      "anonymous": false,
      "inputs": [
        {
          "indexed": true,
          "internalType": "uint256",
          "name": "milestoneId",
          "type": "uint256"
        },
        {
          "indexed": false,
          "internalType": "uint256",
          "name": "timestamp",
          "type": "uint256"
        }
      ],
      "name": "MilestoneCompleted",
      "type": "event"
    },
    {
      "anonymous": false,
      "inputs": [
        {
          "indexed": false,
          "internalType": "uint256",
          "name": "count",
          "type": "uint256"
        }
      ],
      "name": "MilestoneCountRetrieved",
      "type": "event"
    },
    {
      "anonymous": false,
      "inputs": [
        {
          "indexed": true,
          "internalType": "uint256",
          "name": "milestoneId",
          "type": "uint256"
        }
      ],
      "name": "MilestoneExpired",
      "type": "event"
    },
    {
      "anonymous": false,
      "inputs": [
        {
          "indexed": true,
          "internalType": "uint256",
          "name": "milestoneId",
          "type": "uint256"
        },
        {
          "indexed": false,
          "internalType": "bool",
          "name": "verified",
          "type": "bool"
        },
        {
          "indexed": false,
          "internalType": "string",
          "name": "verifierComment",
          "type": "string"
        }
      ],
      "name": "MilestoneVerified",
      "type": "event"
    },
    {
      "anonymous": false,
      "inputs": [
        {
          "indexed": false,
          "internalType": "uint256[]",
          "name": "milestoneIds",
          "type": "uint256[]"
        },
        {
          "indexed": false,
          "internalType": "address[]",
          "name": "milestoneAddresses",
          "type": "address[]"
        },
        {
          "indexed": false,
          "internalType": "string[]",
          "name": "descriptions",
          "type": "string[]"
        },
        {
          "indexed": false,
          "internalType": "uint256[]",
          "name": "deadlines",
          "type": "uint256[]"
        },
        {
          "indexed": false,
          "internalType": "string[]",
          "name": "evidenceUrls",
          "type": "string[]"
        }
      ],
      "name": "MilestonesAdded",
      "type": "event"
    },
    {
      "inputs": [
        {
          "internalType": "string[]",
          "name": "descriptions",
          "type": "string[]"
        },
        {
          "internalType": "uint256[]",
          "name": "deadlines",
          "type": "uint256[]"
        },
        {
          "internalType": "string[]",
          "name": "evidenceUrls",
          "type": "string[]"
        }
      ],
      "name": "addMilestones",
      "outputs": [],
      "stateMutability": "nonpayable",
      "type": "function"
    },
    {
      "inputs": [],
      "name": "checkExpiredMilestones",
      "outputs": [],
      "stateMutability": "nonpayable",
      "type": "function"
    },
    {
      "inputs": [
        {
          "internalType": "uint256",
          "name": "milestoneId",
          "type": "uint256"
        }
      ],
      "name": "completeMilestone",
      "outputs": [],
      "stateMutability": "nonpayable",
      "type": "function"
    },
    {
      "inputs": [
        {
          "internalType": "uint256",
          "name": "index",
          "type": "uint256"
        }
      ],
      "name": "getMilestone",
      "outputs": [
        {
          "internalType": "string",
          "name": "description",
          "type": "string"
        },
        {
          "internalType": "bool",
          "name": "isCompleted",
          "type": "bool"
        },
        {
          "internalType": "bool",
          "name": "isVerified",
          "type": "bool"
        },
        {
          "internalType": "uint256",
          "name": "completionTimestamp",
          "type": "uint256"
        },
        {
          "internalType": "uint256",
          "name": "deadline",
          "type": "uint256"
        },
        {
          "internalType": "string",
          "name": "evidenceUrl",
          "type": "string"
        }
      ],
      "stateMutability": "view",
      "type": "function"
    },
    {
      "inputs": [],
      "name": "getMilestoneCount",
      "outputs": [
        {
          "internalType": "uint256",
          "name": "count",
          "type": "uint256"
        }
      ],
      "stateMutability": "view",
      "type": "function"
    },
    {
      "inputs": [
        {
          "internalType": "uint256",
          "name": "",
          "type": "uint256"
        }
      ],
      "name": "milestones",
      "outputs": [
        {
          "internalType": "string",
          "name": "description",
          "type": "string"
        },
        {
          "internalType": "bool",
          "name": "isCompleted",
          "type": "bool"
        },
        {
          "internalType": "bool",
          "name": "isVerified",
          "type": "bool"
        },
        {
          "internalType": "uint256",
          "name": "completionTimestamp",
          "type": "uint256"
        },
        {
          "internalType": "uint256",
          "name": "deadline",
          "type": "uint256"
        },
        {
          "internalType": "string",
          "name": "evidenceUrl",
          "type": "string"
        }
      ],
      "stateMutability": "view",
      "type": "function"
    },
    {
      "inputs": [
        {
          "internalType": "uint256",
          "name": "milestoneId",
          "type": "uint256"
        },
        {
          "internalType": "bool",
          "name": "verified",
          "type": "bool"
        },
        {
          "internalType": "string",
          "name": "verifierComment",
          "type": "string"
        }
      ],
      "name": "verifyMilestone",
      "outputs": [],
      "stateMutability": "nonpayable",
      "type": "function"
    }
  ],
  "bytecode": "0x608060405234801561001057600080fd5b5060016000556112b7806100256000396000f3fe608060405234801561001057600080fd5b506004361061007d5760003560e01c8063852ea2031161005b578063852ea203146100cd5780638f4cf247146100e0578063e49ffba7146100f6578063e89e4ed61461010957600080fd5b80631dce22c9146100825780632442e1cb1461008c5780637b78a57d146100ba575b600080fd5b61008a61011c565b005b61009f61009a366004610c17565b61020a565b6040516100b196959493929190610c76565b60405180910390f35b61008a6100c8366004610cc4565b6103c2565b61008a6100db366004610c17565b6104db565b6100e861067b565b6040519081526020016100b1565b61008a610104366004610d9e565b61068b565b61009f610117366004610c17565b610931565b600061012760015490565b905060005b81811015610206576002818154811061014757610147610e38565b600091825260209091206001600590920201015460ff1615801561018e57506002818154811061017957610179610e38565b90600052602060002090600502016003015442115b156101f4576001600282815481106101a8576101a8610e38565b60009182526020822060059190910201600101805460ff19169215159290921790915560405182917fe266ec12ad222bda248c1020135962293ec0662bad8531ce6143f2fdce37a3b091a25b806101fe81610e4e565b91505061012c565b5050565b606060008060008060608661021e60015490565b81106102455760405162461bcd60e51b815260040161023c90610e75565b60405180910390fd5b60006002898154811061025a5761025a610e38565b600091825260209091206005909102016001810154600282015460038301548354939450849360ff808516946101009004169291906004860190869061029f90610ec7565b80601f01602080910402602001604051908101604052809291908181526020018280546102cb90610ec7565b80156103185780601f106102ed57610100808354040283529160200191610318565b820191906000526020600020905b8154815290600101906020018083116102fb57829003601f168201915b5050505050955080805461032b90610ec7565b80601f016020809104026020016040519081016040528092919081815260200182805461035790610ec7565b80156103a45780601f10610379576101008083540402835291602001916103a4565b820191906000526020600020905b81548152906001019060200180831161038757829003601f168201915b50505050509050975097509750975097509750505091939550919395565b836103cc60015490565b81106103ea5760405162461bcd60e51b815260040161023c90610e75565b6000600286815481106103ff576103ff610e38565b60009182526020909120600590910201600181015490915060ff166104805760405162461bcd60e51b815260206004820152603160248201527f4d696c6573746f6e65547261636b6572466163746f72793a204d696c6573746f6044820152703732903737ba1031b7b6b83632ba32b21760791b606482015260840161023c565b60018101805461ff0019166101008715150217905560405186907fd2303455aff15954d59ee8758225828c5393f4c7368d3c849c533e75b649d0b6906104cb90889088908890610f2a565b60405180910390a2505050505050565b806104e560015490565b81106105035760405162461bcd60e51b815260040161023c90610e75565b60006002838154811061051857610518610e38565b60009182526020909120600590910201600181015490915060ff161561059e5760405162461bcd60e51b815260206004820152603560248201527f4d696c6573746f6e65547261636b6572466163746f72793a204d696c6573746f60448201527437329030b63932b0b23c9031b7b6b83632ba32b21760591b606482015260840161023c565b80600301544211156106295760405162461bcd60e51b815260206004820152604860248201527f4d696c6573746f6e65547261636b6572466163746f72793a2043616e6e6f742060448201527f636f6d706c6574652c206d696c6573746f6e6520646561646c696e6520686173606482015267103830b9b9b2b21760c11b608482015260a40161023c565b6001818101805460ff19169091179055426002820181905560405190815283907f1b7218c0ac23ea9cbe4df603d2b340fbf469a115b73ea3d11460727f445d6be19060200160405180910390a2505050565b600061068660015490565b905090565b610693610a97565b84831480156106a157508481145b6107035760405162461bcd60e51b815260206004820152602d60248201527f4d696c6573746f6e65547261636b65723a20496e707574206172726179206c6560448201526c0dccee8d040dad2e6dac2e8c6d609b1b606482015260840161023c565b60008567ffffffffffffffff81111561071e5761071e610f4f565b604051908082528060200260200182016040528015610747578160200160208202803683370190505b50905060008667ffffffffffffffff81111561076557610765610f4f565b60405190808252806020026020018201604052801561078e578160200160208202803683370190505b50905060005b878110156108d7576001548382815181106107b1576107b1610e38565b602002602001018181525050308282815181106107d0576107d0610e38565b60200260200101906001600160a01b031690816001600160a01b0316815250506108c589898381811061080557610805610e38565b90506020028101906108179190610f65565b8080601f0160208091040260200160405190810160405280939291908181526020018383808284376000920191909152508b92508a915085905081811061086057610860610e38565b9050602002013587878581811061087957610879610e38565b905060200281019061088b9190610f65565b8080601f016020809104026020016040519081016040528093929190818152602001838380828437600092019190915250610af092505050565b806108cf81610e4e565b915050610794565b507f88cf9519e5e77f989ff972936bd33356d0c7d8aefcff184b157fdb7331a1e94682828a8a8a8a8a8a60405161091598979695949392919061106d565b60405180910390a150506109296001600055565b505050505050565b6002818154811061094157600080fd5b906000526020600020906005020160009150905080600001805461096490610ec7565b80601f016020809104026020016040519081016040528092919081815260200182805461099090610ec7565b80156109dd5780601f106109b2576101008083540402835291602001916109dd565b820191906000526020600020905b8154815290600101906020018083116109c057829003601f168201915b505050600184015460028501546003860154600487018054969760ff808616986101009096041696509294509092610a1490610ec7565b80601f0160208091040260200160405190810160405280929190818152602001828054610a4090610ec7565b8015610a8d5780601f10610a6257610100808354040283529160200191610a8d565b820191906000526020600020905b815481529060010190602001808311610a7057829003601f168201915b5050505050905086565b600260005403610ae95760405162461bcd60e51b815260206004820152601f60248201527f5265656e7472616e637947756172643a207265656e7472616e742063616c6c00604482015260640161023c565b6002600055565b6040805160c081018252848152600060208201819052918101829052606081018290526080810184905260a08101839052600280546001810182559252805190916005027f405787fa12a823e0f2b7631cc41b3ba8828b3321ca811111fa75cd3aa3bb5ace01908190610b63908261117a565b506020820151600182018054604085015115156101000261ff00199315159390931661ffff1990911617919091179055606082015160028201556080820151600382015560a08201516004820190610bbb908261117a565b505050610bc760015490565b7ff21f4d364962b4aac12f7b56f56700378cebbc4b2c0feabf0c730ee57fc94c5530858585604051610bfc949392919061123a565b60405180910390a2610c12600180546001019055565b505050565b600060208284031215610c2957600080fd5b5035919050565b6000815180845260005b81811015610c5657602081850181015186830182015201610c3a565b506000602082860101526020601f19601f83011685010191505092915050565b60c081526000610c8960c0830189610c30565b8715156020840152861515604084015285606084015284608084015282810360a0840152610cb78185610c30565b9998505050505050505050565b60008060008060608587031215610cda57600080fd5b8435935060208501358015158114610cf157600080fd5b9250604085013567ffffffffffffffff80821115610d0e57600080fd5b818701915087601f830112610d2257600080fd5b813581811115610d3157600080fd5b886020828501011115610d4357600080fd5b95989497505060200194505050565b60008083601f840112610d6457600080fd5b50813567ffffffffffffffff811115610d7c57600080fd5b6020830191508360208260051b8501011115610d9757600080fd5b9250929050565b60008060008060008060608789031215610db757600080fd5b863567ffffffffffffffff80821115610dcf57600080fd5b610ddb8a838b01610d52565b90985096506020890135915080821115610df457600080fd5b610e008a838b01610d52565b90965094506040890135915080821115610e1957600080fd5b50610e2689828a01610d52565b979a9699509497509295939492505050565b634e487b7160e01b600052603260045260246000fd5b600060018201610e6e57634e487b7160e01b600052601160045260246000fd5b5060010190565b60208082526032908201527f4d696c6573746f6e65547261636b6572466163746f72793a204d696c6573746f6040820152713732903237b2b9903737ba1032bc34b9ba1760711b606082015260800190565b600181811c90821680610edb57607f821691505b602082108103610efb57634e487b7160e01b600052602260045260246000fd5b50919050565b81835281816020850137506000828201602090810191909152601f909101601f19169091010190565b8315158152604060208201526000610f46604083018486610f01565b95945050505050565b634e487b7160e01b600052604160045260246000fd5b6000808335601e19843603018112610f7c57600080fd5b83018035915067ffffffffffffffff821115610f9757600080fd5b602001915036819003821315610d9757600080fd5b818352600060208085019450848460051b86018460005b8781101561102e5783830389528135601e19883603018112610fe457600080fd5b8701858101903567ffffffffffffffff81111561100057600080fd5b80360382131561100f57600080fd5b61101a858284610f01565b9a87019a9450505090840190600101610fc3565b5090979650505050505050565b81835260006001600160fb1b0383111561105457600080fd5b8260051b80836020870137939093016020019392505050565b60a0808252895190820181905260009060209060c0840190828d01845b828110156110a65781518452928401929084019060010161108a565b505050838103828501528a518082528b83019183019060005b818110156110e45783516001600160a01b0316835292840192918401916001016110bf565b505084810360408601526110f9818b8d610fac565b92505050828103606084015261111081878961103b565b90508281036080840152611125818587610fac565b9b9a5050505050505050505050565b601f821115610c1257600081815260208120601f850160051c8101602086101561115b5750805b601f850160051c820191505b8181101561092957828155600101611167565b815167ffffffffffffffff81111561119457611194610f4f565b6111a8816111a28454610ec7565b84611134565b602080601f8311600181146111dd57600084156111c55750858301515b600019600386901b1c1916600185901b178555610929565b600085815260208120601f198616915b8281101561120c578886015182559484019460019091019084016111ed565b508582101561122a5787850151600019600388901b60f8161c191681555b5050505050600190811b01905550565b6001600160a01b038516815260806020820181905260009061125e90830186610c30565b84604084015282810360608401526112768185610c30565b97965050505050505056fea26469706673582212200b3a496daa5f08fe2ff356b6f27414fc53a88e70866a734f2899a427453a35a764736f6c63430008140033",
  "linkReferences": {},
  "deployedLinkReferences": {}
}