{
  "_format": "hh-sol-artifact-1",
  "contractName": "StateChannel",
  "sourceName": "contracts/StateChannel.sol",
  "abi": [
    {
      "inputs": [
        {
          "internalType": "address",
          "name": "_nftContract",
          "type": "address"
        },
        {
          "internalType": "uint256",
          "name": "_tokenId",
          "type": "uint256"
        },
        {
          "internalType": "address",
          "name": "_creator",
          "type": "address"
        }
      ],
      "stateMutability": "nonpayable",
      "type": "constructor"
    },
    {
      "anonymous": false,
      "inputs": [
        {
          "indexed": true,
          "internalType": "address",
          "name": "from",
          "type": "address"
        },
        {
          "indexed": false,
          "internalType": "uint256",
          "name": "amount",
          "type": "uint256"
        }
      ],
      "name": "FundsDeposited",
      "type": "event"
    },
    {
      "anonymous": false,
      "inputs": [
        {
          "indexed": true,
          "internalType": "uint256",
          "name": "milestoneId",
          "type": "uint256"
        },
        {
          "indexed": false,
          "internalType": "uint256",
          "name": "amount",
          "type": "uint256"
        }
      ],
      "name": "FundsWithdrawn",
      "type": "event"
    },
    {
      "anonymous": false,
      "inputs": [
        {
          "indexed": true,
          "internalType": "uint256",
          "name": "milestoneId",
          "type": "uint256"
        },
        {
          "indexed": false,
          "internalType": "string",
          "name": "description",
          "type": "string"
        },
        {
          "indexed": false,
          "internalType": "uint256",
          "name": "deadline",
          "type": "uint256"
        },
        {
          "indexed": false,
          "internalType": "string",
          "name": "evidenceUrl",
          "type": "string"
        }
      ],
      "name": "MilestoneAdded",
      "type": "event"
    },
    {
      "anonymous": false,
      "inputs": [
        {
          "indexed": true,
          "internalType": "uint256",
          "name": "milestoneId",
          "type": "uint256"
        }
      ],
      "name": "MilestoneCompleted",
      "type": "event"
    },
    {
      "anonymous": false,
      "inputs": [
        {
          "indexed": true,
          "internalType": "uint256",
          "name": "milestoneId",
          "type": "uint256"
        },
        {
          "indexed": false,
          "internalType": "bool",
          "name": "verified",
          "type": "bool"
        }
      ],
      "name": "MilestoneVerified",
      "type": "event"
    },
    {
      "anonymous": false,
      "inputs": [
        {
          "indexed": true,
          "internalType": "bytes32",
          "name": "role",
          "type": "bytes32"
        },
        {
          "indexed": true,
          "internalType": "bytes32",
          "name": "previousAdminRole",
          "type": "bytes32"
        },
        {
          "indexed": true,
          "internalType": "bytes32",
          "name": "newAdminRole",
          "type": "bytes32"
        }
      ],
      "name": "RoleAdminChanged",
      "type": "event"
    },
    {
      "anonymous": false,
      "inputs": [
        {
          "indexed": true,
          "internalType": "bytes32",
          "name": "role",
          "type": "bytes32"
        },
        {
          "indexed": true,
          "internalType": "address",
          "name": "account",
          "type": "address"
        },
        {
          "indexed": true,
          "internalType": "address",
          "name": "sender",
          "type": "address"
        }
      ],
      "name": "RoleGranted",
      "type": "event"
    },
    {
      "anonymous": false,
      "inputs": [
        {
          "indexed": true,
          "internalType": "bytes32",
          "name": "role",
          "type": "bytes32"
        },
        {
          "indexed": true,
          "internalType": "address",
          "name": "account",
          "type": "address"
        },
        {
          "indexed": true,
          "internalType": "address",
          "name": "sender",
          "type": "address"
        }
      ],
      "name": "RoleRevoked",
      "type": "event"
    },
    {
      "inputs": [],
      "name": "CHANNEL_ADMIN_ROLE",
      "outputs": [
        {
          "internalType": "bytes32",
          "name": "",
          "type": "bytes32"
        }
      ],
      "stateMutability": "view",
      "type": "function"
    },
    {
      "inputs": [],
      "name": "DEFAULT_ADMIN_ROLE",
      "outputs": [
        {
          "internalType": "bytes32",
          "name": "",
          "type": "bytes32"
        }
      ],
      "stateMutability": "view",
      "type": "function"
    },
    {
      "inputs": [
        {
          "internalType": "string[]",
          "name": "descriptions",
          "type": "string[]"
        },
        {
          "internalType": "uint256[]",
          "name": "amounts",
          "type": "uint256[]"
        },
        {
          "internalType": "uint256[]",
          "name": "deadlines",
          "type": "uint256[]"
        },
        {
          "internalType": "string[]",
          "name": "evidenceUrls",
          "type": "string[]"
        }
      ],
      "name": "addMilestones",
      "outputs": [],
      "stateMutability": "nonpayable",
      "type": "function"
    },
    {
      "inputs": [
        {
          "internalType": "uint256",
          "name": "milestoneId",
          "type": "uint256"
        }
      ],
      "name": "completeMilestone",
      "outputs": [],
      "stateMutability": "nonpayable",
      "type": "function"
    },
    {
      "inputs": [],
      "name": "depositFunds",
      "outputs": [],
      "stateMutability": "payable",
      "type": "function"
    },
    {
      "inputs": [
        {
          "internalType": "bytes32",
          "name": "role",
          "type": "bytes32"
        }
      ],
      "name": "getRoleAdmin",
      "outputs": [
        {
          "internalType": "bytes32",
          "name": "",
          "type": "bytes32"
        }
      ],
      "stateMutability": "view",
      "type": "function"
    },
    {
      "inputs": [
        {
          "internalType": "bytes32",
          "name": "role",
          "type": "bytes32"
        },
        {
          "internalType": "address",
          "name": "account",
          "type": "address"
        }
      ],
      "name": "grantRole",
      "outputs": [],
      "stateMutability": "nonpayable",
      "type": "function"
    },
    {
      "inputs": [
        {
          "internalType": "bytes32",
          "name": "role",
          "type": "bytes32"
        },
        {
          "internalType": "address",
          "name": "account",
          "type": "address"
        }
      ],
      "name": "hasRole",
      "outputs": [
        {
          "internalType": "bool",
          "name": "",
          "type": "bool"
        }
      ],
      "stateMutability": "view",
      "type": "function"
    },
    {
      "inputs": [
        {
          "internalType": "uint256",
          "name": "",
          "type": "uint256"
        }
      ],
      "name": "milestones",
      "outputs": [
        {
          "internalType": "string",
          "name": "description",
          "type": "string"
        },
        {
          "internalType": "bool",
          "name": "isCompleted",
          "type": "bool"
        },
        {
          "internalType": "bool",
          "name": "isVerified",
          "type": "bool"
        },
        {
          "internalType": "uint256",
          "name": "amount",
          "type": "uint256"
        },
        {
          "internalType": "uint256",
          "name": "completionTimestamp",
          "type": "uint256"
        },
        {
          "internalType": "uint256",
          "name": "deadline",
          "type": "uint256"
        },
        {
          "internalType": "string",
          "name": "evidenceUrl",
          "type": "string"
        }
      ],
      "stateMutability": "view",
      "type": "function"
    },
    {
      "inputs": [],
      "name": "nftContract",
      "outputs": [
        {
          "internalType": "address",
          "name": "",
          "type": "address"
        }
      ],
      "stateMutability": "view",
      "type": "function"
    },
    {
      "inputs": [],
      "name": "owner",
      "outputs": [
        {
          "internalType": "address",
          "name": "",
          "type": "address"
        }
      ],
      "stateMutability": "view",
      "type": "function"
    },
    {
      "inputs": [
        {
          "internalType": "uint256",
          "name": "milestoneId",
          "type": "uint256"
        }
      ],
      "name": "releaseFunds",
      "outputs": [],
      "stateMutability": "nonpayable",
      "type": "function"
    },
    {
      "inputs": [
        {
          "internalType": "bytes32",
          "name": "role",
          "type": "bytes32"
        },
        {
          "internalType": "address",
          "name": "account",
          "type": "address"
        }
      ],
      "name": "renounceRole",
      "outputs": [],
      "stateMutability": "nonpayable",
      "type": "function"
    },
    {
      "inputs": [
        {
          "internalType": "bytes32",
          "name": "role",
          "type": "bytes32"
        },
        {
          "internalType": "address",
          "name": "account",
          "type": "address"
        }
      ],
      "name": "revokeRole",
      "outputs": [],
      "stateMutability": "nonpayable",
      "type": "function"
    },
    {
      "inputs": [
        {
          "internalType": "bytes4",
          "name": "interfaceId",
          "type": "bytes4"
        }
      ],
      "name": "supportsInterface",
      "outputs": [
        {
          "internalType": "bool",
          "name": "",
          "type": "bool"
        }
      ],
      "stateMutability": "view",
      "type": "function"
    },
    {
      "inputs": [],
      "name": "tokenId",
      "outputs": [
        {
          "internalType": "uint256",
          "name": "",
          "type": "uint256"
        }
      ],
      "stateMutability": "view",
      "type": "function"
    },
    {
      "inputs": [
        {
          "internalType": "uint256",
          "name": "milestoneId",
          "type": "uint256"
        },
        {
          "internalType": "bool",
          "name": "verified",
          "type": "bool"
        }
      ],
      "name": "verifyMilestone",
      "outputs": [],
      "stateMutability": "nonpayable",
      "type": "function"
    }
  ],
  "bytecode": "0x60806040523480156200001157600080fd5b50604051620018df380380620018df833981016040819052620000349162000160565b60016000908155620000479082620000ab565b620000737f03558406f9f50e902531272ecb70e789d20d2bfc86601dddeb47b87d069826ba82620000ab565b600380546001600160a01b039485166001600160a01b03199182161790915560049290925560058054919093169116179055620001a1565b620000b78282620000bb565b5050565b60008281526001602090815260408083206001600160a01b038516845290915290205460ff16620000b75760008281526001602081815260408084206001600160a01b0386168086529252808420805460ff19169093179092559051339285917f2f8788117e7eff1d82e926ec794901d17c78024a50270940304540a733656f0d9190a45050565b80516001600160a01b03811681146200015b57600080fd5b919050565b6000806000606084860312156200017657600080fd5b620001818462000143565b925060208401519150620001986040850162000143565b90509250925092565b61172e80620001b16000396000f3fe6080604052600436106100fe5760003560e01c80638da5cb5b11610095578063caf89ddb11610064578063caf89ddb146102be578063d547741f146102de578063d56d229d146102fe578063e2c41dbc1461031e578063e89e4ed61461032657600080fd5b80638da5cb5b1461023157806391d148541461026957806396572d5914610289578063a217fddf146102a957600080fd5b806336568abe116100d157806336568abe146101af5780634abac588146101cf5780634d68282f146101f1578063852ea2031461021157600080fd5b806301ffc9a71461010357806317d70f7c14610138578063248a9ca31461015c5780632f2ff15d1461018d575b600080fd5b34801561010f57600080fd5b5061012361011e3660046110a0565b610359565b60405190151581526020015b60405180910390f35b34801561014457600080fd5b5061014e60045481565b60405190815260200161012f565b34801561016857600080fd5b5061014e6101773660046110ca565b6000908152600160208190526040909120015490565b34801561019957600080fd5b506101ad6101a83660046110e3565b610390565b005b3480156101bb57600080fd5b506101ad6101ca3660046110e3565b6103bb565b3480156101db57600080fd5b5061014e6000805160206116d983398151915281565b3480156101fd57600080fd5b506101ad61020c3660046110ca565b61043e565b34801561021d57600080fd5b506101ad61022c3660046110ca565b610575565b34801561023d57600080fd5b50600554610251906001600160a01b031681565b6040516001600160a01b03909116815260200161012f565b34801561027557600080fd5b506101236102843660046110e3565b6106a1565b34801561029557600080fd5b506101ad6102a43660046112d9565b6106cc565b3480156102b557600080fd5b5061014e600081565b3480156102ca57600080fd5b506101ad6102d9366004611386565b610a80565b3480156102ea57600080fd5b506101ad6102f93660046110e3565b610b6f565b34801561030a57600080fd5b50600354610251906001600160a01b031681565b6101ad610b95565b34801561033257600080fd5b506103466103413660046110ca565b610c46565b60405161012f9796959493929190611400565b60006001600160e01b03198216637965db0b60e01b148061038a57506301ffc9a760e01b6001600160e01b03198316145b92915050565b600082815260016020819052604090912001546103ac81610db3565b6103b68383610dc0565b505050565b6001600160a01b03811633146104305760405162461bcd60e51b815260206004820152602f60248201527f416363657373436f6e74726f6c3a2063616e206f6e6c792072656e6f756e636560448201526e103937b632b9903337b91039b2b63360891b60648201526084015b60405180910390fd5b61043a8282610e2b565b5050565b6000805160206116d983398151915261045681610db3565b60006006838154811061046b5761046b611455565b60009182526020909120600690910201600181015490915060ff16801561049b57506001810154610100900460ff165b6104f35760405162461bcd60e51b8152602060048201526024808201527f4d696c6573746f6e65206e6f74207665726966696564206f7220636f6d706c656044820152633a32b21760e11b6064820152608401610427565b60055460028201546040516001600160a01b039092169181156108fc0291906000818181858888f19350505050158015610531573d6000803e3d6000fd5b50827fd66662c0ded9e58fd31d5e44944bcfd07ffc15e6927ecc1382e7941cb7bd24c4826002015460405161056891815260200190565b60405180910390a2505050565b6000805160206116d983398151915261058d81610db3565b6000600683815481106105a2576105a2611455565b9060005260206000209060060201905080600401544211156106065760405162461bcd60e51b815260206004820152601e60248201527f4d696c6573746f6e6520646561646c696e6520686173207061737365642e00006044820152606401610427565b600181015460ff161561065b5760405162461bcd60e51b815260206004820152601c60248201527f4d696c6573746f6e6520616c726561647920636f6d706c657465642e000000006044820152606401610427565b6001818101805460ff1916909117905542600382015560405183907f41f5e423c5ae79dcb8565618891e74a7a6e76232568150b33d79001a62391b1e90600090a2505050565b60009182526001602090815260408084206001600160a01b0393909316845291905290205460ff1690565b6000805160206116d98339815191526106e481610db3565b835185511480156106f6575082518451145b8015610703575081518351145b61074f5760405162461bcd60e51b815260206004820152601860248201527f4172726179206c656e67746873206d757374206d6174636800000000000000006044820152606401610427565b60005b8551811015610a7857600086828151811061076f5761076f611455565b602002602001015151116107c55760405162461bcd60e51b815260206004820152601b60248201527f4465736372697074696f6e2063616e6e6f7420626520656d70747900000000006044820152606401610427565b60008582815181106107d9576107d9611455565b60200260200101511161082e5760405162461bcd60e51b815260206004820181905260248201527f416d6f756e74206d7573742062652067726561746572207468616e207a65726f6044820152606401610427565b4284828151811061084157610841611455565b6020026020010151116108965760405162461bcd60e51b815260206004820152601e60248201527f446561646c696e65206d75737420626520696e207468652066757475726500006044820152606401610427565b60006108a160025490565b905060066040518060e001604052808985815181106108c2576108c2611455565b602002602001015181526020016000151581526020016000151581526020018885815181106108f3576108f3611455565b602002602001015181526020016000815260200187858151811061091957610919611455565b6020026020010151815260200186858151811061093857610938611455565b602090810291909101810151909152825460018101845560009384529220815191926006020190819061096b90826114eb565b506020820151600182018054604085015115156101000261ff00199315159390931661ffff1990911617919091179055606082015160028201556080820151600382015560a0820151600482015560c082015160058201906109cd90826114eb565b5050506109de600280546001019055565b807f0da0726400e7f8a48f7fe18373539f365a929d20a804c5d23ad2c389fb004d4b888481518110610a1257610a12611455565b6020026020010151878581518110610a2c57610a2c611455565b6020026020010151878681518110610a4657610a46611455565b6020026020010151604051610a5d939291906115ab565b60405180910390a25080610a70816115f6565b915050610752565b505050505050565b6000805160206116d9833981519152610a9881610db3565b600060068481548110610aad57610aad611455565b60009182526020909120600690910201600181015490915060ff16610b145760405162461bcd60e51b815260206004820152601860248201527f4d696c6573746f6e65206e6f7420636f6d706c657465642e00000000000000006044820152606401610427565b6001810180548415156101000261ff001990911617905560405184907f8092b3fa7285a4131f576e9a2baf3559d34c8231ae55bd38f68471c3c45a0d8290610b6190861515815260200190565b60405180910390a250505050565b60008281526001602081905260409091200154610b8b81610db3565b6103b68383610e2b565b6000805160206116d9833981519152610bad81610db3565b60003411610c0e5760405162461bcd60e51b815260206004820152602860248201527f4465706f73697420616d6f756e74206d7573742062652067726561746572207460448201526768616e207a65726f60c01b6064820152608401610427565b60405134815233907f543ba50a5eec5e6178218e364b1d0f396157b3c8fa278522c2cb7fd99407d4749060200160405180910390a250565b60068181548110610c5657600080fd5b9060005260206000209060060201600091509050806000018054610c799061146b565b80601f0160208091040260200160405190810160405280929190818152602001828054610ca59061146b565b8015610cf25780601f10610cc757610100808354040283529160200191610cf2565b820191906000526020600020905b815481529060010190602001808311610cd557829003601f168201915b505050506001830154600284015460038501546004860154600587018054969760ff80871698610100909704169650939492939192610d309061146b565b80601f0160208091040260200160405190810160405280929190818152602001828054610d5c9061146b565b8015610da95780601f10610d7e57610100808354040283529160200191610da9565b820191906000526020600020905b815481529060010190602001808311610d8c57829003601f168201915b5050505050905087565b610dbd8133610e92565b50565b610dca82826106a1565b61043a5760008281526001602081815260408084206001600160a01b0386168086529252808420805460ff19169093179092559051339285917f2f8788117e7eff1d82e926ec794901d17c78024a50270940304540a733656f0d9190a45050565b610e3582826106a1565b1561043a5760008281526001602090815260408083206001600160a01b0385168085529252808320805460ff1916905551339285917ff6391f5c32d9c69d2a47ea670b442974b53935d1edc7fd64eb21e047a839171b9190a45050565b610e9c82826106a1565b61043a57610ea981610eeb565b610eb4836020610efd565b604051602001610ec592919061160f565b60408051601f198184030181529082905262461bcd60e51b825261042791600401611684565b606061038a6001600160a01b03831660145b60606000610f0c836002611697565b610f179060026116ae565b67ffffffffffffffff811115610f2f57610f2f61111f565b6040519080825280601f01601f191660200182016040528015610f59576020820181803683370190505b509050600360fc1b81600081518110610f7457610f74611455565b60200101906001600160f81b031916908160001a905350600f60fb1b81600181518110610fa357610fa3611455565b60200101906001600160f81b031916908160001a9053506000610fc7846002611697565b610fd29060016116ae565b90505b600181111561104a576f181899199a1a9b1b9c1cb0b131b232b360811b85600f166010811061100657611006611455565b1a60f81b82828151811061101c5761101c611455565b60200101906001600160f81b031916908160001a90535060049490941c93611043816116c1565b9050610fd5565b5083156110995760405162461bcd60e51b815260206004820181905260248201527f537472696e67733a20686578206c656e67746820696e73756666696369656e746044820152606401610427565b9392505050565b6000602082840312156110b257600080fd5b81356001600160e01b03198116811461109957600080fd5b6000602082840312156110dc57600080fd5b5035919050565b600080604083850312156110f657600080fd5b8235915060208301356001600160a01b038116811461111457600080fd5b809150509250929050565b634e487b7160e01b600052604160045260246000fd5b604051601f8201601f1916810167ffffffffffffffff8111828210171561115e5761115e61111f565b604052919050565b600067ffffffffffffffff8211156111805761118061111f565b5060051b60200190565b6000601f838184011261119c57600080fd5b823560206111b16111ac83611166565b611135565b82815260059290921b850181019181810190878411156111d057600080fd5b8287015b8481101561126757803567ffffffffffffffff808211156111f55760008081fd5b818a0191508a603f83011261120a5760008081fd5b858201356040828211156112205761122061111f565b611231828b01601f19168901611135565b92508183528c818386010111156112485760008081fd5b81818501898501375060009082018701528452509183019183016111d4565b50979650505050505050565b600082601f83011261128457600080fd5b813560206112946111ac83611166565b82815260059290921b840181019181810190868411156112b357600080fd5b8286015b848110156112ce57803583529183019183016112b7565b509695505050505050565b600080600080608085870312156112ef57600080fd5b843567ffffffffffffffff8082111561130757600080fd5b6113138883890161118a565b9550602087013591508082111561132957600080fd5b61133588838901611273565b9450604087013591508082111561134b57600080fd5b61135788838901611273565b9350606087013591508082111561136d57600080fd5b5061137a8782880161118a565b91505092959194509250565b6000806040838503121561139957600080fd5b823591506020830135801515811461111457600080fd5b60005b838110156113cb5781810151838201526020016113b3565b50506000910152565b600081518084526113ec8160208601602086016113b0565b601f01601f19169290920160200192915050565b60e08152600061141360e083018a6113d4565b881515602084015287151560408401528660608401528560808401528460a084015282810360c084015261144781856113d4565b9a9950505050505050505050565b634e487b7160e01b600052603260045260246000fd5b600181811c9082168061147f57607f821691505b60208210810361149f57634e487b7160e01b600052602260045260246000fd5b50919050565b601f8211156103b657600081815260208120601f850160051c810160208610156114cc5750805b601f850160051c820191505b81811015610a78578281556001016114d8565b815167ffffffffffffffff8111156115055761150561111f565b61151981611513845461146b565b846114a5565b602080601f83116001811461154e57600084156115365750858301515b600019600386901b1c1916600185901b178555610a78565b600085815260208120601f198616915b8281101561157d5788860151825594840194600190910190840161155e565b508582101561159b5787850151600019600388901b60f8161c191681555b5050505050600190811b01905550565b6060815260006115be60608301866113d4565b84602084015282810360408401526115d681856113d4565b9695505050505050565b634e487b7160e01b600052601160045260246000fd5b600060018201611608576116086115e0565b5060010190565b7f416363657373436f6e74726f6c3a206163636f756e74200000000000000000008152600083516116478160178501602088016113b0565b7001034b99036b4b9b9b4b733903937b6329607d1b60179184019182015283516116788160288401602088016113b0565b01602801949350505050565b60208152600061109960208301846113d4565b808202811582820484141761038a5761038a6115e0565b8082018082111561038a5761038a6115e0565b6000816116d0576116d06115e0565b50600019019056fe03558406f9f50e902531272ecb70e789d20d2bfc86601dddeb47b87d069826baa26469706673582212205c08c8cb3023acaf8cb19bde0f8c677bb36c5dff3a7c06e5ea424029573c16dc64736f6c63430008140033",
  "linkReferences": {},
  "deployedLinkReferences": {}
}