{
  "_format": "hh-sol-artifact-1",
  "contractName": "PaxmataProjectsV1",
  "sourceName": "contracts/PaxmataProjectsV1.sol",
  "abi": [
    {
      "inputs": [],
      "stateMutability": "nonpayable",
      "type": "constructor"
    },
    {
      "anonymous": false,
      "inputs": [
        {
          "indexed": true,
          "internalType": "uint256",
          "name": "tokenId",
          "type": "uint256"
        },
        {
          "indexed": false,
          "internalType": "address",
          "name": "user",
          "type": "address"
        }
      ],
      "name": "AccessGranted",
      "type": "event"
    },
    {
      "anonymous": false,
      "inputs": [
        {
          "indexed": true,
          "internalType": "address",
          "name": "owner",
          "type": "address"
        },
        {
          "indexed": true,
          "internalType": "address",
          "name": "approved",
          "type": "address"
        },
        {
          "indexed": true,
          "internalType": "uint256",
          "name": "tokenId",
          "type": "uint256"
        }
      ],
      "name": "Approval",
      "type": "event"
    },
    {
      "anonymous": false,
      "inputs": [
        {
          "indexed": true,
          "internalType": "address",
          "name": "owner",
          "type": "address"
        },
        {
          "indexed": true,
          "internalType": "address",
          "name": "operator",
          "type": "address"
        },
        {
          "indexed": false,
          "internalType": "bool",
          "name": "approved",
          "type": "bool"
        }
      ],
      "name": "ApprovalForAll",
      "type": "event"
    },
    {
      "anonymous": false,
      "inputs": [
        {
          "indexed": false,
          "internalType": "uint256",
          "name": "_fromTokenId",
          "type": "uint256"
        },
        {
          "indexed": false,
          "internalType": "uint256",
          "name": "_toTokenId",
          "type": "uint256"
        }
      ],
      "name": "BatchMetadataUpdate",
      "type": "event"
    },
    {
      "anonymous": false,
      "inputs": [
        {
          "indexed": false,
          "internalType": "uint256",
          "name": "_tokenId",
          "type": "uint256"
        }
      ],
      "name": "MetadataUpdate",
      "type": "event"
    },
    {
      "anonymous": false,
      "inputs": [
        {
          "indexed": true,
          "internalType": "bytes32",
          "name": "role",
          "type": "bytes32"
        },
        {
          "indexed": true,
          "internalType": "bytes32",
          "name": "previousAdminRole",
          "type": "bytes32"
        },
        {
          "indexed": true,
          "internalType": "bytes32",
          "name": "newAdminRole",
          "type": "bytes32"
        }
      ],
      "name": "RoleAdminChanged",
      "type": "event"
    },
    {
      "anonymous": false,
      "inputs": [
        {
          "indexed": true,
          "internalType": "bytes32",
          "name": "role",
          "type": "bytes32"
        },
        {
          "indexed": true,
          "internalType": "address",
          "name": "account",
          "type": "address"
        },
        {
          "indexed": true,
          "internalType": "address",
          "name": "sender",
          "type": "address"
        }
      ],
      "name": "RoleGranted",
      "type": "event"
    },
    {
      "anonymous": false,
      "inputs": [
        {
          "indexed": true,
          "internalType": "bytes32",
          "name": "role",
          "type": "bytes32"
        },
        {
          "indexed": true,
          "internalType": "address",
          "name": "account",
          "type": "address"
        },
        {
          "indexed": true,
          "internalType": "address",
          "name": "sender",
          "type": "address"
        }
      ],
      "name": "RoleRevoked",
      "type": "event"
    },
    {
      "anonymous": false,
      "inputs": [
        {
          "indexed": true,
          "internalType": "uint256",
          "name": "tokenId",
          "type": "uint256"
        },
        {
          "indexed": false,
          "internalType": "address",
          "name": "stateChannel",
          "type": "address"
        }
      ],
      "name": "StateChannelOpened",
      "type": "event"
    },
    {
      "anonymous": false,
      "inputs": [
        {
          "indexed": true,
          "internalType": "address",
          "name": "from",
          "type": "address"
        },
        {
          "indexed": true,
          "internalType": "address",
          "name": "to",
          "type": "address"
        },
        {
          "indexed": true,
          "internalType": "uint256",
          "name": "tokenId",
          "type": "uint256"
        }
      ],
      "name": "Transfer",
      "type": "event"
    },
    {
      "inputs": [],
      "name": "CHANNEL_ADMIN_ROLE",
      "outputs": [
        {
          "internalType": "bytes32",
          "name": "",
          "type": "bytes32"
        }
      ],
      "stateMutability": "view",
      "type": "function"
    },
    {
      "inputs": [],
      "name": "DEFAULT_ADMIN_ROLE",
      "outputs": [
        {
          "internalType": "bytes32",
          "name": "",
          "type": "bytes32"
        }
      ],
      "stateMutability": "view",
      "type": "function"
    },
    {
      "inputs": [],
      "name": "MINTER_ROLE",
      "outputs": [
        {
          "internalType": "bytes32",
          "name": "",
          "type": "bytes32"
        }
      ],
      "stateMutability": "view",
      "type": "function"
    },
    {
      "inputs": [
        {
          "internalType": "address",
          "name": "to",
          "type": "address"
        },
        {
          "internalType": "uint256",
          "name": "tokenId",
          "type": "uint256"
        }
      ],
      "name": "approve",
      "outputs": [],
      "stateMutability": "nonpayable",
      "type": "function"
    },
    {
      "inputs": [
        {
          "internalType": "address",
          "name": "owner",
          "type": "address"
        }
      ],
      "name": "balanceOf",
      "outputs": [
        {
          "internalType": "uint256",
          "name": "",
          "type": "uint256"
        }
      ],
      "stateMutability": "view",
      "type": "function"
    },
    {
      "inputs": [
        {
          "internalType": "uint256",
          "name": "tokenId",
          "type": "uint256"
        }
      ],
      "name": "getApproved",
      "outputs": [
        {
          "internalType": "address",
          "name": "",
          "type": "address"
        }
      ],
      "stateMutability": "view",
      "type": "function"
    },
    {
      "inputs": [
        {
          "internalType": "bytes32",
          "name": "role",
          "type": "bytes32"
        }
      ],
      "name": "getRoleAdmin",
      "outputs": [
        {
          "internalType": "bytes32",
          "name": "",
          "type": "bytes32"
        }
      ],
      "stateMutability": "view",
      "type": "function"
    },
    {
      "inputs": [
        {
          "internalType": "uint256",
          "name": "tokenId",
          "type": "uint256"
        },
        {
          "internalType": "address",
          "name": "user",
          "type": "address"
        }
      ],
      "name": "grantAccess",
      "outputs": [],
      "stateMutability": "nonpayable",
      "type": "function"
    },
    {
      "inputs": [
        {
          "internalType": "bytes32",
          "name": "role",
          "type": "bytes32"
        },
        {
          "internalType": "address",
          "name": "account",
          "type": "address"
        }
      ],
      "name": "grantRole",
      "outputs": [],
      "stateMutability": "nonpayable",
      "type": "function"
    },
    {
      "inputs": [
        {
          "internalType": "bytes32",
          "name": "role",
          "type": "bytes32"
        },
        {
          "internalType": "address",
          "name": "account",
          "type": "address"
        }
      ],
      "name": "hasRole",
      "outputs": [
        {
          "internalType": "bool",
          "name": "",
          "type": "bool"
        }
      ],
      "stateMutability": "view",
      "type": "function"
    },
    {
      "inputs": [
        {
          "internalType": "address",
          "name": "owner",
          "type": "address"
        },
        {
          "internalType": "address",
          "name": "operator",
          "type": "address"
        }
      ],
      "name": "isApprovedForAll",
      "outputs": [
        {
          "internalType": "bool",
          "name": "",
          "type": "bool"
        }
      ],
      "stateMutability": "view",
      "type": "function"
    },
    {
      "inputs": [],
      "name": "name",
      "outputs": [
        {
          "internalType": "string",
          "name": "",
          "type": "string"
        }
      ],
      "stateMutability": "view",
      "type": "function"
    },
    {
      "inputs": [
        {
          "internalType": "uint256",
          "name": "tokenId",
          "type": "uint256"
        }
      ],
      "name": "ownerOf",
      "outputs": [
        {
          "internalType": "address",
          "name": "",
          "type": "address"
        }
      ],
      "stateMutability": "view",
      "type": "function"
    },
    {
      "inputs": [
        {
          "internalType": "bytes32",
          "name": "role",
          "type": "bytes32"
        },
        {
          "internalType": "address",
          "name": "account",
          "type": "address"
        }
      ],
      "name": "renounceRole",
      "outputs": [],
      "stateMutability": "nonpayable",
      "type": "function"
    },
    {
      "inputs": [
        {
          "internalType": "bytes32",
          "name": "role",
          "type": "bytes32"
        },
        {
          "internalType": "address",
          "name": "account",
          "type": "address"
        }
      ],
      "name": "revokeRole",
      "outputs": [],
      "stateMutability": "nonpayable",
      "type": "function"
    },
    {
      "inputs": [
        {
          "internalType": "address",
          "name": "to",
          "type": "address"
        },
        {
          "internalType": "string",
          "name": "metadataUrl",
          "type": "string"
        }
      ],
      "name": "safeMint",
      "outputs": [],
      "stateMutability": "nonpayable",
      "type": "function"
    },
    {
      "inputs": [
        {
          "internalType": "address",
          "name": "from",
          "type": "address"
        },
        {
          "internalType": "address",
          "name": "to",
          "type": "address"
        },
        {
          "internalType": "uint256",
          "name": "tokenId",
          "type": "uint256"
        }
      ],
      "name": "safeTransferFrom",
      "outputs": [],
      "stateMutability": "nonpayable",
      "type": "function"
    },
    {
      "inputs": [
        {
          "internalType": "address",
          "name": "from",
          "type": "address"
        },
        {
          "internalType": "address",
          "name": "to",
          "type": "address"
        },
        {
          "internalType": "uint256",
          "name": "tokenId",
          "type": "uint256"
        },
        {
          "internalType": "bytes",
          "name": "data",
          "type": "bytes"
        }
      ],
      "name": "safeTransferFrom",
      "outputs": [],
      "stateMutability": "nonpayable",
      "type": "function"
    },
    {
      "inputs": [
        {
          "internalType": "address",
          "name": "operator",
          "type": "address"
        },
        {
          "internalType": "bool",
          "name": "approved",
          "type": "bool"
        }
      ],
      "name": "setApprovalForAll",
      "outputs": [],
      "stateMutability": "nonpayable",
      "type": "function"
    },
    {
      "inputs": [
        {
          "internalType": "uint256",
          "name": "",
          "type": "uint256"
        }
      ],
      "name": "stateChannels",
      "outputs": [
        {
          "internalType": "address",
          "name": "",
          "type": "address"
        }
      ],
      "stateMutability": "view",
      "type": "function"
    },
    {
      "inputs": [
        {
          "internalType": "bytes4",
          "name": "interfaceId",
          "type": "bytes4"
        }
      ],
      "name": "supportsInterface",
      "outputs": [
        {
          "internalType": "bool",
          "name": "",
          "type": "bool"
        }
      ],
      "stateMutability": "view",
      "type": "function"
    },
    {
      "inputs": [],
      "name": "symbol",
      "outputs": [
        {
          "internalType": "string",
          "name": "",
          "type": "string"
        }
      ],
      "stateMutability": "view",
      "type": "function"
    },
    {
      "inputs": [
        {
          "internalType": "uint256",
          "name": "index",
          "type": "uint256"
        }
      ],
      "name": "tokenByIndex",
      "outputs": [
        {
          "internalType": "uint256",
          "name": "",
          "type": "uint256"
        }
      ],
      "stateMutability": "view",
      "type": "function"
    },
    {
      "inputs": [
        {
          "internalType": "address",
          "name": "owner",
          "type": "address"
        },
        {
          "internalType": "uint256",
          "name": "index",
          "type": "uint256"
        }
      ],
      "name": "tokenOfOwnerByIndex",
      "outputs": [
        {
          "internalType": "uint256",
          "name": "",
          "type": "uint256"
        }
      ],
      "stateMutability": "view",
      "type": "function"
    },
    {
      "inputs": [
        {
          "internalType": "uint256",
          "name": "tokenId",
          "type": "uint256"
        }
      ],
      "name": "tokenURI",
      "outputs": [
        {
          "internalType": "string",
          "name": "",
          "type": "string"
        }
      ],
      "stateMutability": "view",
      "type": "function"
    },
    {
      "inputs": [],
      "name": "totalSupply",
      "outputs": [
        {
          "internalType": "uint256",
          "name": "",
          "type": "uint256"
        }
      ],
      "stateMutability": "view",
      "type": "function"
    },
    {
      "inputs": [
        {
          "internalType": "address",
          "name": "from",
          "type": "address"
        },
        {
          "internalType": "address",
          "name": "to",
          "type": "address"
        },
        {
          "internalType": "uint256",
          "name": "tokenId",
          "type": "uint256"
        }
      ],
      "name": "transferFrom",
      "outputs": [],
      "stateMutability": "nonpayable",
      "type": "function"
    }
  ],
  "bytecode": "0x60806040523480156200001157600080fd5b50604051806040016040528060118152602001705061786d61746150726f6a65637473563160781b8152506040518060400160405280600681526020016505041584d41560d41b81525081600090816200006c919062000218565b5060016200007b828262000218565b506200008d91506000905033620000bf565b620000b97f9f2df0fed2c77648de5860a4cc508cd0818c85b8b8a1ab4ceeef8d981c8956a633620000bf565b620002e4565b620000cb8282620000cf565b5050565b6000828152600b602090815260408083206001600160a01b038516845290915290205460ff16620000cb576000828152600b602090815260408083206001600160a01b03851684529091529020805460ff191660011790556200012f3390565b6001600160a01b0316816001600160a01b0316837f2f8788117e7eff1d82e926ec794901d17c78024a50270940304540a733656f0d60405160405180910390a45050565b634e487b7160e01b600052604160045260246000fd5b600181811c908216806200019e57607f821691505b602082108103620001bf57634e487b7160e01b600052602260045260246000fd5b50919050565b601f8211156200021357600081815260208120601f850160051c81016020861015620001ee5750805b601f850160051c820191505b818110156200020f57828155600101620001fa565b5050505b505050565b81516001600160401b0381111562000234576200023462000173565b6200024c8162000245845462000189565b84620001c5565b602080601f8311600181146200028457600084156200026b5750858301515b600019600386901b1c1916600185901b1785556200020f565b600085815260208120601f198616915b82811015620002b55788860151825594840194600190910190840162000294565b5085821015620002d45787850151600019600388901b60f8161c191681555b5050505050600190811b01905550565b61401b80620002f46000396000f3fe60806040523480156200001157600080fd5b5060043610620001cc5760003560e01c80634f6ccce7116200010d578063a22cb46511620000a3578063d204c45e116200007a578063d204c45e1462000419578063d53913931462000430578063d547741f1462000458578063e985e9c5146200046f57600080fd5b8063a22cb46514620003d4578063b88d4fde14620003eb578063c87b56dd146200040257600080fd5b806370a0823111620000e457806370a08231146200039357806391d1485414620003aa57806395d89b4114620003c1578063a217fddf14620003cb57600080fd5b80634f6ccce7146200034e5780636352211e146200036557806365dd152c146200037c57600080fd5b806323b872dd11620001835780632f745c59116200015a5780632f745c5914620002f257806336568abe146200030957806342842e0e14620003205780634abac588146200033757600080fd5b806323b872dd146200029e578063248a9ca314620002b55780632f2ff15d14620002db57600080fd5b806301ffc9a714620001d157806306fdde0314620001fd578063071308d61462000216578063081812fc146200025b578063095ea7b3146200027257806318160ddd146200028b575b600080fd5b620001e8620001e236600462001f8f565b620004ae565b60405190151581526020015b60405180910390f35b62000207620004c1565b604051620001f4919062002003565b620002426200022736600462002018565b600d602052600090815260409020546001600160a01b031681565b6040516001600160a01b039091168152602001620001f4565b620002426200026c36600462002018565b6200055b565b62000289620002833660046200204f565b62000584565b005b6009545b604051908152602001620001f4565b62000289620002af3660046200207c565b620006a8565b6200028f620002c636600462002018565b6000908152600b602052604090206001015490565b62000289620002ec366004620020bd565b620006e0565b6200028f620003033660046200204f565b62000709565b620002896200031a366004620020bd565b620007a3565b62000289620003313660046200207c565b62000825565b6200028f60008051602062003fc683398151915281565b6200028f6200035f36600462002018565b62000842565b620002426200037636600462002018565b620008db565b620002896200038d366004620020bd565b6200093d565b6200028f620003a4366004620020ec565b62000ae2565b620001e8620003bb366004620020bd565b62000b6a565b6200020762000b95565b6200028f600081565b62000289620003e53660046200210a565b62000ba6565b62000289620003fc366004620021dd565b62000bb3565b620002076200041336600462002018565b62000bf2565b620002896200042a36600462002262565b62000bff565b6200028f7f9f2df0fed2c77648de5860a4cc508cd0818c85b8b8a1ab4ceeef8d981c8956a681565b6200028962000469366004620020bd565b62000d8d565b620001e862000480366004620022cb565b6001600160a01b03918216600090815260056020908152604080832093909416825291909152205460ff1690565b6000620004bb8262000db6565b92915050565b606060008054620004d290620022fa565b80601f01602080910402602001604051908101604052809291908181526020018280546200050090620022fa565b8015620005515780601f10620005255761010080835404028352916020019162000551565b820191906000526020600020905b8154815290600101906020018083116200053357829003601f168201915b5050505050905090565b6000620005688262000dde565b506000908152600460205260409020546001600160a01b031690565b60006200059182620008db565b9050806001600160a01b0316836001600160a01b031603620006045760405162461bcd60e51b815260206004820152602160248201527f4552433732313a20617070726f76616c20746f2063757272656e74206f776e656044820152603960f91b60648201526084015b60405180910390fd5b336001600160a01b038216148062000623575062000623813362000480565b620006975760405162461bcd60e51b815260206004820152603d60248201527f4552433732313a20617070726f76652063616c6c6572206973206e6f7420746f60448201527f6b656e206f776e6572206f7220617070726f76656420666f7220616c6c0000006064820152608401620005fb565b620006a3838362000e42565b505050565b620006b4338262000eb2565b620006d35760405162461bcd60e51b8152600401620005fb9062002336565b620006a383838362000f37565b6000828152600b6020526040902060010154620006fd81620010b6565b620006a38383620010c2565b6000620007168362000ae2565b82106200077a5760405162461bcd60e51b815260206004820152602b60248201527f455243373231456e756d657261626c653a206f776e657220696e646578206f7560448201526a74206f6620626f756e647360a81b6064820152608401620005fb565b506001600160a01b03919091166000908152600760209081526040808320938352929052205490565b6001600160a01b0381163314620008155760405162461bcd60e51b815260206004820152602f60248201527f416363657373436f6e74726f6c3a2063616e206f6e6c792072656e6f756e636560448201526e103937b632b9903337b91039b2b63360891b6064820152608401620005fb565b6200082182826200114c565b5050565b620006a38383836040518060200160405280600081525062000bb3565b60006200084e60095490565b8210620008b35760405162461bcd60e51b815260206004820152602c60248201527f455243373231456e756d657261626c653a20676c6f62616c20696e646578206f60448201526b7574206f6620626f756e647360a01b6064820152608401620005fb565b60098281548110620008c957620008c962002383565b90600052602060002001549050919050565b6000818152600260205260408120546001600160a01b031680620004bb5760405162461bcd60e51b8152602060048201526018602482015277115490cdcc8c4e881a5b9d985b1a59081d1bdad95b88125160421b6044820152606401620005fb565b6200095860008051602062003fc68339815191523362000b6a565b620009a65760405162461bcd60e51b815260206004820152601d60248201527f43616c6c6572206973206e6f742061206368616e6e656c2061646d696e0000006044820152606401620005fb565b6000828152600d60205260409020546001600160a01b031662000a1d5760405162461bcd60e51b815260206004820152602860248201527f4e6f207374617465206368616e6e656c2065786973747320666f722074686973604482015267081d1bdad95b925960c21b6064820152608401620005fb565b6000828152600d602052604090819020549051632f2ff15d60e01b815260008051602062003fc683398151915260048201526001600160a01b03838116602483015290911690632f2ff15d90604401600060405180830381600087803b15801562000a8757600080fd5b505af115801562000a9c573d6000803e3d6000fd5b50506040516001600160a01b03841681528492507f3c3a9147a1fc73dd51a32f4d10c43d457e8cb826eb6f35cac6349eb965ba82b4915060200160405180910390a25050565b60006001600160a01b03821662000b4e5760405162461bcd60e51b815260206004820152602960248201527f4552433732313a2061646472657373207a65726f206973206e6f7420612076616044820152683634b21037bbb732b960b91b6064820152608401620005fb565b506001600160a01b031660009081526003602052604090205490565b6000918252600b602090815260408084206001600160a01b0393909316845291905290205460ff1690565b606060018054620004d290620022fa565b62000821338383620011b6565b62000bbf338362000eb2565b62000bde5760405162461bcd60e51b8152600401620005fb9062002336565b62000bec8484848462001286565b50505050565b6060620004bb82620012c0565b7f9f2df0fed2c77648de5860a4cc508cd0818c85b8b8a1ab4ceeef8d981c8956a662000c2b81620010b6565b600082511162000c7e5760405162461bcd60e51b815260206004820152601c60248201527f4d657461646174612055524c2063616e6e6f7420626520656d707479000000006044820152606401620005fb565b600062000c8a600c5490565b905062000c9b600c80546001019055565b62000ca78482620013d9565b62000cb38184620013f5565b600030828660405162000cc69062001f6a565b6001600160a01b03938416815260208101929092529091166040820152606001604051809103906000f08015801562000d03573d6000803e3d6000fd5b506000838152600d6020526040902080546001600160a01b0319166001600160a01b038316179055905062000d4860008051602062003fc683398151915286620010c2565b6040516001600160a01b038216815282907fb9681c24381920e847fe10a68b36dbd46cfacf49d12ca8bd3a2f768e98a06c869060200160405180910390a25050505050565b6000828152600b602052604090206001015462000daa81620010b6565b620006a383836200114c565b60006001600160e01b03198216637965db0b60e01b1480620004bb5750620004bb82620014c4565b6000818152600260205260409020546001600160a01b031662000e3f5760405162461bcd60e51b8152602060048201526018602482015277115490cdcc8c4e881a5b9d985b1a59081d1bdad95b88125160421b6044820152606401620005fb565b50565b600081815260046020526040902080546001600160a01b0319166001600160a01b038416908117909155819062000e7982620008db565b6001600160a01b03167f8c5be1e5ebec7d5bd14f71427d1e84f3dd0314c0f7b2291e5b200ac8c7c3b92560405160405180910390a45050565b60008062000ec083620008db565b9050806001600160a01b0316846001600160a01b0316148062000f0857506001600160a01b0380821660009081526005602090815260408083209388168352929052205460ff165b8062000f2f5750836001600160a01b031662000f24846200055b565b6001600160a01b0316145b949350505050565b826001600160a01b031662000f4c82620008db565b6001600160a01b03161462000f755760405162461bcd60e51b8152600401620005fb9062002399565b6001600160a01b03821662000fd95760405162461bcd60e51b8152602060048201526024808201527f4552433732313a207472616e7366657220746f20746865207a65726f206164646044820152637265737360e01b6064820152608401620005fb565b62000fe88383836001620014ec565b826001600160a01b031662000ffd82620008db565b6001600160a01b031614620010265760405162461bcd60e51b8152600401620005fb9062002399565b600081815260046020908152604080832080546001600160a01b03199081169091556001600160a01b0387811680865260038552838620805460001901905590871680865283862080546001019055868652600290945282852080549092168417909155905184937fddf252ad1be2c89b69c2b068fc378daa952ba7f163c4a11628f55a4df523b3ef91a4505050565b62000e3f8133620014fa565b620010ce828262000b6a565b62000821576000828152600b602090815260408083206001600160a01b03851684529091529020805460ff19166001179055620011083390565b6001600160a01b0316816001600160a01b0316837f2f8788117e7eff1d82e926ec794901d17c78024a50270940304540a733656f0d60405160405180910390a45050565b62001158828262000b6a565b1562000821576000828152600b602090815260408083206001600160a01b0385168085529252808320805460ff1916905551339285917ff6391f5c32d9c69d2a47ea670b442974b53935d1edc7fd64eb21e047a839171b9190a45050565b816001600160a01b0316836001600160a01b031603620012195760405162461bcd60e51b815260206004820152601960248201527f4552433732313a20617070726f766520746f2063616c6c6572000000000000006044820152606401620005fb565b6001600160a01b03838116600081815260056020908152604080832094871680845294825291829020805460ff191686151590811790915591519182527f17307eab39ab6107e8899845ad3d59bd9653f200f220920489ca2b5937696c31910160405180910390a3505050565b6200129384848462000f37565b620012a1848484846200155e565b62000bec5760405162461bcd60e51b8152600401620005fb90620023de565b6060620012cd8262000dde565b60008281526006602052604081208054620012e890620022fa565b80601f01602080910402602001604051908101604052809291908181526020018280546200131690620022fa565b8015620013675780601f106200133b5761010080835404028352916020019162001367565b820191906000526020600020905b8154815290600101906020018083116200134957829003601f168201915b5050505050905060006200138660408051602081019091526000815290565b9050805160000362001399575092915050565b815115620013ce578082604051602001620013b692919062002430565b60405160208183030381529060405292505050919050565b62000f2f846200166c565b62000821828260405180602001604052806000815250620016e9565b6000828152600260205260409020546001600160a01b0316620014725760405162461bcd60e51b815260206004820152602e60248201527f45524337323155524953746f726167653a2055524920736574206f66206e6f6e60448201526d32bc34b9ba32b73a103a37b5b2b760911b6064820152608401620005fb565b60008281526006602052604090206200148c8282620024b5565b506040518281527ff8e1a15aba9398e019f0b49df1a4fde98ee17ae345cb5f6b5e2c27f5033e8ce79060200160405180910390a15050565b60006001600160e01b0319821663780e9d6360e01b1480620004bb5750620004bb8262001723565b62000bec848484846200174b565b62001506828262000b6a565b620008215762001516816200188e565b62001523836020620018a1565b6040516020016200153692919062002582565b60408051601f198184030181529082905262461bcd60e51b8252620005fb9160040162002003565b60006001600160a01b0384163b156200166157604051630a85bd0160e11b81526001600160a01b0385169063150b7a0290620015a5903390899088908890600401620025fb565b6020604051808303816000875af1925050508015620015e3575060408051601f3d908101601f19168201909252620015e0918101906200263a565b60015b62001646573d80801562001614576040519150601f19603f3d011682016040523d82523d6000602084013e62001619565b606091505b5080516000036200163e5760405162461bcd60e51b8152600401620005fb90620023de565b805181602001fd5b6001600160e01b031916630a85bd0160e11b14905062000f2f565b506001949350505050565b6060620016798262000dde565b60006200169160408051602081019091526000815290565b90506000815111620016b35760405180602001604052806000815250620016e2565b80620016bf8462001a5b565b604051602001620016d292919062002430565b6040516020818303038152906040525b9392505050565b620016f5838362001af5565b6200170460008484846200155e565b620006a35760405162461bcd60e51b8152600401620005fb90620023de565b60006001600160e01b03198216632483248360e11b1480620004bb5750620004bb8262001c96565b6001811115620017bc5760405162461bcd60e51b815260206004820152603560248201527f455243373231456e756d657261626c653a20636f6e7365637574697665207472604482015274185b9cd9995c9cc81b9bdd081cdd5c1c1bdc9d1959605a1b6064820152608401620005fb565b816001600160a01b0385166200181b576200181581600980546000838152600a60205260408120829055600182018355919091527f6e1540171b6c0c960b71a7020d9f60077f6af931a8bbf590da0223dacf75c7af0155565b62001841565b836001600160a01b0316856001600160a01b031614620018415762001841858262001ce9565b6001600160a01b03841662001861576200185b8162001d8b565b62001887565b846001600160a01b0316846001600160a01b031614620018875762001887848262001e45565b5050505050565b6060620004bb6001600160a01b03831660145b60606000620018b283600262002670565b620018bf9060026200268a565b67ffffffffffffffff811115620018da57620018da6200214a565b6040519080825280601f01601f19166020018201604052801562001905576020820181803683370190505b509050600360fc1b8160008151811062001923576200192362002383565b60200101906001600160f81b031916908160001a905350600f60fb1b8160018151811062001955576200195562002383565b60200101906001600160f81b031916908160001a90535060006200197b84600262002670565b620019889060016200268a565b90505b600181111562001a0a576f181899199a1a9b1b9c1cb0b131b232b360811b85600f1660108110620019c057620019c062002383565b1a60f81b828281518110620019d957620019d962002383565b60200101906001600160f81b031916908160001a90535060049490941c9362001a0281620026a0565b90506200198b565b508315620016e25760405162461bcd60e51b815260206004820181905260248201527f537472696e67733a20686578206c656e67746820696e73756666696369656e746044820152606401620005fb565b6060600062001a6a8362001e8b565b600101905060008167ffffffffffffffff81111562001a8d5762001a8d6200214a565b6040519080825280601f01601f19166020018201604052801562001ab8576020820181803683370190505b5090508181016020015b600019016f181899199a1a9b1b9c1cb0b131b232b360811b600a86061a8153600a850494508462001ac257509392505050565b6001600160a01b03821662001b4d5760405162461bcd60e51b815260206004820181905260248201527f4552433732313a206d696e7420746f20746865207a65726f20616464726573736044820152606401620005fb565b6000818152600260205260409020546001600160a01b03161562001bb45760405162461bcd60e51b815260206004820152601c60248201527f4552433732313a20746f6b656e20616c7265616479206d696e746564000000006044820152606401620005fb565b62001bc4600083836001620014ec565b6000818152600260205260409020546001600160a01b03161562001c2b5760405162461bcd60e51b815260206004820152601c60248201527f4552433732313a20746f6b656e20616c7265616479206d696e746564000000006044820152606401620005fb565b6001600160a01b038216600081815260036020908152604080832080546001019055848352600290915280822080546001600160a01b0319168417905551839291907fddf252ad1be2c89b69c2b068fc378daa952ba7f163c4a11628f55a4df523b3ef908290a45050565b60006001600160e01b031982166380ac58cd60e01b148062001cc857506001600160e01b03198216635b5e139f60e01b145b80620004bb57506301ffc9a760e01b6001600160e01b0319831614620004bb565b6000600162001cf88462000ae2565b62001d049190620026ba565b60008381526008602052604090205490915080821462001d58576001600160a01b03841660009081526007602090815260408083208584528252808320548484528184208190558352600890915290208190555b5060009182526008602090815260408084208490556001600160a01b039094168352600781528383209183525290812055565b60095460009062001d9f90600190620026ba565b6000838152600a60205260408120546009805493945090928490811062001dca5762001dca62002383565b90600052602060002001549050806009838154811062001dee5762001dee62002383565b6000918252602080832090910192909255828152600a9091526040808220849055858252812055600980548062001e295762001e29620026d0565b6001900381819060005260206000200160009055905550505050565b600062001e528362000ae2565b6001600160a01b039093166000908152600760209081526040808320868452825280832085905593825260089052919091209190915550565b60008072184f03e93ff9f4daa797ed6e38ed64bf6a1f0160401b831062001ecb5772184f03e93ff9f4daa797ed6e38ed64bf6a1f0160401b830492506040015b6d04ee2d6d415b85acef8100000000831062001ef8576d04ee2d6d415b85acef8100000000830492506020015b662386f26fc10000831062001f1757662386f26fc10000830492506010015b6305f5e100831062001f30576305f5e100830492506008015b612710831062001f4557612710830492506004015b6064831062001f58576064830492506002015b600a8310620004bb5760010192915050565b6118df80620026e783390190565b6001600160e01b03198116811462000e3f57600080fd5b60006020828403121562001fa257600080fd5b8135620016e28162001f78565b60005b8381101562001fcc57818101518382015260200162001fb2565b50506000910152565b6000815180845262001fef81602086016020860162001faf565b601f01601f19169290920160200192915050565b602081526000620016e2602083018462001fd5565b6000602082840312156200202b57600080fd5b5035919050565b80356001600160a01b03811681146200204a57600080fd5b919050565b600080604083850312156200206357600080fd5b6200206e8362002032565b946020939093013593505050565b6000806000606084860312156200209257600080fd5b6200209d8462002032565b9250620020ad6020850162002032565b9150604084013590509250925092565b60008060408385031215620020d157600080fd5b82359150620020e36020840162002032565b90509250929050565b600060208284031215620020ff57600080fd5b620016e28262002032565b600080604083850312156200211e57600080fd5b620021298362002032565b9150602083013580151581146200213f57600080fd5b809150509250929050565b634e487b7160e01b600052604160045260246000fd5b600067ffffffffffffffff808411156200217e576200217e6200214a565b604051601f8501601f19908116603f01168101908282118183101715620021a957620021a96200214a565b81604052809350858152868686011115620021c357600080fd5b858560208301376000602087830101525050509392505050565b60008060008060808587031215620021f457600080fd5b620021ff8562002032565b93506200220f6020860162002032565b925060408501359150606085013567ffffffffffffffff8111156200223357600080fd5b8501601f810187136200224557600080fd5b620022568782356020840162002160565b91505092959194509250565b600080604083850312156200227657600080fd5b620022818362002032565b9150602083013567ffffffffffffffff8111156200229e57600080fd5b8301601f81018513620022b057600080fd5b620022c18582356020840162002160565b9150509250929050565b60008060408385031215620022df57600080fd5b620022ea8362002032565b9150620020e36020840162002032565b600181811c908216806200230f57607f821691505b6020821081036200233057634e487b7160e01b600052602260045260246000fd5b50919050565b6020808252602d908201527f4552433732313a2063616c6c6572206973206e6f7420746f6b656e206f776e6560408201526c1c881bdc88185c1c1c9bdd9959609a1b606082015260800190565b634e487b7160e01b600052603260045260246000fd5b60208082526025908201527f4552433732313a207472616e736665722066726f6d20696e636f72726563742060408201526437bbb732b960d91b606082015260800190565b60208082526032908201527f4552433732313a207472616e7366657220746f206e6f6e20455243373231526560408201527131b2b4bb32b91034b6b83632b6b2b73a32b960711b606082015260800190565b600083516200244481846020880162001faf565b8351908301906200245a81836020880162001faf565b01949350505050565b601f821115620006a357600081815260208120601f850160051c810160208610156200248c5750805b601f850160051c820191505b81811015620024ad5782815560010162002498565b505050505050565b815167ffffffffffffffff811115620024d257620024d26200214a565b620024ea81620024e38454620022fa565b8462002463565b602080601f831160018114620025225760008415620025095750858301515b600019600386901b1c1916600185901b178555620024ad565b600085815260208120601f198616915b82811015620025535788860151825594840194600190910190840162002532565b5085821015620025725787850151600019600388901b60f8161c191681555b5050505050600190811b01905550565b7f416363657373436f6e74726f6c3a206163636f756e7420000000000000000000815260008351620025bc81601785016020880162001faf565b7001034b99036b4b9b9b4b733903937b6329607d1b6017918401918201528351620025ef81602884016020880162001faf565b01602801949350505050565b6001600160a01b0385811682528416602082015260408101839052608060608201819052600090620026309083018462001fd5565b9695505050505050565b6000602082840312156200264d57600080fd5b8151620016e28162001f78565b634e487b7160e01b600052601160045260246000fd5b8082028115828204841417620004bb57620004bb6200265a565b80820180821115620004bb57620004bb6200265a565b600081620026b257620026b26200265a565b506000190190565b81810381811115620004bb57620004bb6200265a565b634e487b7160e01b600052603160045260246000fdfe60806040523480156200001157600080fd5b50604051620018df380380620018df833981016040819052620000349162000160565b60016000908155620000479082620000ab565b620000737f03558406f9f50e902531272ecb70e789d20d2bfc86601dddeb47b87d069826ba82620000ab565b600380546001600160a01b039485166001600160a01b03199182161790915560049290925560058054919093169116179055620001a1565b620000b78282620000bb565b5050565b60008281526001602090815260408083206001600160a01b038516845290915290205460ff16620000b75760008281526001602081815260408084206001600160a01b0386168086529252808420805460ff19169093179092559051339285917f2f8788117e7eff1d82e926ec794901d17c78024a50270940304540a733656f0d9190a45050565b80516001600160a01b03811681146200015b57600080fd5b919050565b6000806000606084860312156200017657600080fd5b620001818462000143565b925060208401519150620001986040850162000143565b90509250925092565b61172e80620001b16000396000f3fe6080604052600436106100fe5760003560e01c80638da5cb5b11610095578063caf89ddb11610064578063caf89ddb146102be578063d547741f146102de578063d56d229d146102fe578063e2c41dbc1461031e578063e89e4ed61461032657600080fd5b80638da5cb5b1461023157806391d148541461026957806396572d5914610289578063a217fddf146102a957600080fd5b806336568abe116100d157806336568abe146101af5780634abac588146101cf5780634d68282f146101f1578063852ea2031461021157600080fd5b806301ffc9a71461010357806317d70f7c14610138578063248a9ca31461015c5780632f2ff15d1461018d575b600080fd5b34801561010f57600080fd5b5061012361011e3660046110a0565b610359565b60405190151581526020015b60405180910390f35b34801561014457600080fd5b5061014e60045481565b60405190815260200161012f565b34801561016857600080fd5b5061014e6101773660046110ca565b6000908152600160208190526040909120015490565b34801561019957600080fd5b506101ad6101a83660046110e3565b610390565b005b3480156101bb57600080fd5b506101ad6101ca3660046110e3565b6103bb565b3480156101db57600080fd5b5061014e6000805160206116d983398151915281565b3480156101fd57600080fd5b506101ad61020c3660046110ca565b61043e565b34801561021d57600080fd5b506101ad61022c3660046110ca565b610575565b34801561023d57600080fd5b50600554610251906001600160a01b031681565b6040516001600160a01b03909116815260200161012f565b34801561027557600080fd5b506101236102843660046110e3565b6106a1565b34801561029557600080fd5b506101ad6102a43660046112d9565b6106cc565b3480156102b557600080fd5b5061014e600081565b3480156102ca57600080fd5b506101ad6102d9366004611386565b610a80565b3480156102ea57600080fd5b506101ad6102f93660046110e3565b610b6f565b34801561030a57600080fd5b50600354610251906001600160a01b031681565b6101ad610b95565b34801561033257600080fd5b506103466103413660046110ca565b610c46565b60405161012f9796959493929190611400565b60006001600160e01b03198216637965db0b60e01b148061038a57506301ffc9a760e01b6001600160e01b03198316145b92915050565b600082815260016020819052604090912001546103ac81610db3565b6103b68383610dc0565b505050565b6001600160a01b03811633146104305760405162461bcd60e51b815260206004820152602f60248201527f416363657373436f6e74726f6c3a2063616e206f6e6c792072656e6f756e636560448201526e103937b632b9903337b91039b2b63360891b60648201526084015b60405180910390fd5b61043a8282610e2b565b5050565b6000805160206116d983398151915261045681610db3565b60006006838154811061046b5761046b611455565b60009182526020909120600690910201600181015490915060ff16801561049b57506001810154610100900460ff165b6104f35760405162461bcd60e51b8152602060048201526024808201527f4d696c6573746f6e65206e6f74207665726966696564206f7220636f6d706c656044820152633a32b21760e11b6064820152608401610427565b60055460028201546040516001600160a01b039092169181156108fc0291906000818181858888f19350505050158015610531573d6000803e3d6000fd5b50827fd66662c0ded9e58fd31d5e44944bcfd07ffc15e6927ecc1382e7941cb7bd24c4826002015460405161056891815260200190565b60405180910390a2505050565b6000805160206116d983398151915261058d81610db3565b6000600683815481106105a2576105a2611455565b9060005260206000209060060201905080600401544211156106065760405162461bcd60e51b815260206004820152601e60248201527f4d696c6573746f6e6520646561646c696e6520686173207061737365642e00006044820152606401610427565b600181015460ff161561065b5760405162461bcd60e51b815260206004820152601c60248201527f4d696c6573746f6e6520616c726561647920636f6d706c657465642e000000006044820152606401610427565b6001818101805460ff1916909117905542600382015560405183907f41f5e423c5ae79dcb8565618891e74a7a6e76232568150b33d79001a62391b1e90600090a2505050565b60009182526001602090815260408084206001600160a01b0393909316845291905290205460ff1690565b6000805160206116d98339815191526106e481610db3565b835185511480156106f6575082518451145b8015610703575081518351145b61074f5760405162461bcd60e51b815260206004820152601860248201527f4172726179206c656e67746873206d757374206d6174636800000000000000006044820152606401610427565b60005b8551811015610a7857600086828151811061076f5761076f611455565b602002602001015151116107c55760405162461bcd60e51b815260206004820152601b60248201527f4465736372697074696f6e2063616e6e6f7420626520656d70747900000000006044820152606401610427565b60008582815181106107d9576107d9611455565b60200260200101511161082e5760405162461bcd60e51b815260206004820181905260248201527f416d6f756e74206d7573742062652067726561746572207468616e207a65726f6044820152606401610427565b4284828151811061084157610841611455565b6020026020010151116108965760405162461bcd60e51b815260206004820152601e60248201527f446561646c696e65206d75737420626520696e207468652066757475726500006044820152606401610427565b60006108a160025490565b905060066040518060e001604052808985815181106108c2576108c2611455565b602002602001015181526020016000151581526020016000151581526020018885815181106108f3576108f3611455565b602002602001015181526020016000815260200187858151811061091957610919611455565b6020026020010151815260200186858151811061093857610938611455565b602090810291909101810151909152825460018101845560009384529220815191926006020190819061096b90826114eb565b506020820151600182018054604085015115156101000261ff00199315159390931661ffff1990911617919091179055606082015160028201556080820151600382015560a0820151600482015560c082015160058201906109cd90826114eb565b5050506109de600280546001019055565b807f0da0726400e7f8a48f7fe18373539f365a929d20a804c5d23ad2c389fb004d4b888481518110610a1257610a12611455565b6020026020010151878581518110610a2c57610a2c611455565b6020026020010151878681518110610a4657610a46611455565b6020026020010151604051610a5d939291906115ab565b60405180910390a25080610a70816115f6565b915050610752565b505050505050565b6000805160206116d9833981519152610a9881610db3565b600060068481548110610aad57610aad611455565b60009182526020909120600690910201600181015490915060ff16610b145760405162461bcd60e51b815260206004820152601860248201527f4d696c6573746f6e65206e6f7420636f6d706c657465642e00000000000000006044820152606401610427565b6001810180548415156101000261ff001990911617905560405184907f8092b3fa7285a4131f576e9a2baf3559d34c8231ae55bd38f68471c3c45a0d8290610b6190861515815260200190565b60405180910390a250505050565b60008281526001602081905260409091200154610b8b81610db3565b6103b68383610e2b565b6000805160206116d9833981519152610bad81610db3565b60003411610c0e5760405162461bcd60e51b815260206004820152602860248201527f4465706f73697420616d6f756e74206d7573742062652067726561746572207460448201526768616e207a65726f60c01b6064820152608401610427565b60405134815233907f543ba50a5eec5e6178218e364b1d0f396157b3c8fa278522c2cb7fd99407d4749060200160405180910390a250565b60068181548110610c5657600080fd5b9060005260206000209060060201600091509050806000018054610c799061146b565b80601f0160208091040260200160405190810160405280929190818152602001828054610ca59061146b565b8015610cf25780601f10610cc757610100808354040283529160200191610cf2565b820191906000526020600020905b815481529060010190602001808311610cd557829003601f168201915b505050506001830154600284015460038501546004860154600587018054969760ff80871698610100909704169650939492939192610d309061146b565b80601f0160208091040260200160405190810160405280929190818152602001828054610d5c9061146b565b8015610da95780601f10610d7e57610100808354040283529160200191610da9565b820191906000526020600020905b815481529060010190602001808311610d8c57829003601f168201915b5050505050905087565b610dbd8133610e92565b50565b610dca82826106a1565b61043a5760008281526001602081815260408084206001600160a01b0386168086529252808420805460ff19169093179092559051339285917f2f8788117e7eff1d82e926ec794901d17c78024a50270940304540a733656f0d9190a45050565b610e3582826106a1565b1561043a5760008281526001602090815260408083206001600160a01b0385168085529252808320805460ff1916905551339285917ff6391f5c32d9c69d2a47ea670b442974b53935d1edc7fd64eb21e047a839171b9190a45050565b610e9c82826106a1565b61043a57610ea981610eeb565b610eb4836020610efd565b604051602001610ec592919061160f565b60408051601f198184030181529082905262461bcd60e51b825261042791600401611684565b606061038a6001600160a01b03831660145b60606000610f0c836002611697565b610f179060026116ae565b67ffffffffffffffff811115610f2f57610f2f61111f565b6040519080825280601f01601f191660200182016040528015610f59576020820181803683370190505b509050600360fc1b81600081518110610f7457610f74611455565b60200101906001600160f81b031916908160001a905350600f60fb1b81600181518110610fa357610fa3611455565b60200101906001600160f81b031916908160001a9053506000610fc7846002611697565b610fd29060016116ae565b90505b600181111561104a576f181899199a1a9b1b9c1cb0b131b232b360811b85600f166010811061100657611006611455565b1a60f81b82828151811061101c5761101c611455565b60200101906001600160f81b031916908160001a90535060049490941c93611043816116c1565b9050610fd5565b5083156110995760405162461bcd60e51b815260206004820181905260248201527f537472696e67733a20686578206c656e67746820696e73756666696369656e746044820152606401610427565b9392505050565b6000602082840312156110b257600080fd5b81356001600160e01b03198116811461109957600080fd5b6000602082840312156110dc57600080fd5b5035919050565b600080604083850312156110f657600080fd5b8235915060208301356001600160a01b038116811461111457600080fd5b809150509250929050565b634e487b7160e01b600052604160045260246000fd5b604051601f8201601f1916810167ffffffffffffffff8111828210171561115e5761115e61111f565b604052919050565b600067ffffffffffffffff8211156111805761118061111f565b5060051b60200190565b6000601f838184011261119c57600080fd5b823560206111b16111ac83611166565b611135565b82815260059290921b850181019181810190878411156111d057600080fd5b8287015b8481101561126757803567ffffffffffffffff808211156111f55760008081fd5b818a0191508a603f83011261120a5760008081fd5b858201356040828211156112205761122061111f565b611231828b01601f19168901611135565b92508183528c818386010111156112485760008081fd5b81818501898501375060009082018701528452509183019183016111d4565b50979650505050505050565b600082601f83011261128457600080fd5b813560206112946111ac83611166565b82815260059290921b840181019181810190868411156112b357600080fd5b8286015b848110156112ce57803583529183019183016112b7565b509695505050505050565b600080600080608085870312156112ef57600080fd5b843567ffffffffffffffff8082111561130757600080fd5b6113138883890161118a565b9550602087013591508082111561132957600080fd5b61133588838901611273565b9450604087013591508082111561134b57600080fd5b61135788838901611273565b9350606087013591508082111561136d57600080fd5b5061137a8782880161118a565b91505092959194509250565b6000806040838503121561139957600080fd5b823591506020830135801515811461111457600080fd5b60005b838110156113cb5781810151838201526020016113b3565b50506000910152565b600081518084526113ec8160208601602086016113b0565b601f01601f19169290920160200192915050565b60e08152600061141360e083018a6113d4565b881515602084015287151560408401528660608401528560808401528460a084015282810360c084015261144781856113d4565b9a9950505050505050505050565b634e487b7160e01b600052603260045260246000fd5b600181811c9082168061147f57607f821691505b60208210810361149f57634e487b7160e01b600052602260045260246000fd5b50919050565b601f8211156103b657600081815260208120601f850160051c810160208610156114cc5750805b601f850160051c820191505b81811015610a78578281556001016114d8565b815167ffffffffffffffff8111156115055761150561111f565b61151981611513845461146b565b846114a5565b602080601f83116001811461154e57600084156115365750858301515b600019600386901b1c1916600185901b178555610a78565b600085815260208120601f198616915b8281101561157d5788860151825594840194600190910190840161155e565b508582101561159b5787850151600019600388901b60f8161c191681555b5050505050600190811b01905550565b6060815260006115be60608301866113d4565b84602084015282810360408401526115d681856113d4565b9695505050505050565b634e487b7160e01b600052601160045260246000fd5b600060018201611608576116086115e0565b5060010190565b7f416363657373436f6e74726f6c3a206163636f756e74200000000000000000008152600083516116478160178501602088016113b0565b7001034b99036b4b9b9b4b733903937b6329607d1b60179184019182015283516116788160288401602088016113b0565b01602801949350505050565b60208152600061109960208301846113d4565b808202811582820484141761038a5761038a6115e0565b8082018082111561038a5761038a6115e0565b6000816116d0576116d06115e0565b50600019019056fe03558406f9f50e902531272ecb70e789d20d2bfc86601dddeb47b87d069826baa26469706673582212205c08c8cb3023acaf8cb19bde0f8c677bb36c5dff3a7c06e5ea424029573c16dc64736f6c6343000814003303558406f9f50e902531272ecb70e789d20d2bfc86601dddeb47b87d069826baa264697066735822122099e70b371e33894ebcaa2ab8ed0eb47137c22d3dbb7616d376947a8a019f640d64736f6c63430008140033",
  "linkReferences": {},
  "deployedLinkReferences": {}
}